{
	"contracts/mainFunc.sol": {
		"mainFunc": {
			"abi": [
				{
					"inputs": [
						{
							"internalType": "string",
							"name": "name",
							"type": "string"
						},
						{
							"internalType": "string",
							"name": "symbol",
							"type": "string"
						}
					],
					"stateMutability": "nonpayable",
					"type": "constructor"
				},
				{
					"inputs": [],
					"name": "AccessControlBadConfirmation",
					"type": "error"
				},
				{
					"inputs": [
						{
							"internalType": "address",
							"name": "account",
							"type": "address"
						},
						{
							"internalType": "bytes32",
							"name": "neededRole",
							"type": "bytes32"
						}
					],
					"name": "AccessControlUnauthorizedAccount",
					"type": "error"
				},
				{
					"inputs": [
						{
							"internalType": "address",
							"name": "spender",
							"type": "address"
						},
						{
							"internalType": "uint256",
							"name": "allowance",
							"type": "uint256"
						},
						{
							"internalType": "uint256",
							"name": "needed",
							"type": "uint256"
						}
					],
					"name": "ERC20InsufficientAllowance",
					"type": "error"
				},
				{
					"inputs": [
						{
							"internalType": "address",
							"name": "sender",
							"type": "address"
						},
						{
							"internalType": "uint256",
							"name": "balance",
							"type": "uint256"
						},
						{
							"internalType": "uint256",
							"name": "needed",
							"type": "uint256"
						}
					],
					"name": "ERC20InsufficientBalance",
					"type": "error"
				},
				{
					"inputs": [
						{
							"internalType": "address",
							"name": "approver",
							"type": "address"
						}
					],
					"name": "ERC20InvalidApprover",
					"type": "error"
				},
				{
					"inputs": [
						{
							"internalType": "address",
							"name": "receiver",
							"type": "address"
						}
					],
					"name": "ERC20InvalidReceiver",
					"type": "error"
				},
				{
					"inputs": [
						{
							"internalType": "address",
							"name": "sender",
							"type": "address"
						}
					],
					"name": "ERC20InvalidSender",
					"type": "error"
				},
				{
					"inputs": [
						{
							"internalType": "address",
							"name": "spender",
							"type": "address"
						}
					],
					"name": "ERC20InvalidSpender",
					"type": "error"
				},
				{
					"inputs": [],
					"name": "EnforcedPause",
					"type": "error"
				},
				{
					"inputs": [],
					"name": "ExpectedPause",
					"type": "error"
				},
				{
					"anonymous": false,
					"inputs": [
						{
							"indexed": true,
							"internalType": "address",
							"name": "owner",
							"type": "address"
						},
						{
							"indexed": true,
							"internalType": "address",
							"name": "spender",
							"type": "address"
						},
						{
							"indexed": false,
							"internalType": "uint256",
							"name": "value",
							"type": "uint256"
						}
					],
					"name": "Approval",
					"type": "event"
				},
				{
					"anonymous": false,
					"inputs": [
						{
							"indexed": false,
							"internalType": "uint256",
							"name": "amount",
							"type": "uint256"
						}
					],
					"name": "AutoMint",
					"type": "event"
				},
				{
					"anonymous": false,
					"inputs": [
						{
							"indexed": false,
							"internalType": "address",
							"name": "account",
							"type": "address"
						}
					],
					"name": "Paused",
					"type": "event"
				},
				{
					"anonymous": false,
					"inputs": [
						{
							"indexed": true,
							"internalType": "address",
							"name": "user",
							"type": "address"
						},
						{
							"indexed": false,
							"internalType": "uint256",
							"name": "amount",
							"type": "uint256"
						}
					],
					"name": "RewardClaimed",
					"type": "event"
				},
				{
					"anonymous": false,
					"inputs": [
						{
							"indexed": true,
							"internalType": "bytes32",
							"name": "role",
							"type": "bytes32"
						},
						{
							"indexed": true,
							"internalType": "bytes32",
							"name": "previousAdminRole",
							"type": "bytes32"
						},
						{
							"indexed": true,
							"internalType": "bytes32",
							"name": "newAdminRole",
							"type": "bytes32"
						}
					],
					"name": "RoleAdminChanged",
					"type": "event"
				},
				{
					"anonymous": false,
					"inputs": [
						{
							"indexed": true,
							"internalType": "bytes32",
							"name": "role",
							"type": "bytes32"
						},
						{
							"indexed": true,
							"internalType": "address",
							"name": "account",
							"type": "address"
						},
						{
							"indexed": true,
							"internalType": "address",
							"name": "sender",
							"type": "address"
						}
					],
					"name": "RoleGranted",
					"type": "event"
				},
				{
					"anonymous": false,
					"inputs": [
						{
							"indexed": true,
							"internalType": "bytes32",
							"name": "role",
							"type": "bytes32"
						},
						{
							"indexed": true,
							"internalType": "address",
							"name": "account",
							"type": "address"
						},
						{
							"indexed": true,
							"internalType": "address",
							"name": "sender",
							"type": "address"
						}
					],
					"name": "RoleRevoked",
					"type": "event"
				},
				{
					"anonymous": false,
					"inputs": [
						{
							"indexed": true,
							"internalType": "address",
							"name": "user",
							"type": "address"
						},
						{
							"indexed": false,
							"internalType": "uint256",
							"name": "amount",
							"type": "uint256"
						}
					],
					"name": "Staked",
					"type": "event"
				},
				{
					"anonymous": false,
					"inputs": [
						{
							"indexed": true,
							"internalType": "address",
							"name": "from",
							"type": "address"
						},
						{
							"indexed": true,
							"internalType": "address",
							"name": "to",
							"type": "address"
						},
						{
							"indexed": false,
							"internalType": "uint256",
							"name": "value",
							"type": "uint256"
						}
					],
					"name": "Transfer",
					"type": "event"
				},
				{
					"anonymous": false,
					"inputs": [
						{
							"indexed": false,
							"internalType": "address",
							"name": "account",
							"type": "address"
						}
					],
					"name": "Unpaused",
					"type": "event"
				},
				{
					"anonymous": false,
					"inputs": [
						{
							"indexed": true,
							"internalType": "address",
							"name": "user",
							"type": "address"
						},
						{
							"indexed": false,
							"internalType": "uint256",
							"name": "amount",
							"type": "uint256"
						}
					],
					"name": "Withdrawn",
					"type": "event"
				},
				{
					"inputs": [],
					"name": "BURNER_ROLE",
					"outputs": [
						{
							"internalType": "bytes32",
							"name": "",
							"type": "bytes32"
						}
					],
					"stateMutability": "view",
					"type": "function"
				},
				{
					"inputs": [],
					"name": "DEFAULT_ADMIN_ROLE",
					"outputs": [
						{
							"internalType": "bytes32",
							"name": "",
							"type": "bytes32"
						}
					],
					"stateMutability": "view",
					"type": "function"
				},
				{
					"inputs": [],
					"name": "MINTER_ROLE",
					"outputs": [
						{
							"internalType": "bytes32",
							"name": "",
							"type": "bytes32"
						}
					],
					"stateMutability": "view",
					"type": "function"
				},
				{
					"inputs": [],
					"name": "PAUSER_ROLE",
					"outputs": [
						{
							"internalType": "bytes32",
							"name": "",
							"type": "bytes32"
						}
					],
					"stateMutability": "view",
					"type": "function"
				},
				{
					"inputs": [
						{
							"internalType": "address",
							"name": "owner",
							"type": "address"
						},
						{
							"internalType": "address",
							"name": "spender",
							"type": "address"
						}
					],
					"name": "allowance",
					"outputs": [
						{
							"internalType": "uint256",
							"name": "",
							"type": "uint256"
						}
					],
					"stateMutability": "view",
					"type": "function"
				},
				{
					"inputs": [
						{
							"internalType": "address",
							"name": "spender",
							"type": "address"
						},
						{
							"internalType": "uint256",
							"name": "value",
							"type": "uint256"
						}
					],
					"name": "approve",
					"outputs": [
						{
							"internalType": "bool",
							"name": "",
							"type": "bool"
						}
					],
					"stateMutability": "nonpayable",
					"type": "function"
				},
				{
					"inputs": [
						{
							"internalType": "address",
							"name": "account",
							"type": "address"
						}
					],
					"name": "balanceOf",
					"outputs": [
						{
							"internalType": "uint256",
							"name": "",
							"type": "uint256"
						}
					],
					"stateMutability": "view",
					"type": "function"
				},
				{
					"inputs": [
						{
							"internalType": "address",
							"name": "account",
							"type": "address"
						},
						{
							"internalType": "uint256",
							"name": "amount",
							"type": "uint256"
						}
					],
					"name": "burn",
					"outputs": [],
					"stateMutability": "nonpayable",
					"type": "function"
				},
				{
					"inputs": [],
					"name": "claimReward",
					"outputs": [],
					"stateMutability": "nonpayable",
					"type": "function"
				},
				{
					"inputs": [],
					"name": "decimals",
					"outputs": [
						{
							"internalType": "uint8",
							"name": "",
							"type": "uint8"
						}
					],
					"stateMutability": "view",
					"type": "function"
				},
				{
					"inputs": [],
					"name": "feePercent",
					"outputs": [
						{
							"internalType": "uint256",
							"name": "",
							"type": "uint256"
						}
					],
					"stateMutability": "view",
					"type": "function"
				},
				{
					"inputs": [
						{
							"internalType": "bytes32",
							"name": "role",
							"type": "bytes32"
						}
					],
					"name": "getRoleAdmin",
					"outputs": [
						{
							"internalType": "bytes32",
							"name": "",
							"type": "bytes32"
						}
					],
					"stateMutability": "view",
					"type": "function"
				},
				{
					"inputs": [
						{
							"internalType": "bytes32",
							"name": "role",
							"type": "bytes32"
						},
						{
							"internalType": "address",
							"name": "account",
							"type": "address"
						}
					],
					"name": "grantRole",
					"outputs": [],
					"stateMutability": "nonpayable",
					"type": "function"
				},
				{
					"inputs": [
						{
							"internalType": "bytes32",
							"name": "role",
							"type": "bytes32"
						},
						{
							"internalType": "address",
							"name": "account",
							"type": "address"
						}
					],
					"name": "hasRole",
					"outputs": [
						{
							"internalType": "bool",
							"name": "",
							"type": "bool"
						}
					],
					"stateMutability": "view",
					"type": "function"
				},
				{
					"inputs": [],
					"name": "maxStakePerUser",
					"outputs": [
						{
							"internalType": "uint256",
							"name": "",
							"type": "uint256"
						}
					],
					"stateMutability": "view",
					"type": "function"
				},
				{
					"inputs": [],
					"name": "maxSupply",
					"outputs": [
						{
							"internalType": "uint256",
							"name": "",
							"type": "uint256"
						}
					],
					"stateMutability": "view",
					"type": "function"
				},
				{
					"inputs": [
						{
							"internalType": "address",
							"name": "to",
							"type": "address"
						},
						{
							"internalType": "uint256",
							"name": "amount",
							"type": "uint256"
						}
					],
					"name": "mint",
					"outputs": [],
					"stateMutability": "nonpayable",
					"type": "function"
				},
				{
					"inputs": [
						{
							"internalType": "uint256",
							"name": "amount",
							"type": "uint256"
						}
					],
					"name": "myBurn",
					"outputs": [],
					"stateMutability": "nonpayable",
					"type": "function"
				},
				{
					"inputs": [],
					"name": "name",
					"outputs": [
						{
							"internalType": "string",
							"name": "",
							"type": "string"
						}
					],
					"stateMutability": "view",
					"type": "function"
				},
				{
					"inputs": [],
					"name": "paused",
					"outputs": [
						{
							"internalType": "bool",
							"name": "",
							"type": "bool"
						}
					],
					"stateMutability": "view",
					"type": "function"
				},
				{
					"inputs": [
						{
							"internalType": "address",
							"name": "user",
							"type": "address"
						}
					],
					"name": "pendingReward",
					"outputs": [
						{
							"internalType": "uint256",
							"name": "",
							"type": "uint256"
						}
					],
					"stateMutability": "view",
					"type": "function"
				},
				{
					"inputs": [
						{
							"internalType": "bytes32",
							"name": "role",
							"type": "bytes32"
						},
						{
							"internalType": "address",
							"name": "callerConfirmation",
							"type": "address"
						}
					],
					"name": "renounceRole",
					"outputs": [],
					"stateMutability": "nonpayable",
					"type": "function"
				},
				{
					"inputs": [
						{
							"internalType": "bytes32",
							"name": "role",
							"type": "bytes32"
						},
						{
							"internalType": "address",
							"name": "account",
							"type": "address"
						}
					],
					"name": "revokeRole",
					"outputs": [],
					"stateMutability": "nonpayable",
					"type": "function"
				},
				{
					"inputs": [],
					"name": "rewardRatePerHour",
					"outputs": [
						{
							"internalType": "uint256",
							"name": "",
							"type": "uint256"
						}
					],
					"stateMutability": "view",
					"type": "function"
				},
				{
					"inputs": [
						{
							"internalType": "address",
							"name": "",
							"type": "address"
						}
					],
					"name": "rewards",
					"outputs": [
						{
							"internalType": "uint256",
							"name": "",
							"type": "uint256"
						}
					],
					"stateMutability": "view",
					"type": "function"
				},
				{
					"inputs": [
						{
							"internalType": "uint256",
							"name": "amount",
							"type": "uint256"
						}
					],
					"name": "stake",
					"outputs": [],
					"stateMutability": "nonpayable",
					"type": "function"
				},
				{
					"inputs": [
						{
							"internalType": "address",
							"name": "",
							"type": "address"
						}
					],
					"name": "stakeTimestamps",
					"outputs": [
						{
							"internalType": "uint256",
							"name": "",
							"type": "uint256"
						}
					],
					"stateMutability": "view",
					"type": "function"
				},
				{
					"inputs": [
						{
							"internalType": "address",
							"name": "",
							"type": "address"
						}
					],
					"name": "stakes",
					"outputs": [
						{
							"internalType": "uint256",
							"name": "",
							"type": "uint256"
						}
					],
					"stateMutability": "view",
					"type": "function"
				},
				{
					"inputs": [
						{
							"internalType": "bytes4",
							"name": "interfaceId",
							"type": "bytes4"
						}
					],
					"name": "supportsInterface",
					"outputs": [
						{
							"internalType": "bool",
							"name": "",
							"type": "bool"
						}
					],
					"stateMutability": "view",
					"type": "function"
				},
				{
					"inputs": [],
					"name": "symbol",
					"outputs": [
						{
							"internalType": "string",
							"name": "",
							"type": "string"
						}
					],
					"stateMutability": "view",
					"type": "function"
				},
				{
					"inputs": [],
					"name": "totalSupply",
					"outputs": [
						{
							"internalType": "uint256",
							"name": "",
							"type": "uint256"
						}
					],
					"stateMutability": "view",
					"type": "function"
				},
				{
					"inputs": [
						{
							"internalType": "address",
							"name": "recipient",
							"type": "address"
						},
						{
							"internalType": "uint256",
							"name": "amount",
							"type": "uint256"
						}
					],
					"name": "transfer",
					"outputs": [
						{
							"internalType": "bool",
							"name": "",
							"type": "bool"
						}
					],
					"stateMutability": "nonpayable",
					"type": "function"
				},
				{
					"inputs": [
						{
							"internalType": "address",
							"name": "sender",
							"type": "address"
						},
						{
							"internalType": "address",
							"name": "recipient",
							"type": "address"
						},
						{
							"internalType": "uint256",
							"name": "amount",
							"type": "uint256"
						}
					],
					"name": "transferFrom",
					"outputs": [
						{
							"internalType": "bool",
							"name": "",
							"type": "bool"
						}
					],
					"stateMutability": "nonpayable",
					"type": "function"
				},
				{
					"inputs": [
						{
							"internalType": "uint256",
							"name": "amount",
							"type": "uint256"
						}
					],
					"name": "withdrawStake",
					"outputs": [],
					"stateMutability": "nonpayable",
					"type": "function"
				}
			],
			"devdoc": {
				"errors": {
					"AccessControlBadConfirmation()": [
						{
							"details": "The caller of a function is not the expected one. NOTE: Don't confuse with {AccessControlUnauthorizedAccount}."
						}
					],
					"AccessControlUnauthorizedAccount(address,bytes32)": [
						{
							"details": "The `account` is missing a role."
						}
					],
					"ERC20InsufficientAllowance(address,uint256,uint256)": [
						{
							"details": "Indicates a failure with the `spender`’s `allowance`. Used in transfers.",
							"params": {
								"allowance": "Amount of tokens a `spender` is allowed to operate with.",
								"needed": "Minimum amount required to perform a transfer.",
								"spender": "Address that may be allowed to operate on tokens without being their owner."
							}
						}
					],
					"ERC20InsufficientBalance(address,uint256,uint256)": [
						{
							"details": "Indicates an error related to the current `balance` of a `sender`. Used in transfers.",
							"params": {
								"balance": "Current balance for the interacting account.",
								"needed": "Minimum amount required to perform a transfer.",
								"sender": "Address whose tokens are being transferred."
							}
						}
					],
					"ERC20InvalidApprover(address)": [
						{
							"details": "Indicates a failure with the `approver` of a token to be approved. Used in approvals.",
							"params": {
								"approver": "Address initiating an approval operation."
							}
						}
					],
					"ERC20InvalidReceiver(address)": [
						{
							"details": "Indicates a failure with the token `receiver`. Used in transfers.",
							"params": {
								"receiver": "Address to which tokens are being transferred."
							}
						}
					],
					"ERC20InvalidSender(address)": [
						{
							"details": "Indicates a failure with the token `sender`. Used in transfers.",
							"params": {
								"sender": "Address whose tokens are being transferred."
							}
						}
					],
					"ERC20InvalidSpender(address)": [
						{
							"details": "Indicates a failure with the `spender` to be approved. Used in approvals.",
							"params": {
								"spender": "Address that may be allowed to operate on tokens without being their owner."
							}
						}
					],
					"EnforcedPause()": [
						{
							"details": "The operation failed because the contract is paused."
						}
					],
					"ExpectedPause()": [
						{
							"details": "The operation failed because the contract is not paused."
						}
					]
				},
				"events": {
					"Approval(address,address,uint256)": {
						"details": "Emitted when the allowance of a `spender` for an `owner` is set by a call to {approve}. `value` is the new allowance."
					},
					"Paused(address)": {
						"details": "Emitted when the pause is triggered by `account`."
					},
					"RoleAdminChanged(bytes32,bytes32,bytes32)": {
						"details": "Emitted when `newAdminRole` is set as ``role``'s admin role, replacing `previousAdminRole` `DEFAULT_ADMIN_ROLE` is the starting admin for all roles, despite {RoleAdminChanged} not being emitted to signal this."
					},
					"RoleGranted(bytes32,address,address)": {
						"details": "Emitted when `account` is granted `role`. `sender` is the account that originated the contract call. This account bears the admin role (for the granted role). Expected in cases where the role was granted using the internal {AccessControl-_grantRole}."
					},
					"RoleRevoked(bytes32,address,address)": {
						"details": "Emitted when `account` is revoked `role`. `sender` is the account that originated the contract call:   - if using `revokeRole`, it is the admin role bearer   - if using `renounceRole`, it is the role bearer (i.e. `account`)"
					},
					"Transfer(address,address,uint256)": {
						"details": "Emitted when `value` tokens are moved from one account (`from`) to another (`to`). Note that `value` may be zero."
					},
					"Unpaused(address)": {
						"details": "Emitted when the pause is lifted by `account`."
					}
				},
				"kind": "dev",
				"methods": {
					"allowance(address,address)": {
						"details": "Returns the remaining number of tokens that `spender` will be allowed to spend on behalf of `owner` through {transferFrom}. This is zero by default. This value changes when {approve} or {transferFrom} are called."
					},
					"approve(address,uint256)": {
						"details": "See {IERC20-approve}. NOTE: If `value` is the maximum `uint256`, the allowance is not updated on `transferFrom`. This is semantically equivalent to an infinite approval. Requirements: - `spender` cannot be the zero address."
					},
					"balanceOf(address)": {
						"details": "Returns the value of tokens owned by `account`."
					},
					"decimals()": {
						"details": "Returns the number of decimals used to get its user representation. For example, if `decimals` equals `2`, a balance of `505` tokens should be displayed to a user as `5.05` (`505 / 10 ** 2`). Tokens usually opt for a value of 18, imitating the relationship between Ether and Wei. This is the default value returned by this function, unless it's overridden. NOTE: This information is only used for _display_ purposes: it in no way affects any of the arithmetic of the contract, including {IERC20-balanceOf} and {IERC20-transfer}."
					},
					"getRoleAdmin(bytes32)": {
						"details": "Returns the admin role that controls `role`. See {grantRole} and {revokeRole}. To change a role's admin, use {_setRoleAdmin}."
					},
					"grantRole(bytes32,address)": {
						"details": "Grants `role` to `account`. If `account` had not been already granted `role`, emits a {RoleGranted} event. Requirements: - the caller must have ``role``'s admin role. May emit a {RoleGranted} event."
					},
					"hasRole(bytes32,address)": {
						"details": "Returns `true` if `account` has been granted `role`."
					},
					"name()": {
						"details": "Returns the name of the token."
					},
					"paused()": {
						"details": "Returns true if the contract is paused, and false otherwise."
					},
					"renounceRole(bytes32,address)": {
						"details": "Revokes `role` from the calling account. Roles are often managed via {grantRole} and {revokeRole}: this function's purpose is to provide a mechanism for accounts to lose their privileges if they are compromised (such as when a trusted device is misplaced). If the calling account had been revoked `role`, emits a {RoleRevoked} event. Requirements: - the caller must be `callerConfirmation`. May emit a {RoleRevoked} event."
					},
					"revokeRole(bytes32,address)": {
						"details": "Revokes `role` from `account`. If `account` had been granted `role`, emits a {RoleRevoked} event. Requirements: - the caller must have ``role``'s admin role. May emit a {RoleRevoked} event."
					},
					"supportsInterface(bytes4)": {
						"details": "Returns true if this contract implements the interface defined by `interfaceId`. See the corresponding https://eips.ethereum.org/EIPS/eip-165#how-interfaces-are-identified[ERC section] to learn more about how these ids are created. This function call must use less than 30 000 gas."
					},
					"symbol()": {
						"details": "Returns the symbol of the token, usually a shorter version of the name."
					},
					"totalSupply()": {
						"details": "Returns the value of tokens in existence."
					}
				},
				"version": 1
			},
			"evm": {
				"assembly": "    /* \"contracts/mainFunc.sol\":324:6599  contract mainFunc is ERC20Pausable, AccessControl... */\n  mstore(0x40, 0x80)\n    /* \"contracts/mainFunc.sol\":410:411  1 */\n  0x01\n    /* \"contracts/mainFunc.sol\":382:411  uint256 public feePercent = 1 */\n  0x07\n  sstore\n    /* \"contracts/mainFunc.sol\":446:456  1e6 * 1e18 */\n  0xd3c21bcecceda1000000\n    /* \"contracts/mainFunc.sol\":418:456  uint256 public  maxSupply = 1e6 * 1e18 */\n  0x08\n  sstore\n    /* \"contracts/mainFunc.sol\":812:814  10 */\n  0x0a\n    /* \"contracts/mainFunc.sol\":777:814  uint256 public rewardRatePerHour = 10 */\n  0x0b\n  sstore\n    /* \"contracts/mainFunc.sol\":854:866  10000 * 1e18 */\n  0x021e19e0c9bab2400000\n    /* \"contracts/mainFunc.sol\":821:866  uint256 public maxStakePerUser = 10000 * 1e18 */\n  0x0c\n  sstore\n    /* \"contracts/mainFunc.sol\":1178:1259  constructor(string memory name, string memory symbol) ERC20(name,symbol) ... */\n  callvalue\n  dup1\n  iszero\n  tag_1\n  jumpi\n  revert(0x00, 0x00)\ntag_1:\n  pop\n  mload(0x40)\n  sub(codesize, bytecodeSize)\n  dup1\n  bytecodeSize\n  dup4\n  codecopy\n  dup2\n  dup2\n  add\n  0x40\n  mstore\n  dup2\n  add\n  swap1\n  tag_2\n  swap2\n  swap1\n  tag_3\n  jump\t// in\ntag_2:\n    /* \"contracts/mainFunc.sol\":1238:1242  name */\n  dup2\n    /* \"contracts/mainFunc.sol\":1243:1249  symbol */\n  dup2\n    /* \"@openzeppelin/contracts/token/ERC20/ERC20.sol\":1656:1661  name_ */\n  dup2\n    /* \"@openzeppelin/contracts/token/ERC20/ERC20.sol\":1648:1653  _name */\n  0x03\n    /* \"@openzeppelin/contracts/token/ERC20/ERC20.sol\":1648:1661  _name = name_ */\n  swap1\n  dup2\n  tag_7\n  swap2\n  swap1\n  tag_8\n  jump\t// in\ntag_7:\n  pop\n    /* \"@openzeppelin/contracts/token/ERC20/ERC20.sol\":1681:1688  symbol_ */\n  dup1\n    /* \"@openzeppelin/contracts/token/ERC20/ERC20.sol\":1671:1678  _symbol */\n  0x04\n    /* \"@openzeppelin/contracts/token/ERC20/ERC20.sol\":1671:1688  _symbol = symbol_ */\n  swap1\n  dup2\n  tag_9\n  swap2\n  swap1\n  tag_8\n  jump\t// in\ntag_9:\n  pop\n    /* \"@openzeppelin/contracts/token/ERC20/ERC20.sol\":1582:1695  constructor(string memory name_, string memory symbol_) {... */\n  pop\n  pop\n    /* \"contracts/mainFunc.sol\":1178:1259  constructor(string memory name, string memory symbol) ERC20(name,symbol) ... */\n  pop\n  pop\n    /* \"contracts/mainFunc.sol\":324:6599  contract mainFunc is ERC20Pausable, AccessControl... */\n  jump(tag_11)\n    /* \"#utility.yul\":7:82   */\ntag_12:\n    /* \"#utility.yul\":40:46   */\n  0x00\n    /* \"#utility.yul\":73:75   */\n  0x40\n    /* \"#utility.yul\":67:76   */\n  mload\n    /* \"#utility.yul\":57:76   */\n  swap1\n  pop\n    /* \"#utility.yul\":7:82   */\n  swap1\n  jump\t// out\n    /* \"#utility.yul\":88:205   */\ntag_13:\n    /* \"#utility.yul\":197:198   */\n  0x00\n    /* \"#utility.yul\":194:195   */\n  0x00\n    /* \"#utility.yul\":187:199   */\n  revert\n    /* \"#utility.yul\":211:328   */\ntag_14:\n    /* \"#utility.yul\":320:321   */\n  0x00\n    /* \"#utility.yul\":317:318   */\n  0x00\n    /* \"#utility.yul\":310:322   */\n  revert\n    /* \"#utility.yul\":334:451   */\ntag_15:\n    /* \"#utility.yul\":443:444   */\n  0x00\n    /* \"#utility.yul\":440:441   */\n  0x00\n    /* \"#utility.yul\":433:445   */\n  revert\n    /* \"#utility.yul\":457:574   */\ntag_16:\n    /* \"#utility.yul\":566:567   */\n  0x00\n    /* \"#utility.yul\":563:564   */\n  0x00\n    /* \"#utility.yul\":556:568   */\n  revert\n    /* \"#utility.yul\":580:682   */\ntag_17:\n    /* \"#utility.yul\":621:627   */\n  0x00\n    /* \"#utility.yul\":672:674   */\n  0x1f\n    /* \"#utility.yul\":668:675   */\n  not\n    /* \"#utility.yul\":663:665   */\n  0x1f\n    /* \"#utility.yul\":656:661   */\n  dup4\n    /* \"#utility.yul\":652:666   */\n  add\n    /* \"#utility.yul\":648:676   */\n  and\n    /* \"#utility.yul\":638:676   */\n  swap1\n  pop\n    /* \"#utility.yul\":580:682   */\n  swap2\n  swap1\n  pop\n  jump\t// out\n    /* \"#utility.yul\":688:868   */\ntag_18:\n    /* \"#utility.yul\":736:813   */\n  0x4e487b7100000000000000000000000000000000000000000000000000000000\n    /* \"#utility.yul\":733:734   */\n  0x00\n    /* \"#utility.yul\":726:814   */\n  mstore\n    /* \"#utility.yul\":833:837   */\n  0x41\n    /* \"#utility.yul\":830:831   */\n  0x04\n    /* \"#utility.yul\":823:838   */\n  mstore\n    /* \"#utility.yul\":857:861   */\n  0x24\n    /* \"#utility.yul\":854:855   */\n  0x00\n    /* \"#utility.yul\":847:862   */\n  revert\n    /* \"#utility.yul\":874:1155   */\ntag_19:\n    /* \"#utility.yul\":957:984   */\n  tag_53\n    /* \"#utility.yul\":979:983   */\n  dup3\n    /* \"#utility.yul\":957:984   */\n  tag_17\n  jump\t// in\ntag_53:\n    /* \"#utility.yul\":949:955   */\n  dup2\n    /* \"#utility.yul\":945:985   */\n  add\n    /* \"#utility.yul\":1087:1093   */\n  dup2\n    /* \"#utility.yul\":1075:1085   */\n  dup2\n    /* \"#utility.yul\":1072:1094   */\n  lt\n    /* \"#utility.yul\":1051:1069   */\n  0xffffffffffffffff\n    /* \"#utility.yul\":1039:1049   */\n  dup3\n    /* \"#utility.yul\":1036:1070   */\n  gt\n    /* \"#utility.yul\":1033:1095   */\n  or\n    /* \"#utility.yul\":1030:1118   */\n  iszero\n  tag_54\n  jumpi\n    /* \"#utility.yul\":1098:1116   */\n  tag_55\n  tag_18\n  jump\t// in\ntag_55:\n    /* \"#utility.yul\":1030:1118   */\ntag_54:\n    /* \"#utility.yul\":1138:1148   */\n  dup1\n    /* \"#utility.yul\":1134:1136   */\n  0x40\n    /* \"#utility.yul\":1127:1149   */\n  mstore\n    /* \"#utility.yul\":917:1155   */\n  pop\n    /* \"#utility.yul\":874:1155   */\n  pop\n  pop\n  jump\t// out\n    /* \"#utility.yul\":1161:1290   */\ntag_20:\n    /* \"#utility.yul\":1195:1201   */\n  0x00\n    /* \"#utility.yul\":1222:1242   */\n  tag_57\n  tag_12\n  jump\t// in\ntag_57:\n    /* \"#utility.yul\":1212:1242   */\n  swap1\n  pop\n    /* \"#utility.yul\":1251:1284   */\n  tag_58\n    /* \"#utility.yul\":1279:1283   */\n  dup3\n    /* \"#utility.yul\":1271:1277   */\n  dup3\n    /* \"#utility.yul\":1251:1284   */\n  tag_19\n  jump\t// in\ntag_58:\n    /* \"#utility.yul\":1161:1290   */\n  swap2\n  swap1\n  pop\n  jump\t// out\n    /* \"#utility.yul\":1296:1604   */\ntag_21:\n    /* \"#utility.yul\":1358:1362   */\n  0x00\n    /* \"#utility.yul\":1448:1466   */\n  0xffffffffffffffff\n    /* \"#utility.yul\":1440:1446   */\n  dup3\n    /* \"#utility.yul\":1437:1467   */\n  gt\n    /* \"#utility.yul\":1434:1490   */\n  iszero\n  tag_60\n  jumpi\n    /* \"#utility.yul\":1470:1488   */\n  tag_61\n  tag_18\n  jump\t// in\ntag_61:\n    /* \"#utility.yul\":1434:1490   */\ntag_60:\n    /* \"#utility.yul\":1508:1537   */\n  tag_62\n    /* \"#utility.yul\":1530:1536   */\n  dup3\n    /* \"#utility.yul\":1508:1537   */\n  tag_17\n  jump\t// in\ntag_62:\n    /* \"#utility.yul\":1500:1537   */\n  swap1\n  pop\n    /* \"#utility.yul\":1592:1596   */\n  0x20\n    /* \"#utility.yul\":1586:1590   */\n  dup2\n    /* \"#utility.yul\":1582:1597   */\n  add\n    /* \"#utility.yul\":1574:1597   */\n  swap1\n  pop\n    /* \"#utility.yul\":1296:1604   */\n  swap2\n  swap1\n  pop\n  jump\t// out\n    /* \"#utility.yul\":1610:1749   */\ntag_22:\n    /* \"#utility.yul\":1699:1705   */\n  dup3\n    /* \"#utility.yul\":1694:1697   */\n  dup2\n    /* \"#utility.yul\":1689:1692   */\n  dup4\n    /* \"#utility.yul\":1683:1706   */\n  mcopy\n    /* \"#utility.yul\":1740:1741   */\n  0x00\n    /* \"#utility.yul\":1731:1737   */\n  dup4\n    /* \"#utility.yul\":1726:1729   */\n  dup4\n    /* \"#utility.yul\":1722:1738   */\n  add\n    /* \"#utility.yul\":1715:1742   */\n  mstore\n    /* \"#utility.yul\":1610:1749   */\n  pop\n  pop\n  pop\n  jump\t// out\n    /* \"#utility.yul\":1755:2189   */\ntag_23:\n    /* \"#utility.yul\":1844:1849   */\n  0x00\n    /* \"#utility.yul\":1869:1935   */\n  tag_65\n    /* \"#utility.yul\":1885:1934   */\n  tag_66\n    /* \"#utility.yul\":1927:1933   */\n  dup5\n    /* \"#utility.yul\":1885:1934   */\n  tag_21\n  jump\t// in\ntag_66:\n    /* \"#utility.yul\":1869:1935   */\n  tag_20\n  jump\t// in\ntag_65:\n    /* \"#utility.yul\":1860:1935   */\n  swap1\n  pop\n    /* \"#utility.yul\":1958:1964   */\n  dup3\n    /* \"#utility.yul\":1951:1956   */\n  dup2\n    /* \"#utility.yul\":1944:1965   */\n  mstore\n    /* \"#utility.yul\":1996:2000   */\n  0x20\n    /* \"#utility.yul\":1989:1994   */\n  dup2\n    /* \"#utility.yul\":1985:2001   */\n  add\n    /* \"#utility.yul\":2034:2037   */\n  dup5\n    /* \"#utility.yul\":2025:2031   */\n  dup5\n    /* \"#utility.yul\":2020:2023   */\n  dup5\n    /* \"#utility.yul\":2016:2032   */\n  add\n    /* \"#utility.yul\":2013:2038   */\n  gt\n    /* \"#utility.yul\":2010:2122   */\n  iszero\n  tag_67\n  jumpi\n    /* \"#utility.yul\":2041:2120   */\n  tag_68\n  tag_16\n  jump\t// in\ntag_68:\n    /* \"#utility.yul\":2010:2122   */\ntag_67:\n    /* \"#utility.yul\":2131:2183   */\n  tag_69\n    /* \"#utility.yul\":2176:2182   */\n  dup5\n    /* \"#utility.yul\":2171:2174   */\n  dup3\n    /* \"#utility.yul\":2166:2169   */\n  dup6\n    /* \"#utility.yul\":2131:2183   */\n  tag_22\n  jump\t// in\ntag_69:\n    /* \"#utility.yul\":1850:2189   */\n  pop\n    /* \"#utility.yul\":1755:2189   */\n  swap4\n  swap3\n  pop\n  pop\n  pop\n  jump\t// out\n    /* \"#utility.yul\":2209:2564   */\ntag_24:\n    /* \"#utility.yul\":2276:2281   */\n  0x00\n    /* \"#utility.yul\":2325:2328   */\n  dup3\n    /* \"#utility.yul\":2318:2322   */\n  0x1f\n    /* \"#utility.yul\":2310:2316   */\n  dup4\n    /* \"#utility.yul\":2306:2323   */\n  add\n    /* \"#utility.yul\":2302:2329   */\n  slt\n    /* \"#utility.yul\":2292:2414   */\n  tag_71\n  jumpi\n    /* \"#utility.yul\":2333:2412   */\n  tag_72\n  tag_15\n  jump\t// in\ntag_72:\n    /* \"#utility.yul\":2292:2414   */\ntag_71:\n    /* \"#utility.yul\":2443:2449   */\n  dup2\n    /* \"#utility.yul\":2437:2450   */\n  mload\n    /* \"#utility.yul\":2468:2558   */\n  tag_73\n    /* \"#utility.yul\":2554:2557   */\n  dup5\n    /* \"#utility.yul\":2546:2552   */\n  dup3\n    /* \"#utility.yul\":2539:2543   */\n  0x20\n    /* \"#utility.yul\":2531:2537   */\n  dup7\n    /* \"#utility.yul\":2527:2544   */\n  add\n    /* \"#utility.yul\":2468:2558   */\n  tag_23\n  jump\t// in\ntag_73:\n    /* \"#utility.yul\":2459:2558   */\n  swap2\n  pop\n    /* \"#utility.yul\":2282:2564   */\n  pop\n    /* \"#utility.yul\":2209:2564   */\n  swap3\n  swap2\n  pop\n  pop\n  jump\t// out\n    /* \"#utility.yul\":2570:3423   */\ntag_3:\n    /* \"#utility.yul\":2669:2675   */\n  0x00\n    /* \"#utility.yul\":2677:2683   */\n  0x00\n    /* \"#utility.yul\":2726:2728   */\n  0x40\n    /* \"#utility.yul\":2714:2723   */\n  dup4\n    /* \"#utility.yul\":2705:2712   */\n  dup6\n    /* \"#utility.yul\":2701:2724   */\n  sub\n    /* \"#utility.yul\":2697:2729   */\n  slt\n    /* \"#utility.yul\":2694:2813   */\n  iszero\n  tag_75\n  jumpi\n    /* \"#utility.yul\":2732:2811   */\n  tag_76\n  tag_13\n  jump\t// in\ntag_76:\n    /* \"#utility.yul\":2694:2813   */\ntag_75:\n    /* \"#utility.yul\":2873:2874   */\n  0x00\n    /* \"#utility.yul\":2862:2871   */\n  dup4\n    /* \"#utility.yul\":2858:2875   */\n  add\n    /* \"#utility.yul\":2852:2876   */\n  mload\n    /* \"#utility.yul\":2903:2921   */\n  0xffffffffffffffff\n    /* \"#utility.yul\":2895:2901   */\n  dup2\n    /* \"#utility.yul\":2892:2922   */\n  gt\n    /* \"#utility.yul\":2889:3006   */\n  iszero\n  tag_77\n  jumpi\n    /* \"#utility.yul\":2925:3004   */\n  tag_78\n  tag_14\n  jump\t// in\ntag_78:\n    /* \"#utility.yul\":2889:3006   */\ntag_77:\n    /* \"#utility.yul\":3030:3104   */\n  tag_79\n    /* \"#utility.yul\":3096:3103   */\n  dup6\n    /* \"#utility.yul\":3087:3093   */\n  dup3\n    /* \"#utility.yul\":3076:3085   */\n  dup7\n    /* \"#utility.yul\":3072:3094   */\n  add\n    /* \"#utility.yul\":3030:3104   */\n  tag_24\n  jump\t// in\ntag_79:\n    /* \"#utility.yul\":3020:3104   */\n  swap3\n  pop\n    /* \"#utility.yul\":2823:3114   */\n  pop\n    /* \"#utility.yul\":3174:3176   */\n  0x20\n    /* \"#utility.yul\":3163:3172   */\n  dup4\n    /* \"#utility.yul\":3159:3177   */\n  add\n    /* \"#utility.yul\":3153:3178   */\n  mload\n    /* \"#utility.yul\":3205:3223   */\n  0xffffffffffffffff\n    /* \"#utility.yul\":3197:3203   */\n  dup2\n    /* \"#utility.yul\":3194:3224   */\n  gt\n    /* \"#utility.yul\":3191:3308   */\n  iszero\n  tag_80\n  jumpi\n    /* \"#utility.yul\":3227:3306   */\n  tag_81\n  tag_14\n  jump\t// in\ntag_81:\n    /* \"#utility.yul\":3191:3308   */\ntag_80:\n    /* \"#utility.yul\":3332:3406   */\n  tag_82\n    /* \"#utility.yul\":3398:3405   */\n  dup6\n    /* \"#utility.yul\":3389:3395   */\n  dup3\n    /* \"#utility.yul\":3378:3387   */\n  dup7\n    /* \"#utility.yul\":3374:3396   */\n  add\n    /* \"#utility.yul\":3332:3406   */\n  tag_24\n  jump\t// in\ntag_82:\n    /* \"#utility.yul\":3322:3406   */\n  swap2\n  pop\n    /* \"#utility.yul\":3124:3416   */\n  pop\n    /* \"#utility.yul\":2570:3423   */\n  swap3\n  pop\n  swap3\n  swap1\n  pop\n  jump\t// out\n    /* \"#utility.yul\":3429:3528   */\ntag_25:\n    /* \"#utility.yul\":3481:3487   */\n  0x00\n    /* \"#utility.yul\":3515:3520   */\n  dup2\n    /* \"#utility.yul\":3509:3521   */\n  mload\n    /* \"#utility.yul\":3499:3521   */\n  swap1\n  pop\n    /* \"#utility.yul\":3429:3528   */\n  swap2\n  swap1\n  pop\n  jump\t// out\n    /* \"#utility.yul\":3534:3714   */\ntag_26:\n    /* \"#utility.yul\":3582:3659   */\n  0x4e487b7100000000000000000000000000000000000000000000000000000000\n    /* \"#utility.yul\":3579:3580   */\n  0x00\n    /* \"#utility.yul\":3572:3660   */\n  mstore\n    /* \"#utility.yul\":3679:3683   */\n  0x22\n    /* \"#utility.yul\":3676:3677   */\n  0x04\n    /* \"#utility.yul\":3669:3684   */\n  mstore\n    /* \"#utility.yul\":3703:3707   */\n  0x24\n    /* \"#utility.yul\":3700:3701   */\n  0x00\n    /* \"#utility.yul\":3693:3708   */\n  revert\n    /* \"#utility.yul\":3720:4040   */\ntag_27:\n    /* \"#utility.yul\":3764:3770   */\n  0x00\n    /* \"#utility.yul\":3801:3802   */\n  0x02\n    /* \"#utility.yul\":3795:3799   */\n  dup3\n    /* \"#utility.yul\":3791:3803   */\n  div\n    /* \"#utility.yul\":3781:3803   */\n  swap1\n  pop\n    /* \"#utility.yul\":3848:3849   */\n  0x01\n    /* \"#utility.yul\":3842:3846   */\n  dup3\n    /* \"#utility.yul\":3838:3850   */\n  and\n    /* \"#utility.yul\":3869:3887   */\n  dup1\n    /* \"#utility.yul\":3859:3940   */\n  tag_86\n  jumpi\n    /* \"#utility.yul\":3925:3929   */\n  0x7f\n    /* \"#utility.yul\":3917:3923   */\n  dup3\n    /* \"#utility.yul\":3913:3930   */\n  and\n    /* \"#utility.yul\":3903:3930   */\n  swap2\n  pop\n    /* \"#utility.yul\":3859:3940   */\ntag_86:\n    /* \"#utility.yul\":3987:3989   */\n  0x20\n    /* \"#utility.yul\":3979:3985   */\n  dup3\n    /* \"#utility.yul\":3976:3990   */\n  lt\n    /* \"#utility.yul\":3956:3974   */\n  dup2\n    /* \"#utility.yul\":3953:3991   */\n  sub\n    /* \"#utility.yul\":3950:4034   */\n  tag_87\n  jumpi\n    /* \"#utility.yul\":4006:4024   */\n  tag_88\n  tag_26\n  jump\t// in\ntag_88:\n    /* \"#utility.yul\":3950:4034   */\ntag_87:\n    /* \"#utility.yul\":3771:4040   */\n  pop\n    /* \"#utility.yul\":3720:4040   */\n  swap2\n  swap1\n  pop\n  jump\t// out\n    /* \"#utility.yul\":4046:4187   */\ntag_28:\n    /* \"#utility.yul\":4095:4099   */\n  0x00\n    /* \"#utility.yul\":4118:4121   */\n  dup2\n    /* \"#utility.yul\":4110:4121   */\n  swap1\n  pop\n    /* \"#utility.yul\":4141:4144   */\n  dup2\n    /* \"#utility.yul\":4138:4139   */\n  0x00\n    /* \"#utility.yul\":4131:4145   */\n  mstore\n    /* \"#utility.yul\":4175:4179   */\n  0x20\n    /* \"#utility.yul\":4172:4173   */\n  0x00\n    /* \"#utility.yul\":4162:4180   */\n  keccak256\n    /* \"#utility.yul\":4154:4180   */\n  swap1\n  pop\n    /* \"#utility.yul\":4046:4187   */\n  swap2\n  swap1\n  pop\n  jump\t// out\n    /* \"#utility.yul\":4193:4286   */\ntag_29:\n    /* \"#utility.yul\":4230:4236   */\n  0x00\n    /* \"#utility.yul\":4277:4279   */\n  0x20\n    /* \"#utility.yul\":4272:4274   */\n  0x1f\n    /* \"#utility.yul\":4265:4270   */\n  dup4\n    /* \"#utility.yul\":4261:4275   */\n  add\n    /* \"#utility.yul\":4257:4280   */\n  div\n    /* \"#utility.yul\":4247:4280   */\n  swap1\n  pop\n    /* \"#utility.yul\":4193:4286   */\n  swap2\n  swap1\n  pop\n  jump\t// out\n    /* \"#utility.yul\":4292:4399   */\ntag_30:\n    /* \"#utility.yul\":4336:4344   */\n  0x00\n    /* \"#utility.yul\":4386:4391   */\n  dup3\n    /* \"#utility.yul\":4380:4384   */\n  dup3\n    /* \"#utility.yul\":4376:4392   */\n  shl\n    /* \"#utility.yul\":4355:4392   */\n  swap1\n  pop\n    /* \"#utility.yul\":4292:4399   */\n  swap3\n  swap2\n  pop\n  pop\n  jump\t// out\n    /* \"#utility.yul\":4405:4798   */\ntag_31:\n    /* \"#utility.yul\":4474:4480   */\n  0x00\n    /* \"#utility.yul\":4524:4525   */\n  0x08\n    /* \"#utility.yul\":4512:4522   */\n  dup4\n    /* \"#utility.yul\":4508:4526   */\n  mul\n    /* \"#utility.yul\":4547:4644   */\n  tag_93\n    /* \"#utility.yul\":4577:4643   */\n  0xffffffffffffffffffffffffffffffffffffffffffffffffffffffffffffffff\n    /* \"#utility.yul\":4566:4575   */\n  dup3\n    /* \"#utility.yul\":4547:4644   */\n  tag_30\n  jump\t// in\ntag_93:\n    /* \"#utility.yul\":4665:4704   */\n  tag_94\n    /* \"#utility.yul\":4695:4703   */\n  dup7\n    /* \"#utility.yul\":4684:4693   */\n  dup4\n    /* \"#utility.yul\":4665:4704   */\n  tag_30\n  jump\t// in\ntag_94:\n    /* \"#utility.yul\":4653:4704   */\n  swap6\n  pop\n    /* \"#utility.yul\":4737:4741   */\n  dup1\n    /* \"#utility.yul\":4733:4742   */\n  not\n    /* \"#utility.yul\":4726:4731   */\n  dup5\n    /* \"#utility.yul\":4722:4743   */\n  and\n    /* \"#utility.yul\":4713:4743   */\n  swap4\n  pop\n    /* \"#utility.yul\":4786:4790   */\n  dup1\n    /* \"#utility.yul\":4776:4784   */\n  dup7\n    /* \"#utility.yul\":4772:4791   */\n  and\n    /* \"#utility.yul\":4765:4770   */\n  dup5\n    /* \"#utility.yul\":4762:4792   */\n  or\n    /* \"#utility.yul\":4752:4792   */\n  swap3\n  pop\n    /* \"#utility.yul\":4481:4798   */\n  pop\n  pop\n    /* \"#utility.yul\":4405:4798   */\n  swap4\n  swap3\n  pop\n  pop\n  pop\n  jump\t// out\n    /* \"#utility.yul\":4804:4881   */\ntag_32:\n    /* \"#utility.yul\":4841:4848   */\n  0x00\n    /* \"#utility.yul\":4870:4875   */\n  dup2\n    /* \"#utility.yul\":4859:4875   */\n  swap1\n  pop\n    /* \"#utility.yul\":4804:4881   */\n  swap2\n  swap1\n  pop\n  jump\t// out\n    /* \"#utility.yul\":4887:4947   */\ntag_33:\n    /* \"#utility.yul\":4915:4918   */\n  0x00\n    /* \"#utility.yul\":4936:4941   */\n  dup2\n    /* \"#utility.yul\":4929:4941   */\n  swap1\n  pop\n    /* \"#utility.yul\":4887:4947   */\n  swap2\n  swap1\n  pop\n  jump\t// out\n    /* \"#utility.yul\":4953:5095   */\ntag_34:\n    /* \"#utility.yul\":5003:5012   */\n  0x00\n    /* \"#utility.yul\":5036:5089   */\n  tag_98\n    /* \"#utility.yul\":5054:5088   */\n  tag_99\n    /* \"#utility.yul\":5063:5087   */\n  tag_100\n    /* \"#utility.yul\":5081:5086   */\n  dup5\n    /* \"#utility.yul\":5063:5087   */\n  tag_32\n  jump\t// in\ntag_100:\n    /* \"#utility.yul\":5054:5088   */\n  tag_33\n  jump\t// in\ntag_99:\n    /* \"#utility.yul\":5036:5089   */\n  tag_32\n  jump\t// in\ntag_98:\n    /* \"#utility.yul\":5023:5089   */\n  swap1\n  pop\n    /* \"#utility.yul\":4953:5095   */\n  swap2\n  swap1\n  pop\n  jump\t// out\n    /* \"#utility.yul\":5101:5176   */\ntag_35:\n    /* \"#utility.yul\":5144:5147   */\n  0x00\n    /* \"#utility.yul\":5165:5170   */\n  dup2\n    /* \"#utility.yul\":5158:5170   */\n  swap1\n  pop\n    /* \"#utility.yul\":5101:5176   */\n  swap2\n  swap1\n  pop\n  jump\t// out\n    /* \"#utility.yul\":5182:5451   */\ntag_36:\n    /* \"#utility.yul\":5292:5331   */\n  tag_103\n    /* \"#utility.yul\":5323:5330   */\n  dup4\n    /* \"#utility.yul\":5292:5331   */\n  tag_34\n  jump\t// in\ntag_103:\n    /* \"#utility.yul\":5353:5444   */\n  tag_104\n    /* \"#utility.yul\":5402:5443   */\n  tag_105\n    /* \"#utility.yul\":5426:5442   */\n  dup3\n    /* \"#utility.yul\":5402:5443   */\n  tag_35\n  jump\t// in\ntag_105:\n    /* \"#utility.yul\":5394:5400   */\n  dup5\n    /* \"#utility.yul\":5387:5391   */\n  dup5\n    /* \"#utility.yul\":5381:5392   */\n  sload\n    /* \"#utility.yul\":5353:5444   */\n  tag_31\n  jump\t// in\ntag_104:\n    /* \"#utility.yul\":5347:5351   */\n  dup3\n    /* \"#utility.yul\":5340:5445   */\n  sstore\n    /* \"#utility.yul\":5258:5451   */\n  pop\n    /* \"#utility.yul\":5182:5451   */\n  pop\n  pop\n  pop\n  jump\t// out\n    /* \"#utility.yul\":5457:5530   */\ntag_37:\n    /* \"#utility.yul\":5502:5505   */\n  0x00\n    /* \"#utility.yul\":5523:5524   */\n  0x00\n    /* \"#utility.yul\":5516:5524   */\n  swap1\n  pop\n    /* \"#utility.yul\":5457:5530   */\n  swap1\n  jump\t// out\n    /* \"#utility.yul\":5536:5725   */\ntag_38:\n    /* \"#utility.yul\":5613:5645   */\n  tag_108\n  tag_37\n  jump\t// in\ntag_108:\n    /* \"#utility.yul\":5654:5719   */\n  tag_109\n    /* \"#utility.yul\":5712:5718   */\n  dup2\n    /* \"#utility.yul\":5704:5710   */\n  dup5\n    /* \"#utility.yul\":5698:5702   */\n  dup5\n    /* \"#utility.yul\":5654:5719   */\n  tag_36\n  jump\t// in\ntag_109:\n    /* \"#utility.yul\":5589:5725   */\n  pop\n    /* \"#utility.yul\":5536:5725   */\n  pop\n  pop\n  jump\t// out\n    /* \"#utility.yul\":5731:5917   */\ntag_39:\n    /* \"#utility.yul\":5791:5911   */\ntag_111:\n    /* \"#utility.yul\":5808:5811   */\n  dup2\n    /* \"#utility.yul\":5801:5806   */\n  dup2\n    /* \"#utility.yul\":5798:5812   */\n  lt\n    /* \"#utility.yul\":5791:5911   */\n  iszero\n  tag_113\n  jumpi\n    /* \"#utility.yul\":5862:5901   */\n  tag_114\n    /* \"#utility.yul\":5899:5900   */\n  0x00\n    /* \"#utility.yul\":5892:5897   */\n  dup3\n    /* \"#utility.yul\":5862:5901   */\n  tag_38\n  jump\t// in\ntag_114:\n    /* \"#utility.yul\":5835:5836   */\n  0x01\n    /* \"#utility.yul\":5828:5833   */\n  dup2\n    /* \"#utility.yul\":5824:5837   */\n  add\n    /* \"#utility.yul\":5815:5837   */\n  swap1\n  pop\n    /* \"#utility.yul\":5791:5911   */\n  jump(tag_111)\ntag_113:\n    /* \"#utility.yul\":5731:5917   */\n  pop\n  pop\n  jump\t// out\n    /* \"#utility.yul\":5923:6466   */\ntag_40:\n    /* \"#utility.yul\":6024:6026   */\n  0x1f\n    /* \"#utility.yul\":6019:6022   */\n  dup3\n    /* \"#utility.yul\":6016:6027   */\n  gt\n    /* \"#utility.yul\":6013:6459   */\n  iszero\n  tag_116\n  jumpi\n    /* \"#utility.yul\":6058:6096   */\n  tag_117\n    /* \"#utility.yul\":6090:6095   */\n  dup2\n    /* \"#utility.yul\":6058:6096   */\n  tag_28\n  jump\t// in\ntag_117:\n    /* \"#utility.yul\":6142:6171   */\n  tag_118\n    /* \"#utility.yul\":6160:6170   */\n  dup5\n    /* \"#utility.yul\":6142:6171   */\n  tag_29\n  jump\t// in\ntag_118:\n    /* \"#utility.yul\":6132:6140   */\n  dup2\n    /* \"#utility.yul\":6128:6172   */\n  add\n    /* \"#utility.yul\":6325:6327   */\n  0x20\n    /* \"#utility.yul\":6313:6323   */\n  dup6\n    /* \"#utility.yul\":6310:6328   */\n  lt\n    /* \"#utility.yul\":6307:6356   */\n  iszero\n  tag_119\n  jumpi\n    /* \"#utility.yul\":6346:6354   */\n  dup2\n    /* \"#utility.yul\":6331:6354   */\n  swap1\n  pop\n    /* \"#utility.yul\":6307:6356   */\ntag_119:\n    /* \"#utility.yul\":6369:6449   */\n  tag_120\n    /* \"#utility.yul\":6425:6447   */\n  tag_121\n    /* \"#utility.yul\":6443:6446   */\n  dup6\n    /* \"#utility.yul\":6425:6447   */\n  tag_29\n  jump\t// in\ntag_121:\n    /* \"#utility.yul\":6415:6423   */\n  dup4\n    /* \"#utility.yul\":6411:6448   */\n  add\n    /* \"#utility.yul\":6398:6409   */\n  dup3\n    /* \"#utility.yul\":6369:6449   */\n  tag_39\n  jump\t// in\ntag_120:\n    /* \"#utility.yul\":6028:6459   */\n  pop\n  pop\n    /* \"#utility.yul\":6013:6459   */\ntag_116:\n    /* \"#utility.yul\":5923:6466   */\n  pop\n  pop\n  pop\n  jump\t// out\n    /* \"#utility.yul\":6472:6589   */\ntag_41:\n    /* \"#utility.yul\":6526:6534   */\n  0x00\n    /* \"#utility.yul\":6576:6581   */\n  dup3\n    /* \"#utility.yul\":6570:6574   */\n  dup3\n    /* \"#utility.yul\":6566:6582   */\n  shr\n    /* \"#utility.yul\":6545:6582   */\n  swap1\n  pop\n    /* \"#utility.yul\":6472:6589   */\n  swap3\n  swap2\n  pop\n  pop\n  jump\t// out\n    /* \"#utility.yul\":6595:6764   */\ntag_42:\n    /* \"#utility.yul\":6639:6645   */\n  0x00\n    /* \"#utility.yul\":6672:6723   */\n  tag_124\n    /* \"#utility.yul\":6720:6721   */\n  0x00\n    /* \"#utility.yul\":6716:6722   */\n  not\n    /* \"#utility.yul\":6708:6713   */\n  dup5\n    /* \"#utility.yul\":6705:6706   */\n  0x08\n    /* \"#utility.yul\":6701:6714   */\n  mul\n    /* \"#utility.yul\":6672:6723   */\n  tag_41\n  jump\t// in\ntag_124:\n    /* \"#utility.yul\":6668:6724   */\n  not\n    /* \"#utility.yul\":6753:6757   */\n  dup1\n    /* \"#utility.yul\":6747:6751   */\n  dup4\n    /* \"#utility.yul\":6743:6758   */\n  and\n    /* \"#utility.yul\":6733:6758   */\n  swap2\n  pop\n    /* \"#utility.yul\":6646:6764   */\n  pop\n    /* \"#utility.yul\":6595:6764   */\n  swap3\n  swap2\n  pop\n  pop\n  jump\t// out\n    /* \"#utility.yul\":6769:7064   */\ntag_43:\n    /* \"#utility.yul\":6845:6849   */\n  0x00\n    /* \"#utility.yul\":6991:7020   */\n  tag_126\n    /* \"#utility.yul\":7016:7019   */\n  dup4\n    /* \"#utility.yul\":7010:7014   */\n  dup4\n    /* \"#utility.yul\":6991:7020   */\n  tag_42\n  jump\t// in\ntag_126:\n    /* \"#utility.yul\":6983:7020   */\n  swap2\n  pop\n    /* \"#utility.yul\":7053:7056   */\n  dup3\n    /* \"#utility.yul\":7050:7051   */\n  0x02\n    /* \"#utility.yul\":7046:7057   */\n  mul\n    /* \"#utility.yul\":7040:7044   */\n  dup3\n    /* \"#utility.yul\":7037:7058   */\n  or\n    /* \"#utility.yul\":7029:7058   */\n  swap1\n  pop\n    /* \"#utility.yul\":6769:7064   */\n  swap3\n  swap2\n  pop\n  pop\n  jump\t// out\n    /* \"#utility.yul\":7069:8464   */\ntag_8:\n    /* \"#utility.yul\":7186:7223   */\n  tag_128\n    /* \"#utility.yul\":7219:7222   */\n  dup3\n    /* \"#utility.yul\":7186:7223   */\n  tag_25\n  jump\t// in\ntag_128:\n    /* \"#utility.yul\":7288:7306   */\n  0xffffffffffffffff\n    /* \"#utility.yul\":7280:7286   */\n  dup2\n    /* \"#utility.yul\":7277:7307   */\n  gt\n    /* \"#utility.yul\":7274:7330   */\n  iszero\n  tag_129\n  jumpi\n    /* \"#utility.yul\":7310:7328   */\n  tag_130\n  tag_18\n  jump\t// in\ntag_130:\n    /* \"#utility.yul\":7274:7330   */\ntag_129:\n    /* \"#utility.yul\":7354:7392   */\n  tag_131\n    /* \"#utility.yul\":7386:7390   */\n  dup3\n    /* \"#utility.yul\":7380:7391   */\n  sload\n    /* \"#utility.yul\":7354:7392   */\n  tag_27\n  jump\t// in\ntag_131:\n    /* \"#utility.yul\":7439:7506   */\n  tag_132\n    /* \"#utility.yul\":7499:7505   */\n  dup3\n    /* \"#utility.yul\":7491:7497   */\n  dup3\n    /* \"#utility.yul\":7485:7489   */\n  dup6\n    /* \"#utility.yul\":7439:7506   */\n  tag_40\n  jump\t// in\ntag_132:\n    /* \"#utility.yul\":7533:7534   */\n  0x00\n    /* \"#utility.yul\":7557:7561   */\n  0x20\n    /* \"#utility.yul\":7544:7561   */\n  swap1\n  pop\n    /* \"#utility.yul\":7589:7591   */\n  0x1f\n    /* \"#utility.yul\":7581:7587   */\n  dup4\n    /* \"#utility.yul\":7578:7592   */\n  gt\n    /* \"#utility.yul\":7606:7607   */\n  0x01\n    /* \"#utility.yul\":7601:8219   */\n  dup2\n  eq\n  tag_134\n  jumpi\n    /* \"#utility.yul\":8263:8264   */\n  0x00\n    /* \"#utility.yul\":8280:8286   */\n  dup5\n    /* \"#utility.yul\":8277:8354   */\n  iszero\n  tag_135\n  jumpi\n    /* \"#utility.yul\":8329:8338   */\n  dup3\n    /* \"#utility.yul\":8324:8327   */\n  dup8\n    /* \"#utility.yul\":8320:8339   */\n  add\n    /* \"#utility.yul\":8314:8340   */\n  mload\n    /* \"#utility.yul\":8305:8340   */\n  swap1\n  pop\n    /* \"#utility.yul\":8277:8354   */\ntag_135:\n    /* \"#utility.yul\":8380:8447   */\n  tag_136\n    /* \"#utility.yul\":8440:8446   */\n  dup6\n    /* \"#utility.yul\":8433:8438   */\n  dup3\n    /* \"#utility.yul\":8380:8447   */\n  tag_43\n  jump\t// in\ntag_136:\n    /* \"#utility.yul\":8374:8378   */\n  dup7\n    /* \"#utility.yul\":8367:8448   */\n  sstore\n    /* \"#utility.yul\":8236:8458   */\n  pop\n    /* \"#utility.yul\":7571:8458   */\n  jump(tag_133)\n    /* \"#utility.yul\":7601:8219   */\ntag_134:\n    /* \"#utility.yul\":7653:7657   */\n  0x1f\n    /* \"#utility.yul\":7649:7658   */\n  not\n    /* \"#utility.yul\":7641:7647   */\n  dup5\n    /* \"#utility.yul\":7637:7659   */\n  and\n    /* \"#utility.yul\":7687:7724   */\n  tag_137\n    /* \"#utility.yul\":7719:7723   */\n  dup7\n    /* \"#utility.yul\":7687:7724   */\n  tag_28\n  jump\t// in\ntag_137:\n    /* \"#utility.yul\":7746:7747   */\n  0x00\n    /* \"#utility.yul\":7760:7968   */\ntag_138:\n    /* \"#utility.yul\":7774:7781   */\n  dup3\n    /* \"#utility.yul\":7771:7772   */\n  dup2\n    /* \"#utility.yul\":7768:7782   */\n  lt\n    /* \"#utility.yul\":7760:7968   */\n  iszero\n  tag_140\n  jumpi\n    /* \"#utility.yul\":7853:7862   */\n  dup5\n    /* \"#utility.yul\":7848:7851   */\n  dup10\n    /* \"#utility.yul\":7844:7863   */\n  add\n    /* \"#utility.yul\":7838:7864   */\n  mload\n    /* \"#utility.yul\":7830:7836   */\n  dup3\n    /* \"#utility.yul\":7823:7865   */\n  sstore\n    /* \"#utility.yul\":7904:7905   */\n  0x01\n    /* \"#utility.yul\":7896:7902   */\n  dup3\n    /* \"#utility.yul\":7892:7906   */\n  add\n    /* \"#utility.yul\":7882:7906   */\n  swap2\n  pop\n    /* \"#utility.yul\":7951:7953   */\n  0x20\n    /* \"#utility.yul\":7940:7949   */\n  dup6\n    /* \"#utility.yul\":7936:7954   */\n  add\n    /* \"#utility.yul\":7923:7954   */\n  swap5\n  pop\n    /* \"#utility.yul\":7797:7801   */\n  0x20\n    /* \"#utility.yul\":7794:7795   */\n  dup2\n    /* \"#utility.yul\":7790:7802   */\n  add\n    /* \"#utility.yul\":7785:7802   */\n  swap1\n  pop\n    /* \"#utility.yul\":7760:7968   */\n  jump(tag_138)\ntag_140:\n    /* \"#utility.yul\":7996:8002   */\n  dup7\n    /* \"#utility.yul\":7987:7994   */\n  dup4\n    /* \"#utility.yul\":7984:8003   */\n  lt\n    /* \"#utility.yul\":7981:8160   */\n  iszero\n  tag_141\n  jumpi\n    /* \"#utility.yul\":8054:8063   */\n  dup5\n    /* \"#utility.yul\":8049:8052   */\n  dup10\n    /* \"#utility.yul\":8045:8064   */\n  add\n    /* \"#utility.yul\":8039:8065   */\n  mload\n    /* \"#utility.yul\":8097:8145   */\n  tag_142\n    /* \"#utility.yul\":8139:8143   */\n  0x1f\n    /* \"#utility.yul\":8131:8137   */\n  dup10\n    /* \"#utility.yul\":8127:8144   */\n  and\n    /* \"#utility.yul\":8116:8125   */\n  dup3\n    /* \"#utility.yul\":8097:8145   */\n  tag_42\n  jump\t// in\ntag_142:\n    /* \"#utility.yul\":8089:8095   */\n  dup4\n    /* \"#utility.yul\":8082:8146   */\n  sstore\n    /* \"#utility.yul\":8004:8160   */\n  pop\n    /* \"#utility.yul\":7981:8160   */\ntag_141:\n    /* \"#utility.yul\":8206:8207   */\n  0x01\n    /* \"#utility.yul\":8202:8203   */\n  0x02\n    /* \"#utility.yul\":8194:8200   */\n  dup9\n    /* \"#utility.yul\":8190:8204   */\n  mul\n    /* \"#utility.yul\":8186:8208   */\n  add\n    /* \"#utility.yul\":8180:8184   */\n  dup9\n    /* \"#utility.yul\":8173:8209   */\n  sstore\n    /* \"#utility.yul\":7608:8219   */\n  pop\n  pop\n  pop\n    /* \"#utility.yul\":7571:8458   */\ntag_133:\n  pop\n    /* \"#utility.yul\":7161:8464   */\n  pop\n  pop\n  pop\n    /* \"#utility.yul\":7069:8464   */\n  pop\n  pop\n  jump\t// out\n    /* \"contracts/mainFunc.sol\":324:6599  contract mainFunc is ERC20Pausable, AccessControl... */\ntag_11:\n  dataSize(sub_0)\n  dup1\n  dataOffset(sub_0)\n  0x00\n  codecopy\n  0x00\n  return\nstop\n\nsub_0: assembly {\n        /* \"contracts/mainFunc.sol\":324:6599  contract mainFunc is ERC20Pausable, AccessControl... */\n      mstore(0x40, 0x80)\n      callvalue\n      dup1\n      iszero\n      tag_1\n      jumpi\n      revert(0x00, 0x00)\n    tag_1:\n      pop\n      jumpi(tag_2, lt(calldatasize, 0x04))\n      shr(0xe0, calldataload(0x00))\n      dup1\n      0x69629025\n      gt\n      tag_37\n      jumpi\n      dup1\n      0xa694fc3a\n      gt\n      tag_38\n      jumpi\n      dup1\n      0xd547741f\n      gt\n      tag_39\n      jumpi\n      dup1\n      0xd547741f\n      eq\n      tag_32\n      jumpi\n      dup1\n      0xd5abeb01\n      eq\n      tag_33\n      jumpi\n      dup1\n      0xdd62ed3e\n      eq\n      tag_34\n      jumpi\n      dup1\n      0xe63ab1e9\n      eq\n      tag_35\n      jumpi\n      dup1\n      0xf40f0f52\n      eq\n      tag_36\n      jumpi\n      jump(tag_2)\n    tag_39:\n      dup1\n      0xa694fc3a\n      eq\n      tag_28\n      jumpi\n      dup1\n      0xa9059cbb\n      eq\n      tag_29\n      jumpi\n      dup1\n      0xb88a802f\n      eq\n      tag_30\n      jumpi\n      dup1\n      0xd5391393\n      eq\n      tag_31\n      jumpi\n      jump(tag_2)\n    tag_38:\n      dup1\n      0x95d89b41\n      gt\n      tag_40\n      jumpi\n      dup1\n      0x95d89b41\n      eq\n      tag_24\n      jumpi\n      dup1\n      0x99f853a5\n      eq\n      tag_25\n      jumpi\n      dup1\n      0x9dc29fac\n      eq\n      tag_26\n      jumpi\n      dup1\n      0xa217fddf\n      eq\n      tag_27\n      jumpi\n      jump(tag_2)\n    tag_40:\n      dup1\n      0x69629025\n      eq\n      tag_20\n      jumpi\n      dup1\n      0x70a08231\n      eq\n      tag_21\n      jumpi\n      dup1\n      0x7fd6f15c\n      eq\n      tag_22\n      jumpi\n      dup1\n      0x91d14854\n      eq\n      tag_23\n      jumpi\n      jump(tag_2)\n    tag_37:\n      dup1\n      0x23b872dd\n      gt\n      tag_41\n      jumpi\n      dup1\n      0x2f2ff15d\n      gt\n      tag_42\n      jumpi\n      dup1\n      0x2f2ff15d\n      eq\n      tag_15\n      jumpi\n      dup1\n      0x313ce567\n      eq\n      tag_16\n      jumpi\n      dup1\n      0x36568abe\n      eq\n      tag_17\n      jumpi\n      dup1\n      0x40c10f19\n      eq\n      tag_18\n      jumpi\n      dup1\n      0x5c975abb\n      eq\n      tag_19\n      jumpi\n      jump(tag_2)\n    tag_42:\n      dup1\n      0x23b872dd\n      eq\n      tag_11\n      jumpi\n      dup1\n      0x248a9ca3\n      eq\n      tag_12\n      jumpi\n      dup1\n      0x25d5971f\n      eq\n      tag_13\n      jumpi\n      dup1\n      0x282c51f3\n      eq\n      tag_14\n      jumpi\n      jump(tag_2)\n    tag_41:\n      dup1\n      0x095ea7b3\n      gt\n      tag_43\n      jumpi\n      dup1\n      0x095ea7b3\n      eq\n      tag_7\n      jumpi\n      dup1\n      0x16934fc4\n      eq\n      tag_8\n      jumpi\n      dup1\n      0x18160ddd\n      eq\n      tag_9\n      jumpi\n      dup1\n      0x22645085\n      eq\n      tag_10\n      jumpi\n      jump(tag_2)\n    tag_43:\n      dup1\n      0x01ffc9a7\n      eq\n      tag_3\n      jumpi\n      dup1\n      0x06fdde03\n      eq\n      tag_4\n      jumpi\n      dup1\n      0x0700037d\n      eq\n      tag_5\n      jumpi\n      dup1\n      0x0717d032\n      eq\n      tag_6\n      jumpi\n    tag_2:\n      revert(0x00, 0x00)\n        /* \"@openzeppelin/contracts/access/AccessControl.sol\":2541:2743  function supportsInterface(bytes4 interfaceId) public view virtual override returns (bool) {... */\n    tag_3:\n      tag_44\n      0x04\n      dup1\n      calldatasize\n      sub\n      dup2\n      add\n      swap1\n      tag_45\n      swap2\n      swap1\n      tag_46\n      jump\t// in\n    tag_45:\n      tag_47\n      jump\t// in\n    tag_44:\n      mload(0x40)\n      tag_48\n      swap2\n      swap1\n      tag_49\n      jump\t// in\n    tag_48:\n      mload(0x40)\n      dup1\n      swap2\n      sub\n      swap1\n      return\n        /* \"@openzeppelin/contracts/token/ERC20/ERC20.sol\":1760:1849  function name() public view virtual returns (string memory) {... */\n    tag_4:\n      tag_50\n      tag_51\n      jump\t// in\n    tag_50:\n      mload(0x40)\n      tag_52\n      swap2\n      swap1\n      tag_53\n      jump\t// in\n    tag_52:\n      mload(0x40)\n      dup1\n      swap2\n      sub\n      swap1\n      return\n        /* \"contracts/mainFunc.sol\":873:915  mapping(address => uint256) public rewards */\n    tag_5:\n      tag_54\n      0x04\n      dup1\n      calldatasize\n      sub\n      dup2\n      add\n      swap1\n      tag_55\n      swap2\n      swap1\n      tag_56\n      jump\t// in\n    tag_55:\n      tag_57\n      jump\t// in\n    tag_54:\n      mload(0x40)\n      tag_58\n      swap2\n      swap1\n      tag_59\n      jump\t// in\n    tag_58:\n      mload(0x40)\n      dup1\n      swap2\n      sub\n      swap1\n      return\n        /* \"contracts/mainFunc.sol\":821:866  uint256 public maxStakePerUser = 10000 * 1e18 */\n    tag_6:\n      tag_60\n      tag_61\n      jump\t// in\n    tag_60:\n      mload(0x40)\n      tag_62\n      swap2\n      swap1\n      tag_59\n      jump\t// in\n    tag_62:\n      mload(0x40)\n      dup1\n      swap2\n      sub\n      swap1\n      return\n        /* \"@openzeppelin/contracts/token/ERC20/ERC20.sol\":3902:4088  function approve(address spender, uint256 value) public virtual returns (bool) {... */\n    tag_7:\n      tag_63\n      0x04\n      dup1\n      calldatasize\n      sub\n      dup2\n      add\n      swap1\n      tag_64\n      swap2\n      swap1\n      tag_65\n      jump\t// in\n    tag_64:\n      tag_66\n      jump\t// in\n    tag_63:\n      mload(0x40)\n      tag_67\n      swap2\n      swap1\n      tag_49\n      jump\t// in\n    tag_67:\n      mload(0x40)\n      dup1\n      swap2\n      sub\n      swap1\n      return\n        /* \"contracts/mainFunc.sol\":672:713  mapping(address => uint256) public stakes */\n    tag_8:\n      tag_68\n      0x04\n      dup1\n      calldatasize\n      sub\n      dup2\n      add\n      swap1\n      tag_69\n      swap2\n      swap1\n      tag_56\n      jump\t// in\n    tag_69:\n      tag_70\n      jump\t// in\n    tag_68:\n      mload(0x40)\n      tag_71\n      swap2\n      swap1\n      tag_59\n      jump\t// in\n    tag_71:\n      mload(0x40)\n      dup1\n      swap2\n      sub\n      swap1\n      return\n        /* \"@openzeppelin/contracts/token/ERC20/ERC20.sol\":2803:2900  function totalSupply() public view virtual returns (uint256) {... */\n    tag_9:\n      tag_72\n      tag_73\n      jump\t// in\n    tag_72:\n      mload(0x40)\n      tag_74\n      swap2\n      swap1\n      tag_59\n      jump\t// in\n    tag_74:\n      mload(0x40)\n      dup1\n      swap2\n      sub\n      swap1\n      return\n        /* \"contracts/mainFunc.sol\":2089:2242  function myBurn(uint256 amount) external whenNotPaused isBalanceAvailable(msg.sender, amount)... */\n    tag_10:\n      tag_75\n      0x04\n      dup1\n      calldatasize\n      sub\n      dup2\n      add\n      swap1\n      tag_76\n      swap2\n      swap1\n      tag_77\n      jump\t// in\n    tag_76:\n      tag_78\n      jump\t// in\n    tag_75:\n      stop\n        /* \"contracts/mainFunc.sol\":3155:3645  function transferFrom(address sender, address recipient, uint256 amount) public override whenNotPaused returns (bool) {... */\n    tag_11:\n      tag_79\n      0x04\n      dup1\n      calldatasize\n      sub\n      dup2\n      add\n      swap1\n      tag_80\n      swap2\n      swap1\n      tag_81\n      jump\t// in\n    tag_80:\n      tag_82\n      jump\t// in\n    tag_79:\n      mload(0x40)\n      tag_83\n      swap2\n      swap1\n      tag_49\n      jump\t// in\n    tag_83:\n      mload(0x40)\n      dup1\n      swap2\n      sub\n      swap1\n      return\n        /* \"@openzeppelin/contracts/access/AccessControl.sol\":3786:3906  function getRoleAdmin(bytes32 role) public view virtual returns (bytes32) {... */\n    tag_12:\n      tag_84\n      0x04\n      dup1\n      calldatasize\n      sub\n      dup2\n      add\n      swap1\n      tag_85\n      swap2\n      swap1\n      tag_86\n      jump\t// in\n    tag_85:\n      tag_87\n      jump\t// in\n    tag_84:\n      mload(0x40)\n      tag_88\n      swap2\n      swap1\n      tag_89\n      jump\t// in\n    tag_88:\n      mload(0x40)\n      dup1\n      swap2\n      sub\n      swap1\n      return\n        /* \"contracts/mainFunc.sol\":5773:6172  function withdrawStake(uint256 amount) external {... */\n    tag_13:\n      tag_90\n      0x04\n      dup1\n      calldatasize\n      sub\n      dup2\n      add\n      swap1\n      tag_91\n      swap2\n      swap1\n      tag_77\n      jump\t// in\n    tag_91:\n      tag_92\n      jump\t// in\n    tag_90:\n      stop\n        /* \"contracts/mainFunc.sol\":603:665  bytes32 public constant BURNER_ROLE = keccak256(\"BURNER_ROLE\") */\n    tag_14:\n      tag_93\n      tag_94\n      jump\t// in\n    tag_93:\n      mload(0x40)\n      tag_95\n      swap2\n      swap1\n      tag_89\n      jump\t// in\n    tag_95:\n      mload(0x40)\n      dup1\n      swap2\n      sub\n      swap1\n      return\n        /* \"@openzeppelin/contracts/access/AccessControl.sol\":4202:4338  function grantRole(bytes32 role, address account) public virtual onlyRole(getRoleAdmin(role)) {... */\n    tag_15:\n      tag_96\n      0x04\n      dup1\n      calldatasize\n      sub\n      dup2\n      add\n      swap1\n      tag_97\n      swap2\n      swap1\n      tag_98\n      jump\t// in\n    tag_97:\n      tag_99\n      jump\t// in\n    tag_96:\n      stop\n        /* \"@openzeppelin/contracts/token/ERC20/ERC20.sol\":2688:2770  function decimals() public view virtual returns (uint8) {... */\n    tag_16:\n      tag_100\n      tag_101\n      jump\t// in\n    tag_100:\n      mload(0x40)\n      tag_102\n      swap2\n      swap1\n      tag_103\n      jump\t// in\n    tag_102:\n      mload(0x40)\n      dup1\n      swap2\n      sub\n      swap1\n      return\n        /* \"@openzeppelin/contracts/access/AccessControl.sol\":5304:5549  function renounceRole(bytes32 role, address callerConfirmation) public virtual {... */\n    tag_17:\n      tag_104\n      0x04\n      dup1\n      calldatasize\n      sub\n      dup2\n      add\n      swap1\n      tag_105\n      swap2\n      swap1\n      tag_98\n      jump\t// in\n    tag_105:\n      tag_106\n      jump\t// in\n    tag_104:\n      stop\n        /* \"contracts/mainFunc.sol\":1936:2073  function mint(address to, uint256 amount) public onlyMinter maxMint(amount) whenNotPaused  {... */\n    tag_18:\n      tag_107\n      0x04\n      dup1\n      calldatasize\n      sub\n      dup2\n      add\n      swap1\n      tag_108\n      swap2\n      swap1\n      tag_65\n      jump\t// in\n    tag_108:\n      tag_109\n      jump\t// in\n    tag_107:\n      stop\n        /* \"@openzeppelin/contracts/utils/Pausable.sol\":1726:1810  function paused() public view virtual returns (bool) {... */\n    tag_19:\n      tag_110\n      tag_111\n      jump\t// in\n    tag_110:\n      mload(0x40)\n      tag_112\n      swap2\n      swap1\n      tag_49\n      jump\t// in\n    tag_112:\n      mload(0x40)\n      dup1\n      swap2\n      sub\n      swap1\n      return\n        /* \"contracts/mainFunc.sol\":777:814  uint256 public rewardRatePerHour = 10 */\n    tag_20:\n      tag_113\n      tag_114\n      jump\t// in\n    tag_113:\n      mload(0x40)\n      tag_115\n      swap2\n      swap1\n      tag_59\n      jump\t// in\n    tag_115:\n      mload(0x40)\n      dup1\n      swap2\n      sub\n      swap1\n      return\n        /* \"@openzeppelin/contracts/token/ERC20/ERC20.sol\":2933:3049  function balanceOf(address account) public view virtual returns (uint256) {... */\n    tag_21:\n      tag_116\n      0x04\n      dup1\n      calldatasize\n      sub\n      dup2\n      add\n      swap1\n      tag_117\n      swap2\n      swap1\n      tag_56\n      jump\t// in\n    tag_117:\n      tag_118\n      jump\t// in\n    tag_116:\n      mload(0x40)\n      tag_119\n      swap2\n      swap1\n      tag_59\n      jump\t// in\n    tag_119:\n      mload(0x40)\n      dup1\n      swap2\n      sub\n      swap1\n      return\n        /* \"contracts/mainFunc.sol\":382:411  uint256 public feePercent = 1 */\n    tag_22:\n      tag_120\n      tag_121\n      jump\t// in\n    tag_120:\n      mload(0x40)\n      tag_122\n      swap2\n      swap1\n      tag_59\n      jump\t// in\n    tag_122:\n      mload(0x40)\n      dup1\n      swap2\n      sub\n      swap1\n      return\n        /* \"@openzeppelin/contracts/access/AccessControl.sol\":2830:2966  function hasRole(bytes32 role, address account) public view virtual returns (bool) {... */\n    tag_23:\n      tag_123\n      0x04\n      dup1\n      calldatasize\n      sub\n      dup2\n      add\n      swap1\n      tag_124\n      swap2\n      swap1\n      tag_98\n      jump\t// in\n    tag_124:\n      tag_125\n      jump\t// in\n    tag_123:\n      mload(0x40)\n      tag_126\n      swap2\n      swap1\n      tag_49\n      jump\t// in\n    tag_126:\n      mload(0x40)\n      dup1\n      swap2\n      sub\n      swap1\n      return\n        /* \"@openzeppelin/contracts/token/ERC20/ERC20.sol\":1962:2055  function symbol() public view virtual returns (string memory) {... */\n    tag_24:\n      tag_127\n      tag_128\n      jump\t// in\n    tag_127:\n      mload(0x40)\n      tag_129\n      swap2\n      swap1\n      tag_53\n      jump\t// in\n    tag_129:\n      mload(0x40)\n      dup1\n      swap2\n      sub\n      swap1\n      return\n        /* \"contracts/mainFunc.sol\":720:770  mapping(address => uint256) public stakeTimestamps */\n    tag_25:\n      tag_130\n      0x04\n      dup1\n      calldatasize\n      sub\n      dup2\n      add\n      swap1\n      tag_131\n      swap2\n      swap1\n      tag_56\n      jump\t// in\n    tag_131:\n      tag_132\n      jump\t// in\n    tag_130:\n      mload(0x40)\n      tag_133\n      swap2\n      swap1\n      tag_59\n      jump\t// in\n    tag_133:\n      mload(0x40)\n      dup1\n      swap2\n      sub\n      swap1\n      return\n        /* \"contracts/mainFunc.sol\":2250:2411  function burn(address account,uint256 amount) external whenNotPaused onlyBurner isBalanceAvailable(account, amount)... */\n    tag_26:\n      tag_134\n      0x04\n      dup1\n      calldatasize\n      sub\n      dup2\n      add\n      swap1\n      tag_135\n      swap2\n      swap1\n      tag_65\n      jump\t// in\n    tag_135:\n      tag_136\n      jump\t// in\n    tag_134:\n      stop\n        /* \"@openzeppelin/contracts/access/AccessControl.sol\":2196:2245  bytes32 public constant DEFAULT_ADMIN_ROLE = 0x00 */\n    tag_27:\n      tag_137\n      tag_138\n      jump\t// in\n    tag_137:\n      mload(0x40)\n      tag_139\n      swap2\n      swap1\n      tag_89\n      jump\t// in\n    tag_139:\n      mload(0x40)\n      dup1\n      swap2\n      sub\n      swap1\n      return\n        /* \"contracts/mainFunc.sol\":5138:5765  function stake(uint256 amount) external {... */\n    tag_28:\n      tag_140\n      0x04\n      dup1\n      calldatasize\n      sub\n      dup2\n      add\n      swap1\n      tag_141\n      swap2\n      swap1\n      tag_77\n      jump\t// in\n    tag_141:\n      tag_142\n      jump\t// in\n    tag_140:\n      stop\n        /* \"contracts/mainFunc.sol\":2966:3149  function transfer(address recipient, uint256 amount) public override whenNotPaused returns (bool) {... */\n    tag_29:\n      tag_143\n      0x04\n      dup1\n      calldatasize\n      sub\n      dup2\n      add\n      swap1\n      tag_144\n      swap2\n      swap1\n      tag_65\n      jump\t// in\n    tag_144:\n      tag_145\n      jump\t// in\n    tag_143:\n      mload(0x40)\n      tag_146\n      swap2\n      swap1\n      tag_49\n      jump\t// in\n    tag_146:\n      mload(0x40)\n      dup1\n      swap2\n      sub\n      swap1\n      return\n        /* \"contracts/mainFunc.sol\":6178:6594  function claimReward() external {... */\n    tag_30:\n      tag_147\n      tag_148\n      jump\t// in\n    tag_147:\n      stop\n        /* \"contracts/mainFunc.sol\":465:527  bytes32 public constant MINTER_ROLE = keccak256(\"MINTER_ROLE\") */\n    tag_31:\n      tag_149\n      tag_150\n      jump\t// in\n    tag_149:\n      mload(0x40)\n      tag_151\n      swap2\n      swap1\n      tag_89\n      jump\t// in\n    tag_151:\n      mload(0x40)\n      dup1\n      swap2\n      sub\n      swap1\n      return\n        /* \"@openzeppelin/contracts/access/AccessControl.sol\":4618:4756  function revokeRole(bytes32 role, address account) public virtual onlyRole(getRoleAdmin(role)) {... */\n    tag_32:\n      tag_152\n      0x04\n      dup1\n      calldatasize\n      sub\n      dup2\n      add\n      swap1\n      tag_153\n      swap2\n      swap1\n      tag_98\n      jump\t// in\n    tag_153:\n      tag_154\n      jump\t// in\n    tag_152:\n      stop\n        /* \"contracts/mainFunc.sol\":418:456  uint256 public  maxSupply = 1e6 * 1e18 */\n    tag_33:\n      tag_155\n      tag_156\n      jump\t// in\n    tag_155:\n      mload(0x40)\n      tag_157\n      swap2\n      swap1\n      tag_59\n      jump\t// in\n    tag_157:\n      mload(0x40)\n      dup1\n      swap2\n      sub\n      swap1\n      return\n        /* \"@openzeppelin/contracts/token/ERC20/ERC20.sol\":3455:3595  function allowance(address owner, address spender) public view virtual returns (uint256) {... */\n    tag_34:\n      tag_158\n      0x04\n      dup1\n      calldatasize\n      sub\n      dup2\n      add\n      swap1\n      tag_159\n      swap2\n      swap1\n      tag_160\n      jump\t// in\n    tag_159:\n      tag_161\n      jump\t// in\n    tag_158:\n      mload(0x40)\n      tag_162\n      swap2\n      swap1\n      tag_59\n      jump\t// in\n    tag_162:\n      mload(0x40)\n      dup1\n      swap2\n      sub\n      swap1\n      return\n        /* \"contracts/mainFunc.sol\":534:596  bytes32 public constant PAUSER_ROLE = keccak256(\"PAUSER_ROLE\") */\n    tag_35:\n      tag_163\n      tag_164\n      jump\t// in\n    tag_163:\n      mload(0x40)\n      tag_165\n      swap2\n      swap1\n      tag_89\n      jump\t// in\n    tag_165:\n      mload(0x40)\n      dup1\n      swap2\n      sub\n      swap1\n      return\n        /* \"contracts/mainFunc.sol\":3660:4364  function pendingReward(address user) public view returns (uint256) {... */\n    tag_36:\n      tag_166\n      0x04\n      dup1\n      calldatasize\n      sub\n      dup2\n      add\n      swap1\n      tag_167\n      swap2\n      swap1\n      tag_56\n      jump\t// in\n    tag_167:\n      tag_168\n      jump\t// in\n    tag_166:\n      mload(0x40)\n      tag_169\n      swap2\n      swap1\n      tag_59\n      jump\t// in\n    tag_169:\n      mload(0x40)\n      dup1\n      swap2\n      sub\n      swap1\n      return\n        /* \"@openzeppelin/contracts/access/AccessControl.sol\":2541:2743  function supportsInterface(bytes4 interfaceId) public view virtual override returns (bool) {... */\n    tag_47:\n        /* \"@openzeppelin/contracts/access/AccessControl.sol\":2626:2630  bool */\n      0x00\n        /* \"@openzeppelin/contracts/access/AccessControl.sol\":2664:2696  type(IAccessControl).interfaceId */\n      0x7965db0b00000000000000000000000000000000000000000000000000000000\n        /* \"@openzeppelin/contracts/access/AccessControl.sol\":2649:2696  interfaceId == type(IAccessControl).interfaceId */\n      not(0xffffffffffffffffffffffffffffffffffffffffffffffffffffffff)\n      and\n        /* \"@openzeppelin/contracts/access/AccessControl.sol\":2649:2660  interfaceId */\n      dup3\n        /* \"@openzeppelin/contracts/access/AccessControl.sol\":2649:2696  interfaceId == type(IAccessControl).interfaceId */\n      not(0xffffffffffffffffffffffffffffffffffffffffffffffffffffffff)\n      and\n      eq\n        /* \"@openzeppelin/contracts/access/AccessControl.sol\":2649:2736  interfaceId == type(IAccessControl).interfaceId || super.supportsInterface(interfaceId) */\n      dup1\n      tag_171\n      jumpi\n      pop\n        /* \"@openzeppelin/contracts/access/AccessControl.sol\":2700:2736  super.supportsInterface(interfaceId) */\n      tag_172\n        /* \"@openzeppelin/contracts/access/AccessControl.sol\":2724:2735  interfaceId */\n      dup3\n        /* \"@openzeppelin/contracts/access/AccessControl.sol\":2700:2723  super.supportsInterface */\n      tag_173\n        /* \"@openzeppelin/contracts/access/AccessControl.sol\":2700:2736  super.supportsInterface(interfaceId) */\n      jump\t// in\n    tag_172:\n        /* \"@openzeppelin/contracts/access/AccessControl.sol\":2649:2736  interfaceId == type(IAccessControl).interfaceId || super.supportsInterface(interfaceId) */\n    tag_171:\n        /* \"@openzeppelin/contracts/access/AccessControl.sol\":2642:2736  return interfaceId == type(IAccessControl).interfaceId || super.supportsInterface(interfaceId) */\n      swap1\n      pop\n        /* \"@openzeppelin/contracts/access/AccessControl.sol\":2541:2743  function supportsInterface(bytes4 interfaceId) public view virtual override returns (bool) {... */\n      swap2\n      swap1\n      pop\n      jump\t// out\n        /* \"@openzeppelin/contracts/token/ERC20/ERC20.sol\":1760:1849  function name() public view virtual returns (string memory) {... */\n    tag_51:\n        /* \"@openzeppelin/contracts/token/ERC20/ERC20.sol\":1805:1818  string memory */\n      0x60\n        /* \"@openzeppelin/contracts/token/ERC20/ERC20.sol\":1837:1842  _name */\n      0x03\n        /* \"@openzeppelin/contracts/token/ERC20/ERC20.sol\":1830:1842  return _name */\n      dup1\n      sload\n      tag_175\n      swap1\n      tag_176\n      jump\t// in\n    tag_175:\n      dup1\n      0x1f\n      add\n      0x20\n      dup1\n      swap2\n      div\n      mul\n      0x20\n      add\n      mload(0x40)\n      swap1\n      dup2\n      add\n      0x40\n      mstore\n      dup1\n      swap3\n      swap2\n      swap1\n      dup2\n      dup2\n      mstore\n      0x20\n      add\n      dup3\n      dup1\n      sload\n      tag_177\n      swap1\n      tag_176\n      jump\t// in\n    tag_177:\n      dup1\n      iszero\n      tag_178\n      jumpi\n      dup1\n      0x1f\n      lt\n      tag_179\n      jumpi\n      0x0100\n      dup1\n      dup4\n      sload\n      div\n      mul\n      dup4\n      mstore\n      swap2\n      0x20\n      add\n      swap2\n      jump(tag_178)\n    tag_179:\n      dup3\n      add\n      swap2\n      swap1\n      0x00\n      mstore\n      keccak256(0x00, 0x20)\n      swap1\n    tag_180:\n      dup2\n      sload\n      dup2\n      mstore\n      swap1\n      0x01\n      add\n      swap1\n      0x20\n      add\n      dup1\n      dup4\n      gt\n      tag_180\n      jumpi\n      dup3\n      swap1\n      sub\n      0x1f\n      and\n      dup3\n      add\n      swap2\n    tag_178:\n      pop\n      pop\n      pop\n      pop\n      pop\n      swap1\n      pop\n        /* \"@openzeppelin/contracts/token/ERC20/ERC20.sol\":1760:1849  function name() public view virtual returns (string memory) {... */\n      swap1\n      jump\t// out\n        /* \"contracts/mainFunc.sol\":873:915  mapping(address => uint256) public rewards */\n    tag_57:\n      mstore(0x20, 0x0d)\n      dup1\n      0x00\n      mstore\n      keccak256(0x00, 0x40)\n      0x00\n      swap2\n      pop\n      swap1\n      pop\n      sload\n      dup2\n      jump\t// out\n        /* \"contracts/mainFunc.sol\":821:866  uint256 public maxStakePerUser = 10000 * 1e18 */\n    tag_61:\n      sload(0x0c)\n      dup2\n      jump\t// out\n        /* \"@openzeppelin/contracts/token/ERC20/ERC20.sol\":3902:4088  function approve(address spender, uint256 value) public virtual returns (bool) {... */\n    tag_66:\n        /* \"@openzeppelin/contracts/token/ERC20/ERC20.sol\":3975:3979  bool */\n      0x00\n        /* \"@openzeppelin/contracts/token/ERC20/ERC20.sol\":3991:4004  address owner */\n      0x00\n        /* \"@openzeppelin/contracts/token/ERC20/ERC20.sol\":4007:4019  _msgSender() */\n      tag_182\n        /* \"@openzeppelin/contracts/token/ERC20/ERC20.sol\":4007:4017  _msgSender */\n      tag_183\n        /* \"@openzeppelin/contracts/token/ERC20/ERC20.sol\":4007:4019  _msgSender() */\n      jump\t// in\n    tag_182:\n        /* \"@openzeppelin/contracts/token/ERC20/ERC20.sol\":3991:4019  address owner = _msgSender() */\n      swap1\n      pop\n        /* \"@openzeppelin/contracts/token/ERC20/ERC20.sol\":4029:4060  _approve(owner, spender, value) */\n      tag_184\n        /* \"@openzeppelin/contracts/token/ERC20/ERC20.sol\":4038:4043  owner */\n      dup2\n        /* \"@openzeppelin/contracts/token/ERC20/ERC20.sol\":4045:4052  spender */\n      dup6\n        /* \"@openzeppelin/contracts/token/ERC20/ERC20.sol\":4054:4059  value */\n      dup6\n        /* \"@openzeppelin/contracts/token/ERC20/ERC20.sol\":4029:4037  _approve */\n      tag_185\n        /* \"@openzeppelin/contracts/token/ERC20/ERC20.sol\":4029:4060  _approve(owner, spender, value) */\n      jump\t// in\n    tag_184:\n        /* \"@openzeppelin/contracts/token/ERC20/ERC20.sol\":4077:4081  true */\n      0x01\n        /* \"@openzeppelin/contracts/token/ERC20/ERC20.sol\":4070:4081  return true */\n      swap2\n      pop\n      pop\n        /* \"@openzeppelin/contracts/token/ERC20/ERC20.sol\":3902:4088  function approve(address spender, uint256 value) public virtual returns (bool) {... */\n      swap3\n      swap2\n      pop\n      pop\n      jump\t// out\n        /* \"contracts/mainFunc.sol\":672:713  mapping(address => uint256) public stakes */\n    tag_70:\n      mstore(0x20, 0x09)\n      dup1\n      0x00\n      mstore\n      keccak256(0x00, 0x40)\n      0x00\n      swap2\n      pop\n      swap1\n      pop\n      sload\n      dup2\n      jump\t// out\n        /* \"@openzeppelin/contracts/token/ERC20/ERC20.sol\":2803:2900  function totalSupply() public view virtual returns (uint256) {... */\n    tag_73:\n        /* \"@openzeppelin/contracts/token/ERC20/ERC20.sol\":2855:2862  uint256 */\n      0x00\n        /* \"@openzeppelin/contracts/token/ERC20/ERC20.sol\":2881:2893  _totalSupply */\n      sload(0x02)\n        /* \"@openzeppelin/contracts/token/ERC20/ERC20.sol\":2874:2893  return _totalSupply */\n      swap1\n      pop\n        /* \"@openzeppelin/contracts/token/ERC20/ERC20.sol\":2803:2900  function totalSupply() public view virtual returns (uint256) {... */\n      swap1\n      jump\t// out\n        /* \"contracts/mainFunc.sol\":2089:2242  function myBurn(uint256 amount) external whenNotPaused isBalanceAvailable(msg.sender, amount)... */\n    tag_78:\n        /* \"@openzeppelin/contracts/utils/Pausable.sol\":1350:1369  _requireNotPaused() */\n      tag_188\n        /* \"@openzeppelin/contracts/utils/Pausable.sol\":1350:1367  _requireNotPaused */\n      tag_189\n        /* \"@openzeppelin/contracts/utils/Pausable.sol\":1350:1369  _requireNotPaused() */\n      jump\t// in\n    tag_188:\n        /* \"contracts/mainFunc.sol\":2163:2173  msg.sender */\n      caller\n        /* \"contracts/mainFunc.sol\":2175:2181  amount */\n      dup2\n        /* \"contracts/mainFunc.sol\":1872:1878  amount */\n      dup1\n        /* \"contracts/mainFunc.sol\":1851:1868  balanceOf(wallet) */\n      tag_191\n        /* \"contracts/mainFunc.sol\":1861:1867  wallet */\n      dup4\n        /* \"contracts/mainFunc.sol\":1851:1860  balanceOf */\n      tag_118\n        /* \"contracts/mainFunc.sol\":1851:1868  balanceOf(wallet) */\n      jump\t// in\n    tag_191:\n        /* \"contracts/mainFunc.sol\":1851:1878  balanceOf(wallet) >= amount */\n      lt\n      iszero\n        /* \"contracts/mainFunc.sol\":1843:1908  require(balanceOf(wallet) >= amount, \"Error: not enough balance\") */\n      tag_192\n      jumpi\n      mload(0x40)\n      0x08c379a000000000000000000000000000000000000000000000000000000000\n      dup2\n      mstore\n      0x04\n      add\n      tag_193\n      swap1\n      tag_194\n      jump\t// in\n    tag_193:\n      mload(0x40)\n      dup1\n      swap2\n      sub\n      swap1\n      revert\n    tag_192:\n        /* \"contracts/mainFunc.sol\":2209:2234  _burn(msg.sender, amount) */\n      tag_196\n        /* \"contracts/mainFunc.sol\":2215:2225  msg.sender */\n      caller\n        /* \"contracts/mainFunc.sol\":2227:2233  amount */\n      dup5\n        /* \"contracts/mainFunc.sol\":2209:2214  _burn */\n      tag_197\n        /* \"contracts/mainFunc.sol\":2209:2234  _burn(msg.sender, amount) */\n      jump\t// in\n    tag_196:\n        /* \"@openzeppelin/contracts/utils/Pausable.sol\":1379:1380  _ */\n      pop\n      pop\n        /* \"contracts/mainFunc.sol\":2089:2242  function myBurn(uint256 amount) external whenNotPaused isBalanceAvailable(msg.sender, amount)... */\n      pop\n      jump\t// out\n        /* \"contracts/mainFunc.sol\":3155:3645  function transferFrom(address sender, address recipient, uint256 amount) public override whenNotPaused returns (bool) {... */\n    tag_82:\n        /* \"contracts/mainFunc.sol\":3267:3271  bool */\n      0x00\n        /* \"@openzeppelin/contracts/utils/Pausable.sol\":1350:1369  _requireNotPaused() */\n      tag_199\n        /* \"@openzeppelin/contracts/utils/Pausable.sol\":1350:1367  _requireNotPaused */\n      tag_189\n        /* \"@openzeppelin/contracts/utils/Pausable.sol\":1350:1369  _requireNotPaused() */\n      jump\t// in\n    tag_199:\n        /* \"contracts/mainFunc.sol\":3309:3313  this */\n      address\n        /* \"contracts/mainFunc.sol\":3287:3314  msg.sender != address(this) */\n      0xffffffffffffffffffffffffffffffffffffffff\n      and\n        /* \"contracts/mainFunc.sol\":3287:3297  msg.sender */\n      caller\n        /* \"contracts/mainFunc.sol\":3287:3314  msg.sender != address(this) */\n      0xffffffffffffffffffffffffffffffffffffffff\n      and\n      eq\n        /* \"contracts/mainFunc.sol\":3284:3563  if(msg.sender != address(this)) {... */\n      tag_201\n      jumpi\n        /* \"contracts/mainFunc.sol\":3331:3355  uint256 currentAllowance */\n      0x00\n        /* \"contracts/mainFunc.sol\":3358:3387  allowance(sender, msg.sender) */\n      tag_202\n        /* \"contracts/mainFunc.sol\":3368:3374  sender */\n      dup6\n        /* \"contracts/mainFunc.sol\":3376:3386  msg.sender */\n      caller\n        /* \"contracts/mainFunc.sol\":3358:3367  allowance */\n      tag_161\n        /* \"contracts/mainFunc.sol\":3358:3387  allowance(sender, msg.sender) */\n      jump\t// in\n    tag_202:\n        /* \"contracts/mainFunc.sol\":3331:3387  uint256 currentAllowance = allowance(sender, msg.sender) */\n      swap1\n      pop\n        /* \"contracts/mainFunc.sol\":3430:3436  amount */\n      dup3\n        /* \"contracts/mainFunc.sol\":3410:3426  currentAllowance */\n      dup2\n        /* \"contracts/mainFunc.sol\":3410:3436  currentAllowance >= amount */\n      lt\n      iszero\n        /* \"contracts/mainFunc.sol\":3402:3481  require(currentAllowance >= amount, \"ERC20: transfer amount exceeds allowance\") */\n      tag_203\n      jumpi\n      mload(0x40)\n      0x08c379a000000000000000000000000000000000000000000000000000000000\n      dup2\n      mstore\n      0x04\n      add\n      tag_204\n      swap1\n      tag_205\n      jump\t// in\n    tag_204:\n      mload(0x40)\n      dup1\n      swap2\n      sub\n      swap1\n      revert\n    tag_203:\n        /* \"contracts/mainFunc.sol\":3496:3551  _approve(sender, msg.sender, currentAllowance - amount) */\n      tag_206\n        /* \"contracts/mainFunc.sol\":3505:3511  sender */\n      dup6\n        /* \"contracts/mainFunc.sol\":3513:3523  msg.sender */\n      caller\n        /* \"contracts/mainFunc.sol\":3544:3550  amount */\n      dup6\n        /* \"contracts/mainFunc.sol\":3525:3541  currentAllowance */\n      dup5\n        /* \"contracts/mainFunc.sol\":3525:3550  currentAllowance - amount */\n      tag_207\n      swap2\n      swap1\n      tag_208\n      jump\t// in\n    tag_207:\n        /* \"contracts/mainFunc.sol\":3496:3504  _approve */\n      tag_185\n        /* \"contracts/mainFunc.sol\":3496:3551  _approve(sender, msg.sender, currentAllowance - amount) */\n      jump\t// in\n    tag_206:\n        /* \"contracts/mainFunc.sol\":3316:3563  {... */\n      pop\n        /* \"contracts/mainFunc.sol\":3284:3563  if(msg.sender != address(this)) {... */\n    tag_201:\n        /* \"contracts/mainFunc.sol\":3575:3615  _transferCoin(sender, recipient, amount) */\n      tag_209\n        /* \"contracts/mainFunc.sol\":3589:3595  sender */\n      dup5\n        /* \"contracts/mainFunc.sol\":3597:3606  recipient */\n      dup5\n        /* \"contracts/mainFunc.sol\":3608:3614  amount */\n      dup5\n        /* \"contracts/mainFunc.sol\":3575:3588  _transferCoin */\n      tag_210\n        /* \"contracts/mainFunc.sol\":3575:3615  _transferCoin(sender, recipient, amount) */\n      jump\t// in\n    tag_209:\n        /* \"contracts/mainFunc.sol\":3633:3637  true */\n      0x01\n        /* \"contracts/mainFunc.sol\":3626:3637  return true */\n      swap1\n      pop\n        /* \"contracts/mainFunc.sol\":3155:3645  function transferFrom(address sender, address recipient, uint256 amount) public override whenNotPaused returns (bool) {... */\n      swap4\n      swap3\n      pop\n      pop\n      pop\n      jump\t// out\n        /* \"@openzeppelin/contracts/access/AccessControl.sol\":3786:3906  function getRoleAdmin(bytes32 role) public view virtual returns (bytes32) {... */\n    tag_87:\n        /* \"@openzeppelin/contracts/access/AccessControl.sol\":3851:3858  bytes32 */\n      0x00\n        /* \"@openzeppelin/contracts/access/AccessControl.sol\":3877:3883  _roles */\n      0x06\n        /* \"@openzeppelin/contracts/access/AccessControl.sol\":3877:3889  _roles[role] */\n      0x00\n        /* \"@openzeppelin/contracts/access/AccessControl.sol\":3884:3888  role */\n      dup4\n        /* \"@openzeppelin/contracts/access/AccessControl.sol\":3877:3889  _roles[role] */\n      dup2\n      mstore\n      0x20\n      add\n      swap1\n      dup2\n      mstore\n      0x20\n      add\n      0x00\n      keccak256\n        /* \"@openzeppelin/contracts/access/AccessControl.sol\":3877:3899  _roles[role].adminRole */\n      0x01\n      add\n      sload\n        /* \"@openzeppelin/contracts/access/AccessControl.sol\":3870:3899  return _roles[role].adminRole */\n      swap1\n      pop\n        /* \"@openzeppelin/contracts/access/AccessControl.sol\":3786:3906  function getRoleAdmin(bytes32 role) public view virtual returns (bytes32) {... */\n      swap2\n      swap1\n      pop\n      jump\t// out\n        /* \"contracts/mainFunc.sol\":5773:6172  function withdrawStake(uint256 amount) external {... */\n    tag_92:\n        /* \"contracts/mainFunc.sol\":5862:5868  amount */\n      dup1\n        /* \"contracts/mainFunc.sol\":5840:5846  stakes */\n      0x09\n        /* \"contracts/mainFunc.sol\":5840:5858  stakes[msg.sender] */\n      0x00\n        /* \"contracts/mainFunc.sol\":5847:5857  msg.sender */\n      caller\n        /* \"contracts/mainFunc.sol\":5840:5858  stakes[msg.sender] */\n      0xffffffffffffffffffffffffffffffffffffffff\n      and\n      0xffffffffffffffffffffffffffffffffffffffff\n      and\n      dup2\n      mstore\n      0x20\n      add\n      swap1\n      dup2\n      mstore\n      0x20\n      add\n      0x00\n      keccak256\n      sload\n        /* \"contracts/mainFunc.sol\":5840:5868  stakes[msg.sender] >= amount */\n      lt\n      iszero\n        /* \"contracts/mainFunc.sol\":5832:5890  require(stakes[msg.sender] >= amount, \"Not enough staked\") */\n      tag_213\n      jumpi\n      mload(0x40)\n      0x08c379a000000000000000000000000000000000000000000000000000000000\n      dup2\n      mstore\n      0x04\n      add\n      tag_214\n      swap1\n      tag_215\n      jump\t// in\n    tag_214:\n      mload(0x40)\n      dup1\n      swap2\n      sub\n      swap1\n      revert\n    tag_213:\n        /* \"contracts/mainFunc.sol\":5931:5937  amount */\n      dup1\n        /* \"contracts/mainFunc.sol\":5904:5928  balanceOf(address(this)) */\n      tag_216\n        /* \"contracts/mainFunc.sol\":5922:5926  this */\n      address\n        /* \"contracts/mainFunc.sol\":5904:5913  balanceOf */\n      tag_118\n        /* \"contracts/mainFunc.sol\":5904:5928  balanceOf(address(this)) */\n      jump\t// in\n    tag_216:\n        /* \"contracts/mainFunc.sol\":5904:5937  balanceOf(address(this)) < amount */\n      lt\n        /* \"contracts/mainFunc.sol\":5901:5991  if(balanceOf(address(this)) < amount )... */\n      iszero\n      tag_217\n      jumpi\n        /* \"contracts/mainFunc.sol\":5964:5979  autoMintIfLow() */\n      tag_218\n        /* \"contracts/mainFunc.sol\":5964:5977  autoMintIfLow */\n      tag_219\n        /* \"contracts/mainFunc.sol\":5964:5979  autoMintIfLow() */\n      jump\t// in\n    tag_218:\n        /* \"contracts/mainFunc.sol\":5901:5991  if(balanceOf(address(this)) < amount )... */\n    tag_217:\n        /* \"contracts/mainFunc.sol\":6001:6025  updateReward(msg.sender) */\n      tag_220\n        /* \"contracts/mainFunc.sol\":6014:6024  msg.sender */\n      caller\n        /* \"contracts/mainFunc.sol\":6001:6013  updateReward */\n      tag_221\n        /* \"contracts/mainFunc.sol\":6001:6025  updateReward(msg.sender) */\n      jump\t// in\n    tag_220:\n        /* \"contracts/mainFunc.sol\":6058:6064  amount */\n      dup1\n        /* \"contracts/mainFunc.sol\":6036:6042  stakes */\n      0x09\n        /* \"contracts/mainFunc.sol\":6036:6054  stakes[msg.sender] */\n      0x00\n        /* \"contracts/mainFunc.sol\":6043:6053  msg.sender */\n      caller\n        /* \"contracts/mainFunc.sol\":6036:6054  stakes[msg.sender] */\n      0xffffffffffffffffffffffffffffffffffffffff\n      and\n      0xffffffffffffffffffffffffffffffffffffffff\n      and\n      dup2\n      mstore\n      0x20\n      add\n      swap1\n      dup2\n      mstore\n      0x20\n      add\n      0x00\n      keccak256\n      0x00\n        /* \"contracts/mainFunc.sol\":6036:6064  stakes[msg.sender] -= amount */\n      dup3\n      dup3\n      sload\n      tag_222\n      swap2\n      swap1\n      tag_208\n      jump\t// in\n    tag_222:\n      swap3\n      pop\n      pop\n      dup2\n      swap1\n      sstore\n      pop\n        /* \"contracts/mainFunc.sol\":6075:6119  _transfer(address(this), msg.sender, amount) */\n      tag_223\n        /* \"contracts/mainFunc.sol\":6093:6097  this */\n      address\n        /* \"contracts/mainFunc.sol\":6100:6110  msg.sender */\n      caller\n        /* \"contracts/mainFunc.sol\":6112:6118  amount */\n      dup4\n        /* \"contracts/mainFunc.sol\":6075:6084  _transfer */\n      tag_224\n        /* \"contracts/mainFunc.sol\":6075:6119  _transfer(address(this), msg.sender, amount) */\n      jump\t// in\n    tag_223:\n        /* \"contracts/mainFunc.sol\":6145:6155  msg.sender */\n      caller\n        /* \"contracts/mainFunc.sol\":6135:6164  Withdrawn(msg.sender, amount) */\n      0xffffffffffffffffffffffffffffffffffffffff\n      and\n      0x7084f5476618d8e60b11ef0d7d3f06914655adb8793e28ff7f018d4c76d505d5\n        /* \"contracts/mainFunc.sol\":6157:6163  amount */\n      dup3\n        /* \"contracts/mainFunc.sol\":6135:6164  Withdrawn(msg.sender, amount) */\n      mload(0x40)\n      tag_225\n      swap2\n      swap1\n      tag_59\n      jump\t// in\n    tag_225:\n      mload(0x40)\n      dup1\n      swap2\n      sub\n      swap1\n      log2\n        /* \"contracts/mainFunc.sol\":5773:6172  function withdrawStake(uint256 amount) external {... */\n      pop\n      jump\t// out\n        /* \"contracts/mainFunc.sol\":603:665  bytes32 public constant BURNER_ROLE = keccak256(\"BURNER_ROLE\") */\n    tag_94:\n        /* \"contracts/mainFunc.sol\":641:665  keccak256(\"BURNER_ROLE\") */\n      0x3c11d16cbaffd01df69ce1c404f6340ee057498f5f00246190ea54220576a848\n        /* \"contracts/mainFunc.sol\":603:665  bytes32 public constant BURNER_ROLE = keccak256(\"BURNER_ROLE\") */\n      dup2\n      jump\t// out\n        /* \"@openzeppelin/contracts/access/AccessControl.sol\":4202:4338  function grantRole(bytes32 role, address account) public virtual onlyRole(getRoleAdmin(role)) {... */\n    tag_99:\n        /* \"@openzeppelin/contracts/access/AccessControl.sol\":4276:4294  getRoleAdmin(role) */\n      tag_226\n        /* \"@openzeppelin/contracts/access/AccessControl.sol\":4289:4293  role */\n      dup3\n        /* \"@openzeppelin/contracts/access/AccessControl.sol\":4276:4288  getRoleAdmin */\n      tag_87\n        /* \"@openzeppelin/contracts/access/AccessControl.sol\":4276:4294  getRoleAdmin(role) */\n      jump\t// in\n    tag_226:\n        /* \"@openzeppelin/contracts/access/AccessControl.sol\":2473:2489  _checkRole(role) */\n      tag_228\n        /* \"@openzeppelin/contracts/access/AccessControl.sol\":2484:2488  role */\n      dup2\n        /* \"@openzeppelin/contracts/access/AccessControl.sol\":2473:2483  _checkRole */\n      tag_229\n        /* \"@openzeppelin/contracts/access/AccessControl.sol\":2473:2489  _checkRole(role) */\n      jump\t// in\n    tag_228:\n        /* \"@openzeppelin/contracts/access/AccessControl.sol\":4306:4331  _grantRole(role, account) */\n      tag_231\n        /* \"@openzeppelin/contracts/access/AccessControl.sol\":4317:4321  role */\n      dup4\n        /* \"@openzeppelin/contracts/access/AccessControl.sol\":4323:4330  account */\n      dup4\n        /* \"@openzeppelin/contracts/access/AccessControl.sol\":4306:4316  _grantRole */\n      tag_232\n        /* \"@openzeppelin/contracts/access/AccessControl.sol\":4306:4331  _grantRole(role, account) */\n      jump\t// in\n    tag_231:\n      pop\n        /* \"@openzeppelin/contracts/access/AccessControl.sol\":4202:4338  function grantRole(bytes32 role, address account) public virtual onlyRole(getRoleAdmin(role)) {... */\n      pop\n      pop\n      pop\n      jump\t// out\n        /* \"@openzeppelin/contracts/token/ERC20/ERC20.sol\":2688:2770  function decimals() public view virtual returns (uint8) {... */\n    tag_101:\n        /* \"@openzeppelin/contracts/token/ERC20/ERC20.sol\":2737:2742  uint8 */\n      0x00\n        /* \"@openzeppelin/contracts/token/ERC20/ERC20.sol\":2761:2763  18 */\n      0x12\n        /* \"@openzeppelin/contracts/token/ERC20/ERC20.sol\":2754:2763  return 18 */\n      swap1\n      pop\n        /* \"@openzeppelin/contracts/token/ERC20/ERC20.sol\":2688:2770  function decimals() public view virtual returns (uint8) {... */\n      swap1\n      jump\t// out\n        /* \"@openzeppelin/contracts/access/AccessControl.sol\":5304:5549  function renounceRole(bytes32 role, address callerConfirmation) public virtual {... */\n    tag_106:\n        /* \"@openzeppelin/contracts/access/AccessControl.sol\":5419:5431  _msgSender() */\n      tag_235\n        /* \"@openzeppelin/contracts/access/AccessControl.sol\":5419:5429  _msgSender */\n      tag_183\n        /* \"@openzeppelin/contracts/access/AccessControl.sol\":5419:5431  _msgSender() */\n      jump\t// in\n    tag_235:\n        /* \"@openzeppelin/contracts/access/AccessControl.sol\":5397:5431  callerConfirmation != _msgSender() */\n      0xffffffffffffffffffffffffffffffffffffffff\n      and\n        /* \"@openzeppelin/contracts/access/AccessControl.sol\":5397:5415  callerConfirmation */\n      dup2\n        /* \"@openzeppelin/contracts/access/AccessControl.sol\":5397:5431  callerConfirmation != _msgSender() */\n      0xffffffffffffffffffffffffffffffffffffffff\n      and\n      eq\n        /* \"@openzeppelin/contracts/access/AccessControl.sol\":5393:5495  if (callerConfirmation != _msgSender()) {... */\n      tag_236\n      jumpi\n        /* \"@openzeppelin/contracts/access/AccessControl.sol\":5454:5484  AccessControlBadConfirmation() */\n      mload(0x40)\n      0x6697b23200000000000000000000000000000000000000000000000000000000\n      dup2\n      mstore\n      0x04\n      add\n      mload(0x40)\n      dup1\n      swap2\n      sub\n      swap1\n      revert\n        /* \"@openzeppelin/contracts/access/AccessControl.sol\":5393:5495  if (callerConfirmation != _msgSender()) {... */\n    tag_236:\n        /* \"@openzeppelin/contracts/access/AccessControl.sol\":5505:5542  _revokeRole(role, callerConfirmation) */\n      tag_237\n        /* \"@openzeppelin/contracts/access/AccessControl.sol\":5517:5521  role */\n      dup3\n        /* \"@openzeppelin/contracts/access/AccessControl.sol\":5523:5541  callerConfirmation */\n      dup3\n        /* \"@openzeppelin/contracts/access/AccessControl.sol\":5505:5516  _revokeRole */\n      tag_238\n        /* \"@openzeppelin/contracts/access/AccessControl.sol\":5505:5542  _revokeRole(role, callerConfirmation) */\n      jump\t// in\n    tag_237:\n      pop\n        /* \"@openzeppelin/contracts/access/AccessControl.sol\":5304:5549  function renounceRole(bytes32 role, address callerConfirmation) public virtual {... */\n      pop\n      pop\n      jump\t// out\n        /* \"contracts/mainFunc.sol\":1936:2073  function mint(address to, uint256 amount) public onlyMinter maxMint(amount) whenNotPaused  {... */\n    tag_109:\n        /* \"contracts/mainFunc.sol\":1432:1464  hasRole(MINTER_ROLE, msg.sender) */\n      tag_240\n        /* \"contracts/mainFunc.sol\":503:527  keccak256(\"MINTER_ROLE\") */\n      0x9f2df0fed2c77648de5860a4cc508cd0818c85b8b8a1ab4ceeef8d981c8956a6\n        /* \"contracts/mainFunc.sol\":1453:1463  msg.sender */\n      caller\n        /* \"contracts/mainFunc.sol\":1432:1439  hasRole */\n      tag_125\n        /* \"contracts/mainFunc.sol\":1432:1464  hasRole(MINTER_ROLE, msg.sender) */\n      jump\t// in\n    tag_240:\n        /* \"contracts/mainFunc.sol\":1424:1486  require(hasRole(MINTER_ROLE, msg.sender), \"Error: not minter\") */\n      tag_241\n      jumpi\n      mload(0x40)\n      0x08c379a000000000000000000000000000000000000000000000000000000000\n      dup2\n      mstore\n      0x04\n      add\n      tag_242\n      swap1\n      tag_243\n      jump\t// in\n    tag_242:\n      mload(0x40)\n      dup1\n      swap2\n      sub\n      swap1\n      revert\n    tag_241:\n        /* \"contracts/mainFunc.sol\":2004:2010  amount */\n      dup1\n        /* \"contracts/mainFunc.sol\":1713:1722  maxSupply */\n      sload(0x08)\n        /* \"contracts/mainFunc.sol\":1703:1709  amount */\n      dup2\n        /* \"contracts/mainFunc.sol\":1687:1700  totalSupply() */\n      tag_245\n        /* \"contracts/mainFunc.sol\":1687:1698  totalSupply */\n      tag_73\n        /* \"contracts/mainFunc.sol\":1687:1700  totalSupply() */\n      jump\t// in\n    tag_245:\n        /* \"contracts/mainFunc.sol\":1687:1709  totalSupply() + amount */\n      tag_246\n      swap2\n      swap1\n      tag_247\n      jump\t// in\n    tag_246:\n        /* \"contracts/mainFunc.sol\":1687:1722  totalSupply() + amount <= maxSupply */\n      gt\n      iszero\n        /* \"contracts/mainFunc.sol\":1679:1744  require(totalSupply() + amount <= maxSupply, \"Error: max supply\") */\n      tag_248\n      jumpi\n      mload(0x40)\n      0x08c379a000000000000000000000000000000000000000000000000000000000\n      dup2\n      mstore\n      0x04\n      add\n      tag_249\n      swap1\n      tag_250\n      jump\t// in\n    tag_249:\n      mload(0x40)\n      dup1\n      swap2\n      sub\n      swap1\n      revert\n    tag_248:\n        /* \"@openzeppelin/contracts/utils/Pausable.sol\":1350:1369  _requireNotPaused() */\n      tag_252\n        /* \"@openzeppelin/contracts/utils/Pausable.sol\":1350:1367  _requireNotPaused */\n      tag_189\n        /* \"@openzeppelin/contracts/utils/Pausable.sol\":1350:1369  _requireNotPaused() */\n      jump\t// in\n    tag_252:\n        /* \"contracts/mainFunc.sol\":2048:2065  _mint(to, amount) */\n      tag_254\n        /* \"contracts/mainFunc.sol\":2054:2056  to */\n      dup4\n        /* \"contracts/mainFunc.sol\":2058:2064  amount */\n      dup4\n        /* \"contracts/mainFunc.sol\":2048:2053  _mint */\n      tag_255\n        /* \"contracts/mainFunc.sol\":2048:2065  _mint(to, amount) */\n      jump\t// in\n    tag_254:\n        /* \"contracts/mainFunc.sol\":1497:1498  _ */\n      pop\n        /* \"contracts/mainFunc.sol\":1936:2073  function mint(address to, uint256 amount) public onlyMinter maxMint(amount) whenNotPaused  {... */\n      pop\n      pop\n      jump\t// out\n        /* \"@openzeppelin/contracts/utils/Pausable.sol\":1726:1810  function paused() public view virtual returns (bool) {... */\n    tag_111:\n        /* \"@openzeppelin/contracts/utils/Pausable.sol\":1773:1777  bool */\n      0x00\n        /* \"@openzeppelin/contracts/utils/Pausable.sol\":1796:1803  _paused */\n      0x05\n      0x00\n      swap1\n      sload\n      swap1\n      0x0100\n      exp\n      swap1\n      div\n      0xff\n      and\n        /* \"@openzeppelin/contracts/utils/Pausable.sol\":1789:1803  return _paused */\n      swap1\n      pop\n        /* \"@openzeppelin/contracts/utils/Pausable.sol\":1726:1810  function paused() public view virtual returns (bool) {... */\n      swap1\n      jump\t// out\n        /* \"contracts/mainFunc.sol\":777:814  uint256 public rewardRatePerHour = 10 */\n    tag_114:\n      sload(0x0b)\n      dup2\n      jump\t// out\n        /* \"@openzeppelin/contracts/token/ERC20/ERC20.sol\":2933:3049  function balanceOf(address account) public view virtual returns (uint256) {... */\n    tag_118:\n        /* \"@openzeppelin/contracts/token/ERC20/ERC20.sol\":2998:3005  uint256 */\n      0x00\n        /* \"@openzeppelin/contracts/token/ERC20/ERC20.sol\":3024:3033  _balances */\n      0x00\n        /* \"@openzeppelin/contracts/token/ERC20/ERC20.sol\":3024:3042  _balances[account] */\n      0x00\n        /* \"@openzeppelin/contracts/token/ERC20/ERC20.sol\":3034:3041  account */\n      dup4\n        /* \"@openzeppelin/contracts/token/ERC20/ERC20.sol\":3024:3042  _balances[account] */\n      0xffffffffffffffffffffffffffffffffffffffff\n      and\n      0xffffffffffffffffffffffffffffffffffffffff\n      and\n      dup2\n      mstore\n      0x20\n      add\n      swap1\n      dup2\n      mstore\n      0x20\n      add\n      0x00\n      keccak256\n      sload\n        /* \"@openzeppelin/contracts/token/ERC20/ERC20.sol\":3017:3042  return _balances[account] */\n      swap1\n      pop\n        /* \"@openzeppelin/contracts/token/ERC20/ERC20.sol\":2933:3049  function balanceOf(address account) public view virtual returns (uint256) {... */\n      swap2\n      swap1\n      pop\n      jump\t// out\n        /* \"contracts/mainFunc.sol\":382:411  uint256 public feePercent = 1 */\n    tag_121:\n      sload(0x07)\n      dup2\n      jump\t// out\n        /* \"@openzeppelin/contracts/access/AccessControl.sol\":2830:2966  function hasRole(bytes32 role, address account) public view virtual returns (bool) {... */\n    tag_125:\n        /* \"@openzeppelin/contracts/access/AccessControl.sol\":2907:2911  bool */\n      0x00\n        /* \"@openzeppelin/contracts/access/AccessControl.sol\":2930:2936  _roles */\n      0x06\n        /* \"@openzeppelin/contracts/access/AccessControl.sol\":2930:2942  _roles[role] */\n      0x00\n        /* \"@openzeppelin/contracts/access/AccessControl.sol\":2937:2941  role */\n      dup5\n        /* \"@openzeppelin/contracts/access/AccessControl.sol\":2930:2942  _roles[role] */\n      dup2\n      mstore\n      0x20\n      add\n      swap1\n      dup2\n      mstore\n      0x20\n      add\n      0x00\n      keccak256\n        /* \"@openzeppelin/contracts/access/AccessControl.sol\":2930:2950  _roles[role].hasRole */\n      0x00\n      add\n        /* \"@openzeppelin/contracts/access/AccessControl.sol\":2930:2959  _roles[role].hasRole[account] */\n      0x00\n        /* \"@openzeppelin/contracts/access/AccessControl.sol\":2951:2958  account */\n      dup4\n        /* \"@openzeppelin/contracts/access/AccessControl.sol\":2930:2959  _roles[role].hasRole[account] */\n      0xffffffffffffffffffffffffffffffffffffffff\n      and\n      0xffffffffffffffffffffffffffffffffffffffff\n      and\n      dup2\n      mstore\n      0x20\n      add\n      swap1\n      dup2\n      mstore\n      0x20\n      add\n      0x00\n      keccak256\n      0x00\n      swap1\n      sload\n      swap1\n      0x0100\n      exp\n      swap1\n      div\n      0xff\n      and\n        /* \"@openzeppelin/contracts/access/AccessControl.sol\":2923:2959  return _roles[role].hasRole[account] */\n      swap1\n      pop\n        /* \"@openzeppelin/contracts/access/AccessControl.sol\":2830:2966  function hasRole(bytes32 role, address account) public view virtual returns (bool) {... */\n      swap3\n      swap2\n      pop\n      pop\n      jump\t// out\n        /* \"@openzeppelin/contracts/token/ERC20/ERC20.sol\":1962:2055  function symbol() public view virtual returns (string memory) {... */\n    tag_128:\n        /* \"@openzeppelin/contracts/token/ERC20/ERC20.sol\":2009:2022  string memory */\n      0x60\n        /* \"@openzeppelin/contracts/token/ERC20/ERC20.sol\":2041:2048  _symbol */\n      0x04\n        /* \"@openzeppelin/contracts/token/ERC20/ERC20.sol\":2034:2048  return _symbol */\n      dup1\n      sload\n      tag_260\n      swap1\n      tag_176\n      jump\t// in\n    tag_260:\n      dup1\n      0x1f\n      add\n      0x20\n      dup1\n      swap2\n      div\n      mul\n      0x20\n      add\n      mload(0x40)\n      swap1\n      dup2\n      add\n      0x40\n      mstore\n      dup1\n      swap3\n      swap2\n      swap1\n      dup2\n      dup2\n      mstore\n      0x20\n      add\n      dup3\n      dup1\n      sload\n      tag_261\n      swap1\n      tag_176\n      jump\t// in\n    tag_261:\n      dup1\n      iszero\n      tag_262\n      jumpi\n      dup1\n      0x1f\n      lt\n      tag_263\n      jumpi\n      0x0100\n      dup1\n      dup4\n      sload\n      div\n      mul\n      dup4\n      mstore\n      swap2\n      0x20\n      add\n      swap2\n      jump(tag_262)\n    tag_263:\n      dup3\n      add\n      swap2\n      swap1\n      0x00\n      mstore\n      keccak256(0x00, 0x20)\n      swap1\n    tag_264:\n      dup2\n      sload\n      dup2\n      mstore\n      swap1\n      0x01\n      add\n      swap1\n      0x20\n      add\n      dup1\n      dup4\n      gt\n      tag_264\n      jumpi\n      dup3\n      swap1\n      sub\n      0x1f\n      and\n      dup3\n      add\n      swap2\n    tag_262:\n      pop\n      pop\n      pop\n      pop\n      pop\n      swap1\n      pop\n        /* \"@openzeppelin/contracts/token/ERC20/ERC20.sol\":1962:2055  function symbol() public view virtual returns (string memory) {... */\n      swap1\n      jump\t// out\n        /* \"contracts/mainFunc.sol\":720:770  mapping(address => uint256) public stakeTimestamps */\n    tag_132:\n      mstore(0x20, 0x0a)\n      dup1\n      0x00\n      mstore\n      keccak256(0x00, 0x40)\n      0x00\n      swap2\n      pop\n      swap1\n      pop\n      sload\n      dup2\n      jump\t// out\n        /* \"contracts/mainFunc.sol\":2250:2411  function burn(address account,uint256 amount) external whenNotPaused onlyBurner isBalanceAvailable(account, amount)... */\n    tag_136:\n        /* \"@openzeppelin/contracts/utils/Pausable.sol\":1350:1369  _requireNotPaused() */\n      tag_266\n        /* \"@openzeppelin/contracts/utils/Pausable.sol\":1350:1367  _requireNotPaused */\n      tag_189\n        /* \"@openzeppelin/contracts/utils/Pausable.sol\":1350:1369  _requireNotPaused() */\n      jump\t// in\n    tag_266:\n        /* \"contracts/mainFunc.sol\":1553:1585  hasRole(BURNER_ROLE, msg.sender) */\n      tag_268\n        /* \"contracts/mainFunc.sol\":641:665  keccak256(\"BURNER_ROLE\") */\n      0x3c11d16cbaffd01df69ce1c404f6340ee057498f5f00246190ea54220576a848\n        /* \"contracts/mainFunc.sol\":1574:1584  msg.sender */\n      caller\n        /* \"contracts/mainFunc.sol\":1553:1560  hasRole */\n      tag_125\n        /* \"contracts/mainFunc.sol\":1553:1585  hasRole(BURNER_ROLE, msg.sender) */\n      jump\t// in\n    tag_268:\n        /* \"contracts/mainFunc.sol\":1545:1607  require(hasRole(BURNER_ROLE, msg.sender), \"Error: not burner\") */\n      tag_269\n      jumpi\n      mload(0x40)\n      0x08c379a000000000000000000000000000000000000000000000000000000000\n      dup2\n      mstore\n      0x04\n      add\n      tag_270\n      swap1\n      tag_271\n      jump\t// in\n    tag_270:\n      mload(0x40)\n      dup1\n      swap2\n      sub\n      swap1\n      revert\n    tag_269:\n        /* \"contracts/mainFunc.sol\":2349:2356  account */\n      dup2\n        /* \"contracts/mainFunc.sol\":2358:2364  amount */\n      dup2\n        /* \"contracts/mainFunc.sol\":1872:1878  amount */\n      dup1\n        /* \"contracts/mainFunc.sol\":1851:1868  balanceOf(wallet) */\n      tag_273\n        /* \"contracts/mainFunc.sol\":1861:1867  wallet */\n      dup4\n        /* \"contracts/mainFunc.sol\":1851:1860  balanceOf */\n      tag_118\n        /* \"contracts/mainFunc.sol\":1851:1868  balanceOf(wallet) */\n      jump\t// in\n    tag_273:\n        /* \"contracts/mainFunc.sol\":1851:1878  balanceOf(wallet) >= amount */\n      lt\n      iszero\n        /* \"contracts/mainFunc.sol\":1843:1908  require(balanceOf(wallet) >= amount, \"Error: not enough balance\") */\n      tag_274\n      jumpi\n      mload(0x40)\n      0x08c379a000000000000000000000000000000000000000000000000000000000\n      dup2\n      mstore\n      0x04\n      add\n      tag_275\n      swap1\n      tag_194\n      jump\t// in\n    tag_275:\n      mload(0x40)\n      dup1\n      swap2\n      sub\n      swap1\n      revert\n    tag_274:\n        /* \"contracts/mainFunc.sol\":2381:2403  _burn(account, amount) */\n      tag_277\n        /* \"contracts/mainFunc.sol\":2387:2394  account */\n      dup5\n        /* \"contracts/mainFunc.sol\":2396:2402  amount */\n      dup5\n        /* \"contracts/mainFunc.sol\":2381:2386  _burn */\n      tag_197\n        /* \"contracts/mainFunc.sol\":2381:2403  _burn(account, amount) */\n      jump\t// in\n    tag_277:\n        /* \"contracts/mainFunc.sol\":1618:1619  _ */\n      pop\n      pop\n        /* \"contracts/mainFunc.sol\":2250:2411  function burn(address account,uint256 amount) external whenNotPaused onlyBurner isBalanceAvailable(account, amount)... */\n      pop\n      pop\n      jump\t// out\n        /* \"@openzeppelin/contracts/access/AccessControl.sol\":2196:2245  bytes32 public constant DEFAULT_ADMIN_ROLE = 0x00 */\n    tag_138:\n        /* \"@openzeppelin/contracts/access/AccessControl.sol\":2241:2245  0x00 */\n      0x00\n        /* \"@openzeppelin/contracts/access/AccessControl.sol\":2196:2245  bytes32 public constant DEFAULT_ADMIN_ROLE = 0x00 */\n      0x00\n      shl\n      dup2\n      jump\t// out\n        /* \"contracts/mainFunc.sol\":5138:5765  function stake(uint256 amount) external {... */\n    tag_142:\n        /* \"contracts/mainFunc.sol\":5222:5228  amount */\n      dup1\n        /* \"contracts/mainFunc.sol\":5197:5218  balanceOf(msg.sender) */\n      tag_279\n        /* \"contracts/mainFunc.sol\":5207:5217  msg.sender */\n      caller\n        /* \"contracts/mainFunc.sol\":5197:5206  balanceOf */\n      tag_118\n        /* \"contracts/mainFunc.sol\":5197:5218  balanceOf(msg.sender) */\n      jump\t// in\n    tag_279:\n        /* \"contracts/mainFunc.sol\":5197:5228  balanceOf(msg.sender) >= amount */\n      lt\n      iszero\n        /* \"contracts/mainFunc.sol\":5189:5251  require(balanceOf(msg.sender) >= amount, \"Not enough balance\") */\n      tag_280\n      jumpi\n      mload(0x40)\n      0x08c379a000000000000000000000000000000000000000000000000000000000\n      dup2\n      mstore\n      0x04\n      add\n      tag_281\n      swap1\n      tag_282\n      jump\t// in\n    tag_281:\n      mload(0x40)\n      dup1\n      swap2\n      sub\n      swap1\n      revert\n    tag_280:\n        /* \"contracts/mainFunc.sol\":5301:5316  maxStakePerUser */\n      sload(0x0c)\n        /* \"contracts/mainFunc.sol\":5291:5297  amount */\n      dup2\n        /* \"contracts/mainFunc.sol\":5270:5276  stakes */\n      0x09\n        /* \"contracts/mainFunc.sol\":5270:5288  stakes[msg.sender] */\n      0x00\n        /* \"contracts/mainFunc.sol\":5277:5287  msg.sender */\n      caller\n        /* \"contracts/mainFunc.sol\":5270:5288  stakes[msg.sender] */\n      0xffffffffffffffffffffffffffffffffffffffff\n      and\n      0xffffffffffffffffffffffffffffffffffffffff\n      and\n      dup2\n      mstore\n      0x20\n      add\n      swap1\n      dup2\n      mstore\n      0x20\n      add\n      0x00\n      keccak256\n      sload\n        /* \"contracts/mainFunc.sol\":5270:5297  stakes[msg.sender] + amount */\n      tag_283\n      swap2\n      swap1\n      tag_247\n      jump\t// in\n    tag_283:\n        /* \"contracts/mainFunc.sol\":5270:5316  stakes[msg.sender] + amount <= maxStakePerUser */\n      gt\n      iszero\n        /* \"contracts/mainFunc.sol\":5262:5338  require(stakes[msg.sender] + amount <= maxStakePerUser, \"Exceeds max stake\") */\n      tag_284\n      jumpi\n      mload(0x40)\n      0x08c379a000000000000000000000000000000000000000000000000000000000\n      dup2\n      mstore\n      0x04\n      add\n      tag_285\n      swap1\n      tag_286\n      jump\t// in\n    tag_285:\n      mload(0x40)\n      dup1\n      swap2\n      sub\n      swap1\n      revert\n    tag_284:\n        /* \"contracts/mainFunc.sol\":5381:5387  amount */\n      dup1\n        /* \"contracts/mainFunc.sol\":5354:5378  balanceOf(address(this)) */\n      tag_287\n        /* \"contracts/mainFunc.sol\":5372:5376  this */\n      address\n        /* \"contracts/mainFunc.sol\":5354:5363  balanceOf */\n      tag_118\n        /* \"contracts/mainFunc.sol\":5354:5378  balanceOf(address(this)) */\n      jump\t// in\n    tag_287:\n        /* \"contracts/mainFunc.sol\":5354:5387  balanceOf(address(this)) < amount */\n      lt\n        /* \"contracts/mainFunc.sol\":5351:5441  if(balanceOf(address(this)) < amount )... */\n      iszero\n      tag_288\n      jumpi\n        /* \"contracts/mainFunc.sol\":5414:5429  autoMintIfLow() */\n      tag_289\n        /* \"contracts/mainFunc.sol\":5414:5427  autoMintIfLow */\n      tag_219\n        /* \"contracts/mainFunc.sol\":5414:5429  autoMintIfLow() */\n      jump\t// in\n    tag_289:\n        /* \"contracts/mainFunc.sol\":5351:5441  if(balanceOf(address(this)) < amount )... */\n    tag_288:\n        /* \"contracts/mainFunc.sol\":5488:5489  0 */\n      0x00\n        /* \"contracts/mainFunc.sol\":5457:5472  stakeTimestamps */\n      0x0a\n        /* \"contracts/mainFunc.sol\":5457:5484  stakeTimestamps[msg.sender] */\n      0x00\n        /* \"contracts/mainFunc.sol\":5473:5483  msg.sender */\n      caller\n        /* \"contracts/mainFunc.sol\":5457:5484  stakeTimestamps[msg.sender] */\n      0xffffffffffffffffffffffffffffffffffffffff\n      and\n      0xffffffffffffffffffffffffffffffffffffffff\n      and\n      dup2\n      mstore\n      0x20\n      add\n      swap1\n      dup2\n      mstore\n      0x20\n      add\n      0x00\n      keccak256\n      sload\n        /* \"contracts/mainFunc.sol\":5457:5489  stakeTimestamps[msg.sender] == 0 */\n      sub\n        /* \"contracts/mainFunc.sol\":5453:5620  if (stakeTimestamps[msg.sender] == 0) {... */\n      tag_290\n      jumpi\n        /* \"contracts/mainFunc.sol\":5536:5551  block.timestamp */\n      timestamp\n        /* \"contracts/mainFunc.sol\":5506:5521  stakeTimestamps */\n      0x0a\n        /* \"contracts/mainFunc.sol\":5506:5533  stakeTimestamps[msg.sender] */\n      0x00\n        /* \"contracts/mainFunc.sol\":5522:5532  msg.sender */\n      caller\n        /* \"contracts/mainFunc.sol\":5506:5533  stakeTimestamps[msg.sender] */\n      0xffffffffffffffffffffffffffffffffffffffff\n      and\n      0xffffffffffffffffffffffffffffffffffffffff\n      and\n      dup2\n      mstore\n      0x20\n      add\n      swap1\n      dup2\n      mstore\n      0x20\n      add\n      0x00\n      keccak256\n        /* \"contracts/mainFunc.sol\":5506:5551  stakeTimestamps[msg.sender] = block.timestamp */\n      dup2\n      swap1\n      sstore\n      pop\n        /* \"contracts/mainFunc.sol\":5453:5620  if (stakeTimestamps[msg.sender] == 0) {... */\n      jump(tag_291)\n    tag_290:\n        /* \"contracts/mainFunc.sol\":5584:5608  updateReward(msg.sender) */\n      tag_292\n        /* \"contracts/mainFunc.sol\":5597:5607  msg.sender */\n      caller\n        /* \"contracts/mainFunc.sol\":5584:5596  updateReward */\n      tag_221\n        /* \"contracts/mainFunc.sol\":5584:5608  updateReward(msg.sender) */\n      jump\t// in\n    tag_292:\n        /* \"contracts/mainFunc.sol\":5453:5620  if (stakeTimestamps[msg.sender] == 0) {... */\n    tag_291:\n        /* \"contracts/mainFunc.sol\":5632:5676  _transfer(msg.sender, address(this), amount) */\n      tag_293\n        /* \"contracts/mainFunc.sol\":5642:5652  msg.sender */\n      caller\n        /* \"contracts/mainFunc.sol\":5662:5666  this */\n      address\n        /* \"contracts/mainFunc.sol\":5669:5675  amount */\n      dup4\n        /* \"contracts/mainFunc.sol\":5632:5641  _transfer */\n      tag_224\n        /* \"contracts/mainFunc.sol\":5632:5676  _transfer(msg.sender, address(this), amount) */\n      jump\t// in\n    tag_293:\n        /* \"contracts/mainFunc.sol\":5709:5715  amount */\n      dup1\n        /* \"contracts/mainFunc.sol\":5687:5693  stakes */\n      0x09\n        /* \"contracts/mainFunc.sol\":5687:5705  stakes[msg.sender] */\n      0x00\n        /* \"contracts/mainFunc.sol\":5694:5704  msg.sender */\n      caller\n        /* \"contracts/mainFunc.sol\":5687:5705  stakes[msg.sender] */\n      0xffffffffffffffffffffffffffffffffffffffff\n      and\n      0xffffffffffffffffffffffffffffffffffffffff\n      and\n      dup2\n      mstore\n      0x20\n      add\n      swap1\n      dup2\n      mstore\n      0x20\n      add\n      0x00\n      keccak256\n      0x00\n        /* \"contracts/mainFunc.sol\":5687:5715  stakes[msg.sender] += amount */\n      dup3\n      dup3\n      sload\n      tag_294\n      swap2\n      swap1\n      tag_247\n      jump\t// in\n    tag_294:\n      swap3\n      pop\n      pop\n      dup2\n      swap1\n      sstore\n      pop\n        /* \"contracts/mainFunc.sol\":5738:5748  msg.sender */\n      caller\n        /* \"contracts/mainFunc.sol\":5731:5757  Staked(msg.sender, amount) */\n      0xffffffffffffffffffffffffffffffffffffffff\n      and\n      0x9e71bc8eea02a63969f509818f2dafb9254532904319f9dbda79b67bd34a5f3d\n        /* \"contracts/mainFunc.sol\":5750:5756  amount */\n      dup3\n        /* \"contracts/mainFunc.sol\":5731:5757  Staked(msg.sender, amount) */\n      mload(0x40)\n      tag_295\n      swap2\n      swap1\n      tag_59\n      jump\t// in\n    tag_295:\n      mload(0x40)\n      dup1\n      swap2\n      sub\n      swap1\n      log2\n        /* \"contracts/mainFunc.sol\":5138:5765  function stake(uint256 amount) external {... */\n      pop\n      jump\t// out\n        /* \"contracts/mainFunc.sol\":2966:3149  function transfer(address recipient, uint256 amount) public override whenNotPaused returns (bool) {... */\n    tag_145:\n        /* \"contracts/mainFunc.sol\":3058:3062  bool */\n      0x00\n        /* \"@openzeppelin/contracts/utils/Pausable.sol\":1350:1369  _requireNotPaused() */\n      tag_297\n        /* \"@openzeppelin/contracts/utils/Pausable.sol\":1350:1367  _requireNotPaused */\n      tag_189\n        /* \"@openzeppelin/contracts/utils/Pausable.sol\":1350:1369  _requireNotPaused() */\n      jump\t// in\n    tag_297:\n        /* \"contracts/mainFunc.sol\":3075:3119  _transferCoin(msg.sender, recipient, amount) */\n      tag_299\n        /* \"contracts/mainFunc.sol\":3089:3099  msg.sender */\n      caller\n        /* \"contracts/mainFunc.sol\":3101:3110  recipient */\n      dup5\n        /* \"contracts/mainFunc.sol\":3112:3118  amount */\n      dup5\n        /* \"contracts/mainFunc.sol\":3075:3088  _transferCoin */\n      tag_210\n        /* \"contracts/mainFunc.sol\":3075:3119  _transferCoin(msg.sender, recipient, amount) */\n      jump\t// in\n    tag_299:\n        /* \"contracts/mainFunc.sol\":3137:3141  true */\n      0x01\n        /* \"contracts/mainFunc.sol\":3130:3141  return true */\n      swap1\n      pop\n        /* \"contracts/mainFunc.sol\":2966:3149  function transfer(address recipient, uint256 amount) public override whenNotPaused returns (bool) {... */\n      swap3\n      swap2\n      pop\n      pop\n      jump\t// out\n        /* \"contracts/mainFunc.sol\":6178:6594  function claimReward() external {... */\n    tag_148:\n        /* \"contracts/mainFunc.sol\":6223:6247  updateReward(msg.sender) */\n      tag_301\n        /* \"contracts/mainFunc.sol\":6236:6246  msg.sender */\n      caller\n        /* \"contracts/mainFunc.sol\":6223:6235  updateReward */\n      tag_221\n        /* \"contracts/mainFunc.sol\":6223:6247  updateReward(msg.sender) */\n      jump\t// in\n    tag_301:\n        /* \"contracts/mainFunc.sol\":6258:6272  uint256 reward */\n      0x00\n        /* \"contracts/mainFunc.sol\":6275:6282  rewards */\n      0x0d\n        /* \"contracts/mainFunc.sol\":6275:6294  rewards[msg.sender] */\n      0x00\n        /* \"contracts/mainFunc.sol\":6283:6293  msg.sender */\n      caller\n        /* \"contracts/mainFunc.sol\":6275:6294  rewards[msg.sender] */\n      0xffffffffffffffffffffffffffffffffffffffff\n      and\n      0xffffffffffffffffffffffffffffffffffffffff\n      and\n      dup2\n      mstore\n      0x20\n      add\n      swap1\n      dup2\n      mstore\n      0x20\n      add\n      0x00\n      keccak256\n      sload\n        /* \"contracts/mainFunc.sol\":6258:6294  uint256 reward = rewards[msg.sender] */\n      swap1\n      pop\n        /* \"contracts/mainFunc.sol\":6335:6341  reward */\n      dup1\n        /* \"contracts/mainFunc.sol\":6308:6332  balanceOf(address(this)) */\n      tag_302\n        /* \"contracts/mainFunc.sol\":6326:6330  this */\n      address\n        /* \"contracts/mainFunc.sol\":6308:6317  balanceOf */\n      tag_118\n        /* \"contracts/mainFunc.sol\":6308:6332  balanceOf(address(this)) */\n      jump\t// in\n    tag_302:\n        /* \"contracts/mainFunc.sol\":6308:6341  balanceOf(address(this)) < reward */\n      lt\n        /* \"contracts/mainFunc.sol\":6305:6396  if(balanceOf(address(this)) < reward  )... */\n      iszero\n      tag_303\n      jumpi\n        /* \"contracts/mainFunc.sol\":6369:6384  autoMintIfLow() */\n      tag_304\n        /* \"contracts/mainFunc.sol\":6369:6382  autoMintIfLow */\n      tag_219\n        /* \"contracts/mainFunc.sol\":6369:6384  autoMintIfLow() */\n      jump\t// in\n    tag_304:\n        /* \"contracts/mainFunc.sol\":6305:6396  if(balanceOf(address(this)) < reward  )... */\n    tag_303:\n        /* \"contracts/mainFunc.sol\":6423:6424  0 */\n      0x00\n        /* \"contracts/mainFunc.sol\":6414:6420  reward */\n      dup2\n        /* \"contracts/mainFunc.sol\":6414:6424  reward > 0 */\n      gt\n        /* \"contracts/mainFunc.sol\":6406:6448  require(reward > 0, \"No reward available\") */\n      tag_305\n      jumpi\n      mload(0x40)\n      0x08c379a000000000000000000000000000000000000000000000000000000000\n      dup2\n      mstore\n      0x04\n      add\n      tag_306\n      swap1\n      tag_307\n      jump\t// in\n    tag_306:\n      mload(0x40)\n      dup1\n      swap2\n      sub\n      swap1\n      revert\n    tag_305:\n        /* \"contracts/mainFunc.sol\":6481:6482  0 */\n      0x00\n        /* \"contracts/mainFunc.sol\":6459:6466  rewards */\n      0x0d\n        /* \"contracts/mainFunc.sol\":6459:6478  rewards[msg.sender] */\n      0x00\n        /* \"contracts/mainFunc.sol\":6467:6477  msg.sender */\n      caller\n        /* \"contracts/mainFunc.sol\":6459:6478  rewards[msg.sender] */\n      0xffffffffffffffffffffffffffffffffffffffff\n      and\n      0xffffffffffffffffffffffffffffffffffffffff\n      and\n      dup2\n      mstore\n      0x20\n      add\n      swap1\n      dup2\n      mstore\n      0x20\n      add\n      0x00\n      keccak256\n        /* \"contracts/mainFunc.sol\":6459:6482  rewards[msg.sender] = 0 */\n      dup2\n      swap1\n      sstore\n      pop\n        /* \"contracts/mainFunc.sol\":6493:6537  _transfer(address(this), msg.sender, reward) */\n      tag_308\n        /* \"contracts/mainFunc.sol\":6511:6515  this */\n      address\n        /* \"contracts/mainFunc.sol\":6518:6528  msg.sender */\n      caller\n        /* \"contracts/mainFunc.sol\":6530:6536  reward */\n      dup4\n        /* \"contracts/mainFunc.sol\":6493:6502  _transfer */\n      tag_224\n        /* \"contracts/mainFunc.sol\":6493:6537  _transfer(address(this), msg.sender, reward) */\n      jump\t// in\n    tag_308:\n        /* \"contracts/mainFunc.sol\":6567:6577  msg.sender */\n      caller\n        /* \"contracts/mainFunc.sol\":6553:6586  RewardClaimed(msg.sender, reward) */\n      0xffffffffffffffffffffffffffffffffffffffff\n      and\n      0x106f923f993c2149d49b4255ff723acafa1f2d94393f561d3eda32ae348f7241\n        /* \"contracts/mainFunc.sol\":6579:6585  reward */\n      dup3\n        /* \"contracts/mainFunc.sol\":6553:6586  RewardClaimed(msg.sender, reward) */\n      mload(0x40)\n      tag_309\n      swap2\n      swap1\n      tag_59\n      jump\t// in\n    tag_309:\n      mload(0x40)\n      dup1\n      swap2\n      sub\n      swap1\n      log2\n        /* \"contracts/mainFunc.sol\":6210:6594  {... */\n      pop\n        /* \"contracts/mainFunc.sol\":6178:6594  function claimReward() external {... */\n      jump\t// out\n        /* \"contracts/mainFunc.sol\":465:527  bytes32 public constant MINTER_ROLE = keccak256(\"MINTER_ROLE\") */\n    tag_150:\n        /* \"contracts/mainFunc.sol\":503:527  keccak256(\"MINTER_ROLE\") */\n      0x9f2df0fed2c77648de5860a4cc508cd0818c85b8b8a1ab4ceeef8d981c8956a6\n        /* \"contracts/mainFunc.sol\":465:527  bytes32 public constant MINTER_ROLE = keccak256(\"MINTER_ROLE\") */\n      dup2\n      jump\t// out\n        /* \"@openzeppelin/contracts/access/AccessControl.sol\":4618:4756  function revokeRole(bytes32 role, address account) public virtual onlyRole(getRoleAdmin(role)) {... */\n    tag_154:\n        /* \"@openzeppelin/contracts/access/AccessControl.sol\":4693:4711  getRoleAdmin(role) */\n      tag_310\n        /* \"@openzeppelin/contracts/access/AccessControl.sol\":4706:4710  role */\n      dup3\n        /* \"@openzeppelin/contracts/access/AccessControl.sol\":4693:4705  getRoleAdmin */\n      tag_87\n        /* \"@openzeppelin/contracts/access/AccessControl.sol\":4693:4711  getRoleAdmin(role) */\n      jump\t// in\n    tag_310:\n        /* \"@openzeppelin/contracts/access/AccessControl.sol\":2473:2489  _checkRole(role) */\n      tag_312\n        /* \"@openzeppelin/contracts/access/AccessControl.sol\":2484:2488  role */\n      dup2\n        /* \"@openzeppelin/contracts/access/AccessControl.sol\":2473:2483  _checkRole */\n      tag_229\n        /* \"@openzeppelin/contracts/access/AccessControl.sol\":2473:2489  _checkRole(role) */\n      jump\t// in\n    tag_312:\n        /* \"@openzeppelin/contracts/access/AccessControl.sol\":4723:4749  _revokeRole(role, account) */\n      tag_314\n        /* \"@openzeppelin/contracts/access/AccessControl.sol\":4735:4739  role */\n      dup4\n        /* \"@openzeppelin/contracts/access/AccessControl.sol\":4741:4748  account */\n      dup4\n        /* \"@openzeppelin/contracts/access/AccessControl.sol\":4723:4734  _revokeRole */\n      tag_238\n        /* \"@openzeppelin/contracts/access/AccessControl.sol\":4723:4749  _revokeRole(role, account) */\n      jump\t// in\n    tag_314:\n      pop\n        /* \"@openzeppelin/contracts/access/AccessControl.sol\":4618:4756  function revokeRole(bytes32 role, address account) public virtual onlyRole(getRoleAdmin(role)) {... */\n      pop\n      pop\n      pop\n      jump\t// out\n        /* \"contracts/mainFunc.sol\":418:456  uint256 public  maxSupply = 1e6 * 1e18 */\n    tag_156:\n      sload(0x08)\n      dup2\n      jump\t// out\n        /* \"@openzeppelin/contracts/token/ERC20/ERC20.sol\":3455:3595  function allowance(address owner, address spender) public view virtual returns (uint256) {... */\n    tag_161:\n        /* \"@openzeppelin/contracts/token/ERC20/ERC20.sol\":3535:3542  uint256 */\n      0x00\n        /* \"@openzeppelin/contracts/token/ERC20/ERC20.sol\":3561:3572  _allowances */\n      0x01\n        /* \"@openzeppelin/contracts/token/ERC20/ERC20.sol\":3561:3579  _allowances[owner] */\n      0x00\n        /* \"@openzeppelin/contracts/token/ERC20/ERC20.sol\":3573:3578  owner */\n      dup5\n        /* \"@openzeppelin/contracts/token/ERC20/ERC20.sol\":3561:3579  _allowances[owner] */\n      0xffffffffffffffffffffffffffffffffffffffff\n      and\n      0xffffffffffffffffffffffffffffffffffffffff\n      and\n      dup2\n      mstore\n      0x20\n      add\n      swap1\n      dup2\n      mstore\n      0x20\n      add\n      0x00\n      keccak256\n        /* \"@openzeppelin/contracts/token/ERC20/ERC20.sol\":3561:3588  _allowances[owner][spender] */\n      0x00\n        /* \"@openzeppelin/contracts/token/ERC20/ERC20.sol\":3580:3587  spender */\n      dup4\n        /* \"@openzeppelin/contracts/token/ERC20/ERC20.sol\":3561:3588  _allowances[owner][spender] */\n      0xffffffffffffffffffffffffffffffffffffffff\n      and\n      0xffffffffffffffffffffffffffffffffffffffff\n      and\n      dup2\n      mstore\n      0x20\n      add\n      swap1\n      dup2\n      mstore\n      0x20\n      add\n      0x00\n      keccak256\n      sload\n        /* \"@openzeppelin/contracts/token/ERC20/ERC20.sol\":3554:3588  return _allowances[owner][spender] */\n      swap1\n      pop\n        /* \"@openzeppelin/contracts/token/ERC20/ERC20.sol\":3455:3595  function allowance(address owner, address spender) public view virtual returns (uint256) {... */\n      swap3\n      swap2\n      pop\n      pop\n      jump\t// out\n        /* \"contracts/mainFunc.sol\":534:596  bytes32 public constant PAUSER_ROLE = keccak256(\"PAUSER_ROLE\") */\n    tag_164:\n        /* \"contracts/mainFunc.sol\":572:596  keccak256(\"PAUSER_ROLE\") */\n      0x65d7a28e3265b37a6474929f336521b332c1681b933f6cb9f3376673440d862a\n        /* \"contracts/mainFunc.sol\":534:596  bytes32 public constant PAUSER_ROLE = keccak256(\"PAUSER_ROLE\") */\n      dup2\n      jump\t// out\n        /* \"contracts/mainFunc.sol\":3660:4364  function pendingReward(address user) public view returns (uint256) {... */\n    tag_168:\n        /* \"contracts/mainFunc.sol\":3718:3725  uint256 */\n      0x00\n        /* \"contracts/mainFunc.sol\":3738:3752  uint256 staked */\n      0x00\n        /* \"contracts/mainFunc.sol\":3755:3761  stakes */\n      0x09\n        /* \"contracts/mainFunc.sol\":3755:3767  stakes[user] */\n      0x00\n        /* \"contracts/mainFunc.sol\":3762:3766  user */\n      dup5\n        /* \"contracts/mainFunc.sol\":3755:3767  stakes[user] */\n      0xffffffffffffffffffffffffffffffffffffffff\n      and\n      0xffffffffffffffffffffffffffffffffffffffff\n      and\n      dup2\n      mstore\n      0x20\n      add\n      swap1\n      dup2\n      mstore\n      0x20\n      add\n      0x00\n      keccak256\n      sload\n        /* \"contracts/mainFunc.sol\":3738:3767  uint256 staked = stakes[user] */\n      swap1\n      pop\n        /* \"contracts/mainFunc.sol\":3792:3793  0 */\n      0x00\n        /* \"contracts/mainFunc.sol\":3782:3788  staked */\n      dup2\n        /* \"contracts/mainFunc.sol\":3782:3793  staked == 0 */\n      sub\n        /* \"contracts/mainFunc.sol\":3778:3803  if (staked == 0) return 0 */\n      tag_317\n      jumpi\n        /* \"contracts/mainFunc.sol\":3802:3803  0 */\n      0x00\n        /* \"contracts/mainFunc.sol\":3795:3803  return 0 */\n      swap2\n      pop\n      pop\n      jump(tag_316)\n        /* \"contracts/mainFunc.sol\":3778:3803  if (staked == 0) return 0 */\n    tag_317:\n        /* \"contracts/mainFunc.sol\":3814:3827  uint256 start */\n      0x00\n        /* \"contracts/mainFunc.sol\":3830:3845  stakeTimestamps */\n      0x0a\n        /* \"contracts/mainFunc.sol\":3830:3851  stakeTimestamps[user] */\n      0x00\n        /* \"contracts/mainFunc.sol\":3846:3850  user */\n      dup6\n        /* \"contracts/mainFunc.sol\":3830:3851  stakeTimestamps[user] */\n      0xffffffffffffffffffffffffffffffffffffffff\n      and\n      0xffffffffffffffffffffffffffffffffffffffff\n      and\n      dup2\n      mstore\n      0x20\n      add\n      swap1\n      dup2\n      mstore\n      0x20\n      add\n      0x00\n      keccak256\n      sload\n        /* \"contracts/mainFunc.sol\":3814:3851  uint256 start = stakeTimestamps[user] */\n      swap1\n      pop\n        /* \"contracts/mainFunc.sol\":3875:3876  0 */\n      0x00\n        /* \"contracts/mainFunc.sol\":3866:3871  start */\n      dup2\n        /* \"contracts/mainFunc.sol\":3866:3876  start == 0 */\n      sub\n        /* \"contracts/mainFunc.sol\":3862:3886  if (start == 0) return 0 */\n      tag_318\n      jumpi\n        /* \"contracts/mainFunc.sol\":3885:3886  0 */\n      0x00\n        /* \"contracts/mainFunc.sol\":3878:3886  return 0 */\n      swap3\n      pop\n      pop\n      pop\n      jump(tag_316)\n        /* \"contracts/mainFunc.sol\":3862:3886  if (start == 0) return 0 */\n    tag_318:\n        /* \"contracts/mainFunc.sol\":3897:3916  uint256 hoursStaked */\n      0x00\n        /* \"contracts/mainFunc.sol\":3947:3951  3600 */\n      0x0e10\n        /* \"contracts/mainFunc.sol\":3938:3943  start */\n      dup3\n        /* \"contracts/mainFunc.sol\":3920:3935  block.timestamp */\n      timestamp\n        /* \"contracts/mainFunc.sol\":3920:3943  block.timestamp - start */\n      tag_319\n      swap2\n      swap1\n      tag_208\n      jump\t// in\n    tag_319:\n        /* \"contracts/mainFunc.sol\":3919:3951  (block.timestamp - start) / 3600 */\n      tag_320\n      swap2\n      swap1\n      tag_321\n      jump\t// in\n    tag_320:\n        /* \"contracts/mainFunc.sol\":3897:3951  uint256 hoursStaked = (block.timestamp - start) / 3600 */\n      swap1\n      pop\n        /* \"contracts/mainFunc.sol\":3981:3982  0 */\n      0x00\n        /* \"contracts/mainFunc.sol\":3966:3977  hoursStaked */\n      dup2\n        /* \"contracts/mainFunc.sol\":3966:3982  hoursStaked == 0 */\n      sub\n        /* \"contracts/mainFunc.sol\":3962:3992  if (hoursStaked == 0) return 0 */\n      tag_322\n      jumpi\n        /* \"contracts/mainFunc.sol\":3991:3992  0 */\n      0x00\n        /* \"contracts/mainFunc.sol\":3984:3992  return 0 */\n      swap4\n      pop\n      pop\n      pop\n      pop\n      jump(tag_316)\n        /* \"contracts/mainFunc.sol\":3962:3992  if (hoursStaked == 0) return 0 */\n    tag_322:\n        /* \"contracts/mainFunc.sol\":4005:4017  uint256 rate */\n      0x00\n        /* \"contracts/mainFunc.sol\":4020:4037  rewardRatePerHour */\n      sload(0x0b)\n        /* \"contracts/mainFunc.sol\":4005:4037  uint256 rate = rewardRatePerHour */\n      swap1\n      pop\n        /* \"contracts/mainFunc.sol\":4062:4063  0 */\n      0x00\n        /* \"contracts/mainFunc.sol\":4053:4059  staked */\n      dup5\n        /* \"contracts/mainFunc.sol\":4053:4063  staked > 0 */\n      gt\n        /* \"contracts/mainFunc.sol\":4053:4088  staked > 0 && staked <= 1000 * 1e18 */\n      dup1\n      iszero\n      tag_323\n      jumpi\n      pop\n        /* \"contracts/mainFunc.sol\":4077:4088  1000 * 1e18 */\n      0x3635c9adc5dea00000\n        /* \"contracts/mainFunc.sol\":4067:4073  staked */\n      dup5\n        /* \"contracts/mainFunc.sol\":4067:4088  staked <= 1000 * 1e18 */\n      gt\n      iszero\n        /* \"contracts/mainFunc.sol\":4053:4088  staked > 0 && staked <= 1000 * 1e18 */\n    tag_323:\n        /* \"contracts/mainFunc.sol\":4050:4208  if(staked > 0 && staked <= 1000 * 1e18) {... */\n      iszero\n      tag_324\n      jumpi\n        /* \"contracts/mainFunc.sol\":4105:4118  uint256 bonus */\n      0x00\n        /* \"contracts/mainFunc.sol\":4154:4165  1000 * 1e18 */\n      0x3635c9adc5dea00000\n        /* \"contracts/mainFunc.sol\":4147:4149  50 */\n      0x32\n        /* \"contracts/mainFunc.sol\":4137:4143  staked */\n      dup7\n        /* \"contracts/mainFunc.sol\":4123:4134  1000 * 1e18 */\n      0x3635c9adc5dea00000\n        /* \"contracts/mainFunc.sol\":4123:4143  1000 * 1e18 - staked */\n      tag_325\n      swap2\n      swap1\n      tag_208\n      jump\t// in\n    tag_325:\n        /* \"contracts/mainFunc.sol\":4122:4149  (1000 * 1e18 - staked) * 50 */\n      tag_326\n      swap2\n      swap1\n      tag_327\n      jump\t// in\n    tag_326:\n        /* \"contracts/mainFunc.sol\":4121:4166  ((1000 * 1e18 - staked) * 50) / (1000 * 1e18) */\n      tag_328\n      swap2\n      swap1\n      tag_321\n      jump\t// in\n    tag_328:\n        /* \"contracts/mainFunc.sol\":4105:4166  uint256 bonus = ((1000 * 1e18 - staked) * 50) / (1000 * 1e18) */\n      swap1\n      pop\n        /* \"contracts/mainFunc.sol\":4190:4195  bonus */\n      dup1\n        /* \"contracts/mainFunc.sol\":4182:4195  rate += bonus */\n      dup3\n      tag_329\n      swap2\n      swap1\n      tag_247\n      jump\t// in\n    tag_329:\n      swap2\n      pop\n        /* \"contracts/mainFunc.sol\":4090:4208  {... */\n      pop\n        /* \"contracts/mainFunc.sol\":4050:4208  if(staked > 0 && staked <= 1000 * 1e18) {... */\n    tag_324:\n        /* \"contracts/mainFunc.sol\":4232:4243  5000 * 1e18 */\n      0x010f0cf064dd59200000\n        /* \"contracts/mainFunc.sol\":4223:4229  staked */\n      dup5\n        /* \"contracts/mainFunc.sol\":4223:4243  staked > 5000 * 1e18 */\n      gt\n        /* \"contracts/mainFunc.sol\":4220:4302  if(staked > 5000 * 1e18) {... */\n      iszero\n      tag_330\n      jumpi\n        /* \"contracts/mainFunc.sol\":4274:4275  5 */\n      0x05\n        /* \"contracts/mainFunc.sol\":4267:4271  rate */\n      dup2\n        /* \"contracts/mainFunc.sol\":4267:4275  rate > 5 */\n      gt\n        /* \"contracts/mainFunc.sol\":4267:4290  rate > 5 ? rate - 5 : 0 */\n      tag_331\n      jumpi\n        /* \"contracts/mainFunc.sol\":4289:4290  0 */\n      0x00\n        /* \"contracts/mainFunc.sol\":4267:4290  rate > 5 ? rate - 5 : 0 */\n      jump(tag_332)\n    tag_331:\n        /* \"contracts/mainFunc.sol\":4285:4286  5 */\n      0x05\n        /* \"contracts/mainFunc.sol\":4278:4282  rate */\n      dup2\n        /* \"contracts/mainFunc.sol\":4278:4286  rate - 5 */\n      tag_333\n      swap2\n      swap1\n      tag_208\n      jump\t// in\n    tag_333:\n        /* \"contracts/mainFunc.sol\":4267:4290  rate > 5 ? rate - 5 : 0 */\n    tag_332:\n        /* \"contracts/mainFunc.sol\":4260:4290  rate = rate > 5 ? rate - 5 : 0 */\n      swap1\n      pop\n        /* \"contracts/mainFunc.sol\":4220:4302  if(staked > 5000 * 1e18) {... */\n    tag_330:\n        /* \"contracts/mainFunc.sol\":4353:4356  100 */\n      0x64\n        /* \"contracts/mainFunc.sol\":4338:4349  hoursStaked */\n      dup3\n        /* \"contracts/mainFunc.sol\":4331:4335  rate */\n      dup3\n        /* \"contracts/mainFunc.sol\":4322:4328  staked */\n      dup7\n        /* \"contracts/mainFunc.sol\":4322:4335  staked * rate */\n      tag_334\n      swap2\n      swap1\n      tag_327\n      jump\t// in\n    tag_334:\n        /* \"contracts/mainFunc.sol\":4322:4349  staked * rate * hoursStaked */\n      tag_335\n      swap2\n      swap1\n      tag_327\n      jump\t// in\n    tag_335:\n        /* \"contracts/mainFunc.sol\":4321:4356  (staked * rate * hoursStaked) / 100 */\n      tag_336\n      swap2\n      swap1\n      tag_321\n      jump\t// in\n    tag_336:\n        /* \"contracts/mainFunc.sol\":4314:4356  return (staked * rate * hoursStaked) / 100 */\n      swap5\n      pop\n      pop\n      pop\n      pop\n      pop\n        /* \"contracts/mainFunc.sol\":3660:4364  function pendingReward(address user) public view returns (uint256) {... */\n    tag_316:\n      swap2\n      swap1\n      pop\n      jump\t// out\n        /* \"@openzeppelin/contracts/utils/introspection/ERC165.sol\":730:876  function supportsInterface(bytes4 interfaceId) public view virtual returns (bool) {... */\n    tag_173:\n        /* \"@openzeppelin/contracts/utils/introspection/ERC165.sol\":806:810  bool */\n      0x00\n        /* \"@openzeppelin/contracts/utils/introspection/ERC165.sol\":844:869  type(IERC165).interfaceId */\n      0x01ffc9a700000000000000000000000000000000000000000000000000000000\n        /* \"@openzeppelin/contracts/utils/introspection/ERC165.sol\":829:869  interfaceId == type(IERC165).interfaceId */\n      not(0xffffffffffffffffffffffffffffffffffffffffffffffffffffffff)\n      and\n        /* \"@openzeppelin/contracts/utils/introspection/ERC165.sol\":829:840  interfaceId */\n      dup3\n        /* \"@openzeppelin/contracts/utils/introspection/ERC165.sol\":829:869  interfaceId == type(IERC165).interfaceId */\n      not(0xffffffffffffffffffffffffffffffffffffffffffffffffffffffff)\n      and\n      eq\n        /* \"@openzeppelin/contracts/utils/introspection/ERC165.sol\":822:869  return interfaceId == type(IERC165).interfaceId */\n      swap1\n      pop\n        /* \"@openzeppelin/contracts/utils/introspection/ERC165.sol\":730:876  function supportsInterface(bytes4 interfaceId) public view virtual returns (bool) {... */\n      swap2\n      swap1\n      pop\n      jump\t// out\n        /* \"@openzeppelin/contracts/utils/Context.sol\":656:752  function _msgSender() internal view virtual returns (address) {... */\n    tag_183:\n        /* \"@openzeppelin/contracts/utils/Context.sol\":709:716  address */\n      0x00\n        /* \"@openzeppelin/contracts/utils/Context.sol\":735:745  msg.sender */\n      caller\n        /* \"@openzeppelin/contracts/utils/Context.sol\":728:745  return msg.sender */\n      swap1\n      pop\n        /* \"@openzeppelin/contracts/utils/Context.sol\":656:752  function _msgSender() internal view virtual returns (address) {... */\n      swap1\n      jump\t// out\n        /* \"@openzeppelin/contracts/token/ERC20/ERC20.sol\":8630:8758  function _approve(address owner, address spender, uint256 value) internal {... */\n    tag_185:\n        /* \"@openzeppelin/contracts/token/ERC20/ERC20.sol\":8714:8751  _approve(owner, spender, value, true) */\n      tag_340\n        /* \"@openzeppelin/contracts/token/ERC20/ERC20.sol\":8723:8728  owner */\n      dup4\n        /* \"@openzeppelin/contracts/token/ERC20/ERC20.sol\":8730:8737  spender */\n      dup4\n        /* \"@openzeppelin/contracts/token/ERC20/ERC20.sol\":8739:8744  value */\n      dup4\n        /* \"@openzeppelin/contracts/token/ERC20/ERC20.sol\":8746:8750  true */\n      0x01\n        /* \"@openzeppelin/contracts/token/ERC20/ERC20.sol\":8714:8722  _approve */\n      tag_341\n        /* \"@openzeppelin/contracts/token/ERC20/ERC20.sol\":8714:8751  _approve(owner, spender, value, true) */\n      jump\t// in\n    tag_340:\n        /* \"@openzeppelin/contracts/token/ERC20/ERC20.sol\":8630:8758  function _approve(address owner, address spender, uint256 value) internal {... */\n      pop\n      pop\n      pop\n      jump\t// out\n        /* \"@openzeppelin/contracts/utils/Pausable.sol\":1878:2006  function _requireNotPaused() internal view virtual {... */\n    tag_189:\n        /* \"@openzeppelin/contracts/utils/Pausable.sol\":1943:1951  paused() */\n      tag_343\n        /* \"@openzeppelin/contracts/utils/Pausable.sol\":1943:1949  paused */\n      tag_111\n        /* \"@openzeppelin/contracts/utils/Pausable.sol\":1943:1951  paused() */\n      jump\t// in\n    tag_343:\n        /* \"@openzeppelin/contracts/utils/Pausable.sol\":1939:2000  if (paused()) {... */\n      iszero\n      tag_344\n      jumpi\n        /* \"@openzeppelin/contracts/utils/Pausable.sol\":1974:1989  EnforcedPause() */\n      mload(0x40)\n      0xd93c066500000000000000000000000000000000000000000000000000000000\n      dup2\n      mstore\n      0x04\n      add\n      mload(0x40)\n      dup1\n      swap2\n      sub\n      swap1\n      revert\n        /* \"@openzeppelin/contracts/utils/Pausable.sol\":1939:2000  if (paused()) {... */\n    tag_344:\n        /* \"@openzeppelin/contracts/utils/Pausable.sol\":1878:2006  function _requireNotPaused() internal view virtual {... */\n      jump\t// out\n        /* \"@openzeppelin/contracts/token/ERC20/ERC20.sol\":7888:8094  function _burn(address account, uint256 value) internal {... */\n    tag_197:\n        /* \"@openzeppelin/contracts/token/ERC20/ERC20.sol\":7977:7978  0 */\n      0x00\n        /* \"@openzeppelin/contracts/token/ERC20/ERC20.sol\":7958:7979  account == address(0) */\n      0xffffffffffffffffffffffffffffffffffffffff\n      and\n        /* \"@openzeppelin/contracts/token/ERC20/ERC20.sol\":7958:7965  account */\n      dup3\n        /* \"@openzeppelin/contracts/token/ERC20/ERC20.sol\":7958:7979  account == address(0) */\n      0xffffffffffffffffffffffffffffffffffffffff\n      and\n      sub\n        /* \"@openzeppelin/contracts/token/ERC20/ERC20.sol\":7954:8043  if (account == address(0)) {... */\n      tag_346\n      jumpi\n        /* \"@openzeppelin/contracts/token/ERC20/ERC20.sol\":8029:8030  0 */\n      0x00\n        /* \"@openzeppelin/contracts/token/ERC20/ERC20.sol\":8002:8032  ERC20InvalidSender(address(0)) */\n      mload(0x40)\n      0x96c6fd1e00000000000000000000000000000000000000000000000000000000\n      dup2\n      mstore\n      0x04\n      add\n      tag_347\n      swap2\n      swap1\n      tag_348\n      jump\t// in\n    tag_347:\n      mload(0x40)\n      dup1\n      swap2\n      sub\n      swap1\n      revert\n        /* \"@openzeppelin/contracts/token/ERC20/ERC20.sol\":7954:8043  if (account == address(0)) {... */\n    tag_346:\n        /* \"@openzeppelin/contracts/token/ERC20/ERC20.sol\":8052:8087  _update(account, address(0), value) */\n      tag_349\n        /* \"@openzeppelin/contracts/token/ERC20/ERC20.sol\":8060:8067  account */\n      dup3\n        /* \"@openzeppelin/contracts/token/ERC20/ERC20.sol\":8077:8078  0 */\n      0x00\n        /* \"@openzeppelin/contracts/token/ERC20/ERC20.sol\":8081:8086  value */\n      dup4\n        /* \"@openzeppelin/contracts/token/ERC20/ERC20.sol\":8052:8059  _update */\n      tag_350\n        /* \"@openzeppelin/contracts/token/ERC20/ERC20.sol\":8052:8087  _update(account, address(0), value) */\n      jump\t// in\n    tag_349:\n        /* \"@openzeppelin/contracts/token/ERC20/ERC20.sol\":7888:8094  function _burn(address account, uint256 value) internal {... */\n      pop\n      pop\n      jump\t// out\n        /* \"contracts/mainFunc.sol\":2419:2960  function _transferCoin(address sender, address recipient, uint256 amount) internal isBalanceAvailable(sender, amount) whenNotPaused {... */\n    tag_210:\n        /* \"contracts/mainFunc.sol\":2521:2527  sender */\n      dup3\n        /* \"contracts/mainFunc.sol\":2529:2535  amount */\n      dup2\n        /* \"contracts/mainFunc.sol\":1872:1878  amount */\n      dup1\n        /* \"contracts/mainFunc.sol\":1851:1868  balanceOf(wallet) */\n      tag_352\n        /* \"contracts/mainFunc.sol\":1861:1867  wallet */\n      dup4\n        /* \"contracts/mainFunc.sol\":1851:1860  balanceOf */\n      tag_118\n        /* \"contracts/mainFunc.sol\":1851:1868  balanceOf(wallet) */\n      jump\t// in\n    tag_352:\n        /* \"contracts/mainFunc.sol\":1851:1878  balanceOf(wallet) >= amount */\n      lt\n      iszero\n        /* \"contracts/mainFunc.sol\":1843:1908  require(balanceOf(wallet) >= amount, \"Error: not enough balance\") */\n      tag_353\n      jumpi\n      mload(0x40)\n      0x08c379a000000000000000000000000000000000000000000000000000000000\n      dup2\n      mstore\n      0x04\n      add\n      tag_354\n      swap1\n      tag_194\n      jump\t// in\n    tag_354:\n      mload(0x40)\n      dup1\n      swap2\n      sub\n      swap1\n      revert\n    tag_353:\n        /* \"@openzeppelin/contracts/utils/Pausable.sol\":1350:1369  _requireNotPaused() */\n      tag_356\n        /* \"@openzeppelin/contracts/utils/Pausable.sol\":1350:1367  _requireNotPaused */\n      tag_189\n        /* \"@openzeppelin/contracts/utils/Pausable.sol\":1350:1369  _requireNotPaused() */\n      jump\t// in\n    tag_356:\n        /* \"contracts/mainFunc.sol\":2588:2589  0 */\n      0x00\n        /* \"contracts/mainFunc.sol\":2570:2590  sender != address(0) */\n      0xffffffffffffffffffffffffffffffffffffffff\n      and\n        /* \"contracts/mainFunc.sol\":2570:2576  sender */\n      dup6\n        /* \"contracts/mainFunc.sol\":2570:2590  sender != address(0) */\n      0xffffffffffffffffffffffffffffffffffffffff\n      and\n      sub\n        /* \"contracts/mainFunc.sol\":2562:2627  require(sender != address(0),\"ERC20: transfer from zero address\") */\n      tag_358\n      jumpi\n      mload(0x40)\n      0x08c379a000000000000000000000000000000000000000000000000000000000\n      dup2\n      mstore\n      0x04\n      add\n      tag_359\n      swap1\n      tag_360\n      jump\t// in\n    tag_359:\n      mload(0x40)\n      dup1\n      swap2\n      sub\n      swap1\n      revert\n    tag_358:\n        /* \"contracts/mainFunc.sol\":2667:2668  0 */\n      0x00\n        /* \"contracts/mainFunc.sol\":2646:2669  recipient != address(0) */\n      0xffffffffffffffffffffffffffffffffffffffff\n      and\n        /* \"contracts/mainFunc.sol\":2646:2655  recipient */\n      dup5\n        /* \"contracts/mainFunc.sol\":2646:2669  recipient != address(0) */\n      0xffffffffffffffffffffffffffffffffffffffff\n      and\n      sub\n        /* \"contracts/mainFunc.sol\":2638:2706  require(recipient != address(0),\"ERC20: transfer from zero address\") */\n      tag_361\n      jumpi\n      mload(0x40)\n      0x08c379a000000000000000000000000000000000000000000000000000000000\n      dup2\n      mstore\n      0x04\n      add\n      tag_362\n      swap1\n      tag_360\n      jump\t// in\n    tag_362:\n      mload(0x40)\n      dup1\n      swap2\n      sub\n      swap1\n      revert\n    tag_361:\n        /* \"contracts/mainFunc.sol\":2717:2734  uint256 feeAmount */\n      0x00\n        /* \"contracts/mainFunc.sol\":2760:2763  100 */\n      0x64\n        /* \"contracts/mainFunc.sol\":2747:2757  feePercent */\n      sload(0x07)\n        /* \"contracts/mainFunc.sol\":2738:2744  amount */\n      dup6\n        /* \"contracts/mainFunc.sol\":2738:2757  amount * feePercent */\n      tag_363\n      swap2\n      swap1\n      tag_327\n      jump\t// in\n    tag_363:\n        /* \"contracts/mainFunc.sol\":2737:2763  (amount * feePercent )/100 */\n      tag_364\n      swap2\n      swap1\n      tag_321\n      jump\t// in\n    tag_364:\n        /* \"contracts/mainFunc.sol\":2717:2763  uint256 feeAmount = (amount * feePercent )/100 */\n      swap1\n      pop\n        /* \"contracts/mainFunc.sol\":2774:2796  uint256 transferAmount */\n      0x00\n        /* \"contracts/mainFunc.sol\":2808:2817  feeAmount */\n      dup2\n        /* \"contracts/mainFunc.sol\":2799:2805  amount */\n      dup6\n        /* \"contracts/mainFunc.sol\":2799:2817  amount - feeAmount */\n      tag_365\n      swap2\n      swap1\n      tag_208\n      jump\t// in\n    tag_365:\n        /* \"contracts/mainFunc.sol\":2774:2817  uint256 transferAmount = amount - feeAmount */\n      swap1\n      pop\n        /* \"contracts/mainFunc.sol\":2843:2844  0 */\n      0x00\n        /* \"contracts/mainFunc.sol\":2831:2840  feeAmount */\n      dup3\n        /* \"contracts/mainFunc.sol\":2831:2844  feeAmount > 0 */\n      gt\n        /* \"contracts/mainFunc.sol\":2828:2898  if(feeAmount > 0){... */\n      iszero\n      tag_366\n      jumpi\n        /* \"contracts/mainFunc.sol\":2860:2884  _burn(sender, feeAmount) */\n      tag_367\n        /* \"contracts/mainFunc.sol\":2866:2872  sender */\n      dup8\n        /* \"contracts/mainFunc.sol\":2874:2883  feeAmount */\n      dup4\n        /* \"contracts/mainFunc.sol\":2860:2865  _burn */\n      tag_197\n        /* \"contracts/mainFunc.sol\":2860:2884  _burn(sender, feeAmount) */\n      jump\t// in\n    tag_367:\n        /* \"contracts/mainFunc.sol\":2828:2898  if(feeAmount > 0){... */\n    tag_366:\n        /* \"contracts/mainFunc.sol\":2908:2952  _transfer(sender, recipient, transferAmount) */\n      tag_368\n        /* \"contracts/mainFunc.sol\":2918:2924  sender */\n      dup8\n        /* \"contracts/mainFunc.sol\":2926:2935  recipient */\n      dup8\n        /* \"contracts/mainFunc.sol\":2937:2951  transferAmount */\n      dup4\n        /* \"contracts/mainFunc.sol\":2908:2917  _transfer */\n      tag_224\n        /* \"contracts/mainFunc.sol\":2908:2952  _transfer(sender, recipient, transferAmount) */\n      jump\t// in\n    tag_368:\n        /* \"contracts/mainFunc.sol\":2551:2960  {... */\n      pop\n      pop\n        /* \"contracts/mainFunc.sol\":2419:2960  function _transferCoin(address sender, address recipient, uint256 amount) internal isBalanceAvailable(sender, amount) whenNotPaused {... */\n      pop\n      pop\n      pop\n      pop\n      pop\n      jump\t// out\n        /* \"contracts/mainFunc.sol\":4374:4879  function autoMintIfLow() internal {... */\n    tag_219:\n        /* \"contracts/mainFunc.sol\":4419:4437  uint256 minReserve */\n      0x00\n        /* \"contracts/mainFunc.sol\":4440:4450  1e5 * 1e18 */\n      0x152d02c7e14af6800000\n        /* \"contracts/mainFunc.sol\":4419:4450  uint256 minReserve = 1e5 * 1e18 */\n      swap1\n      pop\n        /* \"contracts/mainFunc.sol\":4461:4476  uint256 current */\n      0x00\n        /* \"contracts/mainFunc.sol\":4479:4503  balanceOf(address(this)) */\n      tag_370\n        /* \"contracts/mainFunc.sol\":4497:4501  this */\n      address\n        /* \"contracts/mainFunc.sol\":4479:4488  balanceOf */\n      tag_118\n        /* \"contracts/mainFunc.sol\":4479:4503  balanceOf(address(this)) */\n      jump\t// in\n    tag_370:\n        /* \"contracts/mainFunc.sol\":4461:4503  uint256 current = balanceOf(address(this)) */\n      swap1\n      pop\n        /* \"contracts/mainFunc.sol\":4528:4538  minReserve */\n      dup2\n        /* \"contracts/mainFunc.sol\":4518:4525  current */\n      dup2\n        /* \"contracts/mainFunc.sol\":4518:4538  current < minReserve */\n      lt\n        /* \"contracts/mainFunc.sol\":4514:4872  if (current < minReserve) {... */\n      iszero\n      tag_371\n      jumpi\n        /* \"contracts/mainFunc.sol\":4555:4573  uint256 mintAmount */\n      0x00\n        /* \"contracts/mainFunc.sol\":4589:4596  current */\n      dup2\n        /* \"contracts/mainFunc.sol\":4576:4586  minReserve */\n      dup4\n        /* \"contracts/mainFunc.sol\":4576:4596  minReserve - current */\n      tag_372\n      swap2\n      swap1\n      tag_208\n      jump\t// in\n    tag_372:\n        /* \"contracts/mainFunc.sol\":4555:4596  uint256 mintAmount = minReserve - current */\n      swap1\n      pop\n        /* \"contracts/mainFunc.sol\":4627:4637  1e5 * 1e18 */\n      0x152d02c7e14af6800000\n        /* \"contracts/mainFunc.sol\":4614:4624  mintAmount */\n      dup2\n        /* \"contracts/mainFunc.sol\":4614:4637  mintAmount > 1e5 * 1e18 */\n      gt\n        /* \"contracts/mainFunc.sol\":4611:4697  if(mintAmount > 1e5 * 1e18) {... */\n      iszero\n      tag_373\n      jumpi\n        /* \"contracts/mainFunc.sol\":4671:4681  1e5 * 1e18 */\n      0x152d02c7e14af6800000\n        /* \"contracts/mainFunc.sol\":4658:4681  mintAmount = 1e5 * 1e18 */\n      swap1\n      pop\n        /* \"contracts/mainFunc.sol\":4611:4697  if(mintAmount > 1e5 * 1e18) {... */\n    tag_373:\n        /* \"contracts/mainFunc.sol\":4749:4758  maxSupply */\n      sload(0x08)\n        /* \"contracts/mainFunc.sol\":4735:4745  mintAmount */\n      dup2\n        /* \"contracts/mainFunc.sol\":4719:4732  totalSupply() */\n      tag_374\n        /* \"contracts/mainFunc.sol\":4719:4730  totalSupply */\n      tag_73\n        /* \"contracts/mainFunc.sol\":4719:4732  totalSupply() */\n      jump\t// in\n    tag_374:\n        /* \"contracts/mainFunc.sol\":4719:4745  totalSupply() + mintAmount */\n      tag_375\n      swap2\n      swap1\n      tag_247\n      jump\t// in\n    tag_375:\n        /* \"contracts/mainFunc.sol\":4719:4758  totalSupply() + mintAmount <= maxSupply */\n      gt\n      iszero\n        /* \"contracts/mainFunc.sol\":4711:4773  require(totalSupply() + mintAmount <= maxSupply, \"max is 1e6\") */\n      tag_376\n      jumpi\n      mload(0x40)\n      0x08c379a000000000000000000000000000000000000000000000000000000000\n      dup2\n      mstore\n      0x04\n      add\n      tag_377\n      swap1\n      tag_378\n      jump\t// in\n    tag_377:\n      mload(0x40)\n      dup1\n      swap2\n      sub\n      swap1\n      revert\n    tag_376:\n        /* \"contracts/mainFunc.sol\":4788:4820  _mint(address(this), mintAmount) */\n      tag_379\n        /* \"contracts/mainFunc.sol\":4802:4806  this */\n      address\n        /* \"contracts/mainFunc.sol\":4809:4819  mintAmount */\n      dup3\n        /* \"contracts/mainFunc.sol\":4788:4793  _mint */\n      tag_255\n        /* \"contracts/mainFunc.sol\":4788:4820  _mint(address(this), mintAmount) */\n      jump\t// in\n    tag_379:\n        /* \"contracts/mainFunc.sol\":4840:4860  AutoMint(mintAmount) */\n      0x7255432b9d8b4f01e258eaa3c7be1c288c887fd8592c95dcedc6e517116d3f40\n        /* \"contracts/mainFunc.sol\":4849:4859  mintAmount */\n      dup2\n        /* \"contracts/mainFunc.sol\":4840:4860  AutoMint(mintAmount) */\n      mload(0x40)\n      tag_380\n      swap2\n      swap1\n      tag_59\n      jump\t// in\n    tag_380:\n      mload(0x40)\n      dup1\n      swap2\n      sub\n      swap1\n      log1\n        /* \"contracts/mainFunc.sol\":4540:4872  {... */\n      pop\n        /* \"contracts/mainFunc.sol\":4514:4872  if (current < minReserve) {... */\n    tag_371:\n        /* \"contracts/mainFunc.sol\":4408:4879  {... */\n      pop\n      pop\n        /* \"contracts/mainFunc.sol\":4374:4879  function autoMintIfLow() internal {... */\n      jump\t// out\n        /* \"contracts/mainFunc.sol\":4901:5128  function updateReward(address user) internal {... */\n    tag_221:\n        /* \"contracts/mainFunc.sol\":4957:4971  uint256 reward */\n      0x00\n        /* \"contracts/mainFunc.sol\":4974:4993  pendingReward(user) */\n      tag_382\n        /* \"contracts/mainFunc.sol\":4988:4992  user */\n      dup3\n        /* \"contracts/mainFunc.sol\":4974:4987  pendingReward */\n      tag_168\n        /* \"contracts/mainFunc.sol\":4974:4993  pendingReward(user) */\n      jump\t// in\n    tag_382:\n        /* \"contracts/mainFunc.sol\":4957:4993  uint256 reward = pendingReward(user) */\n      swap1\n      pop\n        /* \"contracts/mainFunc.sol\":5017:5018  0 */\n      0x00\n        /* \"contracts/mainFunc.sol\":5008:5014  reward */\n      dup2\n        /* \"contracts/mainFunc.sol\":5008:5018  reward > 0 */\n      gt\n        /* \"contracts/mainFunc.sol\":5004:5071  if (reward > 0) {... */\n      iszero\n      tag_383\n      jumpi\n        /* \"contracts/mainFunc.sol\":5052:5058  reward */\n      dup1\n        /* \"contracts/mainFunc.sol\":5035:5042  rewards */\n      0x0d\n        /* \"contracts/mainFunc.sol\":5035:5048  rewards[user] */\n      0x00\n        /* \"contracts/mainFunc.sol\":5043:5047  user */\n      dup5\n        /* \"contracts/mainFunc.sol\":5035:5048  rewards[user] */\n      0xffffffffffffffffffffffffffffffffffffffff\n      and\n      0xffffffffffffffffffffffffffffffffffffffff\n      and\n      dup2\n      mstore\n      0x20\n      add\n      swap1\n      dup2\n      mstore\n      0x20\n      add\n      0x00\n      keccak256\n      0x00\n        /* \"contracts/mainFunc.sol\":5035:5058  rewards[user] += reward */\n      dup3\n      dup3\n      sload\n      tag_384\n      swap2\n      swap1\n      tag_247\n      jump\t// in\n    tag_384:\n      swap3\n      pop\n      pop\n      dup2\n      swap1\n      sstore\n      pop\n        /* \"contracts/mainFunc.sol\":5004:5071  if (reward > 0) {... */\n    tag_383:\n        /* \"contracts/mainFunc.sol\":5105:5120  block.timestamp */\n      timestamp\n        /* \"contracts/mainFunc.sol\":5081:5096  stakeTimestamps */\n      0x0a\n        /* \"contracts/mainFunc.sol\":5081:5102  stakeTimestamps[user] */\n      0x00\n        /* \"contracts/mainFunc.sol\":5097:5101  user */\n      dup5\n        /* \"contracts/mainFunc.sol\":5081:5102  stakeTimestamps[user] */\n      0xffffffffffffffffffffffffffffffffffffffff\n      and\n      0xffffffffffffffffffffffffffffffffffffffff\n      and\n      dup2\n      mstore\n      0x20\n      add\n      swap1\n      dup2\n      mstore\n      0x20\n      add\n      0x00\n      keccak256\n        /* \"contracts/mainFunc.sol\":5081:5120  stakeTimestamps[user] = block.timestamp */\n      dup2\n      swap1\n      sstore\n      pop\n        /* \"contracts/mainFunc.sol\":4946:5128  {... */\n      pop\n        /* \"contracts/mainFunc.sol\":4901:5128  function updateReward(address user) internal {... */\n      pop\n      jump\t// out\n        /* \"@openzeppelin/contracts/token/ERC20/ERC20.sol\":5297:5597  function _transfer(address from, address to, uint256 value) internal {... */\n    tag_224:\n        /* \"@openzeppelin/contracts/token/ERC20/ERC20.sol\":5396:5397  0 */\n      0x00\n        /* \"@openzeppelin/contracts/token/ERC20/ERC20.sol\":5380:5398  from == address(0) */\n      0xffffffffffffffffffffffffffffffffffffffff\n      and\n        /* \"@openzeppelin/contracts/token/ERC20/ERC20.sol\":5380:5384  from */\n      dup4\n        /* \"@openzeppelin/contracts/token/ERC20/ERC20.sol\":5380:5398  from == address(0) */\n      0xffffffffffffffffffffffffffffffffffffffff\n      and\n      sub\n        /* \"@openzeppelin/contracts/token/ERC20/ERC20.sol\":5376:5462  if (from == address(0)) {... */\n      tag_386\n      jumpi\n        /* \"@openzeppelin/contracts/token/ERC20/ERC20.sol\":5448:5449  0 */\n      0x00\n        /* \"@openzeppelin/contracts/token/ERC20/ERC20.sol\":5421:5451  ERC20InvalidSender(address(0)) */\n      mload(0x40)\n      0x96c6fd1e00000000000000000000000000000000000000000000000000000000\n      dup2\n      mstore\n      0x04\n      add\n      tag_387\n      swap2\n      swap1\n      tag_348\n      jump\t// in\n    tag_387:\n      mload(0x40)\n      dup1\n      swap2\n      sub\n      swap1\n      revert\n        /* \"@openzeppelin/contracts/token/ERC20/ERC20.sol\":5376:5462  if (from == address(0)) {... */\n    tag_386:\n        /* \"@openzeppelin/contracts/token/ERC20/ERC20.sol\":5489:5490  0 */\n      0x00\n        /* \"@openzeppelin/contracts/token/ERC20/ERC20.sol\":5475:5491  to == address(0) */\n      0xffffffffffffffffffffffffffffffffffffffff\n      and\n        /* \"@openzeppelin/contracts/token/ERC20/ERC20.sol\":5475:5477  to */\n      dup3\n        /* \"@openzeppelin/contracts/token/ERC20/ERC20.sol\":5475:5491  to == address(0) */\n      0xffffffffffffffffffffffffffffffffffffffff\n      and\n      sub\n        /* \"@openzeppelin/contracts/token/ERC20/ERC20.sol\":5471:5557  if (to == address(0)) {... */\n      tag_388\n      jumpi\n        /* \"@openzeppelin/contracts/token/ERC20/ERC20.sol\":5543:5544  0 */\n      0x00\n        /* \"@openzeppelin/contracts/token/ERC20/ERC20.sol\":5514:5546  ERC20InvalidReceiver(address(0)) */\n      mload(0x40)\n      0xec442f0500000000000000000000000000000000000000000000000000000000\n      dup2\n      mstore\n      0x04\n      add\n      tag_389\n      swap2\n      swap1\n      tag_348\n      jump\t// in\n    tag_389:\n      mload(0x40)\n      dup1\n      swap2\n      sub\n      swap1\n      revert\n        /* \"@openzeppelin/contracts/token/ERC20/ERC20.sol\":5471:5557  if (to == address(0)) {... */\n    tag_388:\n        /* \"@openzeppelin/contracts/token/ERC20/ERC20.sol\":5566:5590  _update(from, to, value) */\n      tag_390\n        /* \"@openzeppelin/contracts/token/ERC20/ERC20.sol\":5574:5578  from */\n      dup4\n        /* \"@openzeppelin/contracts/token/ERC20/ERC20.sol\":5580:5582  to */\n      dup4\n        /* \"@openzeppelin/contracts/token/ERC20/ERC20.sol\":5584:5589  value */\n      dup4\n        /* \"@openzeppelin/contracts/token/ERC20/ERC20.sol\":5566:5573  _update */\n      tag_350\n        /* \"@openzeppelin/contracts/token/ERC20/ERC20.sol\":5566:5590  _update(from, to, value) */\n      jump\t// in\n    tag_390:\n        /* \"@openzeppelin/contracts/token/ERC20/ERC20.sol\":5297:5597  function _transfer(address from, address to, uint256 value) internal {... */\n      pop\n      pop\n      pop\n      jump\t// out\n        /* \"@openzeppelin/contracts/access/AccessControl.sol\":3175:3278  function _checkRole(bytes32 role) internal view virtual {... */\n    tag_229:\n        /* \"@openzeppelin/contracts/access/AccessControl.sol\":3241:3271  _checkRole(role, _msgSender()) */\n      tag_392\n        /* \"@openzeppelin/contracts/access/AccessControl.sol\":3252:3256  role */\n      dup2\n        /* \"@openzeppelin/contracts/access/AccessControl.sol\":3258:3270  _msgSender() */\n      tag_393\n        /* \"@openzeppelin/contracts/access/AccessControl.sol\":3258:3268  _msgSender */\n      tag_183\n        /* \"@openzeppelin/contracts/access/AccessControl.sol\":3258:3270  _msgSender() */\n      jump\t// in\n    tag_393:\n        /* \"@openzeppelin/contracts/access/AccessControl.sol\":3241:3251  _checkRole */\n      tag_394\n        /* \"@openzeppelin/contracts/access/AccessControl.sol\":3241:3271  _checkRole(role, _msgSender()) */\n      jump\t// in\n    tag_392:\n        /* \"@openzeppelin/contracts/access/AccessControl.sol\":3175:3278  function _checkRole(bytes32 role) internal view virtual {... */\n      pop\n      jump\t// out\n        /* \"@openzeppelin/contracts/access/AccessControl.sol\":6155:6471  function _grantRole(bytes32 role, address account) internal virtual returns (bool) {... */\n    tag_232:\n        /* \"@openzeppelin/contracts/access/AccessControl.sol\":6232:6236  bool */\n      0x00\n        /* \"@openzeppelin/contracts/access/AccessControl.sol\":6253:6275  hasRole(role, account) */\n      tag_396\n        /* \"@openzeppelin/contracts/access/AccessControl.sol\":6261:6265  role */\n      dup4\n        /* \"@openzeppelin/contracts/access/AccessControl.sol\":6267:6274  account */\n      dup4\n        /* \"@openzeppelin/contracts/access/AccessControl.sol\":6253:6260  hasRole */\n      tag_125\n        /* \"@openzeppelin/contracts/access/AccessControl.sol\":6253:6275  hasRole(role, account) */\n      jump\t// in\n    tag_396:\n        /* \"@openzeppelin/contracts/access/AccessControl.sol\":6248:6465  if (!hasRole(role, account)) {... */\n      tag_397\n      jumpi\n        /* \"@openzeppelin/contracts/access/AccessControl.sol\":6323:6327  true */\n      0x01\n        /* \"@openzeppelin/contracts/access/AccessControl.sol\":6291:6297  _roles */\n      0x06\n        /* \"@openzeppelin/contracts/access/AccessControl.sol\":6291:6303  _roles[role] */\n      0x00\n        /* \"@openzeppelin/contracts/access/AccessControl.sol\":6298:6302  role */\n      dup6\n        /* \"@openzeppelin/contracts/access/AccessControl.sol\":6291:6303  _roles[role] */\n      dup2\n      mstore\n      0x20\n      add\n      swap1\n      dup2\n      mstore\n      0x20\n      add\n      0x00\n      keccak256\n        /* \"@openzeppelin/contracts/access/AccessControl.sol\":6291:6311  _roles[role].hasRole */\n      0x00\n      add\n        /* \"@openzeppelin/contracts/access/AccessControl.sol\":6291:6320  _roles[role].hasRole[account] */\n      0x00\n        /* \"@openzeppelin/contracts/access/AccessControl.sol\":6312:6319  account */\n      dup5\n        /* \"@openzeppelin/contracts/access/AccessControl.sol\":6291:6320  _roles[role].hasRole[account] */\n      0xffffffffffffffffffffffffffffffffffffffff\n      and\n      0xffffffffffffffffffffffffffffffffffffffff\n      and\n      dup2\n      mstore\n      0x20\n      add\n      swap1\n      dup2\n      mstore\n      0x20\n      add\n      0x00\n      keccak256\n      0x00\n        /* \"@openzeppelin/contracts/access/AccessControl.sol\":6291:6327  _roles[role].hasRole[account] = true */\n      0x0100\n      exp\n      dup2\n      sload\n      dup2\n      0xff\n      mul\n      not\n      and\n      swap1\n      dup4\n      iszero\n      iszero\n      mul\n      or\n      swap1\n      sstore\n      pop\n        /* \"@openzeppelin/contracts/access/AccessControl.sol\":6373:6385  _msgSender() */\n      tag_398\n        /* \"@openzeppelin/contracts/access/AccessControl.sol\":6373:6383  _msgSender */\n      tag_183\n        /* \"@openzeppelin/contracts/access/AccessControl.sol\":6373:6385  _msgSender() */\n      jump\t// in\n    tag_398:\n        /* \"@openzeppelin/contracts/access/AccessControl.sol\":6346:6386  RoleGranted(role, account, _msgSender()) */\n      0xffffffffffffffffffffffffffffffffffffffff\n      and\n        /* \"@openzeppelin/contracts/access/AccessControl.sol\":6364:6371  account */\n      dup3\n        /* \"@openzeppelin/contracts/access/AccessControl.sol\":6346:6386  RoleGranted(role, account, _msgSender()) */\n      0xffffffffffffffffffffffffffffffffffffffff\n      and\n        /* \"@openzeppelin/contracts/access/AccessControl.sol\":6358:6362  role */\n      dup5\n        /* \"@openzeppelin/contracts/access/AccessControl.sol\":6346:6386  RoleGranted(role, account, _msgSender()) */\n      0x2f8788117e7eff1d82e926ec794901d17c78024a50270940304540a733656f0d\n      mload(0x40)\n      mload(0x40)\n      dup1\n      swap2\n      sub\n      swap1\n      log4\n        /* \"@openzeppelin/contracts/access/AccessControl.sol\":6407:6411  true */\n      0x01\n        /* \"@openzeppelin/contracts/access/AccessControl.sol\":6400:6411  return true */\n      swap1\n      pop\n      jump(tag_395)\n        /* \"@openzeppelin/contracts/access/AccessControl.sol\":6248:6465  if (!hasRole(role, account)) {... */\n    tag_397:\n        /* \"@openzeppelin/contracts/access/AccessControl.sol\":6449:6454  false */\n      0x00\n        /* \"@openzeppelin/contracts/access/AccessControl.sol\":6442:6454  return false */\n      swap1\n      pop\n        /* \"@openzeppelin/contracts/access/AccessControl.sol\":6155:6471  function _grantRole(bytes32 role, address account) internal virtual returns (bool) {... */\n    tag_395:\n      swap3\n      swap2\n      pop\n      pop\n      jump\t// out\n        /* \"@openzeppelin/contracts/access/AccessControl.sol\":6708:7025  function _revokeRole(bytes32 role, address account) internal virtual returns (bool) {... */\n    tag_238:\n        /* \"@openzeppelin/contracts/access/AccessControl.sol\":6786:6790  bool */\n      0x00\n        /* \"@openzeppelin/contracts/access/AccessControl.sol\":6806:6828  hasRole(role, account) */\n      tag_401\n        /* \"@openzeppelin/contracts/access/AccessControl.sol\":6814:6818  role */\n      dup4\n        /* \"@openzeppelin/contracts/access/AccessControl.sol\":6820:6827  account */\n      dup4\n        /* \"@openzeppelin/contracts/access/AccessControl.sol\":6806:6813  hasRole */\n      tag_125\n        /* \"@openzeppelin/contracts/access/AccessControl.sol\":6806:6828  hasRole(role, account) */\n      jump\t// in\n    tag_401:\n        /* \"@openzeppelin/contracts/access/AccessControl.sol\":6802:7019  if (hasRole(role, account)) {... */\n      iszero\n      tag_402\n      jumpi\n        /* \"@openzeppelin/contracts/access/AccessControl.sol\":6876:6881  false */\n      0x00\n        /* \"@openzeppelin/contracts/access/AccessControl.sol\":6844:6850  _roles */\n      0x06\n        /* \"@openzeppelin/contracts/access/AccessControl.sol\":6844:6856  _roles[role] */\n      0x00\n        /* \"@openzeppelin/contracts/access/AccessControl.sol\":6851:6855  role */\n      dup6\n        /* \"@openzeppelin/contracts/access/AccessControl.sol\":6844:6856  _roles[role] */\n      dup2\n      mstore\n      0x20\n      add\n      swap1\n      dup2\n      mstore\n      0x20\n      add\n      0x00\n      keccak256\n        /* \"@openzeppelin/contracts/access/AccessControl.sol\":6844:6864  _roles[role].hasRole */\n      0x00\n      add\n        /* \"@openzeppelin/contracts/access/AccessControl.sol\":6844:6873  _roles[role].hasRole[account] */\n      0x00\n        /* \"@openzeppelin/contracts/access/AccessControl.sol\":6865:6872  account */\n      dup5\n        /* \"@openzeppelin/contracts/access/AccessControl.sol\":6844:6873  _roles[role].hasRole[account] */\n      0xffffffffffffffffffffffffffffffffffffffff\n      and\n      0xffffffffffffffffffffffffffffffffffffffff\n      and\n      dup2\n      mstore\n      0x20\n      add\n      swap1\n      dup2\n      mstore\n      0x20\n      add\n      0x00\n      keccak256\n      0x00\n        /* \"@openzeppelin/contracts/access/AccessControl.sol\":6844:6881  _roles[role].hasRole[account] = false */\n      0x0100\n      exp\n      dup2\n      sload\n      dup2\n      0xff\n      mul\n      not\n      and\n      swap1\n      dup4\n      iszero\n      iszero\n      mul\n      or\n      swap1\n      sstore\n      pop\n        /* \"@openzeppelin/contracts/access/AccessControl.sol\":6927:6939  _msgSender() */\n      tag_403\n        /* \"@openzeppelin/contracts/access/AccessControl.sol\":6927:6937  _msgSender */\n      tag_183\n        /* \"@openzeppelin/contracts/access/AccessControl.sol\":6927:6939  _msgSender() */\n      jump\t// in\n    tag_403:\n        /* \"@openzeppelin/contracts/access/AccessControl.sol\":6900:6940  RoleRevoked(role, account, _msgSender()) */\n      0xffffffffffffffffffffffffffffffffffffffff\n      and\n        /* \"@openzeppelin/contracts/access/AccessControl.sol\":6918:6925  account */\n      dup3\n        /* \"@openzeppelin/contracts/access/AccessControl.sol\":6900:6940  RoleRevoked(role, account, _msgSender()) */\n      0xffffffffffffffffffffffffffffffffffffffff\n      and\n        /* \"@openzeppelin/contracts/access/AccessControl.sol\":6912:6916  role */\n      dup5\n        /* \"@openzeppelin/contracts/access/AccessControl.sol\":6900:6940  RoleRevoked(role, account, _msgSender()) */\n      0xf6391f5c32d9c69d2a47ea670b442974b53935d1edc7fd64eb21e047a839171b\n      mload(0x40)\n      mload(0x40)\n      dup1\n      swap2\n      sub\n      swap1\n      log4\n        /* \"@openzeppelin/contracts/access/AccessControl.sol\":6961:6965  true */\n      0x01\n        /* \"@openzeppelin/contracts/access/AccessControl.sol\":6954:6965  return true */\n      swap1\n      pop\n      jump(tag_400)\n        /* \"@openzeppelin/contracts/access/AccessControl.sol\":6802:7019  if (hasRole(role, account)) {... */\n    tag_402:\n        /* \"@openzeppelin/contracts/access/AccessControl.sol\":7003:7008  false */\n      0x00\n        /* \"@openzeppelin/contracts/access/AccessControl.sol\":6996:7008  return false */\n      swap1\n      pop\n        /* \"@openzeppelin/contracts/access/AccessControl.sol\":6708:7025  function _revokeRole(bytes32 role, address account) internal virtual returns (bool) {... */\n    tag_400:\n      swap3\n      swap2\n      pop\n      pop\n      jump\t// out\n        /* \"@openzeppelin/contracts/token/ERC20/ERC20.sol\":7362:7570  function _mint(address account, uint256 value) internal {... */\n    tag_255:\n        /* \"@openzeppelin/contracts/token/ERC20/ERC20.sol\":7451:7452  0 */\n      0x00\n        /* \"@openzeppelin/contracts/token/ERC20/ERC20.sol\":7432:7453  account == address(0) */\n      0xffffffffffffffffffffffffffffffffffffffff\n      and\n        /* \"@openzeppelin/contracts/token/ERC20/ERC20.sol\":7432:7439  account */\n      dup3\n        /* \"@openzeppelin/contracts/token/ERC20/ERC20.sol\":7432:7453  account == address(0) */\n      0xffffffffffffffffffffffffffffffffffffffff\n      and\n      sub\n        /* \"@openzeppelin/contracts/token/ERC20/ERC20.sol\":7428:7519  if (account == address(0)) {... */\n      tag_406\n      jumpi\n        /* \"@openzeppelin/contracts/token/ERC20/ERC20.sol\":7505:7506  0 */\n      0x00\n        /* \"@openzeppelin/contracts/token/ERC20/ERC20.sol\":7476:7508  ERC20InvalidReceiver(address(0)) */\n      mload(0x40)\n      0xec442f0500000000000000000000000000000000000000000000000000000000\n      dup2\n      mstore\n      0x04\n      add\n      tag_407\n      swap2\n      swap1\n      tag_348\n      jump\t// in\n    tag_407:\n      mload(0x40)\n      dup1\n      swap2\n      sub\n      swap1\n      revert\n        /* \"@openzeppelin/contracts/token/ERC20/ERC20.sol\":7428:7519  if (account == address(0)) {... */\n    tag_406:\n        /* \"@openzeppelin/contracts/token/ERC20/ERC20.sol\":7528:7563  _update(address(0), account, value) */\n      tag_408\n        /* \"@openzeppelin/contracts/token/ERC20/ERC20.sol\":7544:7545  0 */\n      0x00\n        /* \"@openzeppelin/contracts/token/ERC20/ERC20.sol\":7548:7555  account */\n      dup4\n        /* \"@openzeppelin/contracts/token/ERC20/ERC20.sol\":7557:7562  value */\n      dup4\n        /* \"@openzeppelin/contracts/token/ERC20/ERC20.sol\":7528:7535  _update */\n      tag_350\n        /* \"@openzeppelin/contracts/token/ERC20/ERC20.sol\":7528:7563  _update(address(0), account, value) */\n      jump\t// in\n    tag_408:\n        /* \"@openzeppelin/contracts/token/ERC20/ERC20.sol\":7362:7570  function _mint(address account, uint256 value) internal {... */\n      pop\n      pop\n      jump\t// out\n        /* \"@openzeppelin/contracts/token/ERC20/ERC20.sol\":9605:10037  function _approve(address owner, address spender, uint256 value, bool emitEvent) internal virtual {... */\n    tag_341:\n        /* \"@openzeppelin/contracts/token/ERC20/ERC20.sol\":9734:9735  0 */\n      0x00\n        /* \"@openzeppelin/contracts/token/ERC20/ERC20.sol\":9717:9736  owner == address(0) */\n      0xffffffffffffffffffffffffffffffffffffffff\n      and\n        /* \"@openzeppelin/contracts/token/ERC20/ERC20.sol\":9717:9722  owner */\n      dup5\n        /* \"@openzeppelin/contracts/token/ERC20/ERC20.sol\":9717:9736  owner == address(0) */\n      0xffffffffffffffffffffffffffffffffffffffff\n      and\n      sub\n        /* \"@openzeppelin/contracts/token/ERC20/ERC20.sol\":9713:9802  if (owner == address(0)) {... */\n      tag_410\n      jumpi\n        /* \"@openzeppelin/contracts/token/ERC20/ERC20.sol\":9788:9789  0 */\n      0x00\n        /* \"@openzeppelin/contracts/token/ERC20/ERC20.sol\":9759:9791  ERC20InvalidApprover(address(0)) */\n      mload(0x40)\n      0xe602df0500000000000000000000000000000000000000000000000000000000\n      dup2\n      mstore\n      0x04\n      add\n      tag_411\n      swap2\n      swap1\n      tag_348\n      jump\t// in\n    tag_411:\n      mload(0x40)\n      dup1\n      swap2\n      sub\n      swap1\n      revert\n        /* \"@openzeppelin/contracts/token/ERC20/ERC20.sol\":9713:9802  if (owner == address(0)) {... */\n    tag_410:\n        /* \"@openzeppelin/contracts/token/ERC20/ERC20.sol\":9834:9835  0 */\n      0x00\n        /* \"@openzeppelin/contracts/token/ERC20/ERC20.sol\":9815:9836  spender == address(0) */\n      0xffffffffffffffffffffffffffffffffffffffff\n      and\n        /* \"@openzeppelin/contracts/token/ERC20/ERC20.sol\":9815:9822  spender */\n      dup4\n        /* \"@openzeppelin/contracts/token/ERC20/ERC20.sol\":9815:9836  spender == address(0) */\n      0xffffffffffffffffffffffffffffffffffffffff\n      and\n      sub\n        /* \"@openzeppelin/contracts/token/ERC20/ERC20.sol\":9811:9901  if (spender == address(0)) {... */\n      tag_412\n      jumpi\n        /* \"@openzeppelin/contracts/token/ERC20/ERC20.sol\":9887:9888  0 */\n      0x00\n        /* \"@openzeppelin/contracts/token/ERC20/ERC20.sol\":9859:9890  ERC20InvalidSpender(address(0)) */\n      mload(0x40)\n      0x94280d6200000000000000000000000000000000000000000000000000000000\n      dup2\n      mstore\n      0x04\n      add\n      tag_413\n      swap2\n      swap1\n      tag_348\n      jump\t// in\n    tag_413:\n      mload(0x40)\n      dup1\n      swap2\n      sub\n      swap1\n      revert\n        /* \"@openzeppelin/contracts/token/ERC20/ERC20.sol\":9811:9901  if (spender == address(0)) {... */\n    tag_412:\n        /* \"@openzeppelin/contracts/token/ERC20/ERC20.sol\":9940:9945  value */\n      dup2\n        /* \"@openzeppelin/contracts/token/ERC20/ERC20.sol\":9910:9921  _allowances */\n      0x01\n        /* \"@openzeppelin/contracts/token/ERC20/ERC20.sol\":9910:9928  _allowances[owner] */\n      0x00\n        /* \"@openzeppelin/contracts/token/ERC20/ERC20.sol\":9922:9927  owner */\n      dup7\n        /* \"@openzeppelin/contracts/token/ERC20/ERC20.sol\":9910:9928  _allowances[owner] */\n      0xffffffffffffffffffffffffffffffffffffffff\n      and\n      0xffffffffffffffffffffffffffffffffffffffff\n      and\n      dup2\n      mstore\n      0x20\n      add\n      swap1\n      dup2\n      mstore\n      0x20\n      add\n      0x00\n      keccak256\n        /* \"@openzeppelin/contracts/token/ERC20/ERC20.sol\":9910:9937  _allowances[owner][spender] */\n      0x00\n        /* \"@openzeppelin/contracts/token/ERC20/ERC20.sol\":9929:9936  spender */\n      dup6\n        /* \"@openzeppelin/contracts/token/ERC20/ERC20.sol\":9910:9937  _allowances[owner][spender] */\n      0xffffffffffffffffffffffffffffffffffffffff\n      and\n      0xffffffffffffffffffffffffffffffffffffffff\n      and\n      dup2\n      mstore\n      0x20\n      add\n      swap1\n      dup2\n      mstore\n      0x20\n      add\n      0x00\n      keccak256\n        /* \"@openzeppelin/contracts/token/ERC20/ERC20.sol\":9910:9945  _allowances[owner][spender] = value */\n      dup2\n      swap1\n      sstore\n      pop\n        /* \"@openzeppelin/contracts/token/ERC20/ERC20.sol\":9959:9968  emitEvent */\n      dup1\n        /* \"@openzeppelin/contracts/token/ERC20/ERC20.sol\":9955:10031  if (emitEvent) {... */\n      iszero\n      tag_414\n      jumpi\n        /* \"@openzeppelin/contracts/token/ERC20/ERC20.sol\":10005:10012  spender */\n      dup3\n        /* \"@openzeppelin/contracts/token/ERC20/ERC20.sol\":9989:10020  Approval(owner, spender, value) */\n      0xffffffffffffffffffffffffffffffffffffffff\n      and\n        /* \"@openzeppelin/contracts/token/ERC20/ERC20.sol\":9998:10003  owner */\n      dup5\n        /* \"@openzeppelin/contracts/token/ERC20/ERC20.sol\":9989:10020  Approval(owner, spender, value) */\n      0xffffffffffffffffffffffffffffffffffffffff\n      and\n      0x8c5be1e5ebec7d5bd14f71427d1e84f3dd0314c0f7b2291e5b200ac8c7c3b925\n        /* \"@openzeppelin/contracts/token/ERC20/ERC20.sol\":10014:10019  value */\n      dup5\n        /* \"@openzeppelin/contracts/token/ERC20/ERC20.sol\":9989:10020  Approval(owner, spender, value) */\n      mload(0x40)\n      tag_415\n      swap2\n      swap1\n      tag_59\n      jump\t// in\n    tag_415:\n      mload(0x40)\n      dup1\n      swap2\n      sub\n      swap1\n      log3\n        /* \"@openzeppelin/contracts/token/ERC20/ERC20.sol\":9955:10031  if (emitEvent) {... */\n    tag_414:\n        /* \"@openzeppelin/contracts/token/ERC20/ERC20.sol\":9605:10037  function _approve(address owner, address spender, uint256 value, bool emitEvent) internal virtual {... */\n      pop\n      pop\n      pop\n      pop\n      jump\t// out\n        /* \"@openzeppelin/contracts/token/ERC20/extensions/ERC20Pausable.sol\":1113:1258  function _update(address from, address to, uint256 value) internal virtual override whenNotPaused {... */\n    tag_350:\n        /* \"@openzeppelin/contracts/utils/Pausable.sol\":1350:1369  _requireNotPaused() */\n      tag_417\n        /* \"@openzeppelin/contracts/utils/Pausable.sol\":1350:1367  _requireNotPaused */\n      tag_189\n        /* \"@openzeppelin/contracts/utils/Pausable.sol\":1350:1369  _requireNotPaused() */\n      jump\t// in\n    tag_417:\n        /* \"@openzeppelin/contracts/token/ERC20/extensions/ERC20Pausable.sol\":1221:1251  super._update(from, to, value) */\n      tag_419\n        /* \"@openzeppelin/contracts/token/ERC20/extensions/ERC20Pausable.sol\":1235:1239  from */\n      dup4\n        /* \"@openzeppelin/contracts/token/ERC20/extensions/ERC20Pausable.sol\":1241:1243  to */\n      dup4\n        /* \"@openzeppelin/contracts/token/ERC20/extensions/ERC20Pausable.sol\":1245:1250  value */\n      dup4\n        /* \"@openzeppelin/contracts/token/ERC20/extensions/ERC20Pausable.sol\":1221:1234  super._update */\n      tag_420\n        /* \"@openzeppelin/contracts/token/ERC20/extensions/ERC20Pausable.sol\":1221:1251  super._update(from, to, value) */\n      jump\t// in\n    tag_419:\n        /* \"@openzeppelin/contracts/token/ERC20/extensions/ERC20Pausable.sol\":1113:1258  function _update(address from, address to, uint256 value) internal virtual override whenNotPaused {... */\n      pop\n      pop\n      pop\n      jump\t// out\n        /* \"@openzeppelin/contracts/access/AccessControl.sol\":3408:3605  function _checkRole(bytes32 role, address account) internal view virtual {... */\n    tag_394:\n        /* \"@openzeppelin/contracts/access/AccessControl.sol\":3496:3518  hasRole(role, account) */\n      tag_422\n        /* \"@openzeppelin/contracts/access/AccessControl.sol\":3504:3508  role */\n      dup3\n        /* \"@openzeppelin/contracts/access/AccessControl.sol\":3510:3517  account */\n      dup3\n        /* \"@openzeppelin/contracts/access/AccessControl.sol\":3496:3503  hasRole */\n      tag_125\n        /* \"@openzeppelin/contracts/access/AccessControl.sol\":3496:3518  hasRole(role, account) */\n      jump\t// in\n    tag_422:\n        /* \"@openzeppelin/contracts/access/AccessControl.sol\":3491:3599  if (!hasRole(role, account)) {... */\n      tag_423\n      jumpi\n        /* \"@openzeppelin/contracts/access/AccessControl.sol\":3574:3581  account */\n      dup1\n        /* \"@openzeppelin/contracts/access/AccessControl.sol\":3583:3587  role */\n      dup3\n        /* \"@openzeppelin/contracts/access/AccessControl.sol\":3541:3588  AccessControlUnauthorizedAccount(account, role) */\n      mload(0x40)\n      0xe2517d3f00000000000000000000000000000000000000000000000000000000\n      dup2\n      mstore\n      0x04\n      add\n      tag_424\n      swap3\n      swap2\n      swap1\n      tag_425\n      jump\t// in\n    tag_424:\n      mload(0x40)\n      dup1\n      swap2\n      sub\n      swap1\n      revert\n        /* \"@openzeppelin/contracts/access/AccessControl.sol\":3491:3599  if (!hasRole(role, account)) {... */\n    tag_423:\n        /* \"@openzeppelin/contracts/access/AccessControl.sol\":3408:3605  function _checkRole(bytes32 role, address account) internal view virtual {... */\n      pop\n      pop\n      jump\t// out\n        /* \"@openzeppelin/contracts/token/ERC20/ERC20.sol\":5912:7019  function _update(address from, address to, uint256 value) internal virtual {... */\n    tag_420:\n        /* \"@openzeppelin/contracts/token/ERC20/ERC20.sol\":6017:6018  0 */\n      0x00\n        /* \"@openzeppelin/contracts/token/ERC20/ERC20.sol\":6001:6019  from == address(0) */\n      0xffffffffffffffffffffffffffffffffffffffff\n      and\n        /* \"@openzeppelin/contracts/token/ERC20/ERC20.sol\":6001:6005  from */\n      dup4\n        /* \"@openzeppelin/contracts/token/ERC20/ERC20.sol\":6001:6019  from == address(0) */\n      0xffffffffffffffffffffffffffffffffffffffff\n      and\n      sub\n        /* \"@openzeppelin/contracts/token/ERC20/ERC20.sol\":5997:6537  if (from == address(0)) {... */\n      tag_427\n      jumpi\n        /* \"@openzeppelin/contracts/token/ERC20/ERC20.sol\":6153:6158  value */\n      dup1\n        /* \"@openzeppelin/contracts/token/ERC20/ERC20.sol\":6137:6149  _totalSupply */\n      0x02\n      0x00\n        /* \"@openzeppelin/contracts/token/ERC20/ERC20.sol\":6137:6158  _totalSupply += value */\n      dup3\n      dup3\n      sload\n      tag_428\n      swap2\n      swap1\n      tag_247\n      jump\t// in\n    tag_428:\n      swap3\n      pop\n      pop\n      dup2\n      swap1\n      sstore\n      pop\n        /* \"@openzeppelin/contracts/token/ERC20/ERC20.sol\":5997:6537  if (from == address(0)) {... */\n      jump(tag_429)\n    tag_427:\n        /* \"@openzeppelin/contracts/token/ERC20/ERC20.sol\":6189:6208  uint256 fromBalance */\n      0x00\n        /* \"@openzeppelin/contracts/token/ERC20/ERC20.sol\":6211:6220  _balances */\n      0x00\n        /* \"@openzeppelin/contracts/token/ERC20/ERC20.sol\":6211:6226  _balances[from] */\n      0x00\n        /* \"@openzeppelin/contracts/token/ERC20/ERC20.sol\":6221:6225  from */\n      dup6\n        /* \"@openzeppelin/contracts/token/ERC20/ERC20.sol\":6211:6226  _balances[from] */\n      0xffffffffffffffffffffffffffffffffffffffff\n      and\n      0xffffffffffffffffffffffffffffffffffffffff\n      and\n      dup2\n      mstore\n      0x20\n      add\n      swap1\n      dup2\n      mstore\n      0x20\n      add\n      0x00\n      keccak256\n      sload\n        /* \"@openzeppelin/contracts/token/ERC20/ERC20.sol\":6189:6226  uint256 fromBalance = _balances[from] */\n      swap1\n      pop\n        /* \"@openzeppelin/contracts/token/ERC20/ERC20.sol\":6258:6263  value */\n      dup2\n        /* \"@openzeppelin/contracts/token/ERC20/ERC20.sol\":6244:6255  fromBalance */\n      dup2\n        /* \"@openzeppelin/contracts/token/ERC20/ERC20.sol\":6244:6263  fromBalance < value */\n      lt\n        /* \"@openzeppelin/contracts/token/ERC20/ERC20.sol\":6240:6355  if (fromBalance < value) {... */\n      iszero\n      tag_430\n      jumpi\n        /* \"@openzeppelin/contracts/token/ERC20/ERC20.sol\":6315:6319  from */\n      dup4\n        /* \"@openzeppelin/contracts/token/ERC20/ERC20.sol\":6321:6332  fromBalance */\n      dup2\n        /* \"@openzeppelin/contracts/token/ERC20/ERC20.sol\":6334:6339  value */\n      dup4\n        /* \"@openzeppelin/contracts/token/ERC20/ERC20.sol\":6290:6340  ERC20InsufficientBalance(from, fromBalance, value) */\n      mload(0x40)\n      0xe450d38c00000000000000000000000000000000000000000000000000000000\n      dup2\n      mstore\n      0x04\n      add\n      tag_431\n      swap4\n      swap3\n      swap2\n      swap1\n      tag_432\n      jump\t// in\n    tag_431:\n      mload(0x40)\n      dup1\n      swap2\n      sub\n      swap1\n      revert\n        /* \"@openzeppelin/contracts/token/ERC20/ERC20.sol\":6240:6355  if (fromBalance < value) {... */\n    tag_430:\n        /* \"@openzeppelin/contracts/token/ERC20/ERC20.sol\":6507:6512  value */\n      dup2\n        /* \"@openzeppelin/contracts/token/ERC20/ERC20.sol\":6493:6504  fromBalance */\n      dup2\n        /* \"@openzeppelin/contracts/token/ERC20/ERC20.sol\":6493:6512  fromBalance - value */\n      sub\n        /* \"@openzeppelin/contracts/token/ERC20/ERC20.sol\":6475:6484  _balances */\n      0x00\n        /* \"@openzeppelin/contracts/token/ERC20/ERC20.sol\":6475:6490  _balances[from] */\n      0x00\n        /* \"@openzeppelin/contracts/token/ERC20/ERC20.sol\":6485:6489  from */\n      dup7\n        /* \"@openzeppelin/contracts/token/ERC20/ERC20.sol\":6475:6490  _balances[from] */\n      0xffffffffffffffffffffffffffffffffffffffff\n      and\n      0xffffffffffffffffffffffffffffffffffffffff\n      and\n      dup2\n      mstore\n      0x20\n      add\n      swap1\n      dup2\n      mstore\n      0x20\n      add\n      0x00\n      keccak256\n        /* \"@openzeppelin/contracts/token/ERC20/ERC20.sol\":6475:6512  _balances[from] = fromBalance - value */\n      dup2\n      swap1\n      sstore\n      pop\n        /* \"@openzeppelin/contracts/token/ERC20/ERC20.sol\":6175:6537  {... */\n      pop\n        /* \"@openzeppelin/contracts/token/ERC20/ERC20.sol\":5997:6537  if (from == address(0)) {... */\n    tag_429:\n        /* \"@openzeppelin/contracts/token/ERC20/ERC20.sol\":6565:6566  0 */\n      0x00\n        /* \"@openzeppelin/contracts/token/ERC20/ERC20.sol\":6551:6567  to == address(0) */\n      0xffffffffffffffffffffffffffffffffffffffff\n      and\n        /* \"@openzeppelin/contracts/token/ERC20/ERC20.sol\":6551:6553  to */\n      dup3\n        /* \"@openzeppelin/contracts/token/ERC20/ERC20.sol\":6551:6567  to == address(0) */\n      0xffffffffffffffffffffffffffffffffffffffff\n      and\n      sub\n        /* \"@openzeppelin/contracts/token/ERC20/ERC20.sol\":6547:6972  if (to == address(0)) {... */\n      tag_433\n      jumpi\n        /* \"@openzeppelin/contracts/token/ERC20/ERC20.sol\":6730:6735  value */\n      dup1\n        /* \"@openzeppelin/contracts/token/ERC20/ERC20.sol\":6714:6726  _totalSupply */\n      0x02\n      0x00\n        /* \"@openzeppelin/contracts/token/ERC20/ERC20.sol\":6714:6735  _totalSupply -= value */\n      dup3\n      dup3\n      sload\n      sub\n      swap3\n      pop\n      pop\n      dup2\n      swap1\n      sstore\n      pop\n        /* \"@openzeppelin/contracts/token/ERC20/ERC20.sol\":6547:6972  if (to == address(0)) {... */\n      jump(tag_434)\n    tag_433:\n        /* \"@openzeppelin/contracts/token/ERC20/ERC20.sol\":6942:6947  value */\n      dup1\n        /* \"@openzeppelin/contracts/token/ERC20/ERC20.sol\":6925:6934  _balances */\n      0x00\n        /* \"@openzeppelin/contracts/token/ERC20/ERC20.sol\":6925:6938  _balances[to] */\n      0x00\n        /* \"@openzeppelin/contracts/token/ERC20/ERC20.sol\":6935:6937  to */\n      dup5\n        /* \"@openzeppelin/contracts/token/ERC20/ERC20.sol\":6925:6938  _balances[to] */\n      0xffffffffffffffffffffffffffffffffffffffff\n      and\n      0xffffffffffffffffffffffffffffffffffffffff\n      and\n      dup2\n      mstore\n      0x20\n      add\n      swap1\n      dup2\n      mstore\n      0x20\n      add\n      0x00\n      keccak256\n      0x00\n        /* \"@openzeppelin/contracts/token/ERC20/ERC20.sol\":6925:6947  _balances[to] += value */\n      dup3\n      dup3\n      sload\n      add\n      swap3\n      pop\n      pop\n      dup2\n      swap1\n      sstore\n      pop\n        /* \"@openzeppelin/contracts/token/ERC20/ERC20.sol\":6547:6972  if (to == address(0)) {... */\n    tag_434:\n        /* \"@openzeppelin/contracts/token/ERC20/ERC20.sol\":7002:7004  to */\n      dup2\n        /* \"@openzeppelin/contracts/token/ERC20/ERC20.sol\":6987:7012  Transfer(from, to, value) */\n      0xffffffffffffffffffffffffffffffffffffffff\n      and\n        /* \"@openzeppelin/contracts/token/ERC20/ERC20.sol\":6996:7000  from */\n      dup4\n        /* \"@openzeppelin/contracts/token/ERC20/ERC20.sol\":6987:7012  Transfer(from, to, value) */\n      0xffffffffffffffffffffffffffffffffffffffff\n      and\n      0xddf252ad1be2c89b69c2b068fc378daa952ba7f163c4a11628f55a4df523b3ef\n        /* \"@openzeppelin/contracts/token/ERC20/ERC20.sol\":7006:7011  value */\n      dup4\n        /* \"@openzeppelin/contracts/token/ERC20/ERC20.sol\":6987:7012  Transfer(from, to, value) */\n      mload(0x40)\n      tag_435\n      swap2\n      swap1\n      tag_59\n      jump\t// in\n    tag_435:\n      mload(0x40)\n      dup1\n      swap2\n      sub\n      swap1\n      log3\n        /* \"@openzeppelin/contracts/token/ERC20/ERC20.sol\":5912:7019  function _update(address from, address to, uint256 value) internal virtual {... */\n      pop\n      pop\n      pop\n      jump\t// out\n        /* \"#utility.yul\":88:205   */\n    tag_437:\n        /* \"#utility.yul\":197:198   */\n      0x00\n        /* \"#utility.yul\":194:195   */\n      0x00\n        /* \"#utility.yul\":187:199   */\n      revert\n        /* \"#utility.yul\":334:483   */\n    tag_439:\n        /* \"#utility.yul\":370:377   */\n      0x00\n        /* \"#utility.yul\":410:476   */\n      0xffffffff00000000000000000000000000000000000000000000000000000000\n        /* \"#utility.yul\":403:408   */\n      dup3\n        /* \"#utility.yul\":399:477   */\n      and\n        /* \"#utility.yul\":388:477   */\n      swap1\n      pop\n        /* \"#utility.yul\":334:483   */\n      swap2\n      swap1\n      pop\n      jump\t// out\n        /* \"#utility.yul\":489:609   */\n    tag_440:\n        /* \"#utility.yul\":561:584   */\n      tag_495\n        /* \"#utility.yul\":578:583   */\n      dup2\n        /* \"#utility.yul\":561:584   */\n      tag_439\n      jump\t// in\n    tag_495:\n        /* \"#utility.yul\":554:559   */\n      dup2\n        /* \"#utility.yul\":551:585   */\n      eq\n        /* \"#utility.yul\":541:603   */\n      tag_496\n      jumpi\n        /* \"#utility.yul\":599:600   */\n      0x00\n        /* \"#utility.yul\":596:597   */\n      0x00\n        /* \"#utility.yul\":589:601   */\n      revert\n        /* \"#utility.yul\":541:603   */\n    tag_496:\n        /* \"#utility.yul\":489:609   */\n      pop\n      jump\t// out\n        /* \"#utility.yul\":615:752   */\n    tag_441:\n        /* \"#utility.yul\":660:665   */\n      0x00\n        /* \"#utility.yul\":698:704   */\n      dup2\n        /* \"#utility.yul\":685:705   */\n      calldataload\n        /* \"#utility.yul\":676:705   */\n      swap1\n      pop\n        /* \"#utility.yul\":714:746   */\n      tag_498\n        /* \"#utility.yul\":740:745   */\n      dup2\n        /* \"#utility.yul\":714:746   */\n      tag_440\n      jump\t// in\n    tag_498:\n        /* \"#utility.yul\":615:752   */\n      swap3\n      swap2\n      pop\n      pop\n      jump\t// out\n        /* \"#utility.yul\":758:1085   */\n    tag_46:\n        /* \"#utility.yul\":816:822   */\n      0x00\n        /* \"#utility.yul\":865:867   */\n      0x20\n        /* \"#utility.yul\":853:862   */\n      dup3\n        /* \"#utility.yul\":844:851   */\n      dup5\n        /* \"#utility.yul\":840:863   */\n      sub\n        /* \"#utility.yul\":836:868   */\n      slt\n        /* \"#utility.yul\":833:952   */\n      iszero\n      tag_500\n      jumpi\n        /* \"#utility.yul\":871:950   */\n      tag_501\n      tag_437\n      jump\t// in\n    tag_501:\n        /* \"#utility.yul\":833:952   */\n    tag_500:\n        /* \"#utility.yul\":991:992   */\n      0x00\n        /* \"#utility.yul\":1016:1068   */\n      tag_502\n        /* \"#utility.yul\":1060:1067   */\n      dup5\n        /* \"#utility.yul\":1051:1057   */\n      dup3\n        /* \"#utility.yul\":1040:1049   */\n      dup6\n        /* \"#utility.yul\":1036:1058   */\n      add\n        /* \"#utility.yul\":1016:1068   */\n      tag_441\n      jump\t// in\n    tag_502:\n        /* \"#utility.yul\":1006:1068   */\n      swap2\n      pop\n        /* \"#utility.yul\":962:1078   */\n      pop\n        /* \"#utility.yul\":758:1085   */\n      swap3\n      swap2\n      pop\n      pop\n      jump\t// out\n        /* \"#utility.yul\":1091:1181   */\n    tag_442:\n        /* \"#utility.yul\":1125:1132   */\n      0x00\n        /* \"#utility.yul\":1168:1173   */\n      dup2\n        /* \"#utility.yul\":1161:1174   */\n      iszero\n        /* \"#utility.yul\":1154:1175   */\n      iszero\n        /* \"#utility.yul\":1143:1175   */\n      swap1\n      pop\n        /* \"#utility.yul\":1091:1181   */\n      swap2\n      swap1\n      pop\n      jump\t// out\n        /* \"#utility.yul\":1187:1296   */\n    tag_443:\n        /* \"#utility.yul\":1268:1289   */\n      tag_505\n        /* \"#utility.yul\":1283:1288   */\n      dup2\n        /* \"#utility.yul\":1268:1289   */\n      tag_442\n      jump\t// in\n    tag_505:\n        /* \"#utility.yul\":1263:1266   */\n      dup3\n        /* \"#utility.yul\":1256:1290   */\n      mstore\n        /* \"#utility.yul\":1187:1296   */\n      pop\n      pop\n      jump\t// out\n        /* \"#utility.yul\":1302:1512   */\n    tag_49:\n        /* \"#utility.yul\":1389:1393   */\n      0x00\n        /* \"#utility.yul\":1427:1429   */\n      0x20\n        /* \"#utility.yul\":1416:1425   */\n      dup3\n        /* \"#utility.yul\":1412:1430   */\n      add\n        /* \"#utility.yul\":1404:1430   */\n      swap1\n      pop\n        /* \"#utility.yul\":1440:1505   */\n      tag_507\n        /* \"#utility.yul\":1502:1503   */\n      0x00\n        /* \"#utility.yul\":1491:1500   */\n      dup4\n        /* \"#utility.yul\":1487:1504   */\n      add\n        /* \"#utility.yul\":1478:1484   */\n      dup5\n        /* \"#utility.yul\":1440:1505   */\n      tag_443\n      jump\t// in\n    tag_507:\n        /* \"#utility.yul\":1302:1512   */\n      swap3\n      swap2\n      pop\n      pop\n      jump\t// out\n        /* \"#utility.yul\":1518:1617   */\n    tag_444:\n        /* \"#utility.yul\":1570:1576   */\n      0x00\n        /* \"#utility.yul\":1604:1609   */\n      dup2\n        /* \"#utility.yul\":1598:1610   */\n      mload\n        /* \"#utility.yul\":1588:1610   */\n      swap1\n      pop\n        /* \"#utility.yul\":1518:1617   */\n      swap2\n      swap1\n      pop\n      jump\t// out\n        /* \"#utility.yul\":1623:1792   */\n    tag_445:\n        /* \"#utility.yul\":1707:1718   */\n      0x00\n        /* \"#utility.yul\":1741:1747   */\n      dup3\n        /* \"#utility.yul\":1736:1739   */\n      dup3\n        /* \"#utility.yul\":1729:1748   */\n      mstore\n        /* \"#utility.yul\":1781:1785   */\n      0x20\n        /* \"#utility.yul\":1776:1779   */\n      dup3\n        /* \"#utility.yul\":1772:1786   */\n      add\n        /* \"#utility.yul\":1757:1786   */\n      swap1\n      pop\n        /* \"#utility.yul\":1623:1792   */\n      swap3\n      swap2\n      pop\n      pop\n      jump\t// out\n        /* \"#utility.yul\":1798:1937   */\n    tag_446:\n        /* \"#utility.yul\":1887:1893   */\n      dup3\n        /* \"#utility.yul\":1882:1885   */\n      dup2\n        /* \"#utility.yul\":1877:1880   */\n      dup4\n        /* \"#utility.yul\":1871:1894   */\n      mcopy\n        /* \"#utility.yul\":1928:1929   */\n      0x00\n        /* \"#utility.yul\":1919:1925   */\n      dup4\n        /* \"#utility.yul\":1914:1917   */\n      dup4\n        /* \"#utility.yul\":1910:1926   */\n      add\n        /* \"#utility.yul\":1903:1930   */\n      mstore\n        /* \"#utility.yul\":1798:1937   */\n      pop\n      pop\n      pop\n      jump\t// out\n        /* \"#utility.yul\":1943:2045   */\n    tag_447:\n        /* \"#utility.yul\":1984:1990   */\n      0x00\n        /* \"#utility.yul\":2035:2037   */\n      0x1f\n        /* \"#utility.yul\":2031:2038   */\n      not\n        /* \"#utility.yul\":2026:2028   */\n      0x1f\n        /* \"#utility.yul\":2019:2024   */\n      dup4\n        /* \"#utility.yul\":2015:2029   */\n      add\n        /* \"#utility.yul\":2011:2039   */\n      and\n        /* \"#utility.yul\":2001:2039   */\n      swap1\n      pop\n        /* \"#utility.yul\":1943:2045   */\n      swap2\n      swap1\n      pop\n      jump\t// out\n        /* \"#utility.yul\":2051:2428   */\n    tag_448:\n        /* \"#utility.yul\":2139:2142   */\n      0x00\n        /* \"#utility.yul\":2167:2206   */\n      tag_513\n        /* \"#utility.yul\":2200:2205   */\n      dup3\n        /* \"#utility.yul\":2167:2206   */\n      tag_444\n      jump\t// in\n    tag_513:\n        /* \"#utility.yul\":2222:2293   */\n      tag_514\n        /* \"#utility.yul\":2286:2292   */\n      dup2\n        /* \"#utility.yul\":2281:2284   */\n      dup6\n        /* \"#utility.yul\":2222:2293   */\n      tag_445\n      jump\t// in\n    tag_514:\n        /* \"#utility.yul\":2215:2293   */\n      swap4\n      pop\n        /* \"#utility.yul\":2302:2367   */\n      tag_515\n        /* \"#utility.yul\":2360:2366   */\n      dup2\n        /* \"#utility.yul\":2355:2358   */\n      dup6\n        /* \"#utility.yul\":2348:2352   */\n      0x20\n        /* \"#utility.yul\":2341:2346   */\n      dup7\n        /* \"#utility.yul\":2337:2353   */\n      add\n        /* \"#utility.yul\":2302:2367   */\n      tag_446\n      jump\t// in\n    tag_515:\n        /* \"#utility.yul\":2392:2421   */\n      tag_516\n        /* \"#utility.yul\":2414:2420   */\n      dup2\n        /* \"#utility.yul\":2392:2421   */\n      tag_447\n      jump\t// in\n    tag_516:\n        /* \"#utility.yul\":2387:2390   */\n      dup5\n        /* \"#utility.yul\":2383:2422   */\n      add\n        /* \"#utility.yul\":2376:2422   */\n      swap2\n      pop\n        /* \"#utility.yul\":2143:2428   */\n      pop\n        /* \"#utility.yul\":2051:2428   */\n      swap3\n      swap2\n      pop\n      pop\n      jump\t// out\n        /* \"#utility.yul\":2434:2747   */\n    tag_53:\n        /* \"#utility.yul\":2547:2551   */\n      0x00\n        /* \"#utility.yul\":2585:2587   */\n      0x20\n        /* \"#utility.yul\":2574:2583   */\n      dup3\n        /* \"#utility.yul\":2570:2588   */\n      add\n        /* \"#utility.yul\":2562:2588   */\n      swap1\n      pop\n        /* \"#utility.yul\":2634:2643   */\n      dup2\n        /* \"#utility.yul\":2628:2632   */\n      dup2\n        /* \"#utility.yul\":2624:2644   */\n      sub\n        /* \"#utility.yul\":2620:2621   */\n      0x00\n        /* \"#utility.yul\":2609:2618   */\n      dup4\n        /* \"#utility.yul\":2605:2622   */\n      add\n        /* \"#utility.yul\":2598:2645   */\n      mstore\n        /* \"#utility.yul\":2662:2740   */\n      tag_518\n        /* \"#utility.yul\":2735:2739   */\n      dup2\n        /* \"#utility.yul\":2726:2732   */\n      dup5\n        /* \"#utility.yul\":2662:2740   */\n      tag_448\n      jump\t// in\n    tag_518:\n        /* \"#utility.yul\":2654:2740   */\n      swap1\n      pop\n        /* \"#utility.yul\":2434:2747   */\n      swap3\n      swap2\n      pop\n      pop\n      jump\t// out\n        /* \"#utility.yul\":2753:2879   */\n    tag_449:\n        /* \"#utility.yul\":2790:2797   */\n      0x00\n        /* \"#utility.yul\":2830:2872   */\n      0xffffffffffffffffffffffffffffffffffffffff\n        /* \"#utility.yul\":2823:2828   */\n      dup3\n        /* \"#utility.yul\":2819:2873   */\n      and\n        /* \"#utility.yul\":2808:2873   */\n      swap1\n      pop\n        /* \"#utility.yul\":2753:2879   */\n      swap2\n      swap1\n      pop\n      jump\t// out\n        /* \"#utility.yul\":2885:2981   */\n    tag_450:\n        /* \"#utility.yul\":2922:2929   */\n      0x00\n        /* \"#utility.yul\":2951:2975   */\n      tag_521\n        /* \"#utility.yul\":2969:2974   */\n      dup3\n        /* \"#utility.yul\":2951:2975   */\n      tag_449\n      jump\t// in\n    tag_521:\n        /* \"#utility.yul\":2940:2975   */\n      swap1\n      pop\n        /* \"#utility.yul\":2885:2981   */\n      swap2\n      swap1\n      pop\n      jump\t// out\n        /* \"#utility.yul\":2987:3109   */\n    tag_451:\n        /* \"#utility.yul\":3060:3084   */\n      tag_523\n        /* \"#utility.yul\":3078:3083   */\n      dup2\n        /* \"#utility.yul\":3060:3084   */\n      tag_450\n      jump\t// in\n    tag_523:\n        /* \"#utility.yul\":3053:3058   */\n      dup2\n        /* \"#utility.yul\":3050:3085   */\n      eq\n        /* \"#utility.yul\":3040:3103   */\n      tag_524\n      jumpi\n        /* \"#utility.yul\":3099:3100   */\n      0x00\n        /* \"#utility.yul\":3096:3097   */\n      0x00\n        /* \"#utility.yul\":3089:3101   */\n      revert\n        /* \"#utility.yul\":3040:3103   */\n    tag_524:\n        /* \"#utility.yul\":2987:3109   */\n      pop\n      jump\t// out\n        /* \"#utility.yul\":3115:3254   */\n    tag_452:\n        /* \"#utility.yul\":3161:3166   */\n      0x00\n        /* \"#utility.yul\":3199:3205   */\n      dup2\n        /* \"#utility.yul\":3186:3206   */\n      calldataload\n        /* \"#utility.yul\":3177:3206   */\n      swap1\n      pop\n        /* \"#utility.yul\":3215:3248   */\n      tag_526\n        /* \"#utility.yul\":3242:3247   */\n      dup2\n        /* \"#utility.yul\":3215:3248   */\n      tag_451\n      jump\t// in\n    tag_526:\n        /* \"#utility.yul\":3115:3254   */\n      swap3\n      swap2\n      pop\n      pop\n      jump\t// out\n        /* \"#utility.yul\":3260:3589   */\n    tag_56:\n        /* \"#utility.yul\":3319:3325   */\n      0x00\n        /* \"#utility.yul\":3368:3370   */\n      0x20\n        /* \"#utility.yul\":3356:3365   */\n      dup3\n        /* \"#utility.yul\":3347:3354   */\n      dup5\n        /* \"#utility.yul\":3343:3366   */\n      sub\n        /* \"#utility.yul\":3339:3371   */\n      slt\n        /* \"#utility.yul\":3336:3455   */\n      iszero\n      tag_528\n      jumpi\n        /* \"#utility.yul\":3374:3453   */\n      tag_529\n      tag_437\n      jump\t// in\n    tag_529:\n        /* \"#utility.yul\":3336:3455   */\n    tag_528:\n        /* \"#utility.yul\":3494:3495   */\n      0x00\n        /* \"#utility.yul\":3519:3572   */\n      tag_530\n        /* \"#utility.yul\":3564:3571   */\n      dup5\n        /* \"#utility.yul\":3555:3561   */\n      dup3\n        /* \"#utility.yul\":3544:3553   */\n      dup6\n        /* \"#utility.yul\":3540:3562   */\n      add\n        /* \"#utility.yul\":3519:3572   */\n      tag_452\n      jump\t// in\n    tag_530:\n        /* \"#utility.yul\":3509:3572   */\n      swap2\n      pop\n        /* \"#utility.yul\":3465:3582   */\n      pop\n        /* \"#utility.yul\":3260:3589   */\n      swap3\n      swap2\n      pop\n      pop\n      jump\t// out\n        /* \"#utility.yul\":3595:3672   */\n    tag_453:\n        /* \"#utility.yul\":3632:3639   */\n      0x00\n        /* \"#utility.yul\":3661:3666   */\n      dup2\n        /* \"#utility.yul\":3650:3666   */\n      swap1\n      pop\n        /* \"#utility.yul\":3595:3672   */\n      swap2\n      swap1\n      pop\n      jump\t// out\n        /* \"#utility.yul\":3678:3796   */\n    tag_454:\n        /* \"#utility.yul\":3765:3789   */\n      tag_533\n        /* \"#utility.yul\":3783:3788   */\n      dup2\n        /* \"#utility.yul\":3765:3789   */\n      tag_453\n      jump\t// in\n    tag_533:\n        /* \"#utility.yul\":3760:3763   */\n      dup3\n        /* \"#utility.yul\":3753:3790   */\n      mstore\n        /* \"#utility.yul\":3678:3796   */\n      pop\n      pop\n      jump\t// out\n        /* \"#utility.yul\":3802:4024   */\n    tag_59:\n        /* \"#utility.yul\":3895:3899   */\n      0x00\n        /* \"#utility.yul\":3933:3935   */\n      0x20\n        /* \"#utility.yul\":3922:3931   */\n      dup3\n        /* \"#utility.yul\":3918:3936   */\n      add\n        /* \"#utility.yul\":3910:3936   */\n      swap1\n      pop\n        /* \"#utility.yul\":3946:4017   */\n      tag_535\n        /* \"#utility.yul\":4014:4015   */\n      0x00\n        /* \"#utility.yul\":4003:4012   */\n      dup4\n        /* \"#utility.yul\":3999:4016   */\n      add\n        /* \"#utility.yul\":3990:3996   */\n      dup5\n        /* \"#utility.yul\":3946:4017   */\n      tag_454\n      jump\t// in\n    tag_535:\n        /* \"#utility.yul\":3802:4024   */\n      swap3\n      swap2\n      pop\n      pop\n      jump\t// out\n        /* \"#utility.yul\":4030:4152   */\n    tag_455:\n        /* \"#utility.yul\":4103:4127   */\n      tag_537\n        /* \"#utility.yul\":4121:4126   */\n      dup2\n        /* \"#utility.yul\":4103:4127   */\n      tag_453\n      jump\t// in\n    tag_537:\n        /* \"#utility.yul\":4096:4101   */\n      dup2\n        /* \"#utility.yul\":4093:4128   */\n      eq\n        /* \"#utility.yul\":4083:4146   */\n      tag_538\n      jumpi\n        /* \"#utility.yul\":4142:4143   */\n      0x00\n        /* \"#utility.yul\":4139:4140   */\n      0x00\n        /* \"#utility.yul\":4132:4144   */\n      revert\n        /* \"#utility.yul\":4083:4146   */\n    tag_538:\n        /* \"#utility.yul\":4030:4152   */\n      pop\n      jump\t// out\n        /* \"#utility.yul\":4158:4297   */\n    tag_456:\n        /* \"#utility.yul\":4204:4209   */\n      0x00\n        /* \"#utility.yul\":4242:4248   */\n      dup2\n        /* \"#utility.yul\":4229:4249   */\n      calldataload\n        /* \"#utility.yul\":4220:4249   */\n      swap1\n      pop\n        /* \"#utility.yul\":4258:4291   */\n      tag_540\n        /* \"#utility.yul\":4285:4290   */\n      dup2\n        /* \"#utility.yul\":4258:4291   */\n      tag_455\n      jump\t// in\n    tag_540:\n        /* \"#utility.yul\":4158:4297   */\n      swap3\n      swap2\n      pop\n      pop\n      jump\t// out\n        /* \"#utility.yul\":4303:4777   */\n    tag_65:\n        /* \"#utility.yul\":4371:4377   */\n      0x00\n        /* \"#utility.yul\":4379:4385   */\n      0x00\n        /* \"#utility.yul\":4428:4430   */\n      0x40\n        /* \"#utility.yul\":4416:4425   */\n      dup4\n        /* \"#utility.yul\":4407:4414   */\n      dup6\n        /* \"#utility.yul\":4403:4426   */\n      sub\n        /* \"#utility.yul\":4399:4431   */\n      slt\n        /* \"#utility.yul\":4396:4515   */\n      iszero\n      tag_542\n      jumpi\n        /* \"#utility.yul\":4434:4513   */\n      tag_543\n      tag_437\n      jump\t// in\n    tag_543:\n        /* \"#utility.yul\":4396:4515   */\n    tag_542:\n        /* \"#utility.yul\":4554:4555   */\n      0x00\n        /* \"#utility.yul\":4579:4632   */\n      tag_544\n        /* \"#utility.yul\":4624:4631   */\n      dup6\n        /* \"#utility.yul\":4615:4621   */\n      dup3\n        /* \"#utility.yul\":4604:4613   */\n      dup7\n        /* \"#utility.yul\":4600:4622   */\n      add\n        /* \"#utility.yul\":4579:4632   */\n      tag_452\n      jump\t// in\n    tag_544:\n        /* \"#utility.yul\":4569:4632   */\n      swap3\n      pop\n        /* \"#utility.yul\":4525:4642   */\n      pop\n        /* \"#utility.yul\":4681:4683   */\n      0x20\n        /* \"#utility.yul\":4707:4760   */\n      tag_545\n        /* \"#utility.yul\":4752:4759   */\n      dup6\n        /* \"#utility.yul\":4743:4749   */\n      dup3\n        /* \"#utility.yul\":4732:4741   */\n      dup7\n        /* \"#utility.yul\":4728:4750   */\n      add\n        /* \"#utility.yul\":4707:4760   */\n      tag_456\n      jump\t// in\n    tag_545:\n        /* \"#utility.yul\":4697:4760   */\n      swap2\n      pop\n        /* \"#utility.yul\":4652:4770   */\n      pop\n        /* \"#utility.yul\":4303:4777   */\n      swap3\n      pop\n      swap3\n      swap1\n      pop\n      jump\t// out\n        /* \"#utility.yul\":4783:5112   */\n    tag_77:\n        /* \"#utility.yul\":4842:4848   */\n      0x00\n        /* \"#utility.yul\":4891:4893   */\n      0x20\n        /* \"#utility.yul\":4879:4888   */\n      dup3\n        /* \"#utility.yul\":4870:4877   */\n      dup5\n        /* \"#utility.yul\":4866:4889   */\n      sub\n        /* \"#utility.yul\":4862:4894   */\n      slt\n        /* \"#utility.yul\":4859:4978   */\n      iszero\n      tag_547\n      jumpi\n        /* \"#utility.yul\":4897:4976   */\n      tag_548\n      tag_437\n      jump\t// in\n    tag_548:\n        /* \"#utility.yul\":4859:4978   */\n    tag_547:\n        /* \"#utility.yul\":5017:5018   */\n      0x00\n        /* \"#utility.yul\":5042:5095   */\n      tag_549\n        /* \"#utility.yul\":5087:5094   */\n      dup5\n        /* \"#utility.yul\":5078:5084   */\n      dup3\n        /* \"#utility.yul\":5067:5076   */\n      dup6\n        /* \"#utility.yul\":5063:5085   */\n      add\n        /* \"#utility.yul\":5042:5095   */\n      tag_456\n      jump\t// in\n    tag_549:\n        /* \"#utility.yul\":5032:5095   */\n      swap2\n      pop\n        /* \"#utility.yul\":4988:5105   */\n      pop\n        /* \"#utility.yul\":4783:5112   */\n      swap3\n      swap2\n      pop\n      pop\n      jump\t// out\n        /* \"#utility.yul\":5118:5737   */\n    tag_81:\n        /* \"#utility.yul\":5195:5201   */\n      0x00\n        /* \"#utility.yul\":5203:5209   */\n      0x00\n        /* \"#utility.yul\":5211:5217   */\n      0x00\n        /* \"#utility.yul\":5260:5262   */\n      0x60\n        /* \"#utility.yul\":5248:5257   */\n      dup5\n        /* \"#utility.yul\":5239:5246   */\n      dup7\n        /* \"#utility.yul\":5235:5258   */\n      sub\n        /* \"#utility.yul\":5231:5263   */\n      slt\n        /* \"#utility.yul\":5228:5347   */\n      iszero\n      tag_551\n      jumpi\n        /* \"#utility.yul\":5266:5345   */\n      tag_552\n      tag_437\n      jump\t// in\n    tag_552:\n        /* \"#utility.yul\":5228:5347   */\n    tag_551:\n        /* \"#utility.yul\":5386:5387   */\n      0x00\n        /* \"#utility.yul\":5411:5464   */\n      tag_553\n        /* \"#utility.yul\":5456:5463   */\n      dup7\n        /* \"#utility.yul\":5447:5453   */\n      dup3\n        /* \"#utility.yul\":5436:5445   */\n      dup8\n        /* \"#utility.yul\":5432:5454   */\n      add\n        /* \"#utility.yul\":5411:5464   */\n      tag_452\n      jump\t// in\n    tag_553:\n        /* \"#utility.yul\":5401:5464   */\n      swap4\n      pop\n        /* \"#utility.yul\":5357:5474   */\n      pop\n        /* \"#utility.yul\":5513:5515   */\n      0x20\n        /* \"#utility.yul\":5539:5592   */\n      tag_554\n        /* \"#utility.yul\":5584:5591   */\n      dup7\n        /* \"#utility.yul\":5575:5581   */\n      dup3\n        /* \"#utility.yul\":5564:5573   */\n      dup8\n        /* \"#utility.yul\":5560:5582   */\n      add\n        /* \"#utility.yul\":5539:5592   */\n      tag_452\n      jump\t// in\n    tag_554:\n        /* \"#utility.yul\":5529:5592   */\n      swap3\n      pop\n        /* \"#utility.yul\":5484:5602   */\n      pop\n        /* \"#utility.yul\":5641:5643   */\n      0x40\n        /* \"#utility.yul\":5667:5720   */\n      tag_555\n        /* \"#utility.yul\":5712:5719   */\n      dup7\n        /* \"#utility.yul\":5703:5709   */\n      dup3\n        /* \"#utility.yul\":5692:5701   */\n      dup8\n        /* \"#utility.yul\":5688:5710   */\n      add\n        /* \"#utility.yul\":5667:5720   */\n      tag_456\n      jump\t// in\n    tag_555:\n        /* \"#utility.yul\":5657:5720   */\n      swap2\n      pop\n        /* \"#utility.yul\":5612:5730   */\n      pop\n        /* \"#utility.yul\":5118:5737   */\n      swap3\n      pop\n      swap3\n      pop\n      swap3\n      jump\t// out\n        /* \"#utility.yul\":5743:5820   */\n    tag_457:\n        /* \"#utility.yul\":5780:5787   */\n      0x00\n        /* \"#utility.yul\":5809:5814   */\n      dup2\n        /* \"#utility.yul\":5798:5814   */\n      swap1\n      pop\n        /* \"#utility.yul\":5743:5820   */\n      swap2\n      swap1\n      pop\n      jump\t// out\n        /* \"#utility.yul\":5826:5948   */\n    tag_458:\n        /* \"#utility.yul\":5899:5923   */\n      tag_558\n        /* \"#utility.yul\":5917:5922   */\n      dup2\n        /* \"#utility.yul\":5899:5923   */\n      tag_457\n      jump\t// in\n    tag_558:\n        /* \"#utility.yul\":5892:5897   */\n      dup2\n        /* \"#utility.yul\":5889:5924   */\n      eq\n        /* \"#utility.yul\":5879:5942   */\n      tag_559\n      jumpi\n        /* \"#utility.yul\":5938:5939   */\n      0x00\n        /* \"#utility.yul\":5935:5936   */\n      0x00\n        /* \"#utility.yul\":5928:5940   */\n      revert\n        /* \"#utility.yul\":5879:5942   */\n    tag_559:\n        /* \"#utility.yul\":5826:5948   */\n      pop\n      jump\t// out\n        /* \"#utility.yul\":5954:6093   */\n    tag_459:\n        /* \"#utility.yul\":6000:6005   */\n      0x00\n        /* \"#utility.yul\":6038:6044   */\n      dup2\n        /* \"#utility.yul\":6025:6045   */\n      calldataload\n        /* \"#utility.yul\":6016:6045   */\n      swap1\n      pop\n        /* \"#utility.yul\":6054:6087   */\n      tag_561\n        /* \"#utility.yul\":6081:6086   */\n      dup2\n        /* \"#utility.yul\":6054:6087   */\n      tag_458\n      jump\t// in\n    tag_561:\n        /* \"#utility.yul\":5954:6093   */\n      swap3\n      swap2\n      pop\n      pop\n      jump\t// out\n        /* \"#utility.yul\":6099:6428   */\n    tag_86:\n        /* \"#utility.yul\":6158:6164   */\n      0x00\n        /* \"#utility.yul\":6207:6209   */\n      0x20\n        /* \"#utility.yul\":6195:6204   */\n      dup3\n        /* \"#utility.yul\":6186:6193   */\n      dup5\n        /* \"#utility.yul\":6182:6205   */\n      sub\n        /* \"#utility.yul\":6178:6210   */\n      slt\n        /* \"#utility.yul\":6175:6294   */\n      iszero\n      tag_563\n      jumpi\n        /* \"#utility.yul\":6213:6292   */\n      tag_564\n      tag_437\n      jump\t// in\n    tag_564:\n        /* \"#utility.yul\":6175:6294   */\n    tag_563:\n        /* \"#utility.yul\":6333:6334   */\n      0x00\n        /* \"#utility.yul\":6358:6411   */\n      tag_565\n        /* \"#utility.yul\":6403:6410   */\n      dup5\n        /* \"#utility.yul\":6394:6400   */\n      dup3\n        /* \"#utility.yul\":6383:6392   */\n      dup6\n        /* \"#utility.yul\":6379:6401   */\n      add\n        /* \"#utility.yul\":6358:6411   */\n      tag_459\n      jump\t// in\n    tag_565:\n        /* \"#utility.yul\":6348:6411   */\n      swap2\n      pop\n        /* \"#utility.yul\":6304:6421   */\n      pop\n        /* \"#utility.yul\":6099:6428   */\n      swap3\n      swap2\n      pop\n      pop\n      jump\t// out\n        /* \"#utility.yul\":6434:6552   */\n    tag_460:\n        /* \"#utility.yul\":6521:6545   */\n      tag_567\n        /* \"#utility.yul\":6539:6544   */\n      dup2\n        /* \"#utility.yul\":6521:6545   */\n      tag_457\n      jump\t// in\n    tag_567:\n        /* \"#utility.yul\":6516:6519   */\n      dup3\n        /* \"#utility.yul\":6509:6546   */\n      mstore\n        /* \"#utility.yul\":6434:6552   */\n      pop\n      pop\n      jump\t// out\n        /* \"#utility.yul\":6558:6780   */\n    tag_89:\n        /* \"#utility.yul\":6651:6655   */\n      0x00\n        /* \"#utility.yul\":6689:6691   */\n      0x20\n        /* \"#utility.yul\":6678:6687   */\n      dup3\n        /* \"#utility.yul\":6674:6692   */\n      add\n        /* \"#utility.yul\":6666:6692   */\n      swap1\n      pop\n        /* \"#utility.yul\":6702:6773   */\n      tag_569\n        /* \"#utility.yul\":6770:6771   */\n      0x00\n        /* \"#utility.yul\":6759:6768   */\n      dup4\n        /* \"#utility.yul\":6755:6772   */\n      add\n        /* \"#utility.yul\":6746:6752   */\n      dup5\n        /* \"#utility.yul\":6702:6773   */\n      tag_460\n      jump\t// in\n    tag_569:\n        /* \"#utility.yul\":6558:6780   */\n      swap3\n      swap2\n      pop\n      pop\n      jump\t// out\n        /* \"#utility.yul\":6786:7260   */\n    tag_98:\n        /* \"#utility.yul\":6854:6860   */\n      0x00\n        /* \"#utility.yul\":6862:6868   */\n      0x00\n        /* \"#utility.yul\":6911:6913   */\n      0x40\n        /* \"#utility.yul\":6899:6908   */\n      dup4\n        /* \"#utility.yul\":6890:6897   */\n      dup6\n        /* \"#utility.yul\":6886:6909   */\n      sub\n        /* \"#utility.yul\":6882:6914   */\n      slt\n        /* \"#utility.yul\":6879:6998   */\n      iszero\n      tag_571\n      jumpi\n        /* \"#utility.yul\":6917:6996   */\n      tag_572\n      tag_437\n      jump\t// in\n    tag_572:\n        /* \"#utility.yul\":6879:6998   */\n    tag_571:\n        /* \"#utility.yul\":7037:7038   */\n      0x00\n        /* \"#utility.yul\":7062:7115   */\n      tag_573\n        /* \"#utility.yul\":7107:7114   */\n      dup6\n        /* \"#utility.yul\":7098:7104   */\n      dup3\n        /* \"#utility.yul\":7087:7096   */\n      dup7\n        /* \"#utility.yul\":7083:7105   */\n      add\n        /* \"#utility.yul\":7062:7115   */\n      tag_459\n      jump\t// in\n    tag_573:\n        /* \"#utility.yul\":7052:7115   */\n      swap3\n      pop\n        /* \"#utility.yul\":7008:7125   */\n      pop\n        /* \"#utility.yul\":7164:7166   */\n      0x20\n        /* \"#utility.yul\":7190:7243   */\n      tag_574\n        /* \"#utility.yul\":7235:7242   */\n      dup6\n        /* \"#utility.yul\":7226:7232   */\n      dup3\n        /* \"#utility.yul\":7215:7224   */\n      dup7\n        /* \"#utility.yul\":7211:7233   */\n      add\n        /* \"#utility.yul\":7190:7243   */\n      tag_452\n      jump\t// in\n    tag_574:\n        /* \"#utility.yul\":7180:7243   */\n      swap2\n      pop\n        /* \"#utility.yul\":7135:7253   */\n      pop\n        /* \"#utility.yul\":6786:7260   */\n      swap3\n      pop\n      swap3\n      swap1\n      pop\n      jump\t// out\n        /* \"#utility.yul\":7266:7352   */\n    tag_461:\n        /* \"#utility.yul\":7301:7308   */\n      0x00\n        /* \"#utility.yul\":7341:7345   */\n      0xff\n        /* \"#utility.yul\":7334:7339   */\n      dup3\n        /* \"#utility.yul\":7330:7346   */\n      and\n        /* \"#utility.yul\":7319:7346   */\n      swap1\n      pop\n        /* \"#utility.yul\":7266:7352   */\n      swap2\n      swap1\n      pop\n      jump\t// out\n        /* \"#utility.yul\":7358:7470   */\n    tag_462:\n        /* \"#utility.yul\":7441:7463   */\n      tag_577\n        /* \"#utility.yul\":7457:7462   */\n      dup2\n        /* \"#utility.yul\":7441:7463   */\n      tag_461\n      jump\t// in\n    tag_577:\n        /* \"#utility.yul\":7436:7439   */\n      dup3\n        /* \"#utility.yul\":7429:7464   */\n      mstore\n        /* \"#utility.yul\":7358:7470   */\n      pop\n      pop\n      jump\t// out\n        /* \"#utility.yul\":7476:7690   */\n    tag_103:\n        /* \"#utility.yul\":7565:7569   */\n      0x00\n        /* \"#utility.yul\":7603:7605   */\n      0x20\n        /* \"#utility.yul\":7592:7601   */\n      dup3\n        /* \"#utility.yul\":7588:7606   */\n      add\n        /* \"#utility.yul\":7580:7606   */\n      swap1\n      pop\n        /* \"#utility.yul\":7616:7683   */\n      tag_579\n        /* \"#utility.yul\":7680:7681   */\n      0x00\n        /* \"#utility.yul\":7669:7678   */\n      dup4\n        /* \"#utility.yul\":7665:7682   */\n      add\n        /* \"#utility.yul\":7656:7662   */\n      dup5\n        /* \"#utility.yul\":7616:7683   */\n      tag_462\n      jump\t// in\n    tag_579:\n        /* \"#utility.yul\":7476:7690   */\n      swap3\n      swap2\n      pop\n      pop\n      jump\t// out\n        /* \"#utility.yul\":7696:8170   */\n    tag_160:\n        /* \"#utility.yul\":7764:7770   */\n      0x00\n        /* \"#utility.yul\":7772:7778   */\n      0x00\n        /* \"#utility.yul\":7821:7823   */\n      0x40\n        /* \"#utility.yul\":7809:7818   */\n      dup4\n        /* \"#utility.yul\":7800:7807   */\n      dup6\n        /* \"#utility.yul\":7796:7819   */\n      sub\n        /* \"#utility.yul\":7792:7824   */\n      slt\n        /* \"#utility.yul\":7789:7908   */\n      iszero\n      tag_581\n      jumpi\n        /* \"#utility.yul\":7827:7906   */\n      tag_582\n      tag_437\n      jump\t// in\n    tag_582:\n        /* \"#utility.yul\":7789:7908   */\n    tag_581:\n        /* \"#utility.yul\":7947:7948   */\n      0x00\n        /* \"#utility.yul\":7972:8025   */\n      tag_583\n        /* \"#utility.yul\":8017:8024   */\n      dup6\n        /* \"#utility.yul\":8008:8014   */\n      dup3\n        /* \"#utility.yul\":7997:8006   */\n      dup7\n        /* \"#utility.yul\":7993:8015   */\n      add\n        /* \"#utility.yul\":7972:8025   */\n      tag_452\n      jump\t// in\n    tag_583:\n        /* \"#utility.yul\":7962:8025   */\n      swap3\n      pop\n        /* \"#utility.yul\":7918:8035   */\n      pop\n        /* \"#utility.yul\":8074:8076   */\n      0x20\n        /* \"#utility.yul\":8100:8153   */\n      tag_584\n        /* \"#utility.yul\":8145:8152   */\n      dup6\n        /* \"#utility.yul\":8136:8142   */\n      dup3\n        /* \"#utility.yul\":8125:8134   */\n      dup7\n        /* \"#utility.yul\":8121:8143   */\n      add\n        /* \"#utility.yul\":8100:8153   */\n      tag_452\n      jump\t// in\n    tag_584:\n        /* \"#utility.yul\":8090:8153   */\n      swap2\n      pop\n        /* \"#utility.yul\":8045:8163   */\n      pop\n        /* \"#utility.yul\":7696:8170   */\n      swap3\n      pop\n      swap3\n      swap1\n      pop\n      jump\t// out\n        /* \"#utility.yul\":8176:8356   */\n    tag_463:\n        /* \"#utility.yul\":8224:8301   */\n      0x4e487b7100000000000000000000000000000000000000000000000000000000\n        /* \"#utility.yul\":8221:8222   */\n      0x00\n        /* \"#utility.yul\":8214:8302   */\n      mstore\n        /* \"#utility.yul\":8321:8325   */\n      0x22\n        /* \"#utility.yul\":8318:8319   */\n      0x04\n        /* \"#utility.yul\":8311:8326   */\n      mstore\n        /* \"#utility.yul\":8345:8349   */\n      0x24\n        /* \"#utility.yul\":8342:8343   */\n      0x00\n        /* \"#utility.yul\":8335:8350   */\n      revert\n        /* \"#utility.yul\":8362:8682   */\n    tag_176:\n        /* \"#utility.yul\":8406:8412   */\n      0x00\n        /* \"#utility.yul\":8443:8444   */\n      0x02\n        /* \"#utility.yul\":8437:8441   */\n      dup3\n        /* \"#utility.yul\":8433:8445   */\n      div\n        /* \"#utility.yul\":8423:8445   */\n      swap1\n      pop\n        /* \"#utility.yul\":8490:8491   */\n      0x01\n        /* \"#utility.yul\":8484:8488   */\n      dup3\n        /* \"#utility.yul\":8480:8492   */\n      and\n        /* \"#utility.yul\":8511:8529   */\n      dup1\n        /* \"#utility.yul\":8501:8582   */\n      tag_587\n      jumpi\n        /* \"#utility.yul\":8567:8571   */\n      0x7f\n        /* \"#utility.yul\":8559:8565   */\n      dup3\n        /* \"#utility.yul\":8555:8572   */\n      and\n        /* \"#utility.yul\":8545:8572   */\n      swap2\n      pop\n        /* \"#utility.yul\":8501:8582   */\n    tag_587:\n        /* \"#utility.yul\":8629:8631   */\n      0x20\n        /* \"#utility.yul\":8621:8627   */\n      dup3\n        /* \"#utility.yul\":8618:8632   */\n      lt\n        /* \"#utility.yul\":8598:8616   */\n      dup2\n        /* \"#utility.yul\":8595:8633   */\n      sub\n        /* \"#utility.yul\":8592:8676   */\n      tag_588\n      jumpi\n        /* \"#utility.yul\":8648:8666   */\n      tag_589\n      tag_463\n      jump\t// in\n    tag_589:\n        /* \"#utility.yul\":8592:8676   */\n    tag_588:\n        /* \"#utility.yul\":8413:8682   */\n      pop\n        /* \"#utility.yul\":8362:8682   */\n      swap2\n      swap1\n      pop\n      jump\t// out\n        /* \"#utility.yul\":8688:8863   */\n    tag_464:\n        /* \"#utility.yul\":8828:8855   */\n      0x4572726f723a206e6f7420656e6f7567682062616c616e636500000000000000\n        /* \"#utility.yul\":8824:8825   */\n      0x00\n        /* \"#utility.yul\":8816:8822   */\n      dup3\n        /* \"#utility.yul\":8812:8826   */\n      add\n        /* \"#utility.yul\":8805:8856   */\n      mstore\n        /* \"#utility.yul\":8688:8863   */\n      pop\n      jump\t// out\n        /* \"#utility.yul\":8869:9235   */\n    tag_465:\n        /* \"#utility.yul\":9011:9014   */\n      0x00\n        /* \"#utility.yul\":9032:9099   */\n      tag_592\n        /* \"#utility.yul\":9096:9098   */\n      0x19\n        /* \"#utility.yul\":9091:9094   */\n      dup4\n        /* \"#utility.yul\":9032:9099   */\n      tag_445\n      jump\t// in\n    tag_592:\n        /* \"#utility.yul\":9025:9099   */\n      swap2\n      pop\n        /* \"#utility.yul\":9108:9201   */\n      tag_593\n        /* \"#utility.yul\":9197:9200   */\n      dup3\n        /* \"#utility.yul\":9108:9201   */\n      tag_464\n      jump\t// in\n    tag_593:\n        /* \"#utility.yul\":9226:9228   */\n      0x20\n        /* \"#utility.yul\":9221:9224   */\n      dup3\n        /* \"#utility.yul\":9217:9229   */\n      add\n        /* \"#utility.yul\":9210:9229   */\n      swap1\n      pop\n        /* \"#utility.yul\":8869:9235   */\n      swap2\n      swap1\n      pop\n      jump\t// out\n        /* \"#utility.yul\":9241:9660   */\n    tag_194:\n        /* \"#utility.yul\":9407:9411   */\n      0x00\n        /* \"#utility.yul\":9445:9447   */\n      0x20\n        /* \"#utility.yul\":9434:9443   */\n      dup3\n        /* \"#utility.yul\":9430:9448   */\n      add\n        /* \"#utility.yul\":9422:9448   */\n      swap1\n      pop\n        /* \"#utility.yul\":9494:9503   */\n      dup2\n        /* \"#utility.yul\":9488:9492   */\n      dup2\n        /* \"#utility.yul\":9484:9504   */\n      sub\n        /* \"#utility.yul\":9480:9481   */\n      0x00\n        /* \"#utility.yul\":9469:9478   */\n      dup4\n        /* \"#utility.yul\":9465:9482   */\n      add\n        /* \"#utility.yul\":9458:9505   */\n      mstore\n        /* \"#utility.yul\":9522:9653   */\n      tag_595\n        /* \"#utility.yul\":9648:9652   */\n      dup2\n        /* \"#utility.yul\":9522:9653   */\n      tag_465\n      jump\t// in\n    tag_595:\n        /* \"#utility.yul\":9514:9653   */\n      swap1\n      pop\n        /* \"#utility.yul\":9241:9660   */\n      swap2\n      swap1\n      pop\n      jump\t// out\n        /* \"#utility.yul\":9666:9893   */\n    tag_466:\n        /* \"#utility.yul\":9806:9840   */\n      0x45524332303a207472616e7366657220616d6f756e7420657863656564732061\n        /* \"#utility.yul\":9802:9803   */\n      0x00\n        /* \"#utility.yul\":9794:9800   */\n      dup3\n        /* \"#utility.yul\":9790:9804   */\n      add\n        /* \"#utility.yul\":9783:9841   */\n      mstore\n        /* \"#utility.yul\":9875:9885   */\n      0x6c6c6f77616e6365000000000000000000000000000000000000000000000000\n        /* \"#utility.yul\":9870:9872   */\n      0x20\n        /* \"#utility.yul\":9862:9868   */\n      dup3\n        /* \"#utility.yul\":9858:9873   */\n      add\n        /* \"#utility.yul\":9851:9886   */\n      mstore\n        /* \"#utility.yul\":9666:9893   */\n      pop\n      jump\t// out\n        /* \"#utility.yul\":9899:10265   */\n    tag_467:\n        /* \"#utility.yul\":10041:10044   */\n      0x00\n        /* \"#utility.yul\":10062:10129   */\n      tag_598\n        /* \"#utility.yul\":10126:10128   */\n      0x28\n        /* \"#utility.yul\":10121:10124   */\n      dup4\n        /* \"#utility.yul\":10062:10129   */\n      tag_445\n      jump\t// in\n    tag_598:\n        /* \"#utility.yul\":10055:10129   */\n      swap2\n      pop\n        /* \"#utility.yul\":10138:10231   */\n      tag_599\n        /* \"#utility.yul\":10227:10230   */\n      dup3\n        /* \"#utility.yul\":10138:10231   */\n      tag_466\n      jump\t// in\n    tag_599:\n        /* \"#utility.yul\":10256:10258   */\n      0x40\n        /* \"#utility.yul\":10251:10254   */\n      dup3\n        /* \"#utility.yul\":10247:10259   */\n      add\n        /* \"#utility.yul\":10240:10259   */\n      swap1\n      pop\n        /* \"#utility.yul\":9899:10265   */\n      swap2\n      swap1\n      pop\n      jump\t// out\n        /* \"#utility.yul\":10271:10690   */\n    tag_205:\n        /* \"#utility.yul\":10437:10441   */\n      0x00\n        /* \"#utility.yul\":10475:10477   */\n      0x20\n        /* \"#utility.yul\":10464:10473   */\n      dup3\n        /* \"#utility.yul\":10460:10478   */\n      add\n        /* \"#utility.yul\":10452:10478   */\n      swap1\n      pop\n        /* \"#utility.yul\":10524:10533   */\n      dup2\n        /* \"#utility.yul\":10518:10522   */\n      dup2\n        /* \"#utility.yul\":10514:10534   */\n      sub\n        /* \"#utility.yul\":10510:10511   */\n      0x00\n        /* \"#utility.yul\":10499:10508   */\n      dup4\n        /* \"#utility.yul\":10495:10512   */\n      add\n        /* \"#utility.yul\":10488:10535   */\n      mstore\n        /* \"#utility.yul\":10552:10683   */\n      tag_601\n        /* \"#utility.yul\":10678:10682   */\n      dup2\n        /* \"#utility.yul\":10552:10683   */\n      tag_467\n      jump\t// in\n    tag_601:\n        /* \"#utility.yul\":10544:10683   */\n      swap1\n      pop\n        /* \"#utility.yul\":10271:10690   */\n      swap2\n      swap1\n      pop\n      jump\t// out\n        /* \"#utility.yul\":10696:10876   */\n    tag_468:\n        /* \"#utility.yul\":10744:10821   */\n      0x4e487b7100000000000000000000000000000000000000000000000000000000\n        /* \"#utility.yul\":10741:10742   */\n      0x00\n        /* \"#utility.yul\":10734:10822   */\n      mstore\n        /* \"#utility.yul\":10841:10845   */\n      0x11\n        /* \"#utility.yul\":10838:10839   */\n      0x04\n        /* \"#utility.yul\":10831:10846   */\n      mstore\n        /* \"#utility.yul\":10865:10869   */\n      0x24\n        /* \"#utility.yul\":10862:10863   */\n      0x00\n        /* \"#utility.yul\":10855:10870   */\n      revert\n        /* \"#utility.yul\":10882:11076   */\n    tag_208:\n        /* \"#utility.yul\":10922:10926   */\n      0x00\n        /* \"#utility.yul\":10942:10962   */\n      tag_604\n        /* \"#utility.yul\":10960:10961   */\n      dup3\n        /* \"#utility.yul\":10942:10962   */\n      tag_453\n      jump\t// in\n    tag_604:\n        /* \"#utility.yul\":10937:10962   */\n      swap2\n      pop\n        /* \"#utility.yul\":10976:10996   */\n      tag_605\n        /* \"#utility.yul\":10994:10995   */\n      dup4\n        /* \"#utility.yul\":10976:10996   */\n      tag_453\n      jump\t// in\n    tag_605:\n        /* \"#utility.yul\":10971:10996   */\n      swap3\n      pop\n        /* \"#utility.yul\":11020:11021   */\n      dup3\n        /* \"#utility.yul\":11017:11018   */\n      dup3\n        /* \"#utility.yul\":11013:11022   */\n      sub\n        /* \"#utility.yul\":11005:11022   */\n      swap1\n      pop\n        /* \"#utility.yul\":11044:11045   */\n      dup2\n        /* \"#utility.yul\":11038:11042   */\n      dup2\n        /* \"#utility.yul\":11035:11046   */\n      gt\n        /* \"#utility.yul\":11032:11069   */\n      iszero\n      tag_606\n      jumpi\n        /* \"#utility.yul\":11049:11067   */\n      tag_607\n      tag_468\n      jump\t// in\n    tag_607:\n        /* \"#utility.yul\":11032:11069   */\n    tag_606:\n        /* \"#utility.yul\":10882:11076   */\n      swap3\n      swap2\n      pop\n      pop\n      jump\t// out\n        /* \"#utility.yul\":11082:11249   */\n    tag_469:\n        /* \"#utility.yul\":11222:11241   */\n      0x4e6f7420656e6f756768207374616b6564000000000000000000000000000000\n        /* \"#utility.yul\":11218:11219   */\n      0x00\n        /* \"#utility.yul\":11210:11216   */\n      dup3\n        /* \"#utility.yul\":11206:11220   */\n      add\n        /* \"#utility.yul\":11199:11242   */\n      mstore\n        /* \"#utility.yul\":11082:11249   */\n      pop\n      jump\t// out\n        /* \"#utility.yul\":11255:11621   */\n    tag_470:\n        /* \"#utility.yul\":11397:11400   */\n      0x00\n        /* \"#utility.yul\":11418:11485   */\n      tag_610\n        /* \"#utility.yul\":11482:11484   */\n      0x11\n        /* \"#utility.yul\":11477:11480   */\n      dup4\n        /* \"#utility.yul\":11418:11485   */\n      tag_445\n      jump\t// in\n    tag_610:\n        /* \"#utility.yul\":11411:11485   */\n      swap2\n      pop\n        /* \"#utility.yul\":11494:11587   */\n      tag_611\n        /* \"#utility.yul\":11583:11586   */\n      dup3\n        /* \"#utility.yul\":11494:11587   */\n      tag_469\n      jump\t// in\n    tag_611:\n        /* \"#utility.yul\":11612:11614   */\n      0x20\n        /* \"#utility.yul\":11607:11610   */\n      dup3\n        /* \"#utility.yul\":11603:11615   */\n      add\n        /* \"#utility.yul\":11596:11615   */\n      swap1\n      pop\n        /* \"#utility.yul\":11255:11621   */\n      swap2\n      swap1\n      pop\n      jump\t// out\n        /* \"#utility.yul\":11627:12046   */\n    tag_215:\n        /* \"#utility.yul\":11793:11797   */\n      0x00\n        /* \"#utility.yul\":11831:11833   */\n      0x20\n        /* \"#utility.yul\":11820:11829   */\n      dup3\n        /* \"#utility.yul\":11816:11834   */\n      add\n        /* \"#utility.yul\":11808:11834   */\n      swap1\n      pop\n        /* \"#utility.yul\":11880:11889   */\n      dup2\n        /* \"#utility.yul\":11874:11878   */\n      dup2\n        /* \"#utility.yul\":11870:11890   */\n      sub\n        /* \"#utility.yul\":11866:11867   */\n      0x00\n        /* \"#utility.yul\":11855:11864   */\n      dup4\n        /* \"#utility.yul\":11851:11868   */\n      add\n        /* \"#utility.yul\":11844:11891   */\n      mstore\n        /* \"#utility.yul\":11908:12039   */\n      tag_613\n        /* \"#utility.yul\":12034:12038   */\n      dup2\n        /* \"#utility.yul\":11908:12039   */\n      tag_470\n      jump\t// in\n    tag_613:\n        /* \"#utility.yul\":11900:12039   */\n      swap1\n      pop\n        /* \"#utility.yul\":11627:12046   */\n      swap2\n      swap1\n      pop\n      jump\t// out\n        /* \"#utility.yul\":12052:12219   */\n    tag_471:\n        /* \"#utility.yul\":12192:12211   */\n      0x4572726f723a206e6f74206d696e746572000000000000000000000000000000\n        /* \"#utility.yul\":12188:12189   */\n      0x00\n        /* \"#utility.yul\":12180:12186   */\n      dup3\n        /* \"#utility.yul\":12176:12190   */\n      add\n        /* \"#utility.yul\":12169:12212   */\n      mstore\n        /* \"#utility.yul\":12052:12219   */\n      pop\n      jump\t// out\n        /* \"#utility.yul\":12225:12591   */\n    tag_472:\n        /* \"#utility.yul\":12367:12370   */\n      0x00\n        /* \"#utility.yul\":12388:12455   */\n      tag_616\n        /* \"#utility.yul\":12452:12454   */\n      0x11\n        /* \"#utility.yul\":12447:12450   */\n      dup4\n        /* \"#utility.yul\":12388:12455   */\n      tag_445\n      jump\t// in\n    tag_616:\n        /* \"#utility.yul\":12381:12455   */\n      swap2\n      pop\n        /* \"#utility.yul\":12464:12557   */\n      tag_617\n        /* \"#utility.yul\":12553:12556   */\n      dup3\n        /* \"#utility.yul\":12464:12557   */\n      tag_471\n      jump\t// in\n    tag_617:\n        /* \"#utility.yul\":12582:12584   */\n      0x20\n        /* \"#utility.yul\":12577:12580   */\n      dup3\n        /* \"#utility.yul\":12573:12585   */\n      add\n        /* \"#utility.yul\":12566:12585   */\n      swap1\n      pop\n        /* \"#utility.yul\":12225:12591   */\n      swap2\n      swap1\n      pop\n      jump\t// out\n        /* \"#utility.yul\":12597:13016   */\n    tag_243:\n        /* \"#utility.yul\":12763:12767   */\n      0x00\n        /* \"#utility.yul\":12801:12803   */\n      0x20\n        /* \"#utility.yul\":12790:12799   */\n      dup3\n        /* \"#utility.yul\":12786:12804   */\n      add\n        /* \"#utility.yul\":12778:12804   */\n      swap1\n      pop\n        /* \"#utility.yul\":12850:12859   */\n      dup2\n        /* \"#utility.yul\":12844:12848   */\n      dup2\n        /* \"#utility.yul\":12840:12860   */\n      sub\n        /* \"#utility.yul\":12836:12837   */\n      0x00\n        /* \"#utility.yul\":12825:12834   */\n      dup4\n        /* \"#utility.yul\":12821:12838   */\n      add\n        /* \"#utility.yul\":12814:12861   */\n      mstore\n        /* \"#utility.yul\":12878:13009   */\n      tag_619\n        /* \"#utility.yul\":13004:13008   */\n      dup2\n        /* \"#utility.yul\":12878:13009   */\n      tag_472\n      jump\t// in\n    tag_619:\n        /* \"#utility.yul\":12870:13009   */\n      swap1\n      pop\n        /* \"#utility.yul\":12597:13016   */\n      swap2\n      swap1\n      pop\n      jump\t// out\n        /* \"#utility.yul\":13022:13213   */\n    tag_247:\n        /* \"#utility.yul\":13062:13065   */\n      0x00\n        /* \"#utility.yul\":13081:13101   */\n      tag_621\n        /* \"#utility.yul\":13099:13100   */\n      dup3\n        /* \"#utility.yul\":13081:13101   */\n      tag_453\n      jump\t// in\n    tag_621:\n        /* \"#utility.yul\":13076:13101   */\n      swap2\n      pop\n        /* \"#utility.yul\":13115:13135   */\n      tag_622\n        /* \"#utility.yul\":13133:13134   */\n      dup4\n        /* \"#utility.yul\":13115:13135   */\n      tag_453\n      jump\t// in\n    tag_622:\n        /* \"#utility.yul\":13110:13135   */\n      swap3\n      pop\n        /* \"#utility.yul\":13158:13159   */\n      dup3\n        /* \"#utility.yul\":13155:13156   */\n      dup3\n        /* \"#utility.yul\":13151:13160   */\n      add\n        /* \"#utility.yul\":13144:13160   */\n      swap1\n      pop\n        /* \"#utility.yul\":13179:13182   */\n      dup1\n        /* \"#utility.yul\":13176:13177   */\n      dup3\n        /* \"#utility.yul\":13173:13183   */\n      gt\n        /* \"#utility.yul\":13170:13206   */\n      iszero\n      tag_623\n      jumpi\n        /* \"#utility.yul\":13186:13204   */\n      tag_624\n      tag_468\n      jump\t// in\n    tag_624:\n        /* \"#utility.yul\":13170:13206   */\n    tag_623:\n        /* \"#utility.yul\":13022:13213   */\n      swap3\n      swap2\n      pop\n      pop\n      jump\t// out\n        /* \"#utility.yul\":13219:13386   */\n    tag_473:\n        /* \"#utility.yul\":13359:13378   */\n      0x4572726f723a206d617820737570706c79000000000000000000000000000000\n        /* \"#utility.yul\":13355:13356   */\n      0x00\n        /* \"#utility.yul\":13347:13353   */\n      dup3\n        /* \"#utility.yul\":13343:13357   */\n      add\n        /* \"#utility.yul\":13336:13379   */\n      mstore\n        /* \"#utility.yul\":13219:13386   */\n      pop\n      jump\t// out\n        /* \"#utility.yul\":13392:13758   */\n    tag_474:\n        /* \"#utility.yul\":13534:13537   */\n      0x00\n        /* \"#utility.yul\":13555:13622   */\n      tag_627\n        /* \"#utility.yul\":13619:13621   */\n      0x11\n        /* \"#utility.yul\":13614:13617   */\n      dup4\n        /* \"#utility.yul\":13555:13622   */\n      tag_445\n      jump\t// in\n    tag_627:\n        /* \"#utility.yul\":13548:13622   */\n      swap2\n      pop\n        /* \"#utility.yul\":13631:13724   */\n      tag_628\n        /* \"#utility.yul\":13720:13723   */\n      dup3\n        /* \"#utility.yul\":13631:13724   */\n      tag_473\n      jump\t// in\n    tag_628:\n        /* \"#utility.yul\":13749:13751   */\n      0x20\n        /* \"#utility.yul\":13744:13747   */\n      dup3\n        /* \"#utility.yul\":13740:13752   */\n      add\n        /* \"#utility.yul\":13733:13752   */\n      swap1\n      pop\n        /* \"#utility.yul\":13392:13758   */\n      swap2\n      swap1\n      pop\n      jump\t// out\n        /* \"#utility.yul\":13764:14183   */\n    tag_250:\n        /* \"#utility.yul\":13930:13934   */\n      0x00\n        /* \"#utility.yul\":13968:13970   */\n      0x20\n        /* \"#utility.yul\":13957:13966   */\n      dup3\n        /* \"#utility.yul\":13953:13971   */\n      add\n        /* \"#utility.yul\":13945:13971   */\n      swap1\n      pop\n        /* \"#utility.yul\":14017:14026   */\n      dup2\n        /* \"#utility.yul\":14011:14015   */\n      dup2\n        /* \"#utility.yul\":14007:14027   */\n      sub\n        /* \"#utility.yul\":14003:14004   */\n      0x00\n        /* \"#utility.yul\":13992:14001   */\n      dup4\n        /* \"#utility.yul\":13988:14005   */\n      add\n        /* \"#utility.yul\":13981:14028   */\n      mstore\n        /* \"#utility.yul\":14045:14176   */\n      tag_630\n        /* \"#utility.yul\":14171:14175   */\n      dup2\n        /* \"#utility.yul\":14045:14176   */\n      tag_474\n      jump\t// in\n    tag_630:\n        /* \"#utility.yul\":14037:14176   */\n      swap1\n      pop\n        /* \"#utility.yul\":13764:14183   */\n      swap2\n      swap1\n      pop\n      jump\t// out\n        /* \"#utility.yul\":14189:14356   */\n    tag_475:\n        /* \"#utility.yul\":14329:14348   */\n      0x4572726f723a206e6f74206275726e6572000000000000000000000000000000\n        /* \"#utility.yul\":14325:14326   */\n      0x00\n        /* \"#utility.yul\":14317:14323   */\n      dup3\n        /* \"#utility.yul\":14313:14327   */\n      add\n        /* \"#utility.yul\":14306:14349   */\n      mstore\n        /* \"#utility.yul\":14189:14356   */\n      pop\n      jump\t// out\n        /* \"#utility.yul\":14362:14728   */\n    tag_476:\n        /* \"#utility.yul\":14504:14507   */\n      0x00\n        /* \"#utility.yul\":14525:14592   */\n      tag_633\n        /* \"#utility.yul\":14589:14591   */\n      0x11\n        /* \"#utility.yul\":14584:14587   */\n      dup4\n        /* \"#utility.yul\":14525:14592   */\n      tag_445\n      jump\t// in\n    tag_633:\n        /* \"#utility.yul\":14518:14592   */\n      swap2\n      pop\n        /* \"#utility.yul\":14601:14694   */\n      tag_634\n        /* \"#utility.yul\":14690:14693   */\n      dup3\n        /* \"#utility.yul\":14601:14694   */\n      tag_475\n      jump\t// in\n    tag_634:\n        /* \"#utility.yul\":14719:14721   */\n      0x20\n        /* \"#utility.yul\":14714:14717   */\n      dup3\n        /* \"#utility.yul\":14710:14722   */\n      add\n        /* \"#utility.yul\":14703:14722   */\n      swap1\n      pop\n        /* \"#utility.yul\":14362:14728   */\n      swap2\n      swap1\n      pop\n      jump\t// out\n        /* \"#utility.yul\":14734:15153   */\n    tag_271:\n        /* \"#utility.yul\":14900:14904   */\n      0x00\n        /* \"#utility.yul\":14938:14940   */\n      0x20\n        /* \"#utility.yul\":14927:14936   */\n      dup3\n        /* \"#utility.yul\":14923:14941   */\n      add\n        /* \"#utility.yul\":14915:14941   */\n      swap1\n      pop\n        /* \"#utility.yul\":14987:14996   */\n      dup2\n        /* \"#utility.yul\":14981:14985   */\n      dup2\n        /* \"#utility.yul\":14977:14997   */\n      sub\n        /* \"#utility.yul\":14973:14974   */\n      0x00\n        /* \"#utility.yul\":14962:14971   */\n      dup4\n        /* \"#utility.yul\":14958:14975   */\n      add\n        /* \"#utility.yul\":14951:14998   */\n      mstore\n        /* \"#utility.yul\":15015:15146   */\n      tag_636\n        /* \"#utility.yul\":15141:15145   */\n      dup2\n        /* \"#utility.yul\":15015:15146   */\n      tag_476\n      jump\t// in\n    tag_636:\n        /* \"#utility.yul\":15007:15146   */\n      swap1\n      pop\n        /* \"#utility.yul\":14734:15153   */\n      swap2\n      swap1\n      pop\n      jump\t// out\n        /* \"#utility.yul\":15159:15327   */\n    tag_477:\n        /* \"#utility.yul\":15299:15319   */\n      0x4e6f7420656e6f7567682062616c616e63650000000000000000000000000000\n        /* \"#utility.yul\":15295:15296   */\n      0x00\n        /* \"#utility.yul\":15287:15293   */\n      dup3\n        /* \"#utility.yul\":15283:15297   */\n      add\n        /* \"#utility.yul\":15276:15320   */\n      mstore\n        /* \"#utility.yul\":15159:15327   */\n      pop\n      jump\t// out\n        /* \"#utility.yul\":15333:15699   */\n    tag_478:\n        /* \"#utility.yul\":15475:15478   */\n      0x00\n        /* \"#utility.yul\":15496:15563   */\n      tag_639\n        /* \"#utility.yul\":15560:15562   */\n      0x12\n        /* \"#utility.yul\":15555:15558   */\n      dup4\n        /* \"#utility.yul\":15496:15563   */\n      tag_445\n      jump\t// in\n    tag_639:\n        /* \"#utility.yul\":15489:15563   */\n      swap2\n      pop\n        /* \"#utility.yul\":15572:15665   */\n      tag_640\n        /* \"#utility.yul\":15661:15664   */\n      dup3\n        /* \"#utility.yul\":15572:15665   */\n      tag_477\n      jump\t// in\n    tag_640:\n        /* \"#utility.yul\":15690:15692   */\n      0x20\n        /* \"#utility.yul\":15685:15688   */\n      dup3\n        /* \"#utility.yul\":15681:15693   */\n      add\n        /* \"#utility.yul\":15674:15693   */\n      swap1\n      pop\n        /* \"#utility.yul\":15333:15699   */\n      swap2\n      swap1\n      pop\n      jump\t// out\n        /* \"#utility.yul\":15705:16124   */\n    tag_282:\n        /* \"#utility.yul\":15871:15875   */\n      0x00\n        /* \"#utility.yul\":15909:15911   */\n      0x20\n        /* \"#utility.yul\":15898:15907   */\n      dup3\n        /* \"#utility.yul\":15894:15912   */\n      add\n        /* \"#utility.yul\":15886:15912   */\n      swap1\n      pop\n        /* \"#utility.yul\":15958:15967   */\n      dup2\n        /* \"#utility.yul\":15952:15956   */\n      dup2\n        /* \"#utility.yul\":15948:15968   */\n      sub\n        /* \"#utility.yul\":15944:15945   */\n      0x00\n        /* \"#utility.yul\":15933:15942   */\n      dup4\n        /* \"#utility.yul\":15929:15946   */\n      add\n        /* \"#utility.yul\":15922:15969   */\n      mstore\n        /* \"#utility.yul\":15986:16117   */\n      tag_642\n        /* \"#utility.yul\":16112:16116   */\n      dup2\n        /* \"#utility.yul\":15986:16117   */\n      tag_478\n      jump\t// in\n    tag_642:\n        /* \"#utility.yul\":15978:16117   */\n      swap1\n      pop\n        /* \"#utility.yul\":15705:16124   */\n      swap2\n      swap1\n      pop\n      jump\t// out\n        /* \"#utility.yul\":16130:16297   */\n    tag_479:\n        /* \"#utility.yul\":16270:16289   */\n      0x45786365656473206d6178207374616b65000000000000000000000000000000\n        /* \"#utility.yul\":16266:16267   */\n      0x00\n        /* \"#utility.yul\":16258:16264   */\n      dup3\n        /* \"#utility.yul\":16254:16268   */\n      add\n        /* \"#utility.yul\":16247:16290   */\n      mstore\n        /* \"#utility.yul\":16130:16297   */\n      pop\n      jump\t// out\n        /* \"#utility.yul\":16303:16669   */\n    tag_480:\n        /* \"#utility.yul\":16445:16448   */\n      0x00\n        /* \"#utility.yul\":16466:16533   */\n      tag_645\n        /* \"#utility.yul\":16530:16532   */\n      0x11\n        /* \"#utility.yul\":16525:16528   */\n      dup4\n        /* \"#utility.yul\":16466:16533   */\n      tag_445\n      jump\t// in\n    tag_645:\n        /* \"#utility.yul\":16459:16533   */\n      swap2\n      pop\n        /* \"#utility.yul\":16542:16635   */\n      tag_646\n        /* \"#utility.yul\":16631:16634   */\n      dup3\n        /* \"#utility.yul\":16542:16635   */\n      tag_479\n      jump\t// in\n    tag_646:\n        /* \"#utility.yul\":16660:16662   */\n      0x20\n        /* \"#utility.yul\":16655:16658   */\n      dup3\n        /* \"#utility.yul\":16651:16663   */\n      add\n        /* \"#utility.yul\":16644:16663   */\n      swap1\n      pop\n        /* \"#utility.yul\":16303:16669   */\n      swap2\n      swap1\n      pop\n      jump\t// out\n        /* \"#utility.yul\":16675:17094   */\n    tag_286:\n        /* \"#utility.yul\":16841:16845   */\n      0x00\n        /* \"#utility.yul\":16879:16881   */\n      0x20\n        /* \"#utility.yul\":16868:16877   */\n      dup3\n        /* \"#utility.yul\":16864:16882   */\n      add\n        /* \"#utility.yul\":16856:16882   */\n      swap1\n      pop\n        /* \"#utility.yul\":16928:16937   */\n      dup2\n        /* \"#utility.yul\":16922:16926   */\n      dup2\n        /* \"#utility.yul\":16918:16938   */\n      sub\n        /* \"#utility.yul\":16914:16915   */\n      0x00\n        /* \"#utility.yul\":16903:16912   */\n      dup4\n        /* \"#utility.yul\":16899:16916   */\n      add\n        /* \"#utility.yul\":16892:16939   */\n      mstore\n        /* \"#utility.yul\":16956:17087   */\n      tag_648\n        /* \"#utility.yul\":17082:17086   */\n      dup2\n        /* \"#utility.yul\":16956:17087   */\n      tag_480\n      jump\t// in\n    tag_648:\n        /* \"#utility.yul\":16948:17087   */\n      swap1\n      pop\n        /* \"#utility.yul\":16675:17094   */\n      swap2\n      swap1\n      pop\n      jump\t// out\n        /* \"#utility.yul\":17100:17269   */\n    tag_481:\n        /* \"#utility.yul\":17240:17261   */\n      0x4e6f2072657761726420617661696c61626c6500000000000000000000000000\n        /* \"#utility.yul\":17236:17237   */\n      0x00\n        /* \"#utility.yul\":17228:17234   */\n      dup3\n        /* \"#utility.yul\":17224:17238   */\n      add\n        /* \"#utility.yul\":17217:17262   */\n      mstore\n        /* \"#utility.yul\":17100:17269   */\n      pop\n      jump\t// out\n        /* \"#utility.yul\":17275:17641   */\n    tag_482:\n        /* \"#utility.yul\":17417:17420   */\n      0x00\n        /* \"#utility.yul\":17438:17505   */\n      tag_651\n        /* \"#utility.yul\":17502:17504   */\n      0x13\n        /* \"#utility.yul\":17497:17500   */\n      dup4\n        /* \"#utility.yul\":17438:17505   */\n      tag_445\n      jump\t// in\n    tag_651:\n        /* \"#utility.yul\":17431:17505   */\n      swap2\n      pop\n        /* \"#utility.yul\":17514:17607   */\n      tag_652\n        /* \"#utility.yul\":17603:17606   */\n      dup3\n        /* \"#utility.yul\":17514:17607   */\n      tag_481\n      jump\t// in\n    tag_652:\n        /* \"#utility.yul\":17632:17634   */\n      0x20\n        /* \"#utility.yul\":17627:17630   */\n      dup3\n        /* \"#utility.yul\":17623:17635   */\n      add\n        /* \"#utility.yul\":17616:17635   */\n      swap1\n      pop\n        /* \"#utility.yul\":17275:17641   */\n      swap2\n      swap1\n      pop\n      jump\t// out\n        /* \"#utility.yul\":17647:18066   */\n    tag_307:\n        /* \"#utility.yul\":17813:17817   */\n      0x00\n        /* \"#utility.yul\":17851:17853   */\n      0x20\n        /* \"#utility.yul\":17840:17849   */\n      dup3\n        /* \"#utility.yul\":17836:17854   */\n      add\n        /* \"#utility.yul\":17828:17854   */\n      swap1\n      pop\n        /* \"#utility.yul\":17900:17909   */\n      dup2\n        /* \"#utility.yul\":17894:17898   */\n      dup2\n        /* \"#utility.yul\":17890:17910   */\n      sub\n        /* \"#utility.yul\":17886:17887   */\n      0x00\n        /* \"#utility.yul\":17875:17884   */\n      dup4\n        /* \"#utility.yul\":17871:17888   */\n      add\n        /* \"#utility.yul\":17864:17911   */\n      mstore\n        /* \"#utility.yul\":17928:18059   */\n      tag_654\n        /* \"#utility.yul\":18054:18058   */\n      dup2\n        /* \"#utility.yul\":17928:18059   */\n      tag_482\n      jump\t// in\n    tag_654:\n        /* \"#utility.yul\":17920:18059   */\n      swap1\n      pop\n        /* \"#utility.yul\":17647:18066   */\n      swap2\n      swap1\n      pop\n      jump\t// out\n        /* \"#utility.yul\":18072:18252   */\n    tag_483:\n        /* \"#utility.yul\":18120:18197   */\n      0x4e487b7100000000000000000000000000000000000000000000000000000000\n        /* \"#utility.yul\":18117:18118   */\n      0x00\n        /* \"#utility.yul\":18110:18198   */\n      mstore\n        /* \"#utility.yul\":18217:18221   */\n      0x12\n        /* \"#utility.yul\":18214:18215   */\n      0x04\n        /* \"#utility.yul\":18207:18222   */\n      mstore\n        /* \"#utility.yul\":18241:18245   */\n      0x24\n        /* \"#utility.yul\":18238:18239   */\n      0x00\n        /* \"#utility.yul\":18231:18246   */\n      revert\n        /* \"#utility.yul\":18258:18443   */\n    tag_321:\n        /* \"#utility.yul\":18298:18299   */\n      0x00\n        /* \"#utility.yul\":18315:18335   */\n      tag_657\n        /* \"#utility.yul\":18333:18334   */\n      dup3\n        /* \"#utility.yul\":18315:18335   */\n      tag_453\n      jump\t// in\n    tag_657:\n        /* \"#utility.yul\":18310:18335   */\n      swap2\n      pop\n        /* \"#utility.yul\":18349:18369   */\n      tag_658\n        /* \"#utility.yul\":18367:18368   */\n      dup4\n        /* \"#utility.yul\":18349:18369   */\n      tag_453\n      jump\t// in\n    tag_658:\n        /* \"#utility.yul\":18344:18369   */\n      swap3\n      pop\n        /* \"#utility.yul\":18388:18389   */\n      dup3\n        /* \"#utility.yul\":18378:18413   */\n      tag_659\n      jumpi\n        /* \"#utility.yul\":18393:18411   */\n      tag_660\n      tag_483\n      jump\t// in\n    tag_660:\n        /* \"#utility.yul\":18378:18413   */\n    tag_659:\n        /* \"#utility.yul\":18435:18436   */\n      dup3\n        /* \"#utility.yul\":18432:18433   */\n      dup3\n        /* \"#utility.yul\":18428:18437   */\n      div\n        /* \"#utility.yul\":18423:18437   */\n      swap1\n      pop\n        /* \"#utility.yul\":18258:18443   */\n      swap3\n      swap2\n      pop\n      pop\n      jump\t// out\n        /* \"#utility.yul\":18449:18859   */\n    tag_327:\n        /* \"#utility.yul\":18489:18496   */\n      0x00\n        /* \"#utility.yul\":18512:18532   */\n      tag_662\n        /* \"#utility.yul\":18530:18531   */\n      dup3\n        /* \"#utility.yul\":18512:18532   */\n      tag_453\n      jump\t// in\n    tag_662:\n        /* \"#utility.yul\":18507:18532   */\n      swap2\n      pop\n        /* \"#utility.yul\":18546:18566   */\n      tag_663\n        /* \"#utility.yul\":18564:18565   */\n      dup4\n        /* \"#utility.yul\":18546:18566   */\n      tag_453\n      jump\t// in\n    tag_663:\n        /* \"#utility.yul\":18541:18566   */\n      swap3\n      pop\n        /* \"#utility.yul\":18601:18602   */\n      dup3\n        /* \"#utility.yul\":18598:18599   */\n      dup3\n        /* \"#utility.yul\":18594:18603   */\n      mul\n        /* \"#utility.yul\":18623:18653   */\n      tag_664\n        /* \"#utility.yul\":18641:18652   */\n      dup2\n        /* \"#utility.yul\":18623:18653   */\n      tag_453\n      jump\t// in\n    tag_664:\n        /* \"#utility.yul\":18612:18653   */\n      swap2\n      pop\n        /* \"#utility.yul\":18802:18803   */\n      dup3\n        /* \"#utility.yul\":18793:18800   */\n      dup3\n        /* \"#utility.yul\":18789:18804   */\n      div\n        /* \"#utility.yul\":18786:18787   */\n      dup5\n        /* \"#utility.yul\":18783:18805   */\n      eq\n        /* \"#utility.yul\":18763:18764   */\n      dup4\n        /* \"#utility.yul\":18756:18765   */\n      iszero\n        /* \"#utility.yul\":18736:18819   */\n      or\n        /* \"#utility.yul\":18713:18852   */\n      tag_665\n      jumpi\n        /* \"#utility.yul\":18832:18850   */\n      tag_666\n      tag_468\n      jump\t// in\n    tag_666:\n        /* \"#utility.yul\":18713:18852   */\n    tag_665:\n        /* \"#utility.yul\":18497:18859   */\n      pop\n        /* \"#utility.yul\":18449:18859   */\n      swap3\n      swap2\n      pop\n      pop\n      jump\t// out\n        /* \"#utility.yul\":18865:18983   */\n    tag_484:\n        /* \"#utility.yul\":18952:18976   */\n      tag_668\n        /* \"#utility.yul\":18970:18975   */\n      dup2\n        /* \"#utility.yul\":18952:18976   */\n      tag_450\n      jump\t// in\n    tag_668:\n        /* \"#utility.yul\":18947:18950   */\n      dup3\n        /* \"#utility.yul\":18940:18977   */\n      mstore\n        /* \"#utility.yul\":18865:18983   */\n      pop\n      pop\n      jump\t// out\n        /* \"#utility.yul\":18989:19211   */\n    tag_348:\n        /* \"#utility.yul\":19082:19086   */\n      0x00\n        /* \"#utility.yul\":19120:19122   */\n      0x20\n        /* \"#utility.yul\":19109:19118   */\n      dup3\n        /* \"#utility.yul\":19105:19123   */\n      add\n        /* \"#utility.yul\":19097:19123   */\n      swap1\n      pop\n        /* \"#utility.yul\":19133:19204   */\n      tag_670\n        /* \"#utility.yul\":19201:19202   */\n      0x00\n        /* \"#utility.yul\":19190:19199   */\n      dup4\n        /* \"#utility.yul\":19186:19203   */\n      add\n        /* \"#utility.yul\":19177:19183   */\n      dup5\n        /* \"#utility.yul\":19133:19204   */\n      tag_484\n      jump\t// in\n    tag_670:\n        /* \"#utility.yul\":18989:19211   */\n      swap3\n      swap2\n      pop\n      pop\n      jump\t// out\n        /* \"#utility.yul\":19217:19437   */\n    tag_485:\n        /* \"#utility.yul\":19357:19391   */\n      0x45524332303a207472616e736665722066726f6d207a65726f20616464726573\n        /* \"#utility.yul\":19353:19354   */\n      0x00\n        /* \"#utility.yul\":19345:19351   */\n      dup3\n        /* \"#utility.yul\":19341:19355   */\n      add\n        /* \"#utility.yul\":19334:19392   */\n      mstore\n        /* \"#utility.yul\":19426:19429   */\n      0x7300000000000000000000000000000000000000000000000000000000000000\n        /* \"#utility.yul\":19421:19423   */\n      0x20\n        /* \"#utility.yul\":19413:19419   */\n      dup3\n        /* \"#utility.yul\":19409:19424   */\n      add\n        /* \"#utility.yul\":19402:19430   */\n      mstore\n        /* \"#utility.yul\":19217:19437   */\n      pop\n      jump\t// out\n        /* \"#utility.yul\":19443:19809   */\n    tag_486:\n        /* \"#utility.yul\":19585:19588   */\n      0x00\n        /* \"#utility.yul\":19606:19673   */\n      tag_673\n        /* \"#utility.yul\":19670:19672   */\n      0x21\n        /* \"#utility.yul\":19665:19668   */\n      dup4\n        /* \"#utility.yul\":19606:19673   */\n      tag_445\n      jump\t// in\n    tag_673:\n        /* \"#utility.yul\":19599:19673   */\n      swap2\n      pop\n        /* \"#utility.yul\":19682:19775   */\n      tag_674\n        /* \"#utility.yul\":19771:19774   */\n      dup3\n        /* \"#utility.yul\":19682:19775   */\n      tag_485\n      jump\t// in\n    tag_674:\n        /* \"#utility.yul\":19800:19802   */\n      0x40\n        /* \"#utility.yul\":19795:19798   */\n      dup3\n        /* \"#utility.yul\":19791:19803   */\n      add\n        /* \"#utility.yul\":19784:19803   */\n      swap1\n      pop\n        /* \"#utility.yul\":19443:19809   */\n      swap2\n      swap1\n      pop\n      jump\t// out\n        /* \"#utility.yul\":19815:20234   */\n    tag_360:\n        /* \"#utility.yul\":19981:19985   */\n      0x00\n        /* \"#utility.yul\":20019:20021   */\n      0x20\n        /* \"#utility.yul\":20008:20017   */\n      dup3\n        /* \"#utility.yul\":20004:20022   */\n      add\n        /* \"#utility.yul\":19996:20022   */\n      swap1\n      pop\n        /* \"#utility.yul\":20068:20077   */\n      dup2\n        /* \"#utility.yul\":20062:20066   */\n      dup2\n        /* \"#utility.yul\":20058:20078   */\n      sub\n        /* \"#utility.yul\":20054:20055   */\n      0x00\n        /* \"#utility.yul\":20043:20052   */\n      dup4\n        /* \"#utility.yul\":20039:20056   */\n      add\n        /* \"#utility.yul\":20032:20079   */\n      mstore\n        /* \"#utility.yul\":20096:20227   */\n      tag_676\n        /* \"#utility.yul\":20222:20226   */\n      dup2\n        /* \"#utility.yul\":20096:20227   */\n      tag_486\n      jump\t// in\n    tag_676:\n        /* \"#utility.yul\":20088:20227   */\n      swap1\n      pop\n        /* \"#utility.yul\":19815:20234   */\n      swap2\n      swap1\n      pop\n      jump\t// out\n        /* \"#utility.yul\":20240:20400   */\n    tag_487:\n        /* \"#utility.yul\":20380:20392   */\n      0x6d61782069732031653600000000000000000000000000000000000000000000\n        /* \"#utility.yul\":20376:20377   */\n      0x00\n        /* \"#utility.yul\":20368:20374   */\n      dup3\n        /* \"#utility.yul\":20364:20378   */\n      add\n        /* \"#utility.yul\":20357:20393   */\n      mstore\n        /* \"#utility.yul\":20240:20400   */\n      pop\n      jump\t// out\n        /* \"#utility.yul\":20406:20772   */\n    tag_488:\n        /* \"#utility.yul\":20548:20551   */\n      0x00\n        /* \"#utility.yul\":20569:20636   */\n      tag_679\n        /* \"#utility.yul\":20633:20635   */\n      0x0a\n        /* \"#utility.yul\":20628:20631   */\n      dup4\n        /* \"#utility.yul\":20569:20636   */\n      tag_445\n      jump\t// in\n    tag_679:\n        /* \"#utility.yul\":20562:20636   */\n      swap2\n      pop\n        /* \"#utility.yul\":20645:20738   */\n      tag_680\n        /* \"#utility.yul\":20734:20737   */\n      dup3\n        /* \"#utility.yul\":20645:20738   */\n      tag_487\n      jump\t// in\n    tag_680:\n        /* \"#utility.yul\":20763:20765   */\n      0x20\n        /* \"#utility.yul\":20758:20761   */\n      dup3\n        /* \"#utility.yul\":20754:20766   */\n      add\n        /* \"#utility.yul\":20747:20766   */\n      swap1\n      pop\n        /* \"#utility.yul\":20406:20772   */\n      swap2\n      swap1\n      pop\n      jump\t// out\n        /* \"#utility.yul\":20778:21197   */\n    tag_378:\n        /* \"#utility.yul\":20944:20948   */\n      0x00\n        /* \"#utility.yul\":20982:20984   */\n      0x20\n        /* \"#utility.yul\":20971:20980   */\n      dup3\n        /* \"#utility.yul\":20967:20985   */\n      add\n        /* \"#utility.yul\":20959:20985   */\n      swap1\n      pop\n        /* \"#utility.yul\":21031:21040   */\n      dup2\n        /* \"#utility.yul\":21025:21029   */\n      dup2\n        /* \"#utility.yul\":21021:21041   */\n      sub\n        /* \"#utility.yul\":21017:21018   */\n      0x00\n        /* \"#utility.yul\":21006:21015   */\n      dup4\n        /* \"#utility.yul\":21002:21019   */\n      add\n        /* \"#utility.yul\":20995:21042   */\n      mstore\n        /* \"#utility.yul\":21059:21190   */\n      tag_682\n        /* \"#utility.yul\":21185:21189   */\n      dup2\n        /* \"#utility.yul\":21059:21190   */\n      tag_488\n      jump\t// in\n    tag_682:\n        /* \"#utility.yul\":21051:21190   */\n      swap1\n      pop\n        /* \"#utility.yul\":20778:21197   */\n      swap2\n      swap1\n      pop\n      jump\t// out\n        /* \"#utility.yul\":21203:21535   */\n    tag_425:\n        /* \"#utility.yul\":21324:21328   */\n      0x00\n        /* \"#utility.yul\":21362:21364   */\n      0x40\n        /* \"#utility.yul\":21351:21360   */\n      dup3\n        /* \"#utility.yul\":21347:21365   */\n      add\n        /* \"#utility.yul\":21339:21365   */\n      swap1\n      pop\n        /* \"#utility.yul\":21375:21446   */\n      tag_684\n        /* \"#utility.yul\":21443:21444   */\n      0x00\n        /* \"#utility.yul\":21432:21441   */\n      dup4\n        /* \"#utility.yul\":21428:21445   */\n      add\n        /* \"#utility.yul\":21419:21425   */\n      dup6\n        /* \"#utility.yul\":21375:21446   */\n      tag_484\n      jump\t// in\n    tag_684:\n        /* \"#utility.yul\":21456:21528   */\n      tag_685\n        /* \"#utility.yul\":21524:21526   */\n      0x20\n        /* \"#utility.yul\":21513:21522   */\n      dup4\n        /* \"#utility.yul\":21509:21527   */\n      add\n        /* \"#utility.yul\":21500:21506   */\n      dup5\n        /* \"#utility.yul\":21456:21528   */\n      tag_460\n      jump\t// in\n    tag_685:\n        /* \"#utility.yul\":21203:21535   */\n      swap4\n      swap3\n      pop\n      pop\n      pop\n      jump\t// out\n        /* \"#utility.yul\":21541:21983   */\n    tag_432:\n        /* \"#utility.yul\":21690:21694   */\n      0x00\n        /* \"#utility.yul\":21728:21730   */\n      0x60\n        /* \"#utility.yul\":21717:21726   */\n      dup3\n        /* \"#utility.yul\":21713:21731   */\n      add\n        /* \"#utility.yul\":21705:21731   */\n      swap1\n      pop\n        /* \"#utility.yul\":21741:21812   */\n      tag_687\n        /* \"#utility.yul\":21809:21810   */\n      0x00\n        /* \"#utility.yul\":21798:21807   */\n      dup4\n        /* \"#utility.yul\":21794:21811   */\n      add\n        /* \"#utility.yul\":21785:21791   */\n      dup7\n        /* \"#utility.yul\":21741:21812   */\n      tag_484\n      jump\t// in\n    tag_687:\n        /* \"#utility.yul\":21822:21894   */\n      tag_688\n        /* \"#utility.yul\":21890:21892   */\n      0x20\n        /* \"#utility.yul\":21879:21888   */\n      dup4\n        /* \"#utility.yul\":21875:21893   */\n      add\n        /* \"#utility.yul\":21866:21872   */\n      dup6\n        /* \"#utility.yul\":21822:21894   */\n      tag_454\n      jump\t// in\n    tag_688:\n        /* \"#utility.yul\":21904:21976   */\n      tag_689\n        /* \"#utility.yul\":21972:21974   */\n      0x40\n        /* \"#utility.yul\":21961:21970   */\n      dup4\n        /* \"#utility.yul\":21957:21975   */\n      add\n        /* \"#utility.yul\":21948:21954   */\n      dup5\n        /* \"#utility.yul\":21904:21976   */\n      tag_454\n      jump\t// in\n    tag_689:\n        /* \"#utility.yul\":21541:21983   */\n      swap5\n      swap4\n      pop\n      pop\n      pop\n      pop\n      jump\t// out\n\n    auxdata: 0xa2646970667358221220ea9aa9a965a1da7df77465ede2c0ebecdefdfe344aafd1ccf248d82d2d12a18a64736f6c634300081e0033\n}\n",
				"bytecode": {
					"linkReferences": {},
					"object": "6080604052600160075569d3c21bcecceda1000000600855600a600b5569021e19e0c9bab2400000600c55348015610035575f5ffd5b5060405161310f38038061310f833981810160405281019061005791906101cf565b818181600390816100689190610455565b5080600490816100789190610455565b5050505050610524565b5f604051905090565b5f5ffd5b5f5ffd5b5f5ffd5b5f5ffd5b5f601f19601f8301169050919050565b7f4e487b71000000000000000000000000000000000000000000000000000000005f52604160045260245ffd5b6100e18261009b565b810181811067ffffffffffffffff82111715610100576100ff6100ab565b5b80604052505050565b5f610112610082565b905061011e82826100d8565b919050565b5f67ffffffffffffffff82111561013d5761013c6100ab565b5b6101468261009b565b9050602081019050919050565b8281835e5f83830152505050565b5f61017361016e84610123565b610109565b90508281526020810184848401111561018f5761018e610097565b5b61019a848285610153565b509392505050565b5f82601f8301126101b6576101b5610093565b5b81516101c6848260208601610161565b91505092915050565b5f5f604083850312156101e5576101e461008b565b5b5f83015167ffffffffffffffff8111156102025761020161008f565b5b61020e858286016101a2565b925050602083015167ffffffffffffffff81111561022f5761022e61008f565b5b61023b858286016101a2565b9150509250929050565b5f81519050919050565b7f4e487b71000000000000000000000000000000000000000000000000000000005f52602260045260245ffd5b5f600282049050600182168061029357607f821691505b6020821081036102a6576102a561024f565b5b50919050565b5f819050815f5260205f209050919050565b5f6020601f8301049050919050565b5f82821b905092915050565b5f600883026103087fffffffffffffffffffffffffffffffffffffffffffffffffffffffffffffffff826102cd565b61031286836102cd565b95508019841693508086168417925050509392505050565b5f819050919050565b5f819050919050565b5f61035661035161034c8461032a565b610333565b61032a565b9050919050565b5f819050919050565b61036f8361033c565b61038361037b8261035d565b8484546102d9565b825550505050565b5f5f905090565b61039a61038b565b6103a5818484610366565b505050565b5b818110156103c8576103bd5f82610392565b6001810190506103ab565b5050565b601f82111561040d576103de816102ac565b6103e7846102be565b810160208510156103f6578190505b61040a610402856102be565b8301826103aa565b50505b505050565b5f82821c905092915050565b5f61042d5f1984600802610412565b1980831691505092915050565b5f610445838361041e565b9150826002028217905092915050565b61045e82610245565b67ffffffffffffffff811115610477576104766100ab565b5b610481825461027c565b61048c8282856103cc565b5f60209050601f8311600181146104bd575f84156104ab578287015190505b6104b5858261043a565b86555061051c565b601f1984166104cb866102ac565b5f5b828110156104f2578489015182556001820191506020850194506020810190506104cd565b8683101561050f578489015161050b601f89168261041e565b8355505b6001600288020188555050505b505050505050565b612bde806105315f395ff3fe608060405234801561000f575f5ffd5b5060043610610204575f3560e01c80636962902511610118578063a694fc3a116100ab578063d547741f1161007a578063d547741f14610600578063d5abeb011461061c578063dd62ed3e1461063a578063e63ab1e91461066a578063f40f0f521461068857610204565b8063a694fc3a1461058c578063a9059cbb146105a8578063b88a802f146105d8578063d5391393146105e257610204565b806395d89b41116100e757806395d89b411461050457806399f853a5146105225780639dc29fac14610552578063a217fddf1461056e57610204565b8063696290251461046857806370a08231146104865780637fd6f15c146104b657806391d14854146104d457610204565b806323b872dd1161019b5780632f2ff15d1161016a5780632f2ff15d146103d8578063313ce567146103f457806336568abe1461041257806340c10f191461042e5780635c975abb1461044a57610204565b806323b872dd1461033e578063248a9ca31461036e57806325d5971f1461039e578063282c51f3146103ba57610204565b8063095ea7b3116101d7578063095ea7b3146102a457806316934fc4146102d457806318160ddd14610304578063226450851461032257610204565b806301ffc9a71461020857806306fdde03146102385780630700037d146102565780630717d03214610286575b5f5ffd5b610222600480360381019061021d9190612115565b6106b8565b60405161022f919061215a565b60405180910390f35b610240610731565b60405161024d91906121e3565b60405180910390f35b610270600480360381019061026b919061225d565b6107c1565b60405161027d91906122a0565b60405180910390f35b61028e6107d6565b60405161029b91906122a0565b60405180910390f35b6102be60048036038101906102b991906122e3565b6107dc565b6040516102cb919061215a565b60405180910390f35b6102ee60048036038101906102e9919061225d565b6107fe565b6040516102fb91906122a0565b60405180910390f35b61030c610813565b60405161031991906122a0565b60405180910390f35b61033c60048036038101906103379190612321565b61081c565b005b6103586004803603810190610353919061234c565b610880565b604051610365919061215a565b60405180910390f35b610388600480360381019061038391906123cf565b61093a565b6040516103959190612409565b60405180910390f35b6103b860048036038101906103b39190612321565b610957565b005b6103c2610aa8565b6040516103cf9190612409565b60405180910390f35b6103f260048036038101906103ed9190612422565b610acc565b005b6103fc610aee565b604051610409919061247b565b60405180910390f35b61042c60048036038101906104279190612422565b610af6565b005b610448600480360381019061044391906122e3565b610b71565b005b610452610c49565b60405161045f919061215a565b60405180910390f35b610470610c5e565b60405161047d91906122a0565b60405180910390f35b6104a0600480360381019061049b919061225d565b610c64565b6040516104ad91906122a0565b60405180910390f35b6104be610ca9565b6040516104cb91906122a0565b60405180910390f35b6104ee60048036038101906104e99190612422565b610caf565b6040516104fb919061215a565b60405180910390f35b61050c610d13565b60405161051991906121e3565b60405180910390f35b61053c6004803603810190610537919061225d565b610da3565b60405161054991906122a0565b60405180910390f35b61056c600480360381019061056791906122e3565b610db8565b005b610576610e86565b6040516105839190612409565b60405180910390f35b6105a660048036038101906105a19190612321565b610e8c565b005b6105c260048036038101906105bd91906122e3565b6110c1565b6040516105cf919061215a565b60405180910390f35b6105e06110df565b005b6105ea611222565b6040516105f79190612409565b60405180910390f35b61061a60048036038101906106159190612422565b611246565b005b610624611268565b60405161063191906122a0565b60405180910390f35b610654600480360381019061064f9190612494565b61126e565b60405161066191906122a0565b60405180910390f35b6106726112f0565b60405161067f9190612409565b60405180910390f35b6106a2600480360381019061069d919061225d565b611314565b6040516106af91906122a0565b60405180910390f35b5f7f7965db0b000000000000000000000000000000000000000000000000000000007bffffffffffffffffffffffffffffffffffffffffffffffffffffffff1916827bffffffffffffffffffffffffffffffffffffffffffffffffffffffff1916148061072a5750610729826114b1565b5b9050919050565b606060038054610740906124ff565b80601f016020809104026020016040519081016040528092919081815260200182805461076c906124ff565b80156107b75780601f1061078e576101008083540402835291602001916107b7565b820191905f5260205f20905b81548152906001019060200180831161079a57829003601f168201915b5050505050905090565b600d602052805f5260405f205f915090505481565b600c5481565b5f5f6107e661151a565b90506107f3818585611521565b600191505092915050565b6009602052805f5260405f205f915090505481565b5f600254905090565b610824611533565b33818061083083610c64565b1015610871576040517f08c379a000000000000000000000000000000000000000000000000000000000815260040161086890612579565b60405180910390fd5b61087b3384611574565b505050565b5f610889611533565b3073ffffffffffffffffffffffffffffffffffffffff163373ffffffffffffffffffffffffffffffffffffffff1614610924575f6108c7853361126e565b90508281101561090c576040517f08c379a000000000000000000000000000000000000000000000000000000000815260040161090390612607565b60405180910390fd5b6109228533858461091d9190612652565b611521565b505b61092f8484846115f3565b600190509392505050565b5f60065f8381526020019081526020015f20600101549050919050565b8060095f3373ffffffffffffffffffffffffffffffffffffffff1673ffffffffffffffffffffffffffffffffffffffff1681526020019081526020015f205410156109d7576040517f08c379a00000000000000000000000000000000000000000000000000000000081526004016109ce906126cf565b60405180910390fd5b806109e130610c64565b10156109f0576109ef611777565b5b6109f933611866565b8060095f3373ffffffffffffffffffffffffffffffffffffffff1673ffffffffffffffffffffffffffffffffffffffff1681526020019081526020015f205f828254610a459190612652565b92505081905550610a57303383611914565b3373ffffffffffffffffffffffffffffffffffffffff167f7084f5476618d8e60b11ef0d7d3f06914655adb8793e28ff7f018d4c76d505d582604051610a9d91906122a0565b60405180910390a250565b7f3c11d16cbaffd01df69ce1c404f6340ee057498f5f00246190ea54220576a84881565b610ad58261093a565b610ade81611a04565b610ae88383611a18565b50505050565b5f6012905090565b610afe61151a565b73ffffffffffffffffffffffffffffffffffffffff168173ffffffffffffffffffffffffffffffffffffffff1614610b62576040517f6697b23200000000000000000000000000000000000000000000000000000000815260040160405180910390fd5b610b6c8282611b02565b505050565b610b9b7f9f2df0fed2c77648de5860a4cc508cd0818c85b8b8a1ab4ceeef8d981c8956a633610caf565b610bda576040517f08c379a0000000000000000000000000000000000000000000000000000000008152600401610bd190612737565b60405180910390fd5b8060085481610be7610813565b610bf19190612755565b1115610c32576040517f08c379a0000000000000000000000000000000000000000000000000000000008152600401610c29906127d2565b60405180910390fd5b610c3a611533565b610c448383611bec565b505050565b5f60055f9054906101000a900460ff16905090565b600b5481565b5f5f5f8373ffffffffffffffffffffffffffffffffffffffff1673ffffffffffffffffffffffffffffffffffffffff1681526020019081526020015f20549050919050565b60075481565b5f60065f8481526020019081526020015f205f015f8373ffffffffffffffffffffffffffffffffffffffff1673ffffffffffffffffffffffffffffffffffffffff1681526020019081526020015f205f9054906101000a900460ff16905092915050565b606060048054610d22906124ff565b80601f0160208091040260200160405190810160405280929190818152602001828054610d4e906124ff565b8015610d995780601f10610d7057610100808354040283529160200191610d99565b820191905f5260205f20905b815481529060010190602001808311610d7c57829003601f168201915b5050505050905090565b600a602052805f5260405f205f915090505481565b610dc0611533565b610dea7f3c11d16cbaffd01df69ce1c404f6340ee057498f5f00246190ea54220576a84833610caf565b610e29576040517f08c379a0000000000000000000000000000000000000000000000000000000008152600401610e209061283a565b60405180910390fd5b818180610e3583610c64565b1015610e76576040517f08c379a0000000000000000000000000000000000000000000000000000000008152600401610e6d90612579565b60405180910390fd5b610e808484611574565b50505050565b5f5f1b81565b80610e9633610c64565b1015610ed7576040517f08c379a0000000000000000000000000000000000000000000000000000000008152600401610ece906128a2565b60405180910390fd5b600c548160095f3373ffffffffffffffffffffffffffffffffffffffff1673ffffffffffffffffffffffffffffffffffffffff1681526020019081526020015f2054610f239190612755565b1115610f64576040517f08c379a0000000000000000000000000000000000000000000000000000000008152600401610f5b9061290a565b60405180910390fd5b80610f6e30610c64565b1015610f7d57610f7c611777565b5b5f600a5f3373ffffffffffffffffffffffffffffffffffffffff1673ffffffffffffffffffffffffffffffffffffffff1681526020019081526020015f2054036110085742600a5f3373ffffffffffffffffffffffffffffffffffffffff1673ffffffffffffffffffffffffffffffffffffffff1681526020019081526020015f2081905550611012565b61101133611866565b5b61101d333083611914565b8060095f3373ffffffffffffffffffffffffffffffffffffffff1673ffffffffffffffffffffffffffffffffffffffff1681526020019081526020015f205f8282546110699190612755565b925050819055503373ffffffffffffffffffffffffffffffffffffffff167f9e71bc8eea02a63969f509818f2dafb9254532904319f9dbda79b67bd34a5f3d826040516110b691906122a0565b60405180910390a250565b5f6110ca611533565b6110d53384846115f3565b6001905092915050565b6110e833611866565b5f600d5f3373ffffffffffffffffffffffffffffffffffffffff1673ffffffffffffffffffffffffffffffffffffffff1681526020019081526020015f205490508061113330610c64565b101561114257611141611777565b5b5f8111611184576040517f08c379a000000000000000000000000000000000000000000000000000000000815260040161117b90612972565b60405180910390fd5b5f600d5f3373ffffffffffffffffffffffffffffffffffffffff1673ffffffffffffffffffffffffffffffffffffffff1681526020019081526020015f20819055506111d1303383611914565b3373ffffffffffffffffffffffffffffffffffffffff167f106f923f993c2149d49b4255ff723acafa1f2d94393f561d3eda32ae348f72418260405161121791906122a0565b60405180910390a250565b7f9f2df0fed2c77648de5860a4cc508cd0818c85b8b8a1ab4ceeef8d981c8956a681565b61124f8261093a565b61125881611a04565b6112628383611b02565b50505050565b60085481565b5f60015f8473ffffffffffffffffffffffffffffffffffffffff1673ffffffffffffffffffffffffffffffffffffffff1681526020019081526020015f205f8373ffffffffffffffffffffffffffffffffffffffff1673ffffffffffffffffffffffffffffffffffffffff1681526020019081526020015f2054905092915050565b7f65d7a28e3265b37a6474929f336521b332c1681b933f6cb9f3376673440d862a81565b5f5f60095f8473ffffffffffffffffffffffffffffffffffffffff1673ffffffffffffffffffffffffffffffffffffffff1681526020019081526020015f205490505f8103611366575f9150506114ac565b5f600a5f8573ffffffffffffffffffffffffffffffffffffffff1673ffffffffffffffffffffffffffffffffffffffff1681526020019081526020015f205490505f81036113b8575f925050506114ac565b5f610e1082426113c89190612652565b6113d291906129bd565b90505f81036113e6575f93505050506114ac565b5f600b5490505f841180156114045750683635c9adc5dea000008411155b15611451575f683635c9adc5dea00000603286683635c9adc5dea0000061142b9190612652565b61143591906129ed565b61143f91906129bd565b9050808261144d9190612755565b9150505b69010f0cf064dd592000008411156114825760058111611471575f61147f565b60058161147e9190612652565b5b90505b606482828661149191906129ed565b61149b91906129ed565b6114a591906129bd565b9450505050505b919050565b5f7f01ffc9a7000000000000000000000000000000000000000000000000000000007bffffffffffffffffffffffffffffffffffffffffffffffffffffffff1916827bffffffffffffffffffffffffffffffffffffffffffffffffffffffff1916149050919050565b5f33905090565b61152e8383836001611c6b565b505050565b61153b610c49565b15611572576040517fd93c066500000000000000000000000000000000000000000000000000000000815260040160405180910390fd5b565b5f73ffffffffffffffffffffffffffffffffffffffff168273ffffffffffffffffffffffffffffffffffffffff16036115e4575f6040517f96c6fd1e0000000000000000000000000000000000000000000000000000000081526004016115db9190612a3d565b60405180910390fd5b6115ef825f83611e3a565b5050565b8281806115ff83610c64565b1015611640576040517f08c379a000000000000000000000000000000000000000000000000000000000815260040161163790612579565b60405180910390fd5b611648611533565b5f73ffffffffffffffffffffffffffffffffffffffff168573ffffffffffffffffffffffffffffffffffffffff16036116b6576040517f08c379a00000000000000000000000000000000000000000000000000000000081526004016116ad90612ac6565b60405180910390fd5b5f73ffffffffffffffffffffffffffffffffffffffff168473ffffffffffffffffffffffffffffffffffffffff1603611724576040517f08c379a000000000000000000000000000000000000000000000000000000000815260040161171b90612ac6565b60405180910390fd5b5f60646007548561173591906129ed565b61173f91906129bd565b90505f818561174e9190612652565b90505f821115611763576117628783611574565b5b61176e878783611914565b50505050505050565b5f69152d02c7e14af680000090505f61178f30610c64565b905081811015611862575f81836117a69190612652565b905069152d02c7e14af68000008111156117c85769152d02c7e14af680000090505b600854816117d4610813565b6117de9190612755565b111561181f576040517f08c379a000000000000000000000000000000000000000000000000000000000815260040161181690612b2e565b60405180910390fd5b6118293082611bec565b7f7255432b9d8b4f01e258eaa3c7be1c288c887fd8592c95dcedc6e517116d3f408160405161185891906122a0565b60405180910390a1505b5050565b5f61187082611314565b90505f8111156118ce5780600d5f8473ffffffffffffffffffffffffffffffffffffffff1673ffffffffffffffffffffffffffffffffffffffff1681526020019081526020015f205f8282546118c69190612755565b925050819055505b42600a5f8473ffffffffffffffffffffffffffffffffffffffff1673ffffffffffffffffffffffffffffffffffffffff1681526020019081526020015f20819055505050565b5f73ffffffffffffffffffffffffffffffffffffffff168373ffffffffffffffffffffffffffffffffffffffff1603611984575f6040517f96c6fd1e00000000000000000000000000000000000000000000000000000000815260040161197b9190612a3d565b60405180910390fd5b5f73ffffffffffffffffffffffffffffffffffffffff168273ffffffffffffffffffffffffffffffffffffffff16036119f4575f6040517fec442f050000000000000000000000000000000000000000000000000000000081526004016119eb9190612a3d565b60405180910390fd5b6119ff838383611e3a565b505050565b611a1581611a1061151a565b611e52565b50565b5f611a238383610caf565b611af857600160065f8581526020019081526020015f205f015f8473ffffffffffffffffffffffffffffffffffffffff1673ffffffffffffffffffffffffffffffffffffffff1681526020019081526020015f205f6101000a81548160ff021916908315150217905550611a9561151a565b73ffffffffffffffffffffffffffffffffffffffff168273ffffffffffffffffffffffffffffffffffffffff16847f2f8788117e7eff1d82e926ec794901d17c78024a50270940304540a733656f0d60405160405180910390a460019050611afc565b5f90505b92915050565b5f611b0d8383610caf565b15611be2575f60065f8581526020019081526020015f205f015f8473ffffffffffffffffffffffffffffffffffffffff1673ffffffffffffffffffffffffffffffffffffffff1681526020019081526020015f205f6101000a81548160ff021916908315150217905550611b7f61151a565b73ffffffffffffffffffffffffffffffffffffffff168273ffffffffffffffffffffffffffffffffffffffff16847ff6391f5c32d9c69d2a47ea670b442974b53935d1edc7fd64eb21e047a839171b60405160405180910390a460019050611be6565b5f90505b92915050565b5f73ffffffffffffffffffffffffffffffffffffffff168273ffffffffffffffffffffffffffffffffffffffff1603611c5c575f6040517fec442f05000000000000000000000000000000000000000000000000000000008152600401611c539190612a3d565b60405180910390fd5b611c675f8383611e3a565b5050565b5f73ffffffffffffffffffffffffffffffffffffffff168473ffffffffffffffffffffffffffffffffffffffff1603611cdb575f6040517fe602df05000000000000000000000000000000000000000000000000000000008152600401611cd29190612a3d565b60405180910390fd5b5f73ffffffffffffffffffffffffffffffffffffffff168373ffffffffffffffffffffffffffffffffffffffff1603611d4b575f6040517f94280d62000000000000000000000000000000000000000000000000000000008152600401611d429190612a3d565b60405180910390fd5b8160015f8673ffffffffffffffffffffffffffffffffffffffff1673ffffffffffffffffffffffffffffffffffffffff1681526020019081526020015f205f8573ffffffffffffffffffffffffffffffffffffffff1673ffffffffffffffffffffffffffffffffffffffff1681526020019081526020015f20819055508015611e34578273ffffffffffffffffffffffffffffffffffffffff168473ffffffffffffffffffffffffffffffffffffffff167f8c5be1e5ebec7d5bd14f71427d1e84f3dd0314c0f7b2291e5b200ac8c7c3b92584604051611e2b91906122a0565b60405180910390a35b50505050565b611e42611533565b611e4d838383611ea3565b505050565b611e5c8282610caf565b611e9f5780826040517fe2517d3f000000000000000000000000000000000000000000000000000000008152600401611e96929190612b4c565b60405180910390fd5b5050565b5f73ffffffffffffffffffffffffffffffffffffffff168373ffffffffffffffffffffffffffffffffffffffff1603611ef3578060025f828254611ee79190612755565b92505081905550611fc1565b5f5f5f8573ffffffffffffffffffffffffffffffffffffffff1673ffffffffffffffffffffffffffffffffffffffff1681526020019081526020015f2054905081811015611f7c578381836040517fe450d38c000000000000000000000000000000000000000000000000000000008152600401611f7393929190612b73565b60405180910390fd5b8181035f5f8673ffffffffffffffffffffffffffffffffffffffff1673ffffffffffffffffffffffffffffffffffffffff1681526020019081526020015f2081905550505b5f73ffffffffffffffffffffffffffffffffffffffff168273ffffffffffffffffffffffffffffffffffffffff1603612008578060025f8282540392505081905550612052565b805f5f8473ffffffffffffffffffffffffffffffffffffffff1673ffffffffffffffffffffffffffffffffffffffff1681526020019081526020015f205f82825401925050819055505b8173ffffffffffffffffffffffffffffffffffffffff168373ffffffffffffffffffffffffffffffffffffffff167fddf252ad1be2c89b69c2b068fc378daa952ba7f163c4a11628f55a4df523b3ef836040516120af91906122a0565b60405180910390a3505050565b5f5ffd5b5f7fffffffff0000000000000000000000000000000000000000000000000000000082169050919050565b6120f4816120c0565b81146120fe575f5ffd5b50565b5f8135905061210f816120eb565b92915050565b5f6020828403121561212a576121296120bc565b5b5f61213784828501612101565b91505092915050565b5f8115159050919050565b61215481612140565b82525050565b5f60208201905061216d5f83018461214b565b92915050565b5f81519050919050565b5f82825260208201905092915050565b8281835e5f83830152505050565b5f601f19601f8301169050919050565b5f6121b582612173565b6121bf818561217d565b93506121cf81856020860161218d565b6121d88161219b565b840191505092915050565b5f6020820190508181035f8301526121fb81846121ab565b905092915050565b5f73ffffffffffffffffffffffffffffffffffffffff82169050919050565b5f61222c82612203565b9050919050565b61223c81612222565b8114612246575f5ffd5b50565b5f8135905061225781612233565b92915050565b5f60208284031215612272576122716120bc565b5b5f61227f84828501612249565b91505092915050565b5f819050919050565b61229a81612288565b82525050565b5f6020820190506122b35f830184612291565b92915050565b6122c281612288565b81146122cc575f5ffd5b50565b5f813590506122dd816122b9565b92915050565b5f5f604083850312156122f9576122f86120bc565b5b5f61230685828601612249565b9250506020612317858286016122cf565b9150509250929050565b5f60208284031215612336576123356120bc565b5b5f612343848285016122cf565b91505092915050565b5f5f5f60608486031215612363576123626120bc565b5b5f61237086828701612249565b935050602061238186828701612249565b9250506040612392868287016122cf565b9150509250925092565b5f819050919050565b6123ae8161239c565b81146123b8575f5ffd5b50565b5f813590506123c9816123a5565b92915050565b5f602082840312156123e4576123e36120bc565b5b5f6123f1848285016123bb565b91505092915050565b6124038161239c565b82525050565b5f60208201905061241c5f8301846123fa565b92915050565b5f5f60408385031215612438576124376120bc565b5b5f612445858286016123bb565b925050602061245685828601612249565b9150509250929050565b5f60ff82169050919050565b61247581612460565b82525050565b5f60208201905061248e5f83018461246c565b92915050565b5f5f604083850312156124aa576124a96120bc565b5b5f6124b785828601612249565b92505060206124c885828601612249565b9150509250929050565b7f4e487b71000000000000000000000000000000000000000000000000000000005f52602260045260245ffd5b5f600282049050600182168061251657607f821691505b602082108103612529576125286124d2565b5b50919050565b7f4572726f723a206e6f7420656e6f7567682062616c616e6365000000000000005f82015250565b5f61256360198361217d565b915061256e8261252f565b602082019050919050565b5f6020820190508181035f83015261259081612557565b9050919050565b7f45524332303a207472616e7366657220616d6f756e74206578636565647320615f8201527f6c6c6f77616e6365000000000000000000000000000000000000000000000000602082015250565b5f6125f160288361217d565b91506125fc82612597565b604082019050919050565b5f6020820190508181035f83015261261e816125e5565b9050919050565b7f4e487b71000000000000000000000000000000000000000000000000000000005f52601160045260245ffd5b5f61265c82612288565b915061266783612288565b925082820390508181111561267f5761267e612625565b5b92915050565b7f4e6f7420656e6f756768207374616b65640000000000000000000000000000005f82015250565b5f6126b960118361217d565b91506126c482612685565b602082019050919050565b5f6020820190508181035f8301526126e6816126ad565b9050919050565b7f4572726f723a206e6f74206d696e7465720000000000000000000000000000005f82015250565b5f61272160118361217d565b915061272c826126ed565b602082019050919050565b5f6020820190508181035f83015261274e81612715565b9050919050565b5f61275f82612288565b915061276a83612288565b925082820190508082111561278257612781612625565b5b92915050565b7f4572726f723a206d617820737570706c790000000000000000000000000000005f82015250565b5f6127bc60118361217d565b91506127c782612788565b602082019050919050565b5f6020820190508181035f8301526127e9816127b0565b9050919050565b7f4572726f723a206e6f74206275726e65720000000000000000000000000000005f82015250565b5f61282460118361217d565b915061282f826127f0565b602082019050919050565b5f6020820190508181035f83015261285181612818565b9050919050565b7f4e6f7420656e6f7567682062616c616e636500000000000000000000000000005f82015250565b5f61288c60128361217d565b915061289782612858565b602082019050919050565b5f6020820190508181035f8301526128b981612880565b9050919050565b7f45786365656473206d6178207374616b650000000000000000000000000000005f82015250565b5f6128f460118361217d565b91506128ff826128c0565b602082019050919050565b5f6020820190508181035f830152612921816128e8565b9050919050565b7f4e6f2072657761726420617661696c61626c65000000000000000000000000005f82015250565b5f61295c60138361217d565b915061296782612928565b602082019050919050565b5f6020820190508181035f83015261298981612950565b9050919050565b7f4e487b71000000000000000000000000000000000000000000000000000000005f52601260045260245ffd5b5f6129c782612288565b91506129d283612288565b9250826129e2576129e1612990565b5b828204905092915050565b5f6129f782612288565b9150612a0283612288565b9250828202612a1081612288565b91508282048414831517612a2757612a26612625565b5b5092915050565b612a3781612222565b82525050565b5f602082019050612a505f830184612a2e565b92915050565b7f45524332303a207472616e736665722066726f6d207a65726f206164647265735f8201527f7300000000000000000000000000000000000000000000000000000000000000602082015250565b5f612ab060218361217d565b9150612abb82612a56565b604082019050919050565b5f6020820190508181035f830152612add81612aa4565b9050919050565b7f6d617820697320316536000000000000000000000000000000000000000000005f82015250565b5f612b18600a8361217d565b9150612b2382612ae4565b602082019050919050565b5f6020820190508181035f830152612b4581612b0c565b9050919050565b5f604082019050612b5f5f830185612a2e565b612b6c60208301846123fa565b9392505050565b5f606082019050612b865f830186612a2e565b612b936020830185612291565b612ba06040830184612291565b94935050505056fea2646970667358221220ea9aa9a965a1da7df77465ede2c0ebecdefdfe344aafd1ccf248d82d2d12a18a64736f6c634300081e0033",
					"opcodes": "PUSH1 0x80 PUSH1 0x40 MSTORE PUSH1 0x1 PUSH1 0x7 SSTORE PUSH10 0xD3C21BCECCEDA1000000 PUSH1 0x8 SSTORE PUSH1 0xA PUSH1 0xB SSTORE PUSH10 0x21E19E0C9BAB2400000 PUSH1 0xC SSTORE CALLVALUE DUP1 ISZERO PUSH2 0x35 JUMPI PUSH0 PUSH0 REVERT JUMPDEST POP PUSH1 0x40 MLOAD PUSH2 0x310F CODESIZE SUB DUP1 PUSH2 0x310F DUP4 CODECOPY DUP2 DUP2 ADD PUSH1 0x40 MSTORE DUP2 ADD SWAP1 PUSH2 0x57 SWAP2 SWAP1 PUSH2 0x1CF JUMP JUMPDEST DUP2 DUP2 DUP2 PUSH1 0x3 SWAP1 DUP2 PUSH2 0x68 SWAP2 SWAP1 PUSH2 0x455 JUMP JUMPDEST POP DUP1 PUSH1 0x4 SWAP1 DUP2 PUSH2 0x78 SWAP2 SWAP1 PUSH2 0x455 JUMP JUMPDEST POP POP POP POP POP PUSH2 0x524 JUMP JUMPDEST PUSH0 PUSH1 0x40 MLOAD SWAP1 POP SWAP1 JUMP JUMPDEST PUSH0 PUSH0 REVERT JUMPDEST PUSH0 PUSH0 REVERT JUMPDEST PUSH0 PUSH0 REVERT JUMPDEST PUSH0 PUSH0 REVERT JUMPDEST PUSH0 PUSH1 0x1F NOT PUSH1 0x1F DUP4 ADD AND SWAP1 POP SWAP2 SWAP1 POP JUMP JUMPDEST PUSH32 0x4E487B7100000000000000000000000000000000000000000000000000000000 PUSH0 MSTORE PUSH1 0x41 PUSH1 0x4 MSTORE PUSH1 0x24 PUSH0 REVERT JUMPDEST PUSH2 0xE1 DUP3 PUSH2 0x9B JUMP JUMPDEST DUP2 ADD DUP2 DUP2 LT PUSH8 0xFFFFFFFFFFFFFFFF DUP3 GT OR ISZERO PUSH2 0x100 JUMPI PUSH2 0xFF PUSH2 0xAB JUMP JUMPDEST JUMPDEST DUP1 PUSH1 0x40 MSTORE POP POP POP JUMP JUMPDEST PUSH0 PUSH2 0x112 PUSH2 0x82 JUMP JUMPDEST SWAP1 POP PUSH2 0x11E DUP3 DUP3 PUSH2 0xD8 JUMP JUMPDEST SWAP2 SWAP1 POP JUMP JUMPDEST PUSH0 PUSH8 0xFFFFFFFFFFFFFFFF DUP3 GT ISZERO PUSH2 0x13D JUMPI PUSH2 0x13C PUSH2 0xAB JUMP JUMPDEST JUMPDEST PUSH2 0x146 DUP3 PUSH2 0x9B JUMP JUMPDEST SWAP1 POP PUSH1 0x20 DUP2 ADD SWAP1 POP SWAP2 SWAP1 POP JUMP JUMPDEST DUP3 DUP2 DUP4 MCOPY PUSH0 DUP4 DUP4 ADD MSTORE POP POP POP JUMP JUMPDEST PUSH0 PUSH2 0x173 PUSH2 0x16E DUP5 PUSH2 0x123 JUMP JUMPDEST PUSH2 0x109 JUMP JUMPDEST SWAP1 POP DUP3 DUP2 MSTORE PUSH1 0x20 DUP2 ADD DUP5 DUP5 DUP5 ADD GT ISZERO PUSH2 0x18F JUMPI PUSH2 0x18E PUSH2 0x97 JUMP JUMPDEST JUMPDEST PUSH2 0x19A DUP5 DUP3 DUP6 PUSH2 0x153 JUMP JUMPDEST POP SWAP4 SWAP3 POP POP POP JUMP JUMPDEST PUSH0 DUP3 PUSH1 0x1F DUP4 ADD SLT PUSH2 0x1B6 JUMPI PUSH2 0x1B5 PUSH2 0x93 JUMP JUMPDEST JUMPDEST DUP2 MLOAD PUSH2 0x1C6 DUP5 DUP3 PUSH1 0x20 DUP7 ADD PUSH2 0x161 JUMP JUMPDEST SWAP2 POP POP SWAP3 SWAP2 POP POP JUMP JUMPDEST PUSH0 PUSH0 PUSH1 0x40 DUP4 DUP6 SUB SLT ISZERO PUSH2 0x1E5 JUMPI PUSH2 0x1E4 PUSH2 0x8B JUMP JUMPDEST JUMPDEST PUSH0 DUP4 ADD MLOAD PUSH8 0xFFFFFFFFFFFFFFFF DUP2 GT ISZERO PUSH2 0x202 JUMPI PUSH2 0x201 PUSH2 0x8F JUMP JUMPDEST JUMPDEST PUSH2 0x20E DUP6 DUP3 DUP7 ADD PUSH2 0x1A2 JUMP JUMPDEST SWAP3 POP POP PUSH1 0x20 DUP4 ADD MLOAD PUSH8 0xFFFFFFFFFFFFFFFF DUP2 GT ISZERO PUSH2 0x22F JUMPI PUSH2 0x22E PUSH2 0x8F JUMP JUMPDEST JUMPDEST PUSH2 0x23B DUP6 DUP3 DUP7 ADD PUSH2 0x1A2 JUMP JUMPDEST SWAP2 POP POP SWAP3 POP SWAP3 SWAP1 POP JUMP JUMPDEST PUSH0 DUP2 MLOAD SWAP1 POP SWAP2 SWAP1 POP JUMP JUMPDEST PUSH32 0x4E487B7100000000000000000000000000000000000000000000000000000000 PUSH0 MSTORE PUSH1 0x22 PUSH1 0x4 MSTORE PUSH1 0x24 PUSH0 REVERT JUMPDEST PUSH0 PUSH1 0x2 DUP3 DIV SWAP1 POP PUSH1 0x1 DUP3 AND DUP1 PUSH2 0x293 JUMPI PUSH1 0x7F DUP3 AND SWAP2 POP JUMPDEST PUSH1 0x20 DUP3 LT DUP2 SUB PUSH2 0x2A6 JUMPI PUSH2 0x2A5 PUSH2 0x24F JUMP JUMPDEST JUMPDEST POP SWAP2 SWAP1 POP JUMP JUMPDEST PUSH0 DUP2 SWAP1 POP DUP2 PUSH0 MSTORE PUSH1 0x20 PUSH0 KECCAK256 SWAP1 POP SWAP2 SWAP1 POP JUMP JUMPDEST PUSH0 PUSH1 0x20 PUSH1 0x1F DUP4 ADD DIV SWAP1 POP SWAP2 SWAP1 POP JUMP JUMPDEST PUSH0 DUP3 DUP3 SHL SWAP1 POP SWAP3 SWAP2 POP POP JUMP JUMPDEST PUSH0 PUSH1 0x8 DUP4 MUL PUSH2 0x308 PUSH32 0xFFFFFFFFFFFFFFFFFFFFFFFFFFFFFFFFFFFFFFFFFFFFFFFFFFFFFFFFFFFFFFFF DUP3 PUSH2 0x2CD JUMP JUMPDEST PUSH2 0x312 DUP7 DUP4 PUSH2 0x2CD JUMP JUMPDEST SWAP6 POP DUP1 NOT DUP5 AND SWAP4 POP DUP1 DUP7 AND DUP5 OR SWAP3 POP POP POP SWAP4 SWAP3 POP POP POP JUMP JUMPDEST PUSH0 DUP2 SWAP1 POP SWAP2 SWAP1 POP JUMP JUMPDEST PUSH0 DUP2 SWAP1 POP SWAP2 SWAP1 POP JUMP JUMPDEST PUSH0 PUSH2 0x356 PUSH2 0x351 PUSH2 0x34C DUP5 PUSH2 0x32A JUMP JUMPDEST PUSH2 0x333 JUMP JUMPDEST PUSH2 0x32A JUMP JUMPDEST SWAP1 POP SWAP2 SWAP1 POP JUMP JUMPDEST PUSH0 DUP2 SWAP1 POP SWAP2 SWAP1 POP JUMP JUMPDEST PUSH2 0x36F DUP4 PUSH2 0x33C JUMP JUMPDEST PUSH2 0x383 PUSH2 0x37B DUP3 PUSH2 0x35D JUMP JUMPDEST DUP5 DUP5 SLOAD PUSH2 0x2D9 JUMP JUMPDEST DUP3 SSTORE POP POP POP POP JUMP JUMPDEST PUSH0 PUSH0 SWAP1 POP SWAP1 JUMP JUMPDEST PUSH2 0x39A PUSH2 0x38B JUMP JUMPDEST PUSH2 0x3A5 DUP2 DUP5 DUP5 PUSH2 0x366 JUMP JUMPDEST POP POP POP JUMP JUMPDEST JUMPDEST DUP2 DUP2 LT ISZERO PUSH2 0x3C8 JUMPI PUSH2 0x3BD PUSH0 DUP3 PUSH2 0x392 JUMP JUMPDEST PUSH1 0x1 DUP2 ADD SWAP1 POP PUSH2 0x3AB JUMP JUMPDEST POP POP JUMP JUMPDEST PUSH1 0x1F DUP3 GT ISZERO PUSH2 0x40D JUMPI PUSH2 0x3DE DUP2 PUSH2 0x2AC JUMP JUMPDEST PUSH2 0x3E7 DUP5 PUSH2 0x2BE JUMP JUMPDEST DUP2 ADD PUSH1 0x20 DUP6 LT ISZERO PUSH2 0x3F6 JUMPI DUP2 SWAP1 POP JUMPDEST PUSH2 0x40A PUSH2 0x402 DUP6 PUSH2 0x2BE JUMP JUMPDEST DUP4 ADD DUP3 PUSH2 0x3AA JUMP JUMPDEST POP POP JUMPDEST POP POP POP JUMP JUMPDEST PUSH0 DUP3 DUP3 SHR SWAP1 POP SWAP3 SWAP2 POP POP JUMP JUMPDEST PUSH0 PUSH2 0x42D PUSH0 NOT DUP5 PUSH1 0x8 MUL PUSH2 0x412 JUMP JUMPDEST NOT DUP1 DUP4 AND SWAP2 POP POP SWAP3 SWAP2 POP POP JUMP JUMPDEST PUSH0 PUSH2 0x445 DUP4 DUP4 PUSH2 0x41E JUMP JUMPDEST SWAP2 POP DUP3 PUSH1 0x2 MUL DUP3 OR SWAP1 POP SWAP3 SWAP2 POP POP JUMP JUMPDEST PUSH2 0x45E DUP3 PUSH2 0x245 JUMP JUMPDEST PUSH8 0xFFFFFFFFFFFFFFFF DUP2 GT ISZERO PUSH2 0x477 JUMPI PUSH2 0x476 PUSH2 0xAB JUMP JUMPDEST JUMPDEST PUSH2 0x481 DUP3 SLOAD PUSH2 0x27C JUMP JUMPDEST PUSH2 0x48C DUP3 DUP3 DUP6 PUSH2 0x3CC JUMP JUMPDEST PUSH0 PUSH1 0x20 SWAP1 POP PUSH1 0x1F DUP4 GT PUSH1 0x1 DUP2 EQ PUSH2 0x4BD JUMPI PUSH0 DUP5 ISZERO PUSH2 0x4AB JUMPI DUP3 DUP8 ADD MLOAD SWAP1 POP JUMPDEST PUSH2 0x4B5 DUP6 DUP3 PUSH2 0x43A JUMP JUMPDEST DUP7 SSTORE POP PUSH2 0x51C JUMP JUMPDEST PUSH1 0x1F NOT DUP5 AND PUSH2 0x4CB DUP7 PUSH2 0x2AC JUMP JUMPDEST PUSH0 JUMPDEST DUP3 DUP2 LT ISZERO PUSH2 0x4F2 JUMPI DUP5 DUP10 ADD MLOAD DUP3 SSTORE PUSH1 0x1 DUP3 ADD SWAP2 POP PUSH1 0x20 DUP6 ADD SWAP5 POP PUSH1 0x20 DUP2 ADD SWAP1 POP PUSH2 0x4CD JUMP JUMPDEST DUP7 DUP4 LT ISZERO PUSH2 0x50F JUMPI DUP5 DUP10 ADD MLOAD PUSH2 0x50B PUSH1 0x1F DUP10 AND DUP3 PUSH2 0x41E JUMP JUMPDEST DUP4 SSTORE POP JUMPDEST PUSH1 0x1 PUSH1 0x2 DUP9 MUL ADD DUP9 SSTORE POP POP POP JUMPDEST POP POP POP POP POP POP JUMP JUMPDEST PUSH2 0x2BDE DUP1 PUSH2 0x531 PUSH0 CODECOPY PUSH0 RETURN INVALID PUSH1 0x80 PUSH1 0x40 MSTORE CALLVALUE DUP1 ISZERO PUSH2 0xF JUMPI PUSH0 PUSH0 REVERT JUMPDEST POP PUSH1 0x4 CALLDATASIZE LT PUSH2 0x204 JUMPI PUSH0 CALLDATALOAD PUSH1 0xE0 SHR DUP1 PUSH4 0x69629025 GT PUSH2 0x118 JUMPI DUP1 PUSH4 0xA694FC3A GT PUSH2 0xAB JUMPI DUP1 PUSH4 0xD547741F GT PUSH2 0x7A JUMPI DUP1 PUSH4 0xD547741F EQ PUSH2 0x600 JUMPI DUP1 PUSH4 0xD5ABEB01 EQ PUSH2 0x61C JUMPI DUP1 PUSH4 0xDD62ED3E EQ PUSH2 0x63A JUMPI DUP1 PUSH4 0xE63AB1E9 EQ PUSH2 0x66A JUMPI DUP1 PUSH4 0xF40F0F52 EQ PUSH2 0x688 JUMPI PUSH2 0x204 JUMP JUMPDEST DUP1 PUSH4 0xA694FC3A EQ PUSH2 0x58C JUMPI DUP1 PUSH4 0xA9059CBB EQ PUSH2 0x5A8 JUMPI DUP1 PUSH4 0xB88A802F EQ PUSH2 0x5D8 JUMPI DUP1 PUSH4 0xD5391393 EQ PUSH2 0x5E2 JUMPI PUSH2 0x204 JUMP JUMPDEST DUP1 PUSH4 0x95D89B41 GT PUSH2 0xE7 JUMPI DUP1 PUSH4 0x95D89B41 EQ PUSH2 0x504 JUMPI DUP1 PUSH4 0x99F853A5 EQ PUSH2 0x522 JUMPI DUP1 PUSH4 0x9DC29FAC EQ PUSH2 0x552 JUMPI DUP1 PUSH4 0xA217FDDF EQ PUSH2 0x56E JUMPI PUSH2 0x204 JUMP JUMPDEST DUP1 PUSH4 0x69629025 EQ PUSH2 0x468 JUMPI DUP1 PUSH4 0x70A08231 EQ PUSH2 0x486 JUMPI DUP1 PUSH4 0x7FD6F15C EQ PUSH2 0x4B6 JUMPI DUP1 PUSH4 0x91D14854 EQ PUSH2 0x4D4 JUMPI PUSH2 0x204 JUMP JUMPDEST DUP1 PUSH4 0x23B872DD GT PUSH2 0x19B JUMPI DUP1 PUSH4 0x2F2FF15D GT PUSH2 0x16A JUMPI DUP1 PUSH4 0x2F2FF15D EQ PUSH2 0x3D8 JUMPI DUP1 PUSH4 0x313CE567 EQ PUSH2 0x3F4 JUMPI DUP1 PUSH4 0x36568ABE EQ PUSH2 0x412 JUMPI DUP1 PUSH4 0x40C10F19 EQ PUSH2 0x42E JUMPI DUP1 PUSH4 0x5C975ABB EQ PUSH2 0x44A JUMPI PUSH2 0x204 JUMP JUMPDEST DUP1 PUSH4 0x23B872DD EQ PUSH2 0x33E JUMPI DUP1 PUSH4 0x248A9CA3 EQ PUSH2 0x36E JUMPI DUP1 PUSH4 0x25D5971F EQ PUSH2 0x39E JUMPI DUP1 PUSH4 0x282C51F3 EQ PUSH2 0x3BA JUMPI PUSH2 0x204 JUMP JUMPDEST DUP1 PUSH4 0x95EA7B3 GT PUSH2 0x1D7 JUMPI DUP1 PUSH4 0x95EA7B3 EQ PUSH2 0x2A4 JUMPI DUP1 PUSH4 0x16934FC4 EQ PUSH2 0x2D4 JUMPI DUP1 PUSH4 0x18160DDD EQ PUSH2 0x304 JUMPI DUP1 PUSH4 0x22645085 EQ PUSH2 0x322 JUMPI PUSH2 0x204 JUMP JUMPDEST DUP1 PUSH4 0x1FFC9A7 EQ PUSH2 0x208 JUMPI DUP1 PUSH4 0x6FDDE03 EQ PUSH2 0x238 JUMPI DUP1 PUSH4 0x700037D EQ PUSH2 0x256 JUMPI DUP1 PUSH4 0x717D032 EQ PUSH2 0x286 JUMPI JUMPDEST PUSH0 PUSH0 REVERT JUMPDEST PUSH2 0x222 PUSH1 0x4 DUP1 CALLDATASIZE SUB DUP2 ADD SWAP1 PUSH2 0x21D SWAP2 SWAP1 PUSH2 0x2115 JUMP JUMPDEST PUSH2 0x6B8 JUMP JUMPDEST PUSH1 0x40 MLOAD PUSH2 0x22F SWAP2 SWAP1 PUSH2 0x215A JUMP JUMPDEST PUSH1 0x40 MLOAD DUP1 SWAP2 SUB SWAP1 RETURN JUMPDEST PUSH2 0x240 PUSH2 0x731 JUMP JUMPDEST PUSH1 0x40 MLOAD PUSH2 0x24D SWAP2 SWAP1 PUSH2 0x21E3 JUMP JUMPDEST PUSH1 0x40 MLOAD DUP1 SWAP2 SUB SWAP1 RETURN JUMPDEST PUSH2 0x270 PUSH1 0x4 DUP1 CALLDATASIZE SUB DUP2 ADD SWAP1 PUSH2 0x26B SWAP2 SWAP1 PUSH2 0x225D JUMP JUMPDEST PUSH2 0x7C1 JUMP JUMPDEST PUSH1 0x40 MLOAD PUSH2 0x27D SWAP2 SWAP1 PUSH2 0x22A0 JUMP JUMPDEST PUSH1 0x40 MLOAD DUP1 SWAP2 SUB SWAP1 RETURN JUMPDEST PUSH2 0x28E PUSH2 0x7D6 JUMP JUMPDEST PUSH1 0x40 MLOAD PUSH2 0x29B SWAP2 SWAP1 PUSH2 0x22A0 JUMP JUMPDEST PUSH1 0x40 MLOAD DUP1 SWAP2 SUB SWAP1 RETURN JUMPDEST PUSH2 0x2BE PUSH1 0x4 DUP1 CALLDATASIZE SUB DUP2 ADD SWAP1 PUSH2 0x2B9 SWAP2 SWAP1 PUSH2 0x22E3 JUMP JUMPDEST PUSH2 0x7DC JUMP JUMPDEST PUSH1 0x40 MLOAD PUSH2 0x2CB SWAP2 SWAP1 PUSH2 0x215A JUMP JUMPDEST PUSH1 0x40 MLOAD DUP1 SWAP2 SUB SWAP1 RETURN JUMPDEST PUSH2 0x2EE PUSH1 0x4 DUP1 CALLDATASIZE SUB DUP2 ADD SWAP1 PUSH2 0x2E9 SWAP2 SWAP1 PUSH2 0x225D JUMP JUMPDEST PUSH2 0x7FE JUMP JUMPDEST PUSH1 0x40 MLOAD PUSH2 0x2FB SWAP2 SWAP1 PUSH2 0x22A0 JUMP JUMPDEST PUSH1 0x40 MLOAD DUP1 SWAP2 SUB SWAP1 RETURN JUMPDEST PUSH2 0x30C PUSH2 0x813 JUMP JUMPDEST PUSH1 0x40 MLOAD PUSH2 0x319 SWAP2 SWAP1 PUSH2 0x22A0 JUMP JUMPDEST PUSH1 0x40 MLOAD DUP1 SWAP2 SUB SWAP1 RETURN JUMPDEST PUSH2 0x33C PUSH1 0x4 DUP1 CALLDATASIZE SUB DUP2 ADD SWAP1 PUSH2 0x337 SWAP2 SWAP1 PUSH2 0x2321 JUMP JUMPDEST PUSH2 0x81C JUMP JUMPDEST STOP JUMPDEST PUSH2 0x358 PUSH1 0x4 DUP1 CALLDATASIZE SUB DUP2 ADD SWAP1 PUSH2 0x353 SWAP2 SWAP1 PUSH2 0x234C JUMP JUMPDEST PUSH2 0x880 JUMP JUMPDEST PUSH1 0x40 MLOAD PUSH2 0x365 SWAP2 SWAP1 PUSH2 0x215A JUMP JUMPDEST PUSH1 0x40 MLOAD DUP1 SWAP2 SUB SWAP1 RETURN JUMPDEST PUSH2 0x388 PUSH1 0x4 DUP1 CALLDATASIZE SUB DUP2 ADD SWAP1 PUSH2 0x383 SWAP2 SWAP1 PUSH2 0x23CF JUMP JUMPDEST PUSH2 0x93A JUMP JUMPDEST PUSH1 0x40 MLOAD PUSH2 0x395 SWAP2 SWAP1 PUSH2 0x2409 JUMP JUMPDEST PUSH1 0x40 MLOAD DUP1 SWAP2 SUB SWAP1 RETURN JUMPDEST PUSH2 0x3B8 PUSH1 0x4 DUP1 CALLDATASIZE SUB DUP2 ADD SWAP1 PUSH2 0x3B3 SWAP2 SWAP1 PUSH2 0x2321 JUMP JUMPDEST PUSH2 0x957 JUMP JUMPDEST STOP JUMPDEST PUSH2 0x3C2 PUSH2 0xAA8 JUMP JUMPDEST PUSH1 0x40 MLOAD PUSH2 0x3CF SWAP2 SWAP1 PUSH2 0x2409 JUMP JUMPDEST PUSH1 0x40 MLOAD DUP1 SWAP2 SUB SWAP1 RETURN JUMPDEST PUSH2 0x3F2 PUSH1 0x4 DUP1 CALLDATASIZE SUB DUP2 ADD SWAP1 PUSH2 0x3ED SWAP2 SWAP1 PUSH2 0x2422 JUMP JUMPDEST PUSH2 0xACC JUMP JUMPDEST STOP JUMPDEST PUSH2 0x3FC PUSH2 0xAEE JUMP JUMPDEST PUSH1 0x40 MLOAD PUSH2 0x409 SWAP2 SWAP1 PUSH2 0x247B JUMP JUMPDEST PUSH1 0x40 MLOAD DUP1 SWAP2 SUB SWAP1 RETURN JUMPDEST PUSH2 0x42C PUSH1 0x4 DUP1 CALLDATASIZE SUB DUP2 ADD SWAP1 PUSH2 0x427 SWAP2 SWAP1 PUSH2 0x2422 JUMP JUMPDEST PUSH2 0xAF6 JUMP JUMPDEST STOP JUMPDEST PUSH2 0x448 PUSH1 0x4 DUP1 CALLDATASIZE SUB DUP2 ADD SWAP1 PUSH2 0x443 SWAP2 SWAP1 PUSH2 0x22E3 JUMP JUMPDEST PUSH2 0xB71 JUMP JUMPDEST STOP JUMPDEST PUSH2 0x452 PUSH2 0xC49 JUMP JUMPDEST PUSH1 0x40 MLOAD PUSH2 0x45F SWAP2 SWAP1 PUSH2 0x215A JUMP JUMPDEST PUSH1 0x40 MLOAD DUP1 SWAP2 SUB SWAP1 RETURN JUMPDEST PUSH2 0x470 PUSH2 0xC5E JUMP JUMPDEST PUSH1 0x40 MLOAD PUSH2 0x47D SWAP2 SWAP1 PUSH2 0x22A0 JUMP JUMPDEST PUSH1 0x40 MLOAD DUP1 SWAP2 SUB SWAP1 RETURN JUMPDEST PUSH2 0x4A0 PUSH1 0x4 DUP1 CALLDATASIZE SUB DUP2 ADD SWAP1 PUSH2 0x49B SWAP2 SWAP1 PUSH2 0x225D JUMP JUMPDEST PUSH2 0xC64 JUMP JUMPDEST PUSH1 0x40 MLOAD PUSH2 0x4AD SWAP2 SWAP1 PUSH2 0x22A0 JUMP JUMPDEST PUSH1 0x40 MLOAD DUP1 SWAP2 SUB SWAP1 RETURN JUMPDEST PUSH2 0x4BE PUSH2 0xCA9 JUMP JUMPDEST PUSH1 0x40 MLOAD PUSH2 0x4CB SWAP2 SWAP1 PUSH2 0x22A0 JUMP JUMPDEST PUSH1 0x40 MLOAD DUP1 SWAP2 SUB SWAP1 RETURN JUMPDEST PUSH2 0x4EE PUSH1 0x4 DUP1 CALLDATASIZE SUB DUP2 ADD SWAP1 PUSH2 0x4E9 SWAP2 SWAP1 PUSH2 0x2422 JUMP JUMPDEST PUSH2 0xCAF JUMP JUMPDEST PUSH1 0x40 MLOAD PUSH2 0x4FB SWAP2 SWAP1 PUSH2 0x215A JUMP JUMPDEST PUSH1 0x40 MLOAD DUP1 SWAP2 SUB SWAP1 RETURN JUMPDEST PUSH2 0x50C PUSH2 0xD13 JUMP JUMPDEST PUSH1 0x40 MLOAD PUSH2 0x519 SWAP2 SWAP1 PUSH2 0x21E3 JUMP JUMPDEST PUSH1 0x40 MLOAD DUP1 SWAP2 SUB SWAP1 RETURN JUMPDEST PUSH2 0x53C PUSH1 0x4 DUP1 CALLDATASIZE SUB DUP2 ADD SWAP1 PUSH2 0x537 SWAP2 SWAP1 PUSH2 0x225D JUMP JUMPDEST PUSH2 0xDA3 JUMP JUMPDEST PUSH1 0x40 MLOAD PUSH2 0x549 SWAP2 SWAP1 PUSH2 0x22A0 JUMP JUMPDEST PUSH1 0x40 MLOAD DUP1 SWAP2 SUB SWAP1 RETURN JUMPDEST PUSH2 0x56C PUSH1 0x4 DUP1 CALLDATASIZE SUB DUP2 ADD SWAP1 PUSH2 0x567 SWAP2 SWAP1 PUSH2 0x22E3 JUMP JUMPDEST PUSH2 0xDB8 JUMP JUMPDEST STOP JUMPDEST PUSH2 0x576 PUSH2 0xE86 JUMP JUMPDEST PUSH1 0x40 MLOAD PUSH2 0x583 SWAP2 SWAP1 PUSH2 0x2409 JUMP JUMPDEST PUSH1 0x40 MLOAD DUP1 SWAP2 SUB SWAP1 RETURN JUMPDEST PUSH2 0x5A6 PUSH1 0x4 DUP1 CALLDATASIZE SUB DUP2 ADD SWAP1 PUSH2 0x5A1 SWAP2 SWAP1 PUSH2 0x2321 JUMP JUMPDEST PUSH2 0xE8C JUMP JUMPDEST STOP JUMPDEST PUSH2 0x5C2 PUSH1 0x4 DUP1 CALLDATASIZE SUB DUP2 ADD SWAP1 PUSH2 0x5BD SWAP2 SWAP1 PUSH2 0x22E3 JUMP JUMPDEST PUSH2 0x10C1 JUMP JUMPDEST PUSH1 0x40 MLOAD PUSH2 0x5CF SWAP2 SWAP1 PUSH2 0x215A JUMP JUMPDEST PUSH1 0x40 MLOAD DUP1 SWAP2 SUB SWAP1 RETURN JUMPDEST PUSH2 0x5E0 PUSH2 0x10DF JUMP JUMPDEST STOP JUMPDEST PUSH2 0x5EA PUSH2 0x1222 JUMP JUMPDEST PUSH1 0x40 MLOAD PUSH2 0x5F7 SWAP2 SWAP1 PUSH2 0x2409 JUMP JUMPDEST PUSH1 0x40 MLOAD DUP1 SWAP2 SUB SWAP1 RETURN JUMPDEST PUSH2 0x61A PUSH1 0x4 DUP1 CALLDATASIZE SUB DUP2 ADD SWAP1 PUSH2 0x615 SWAP2 SWAP1 PUSH2 0x2422 JUMP JUMPDEST PUSH2 0x1246 JUMP JUMPDEST STOP JUMPDEST PUSH2 0x624 PUSH2 0x1268 JUMP JUMPDEST PUSH1 0x40 MLOAD PUSH2 0x631 SWAP2 SWAP1 PUSH2 0x22A0 JUMP JUMPDEST PUSH1 0x40 MLOAD DUP1 SWAP2 SUB SWAP1 RETURN JUMPDEST PUSH2 0x654 PUSH1 0x4 DUP1 CALLDATASIZE SUB DUP2 ADD SWAP1 PUSH2 0x64F SWAP2 SWAP1 PUSH2 0x2494 JUMP JUMPDEST PUSH2 0x126E JUMP JUMPDEST PUSH1 0x40 MLOAD PUSH2 0x661 SWAP2 SWAP1 PUSH2 0x22A0 JUMP JUMPDEST PUSH1 0x40 MLOAD DUP1 SWAP2 SUB SWAP1 RETURN JUMPDEST PUSH2 0x672 PUSH2 0x12F0 JUMP JUMPDEST PUSH1 0x40 MLOAD PUSH2 0x67F SWAP2 SWAP1 PUSH2 0x2409 JUMP JUMPDEST PUSH1 0x40 MLOAD DUP1 SWAP2 SUB SWAP1 RETURN JUMPDEST PUSH2 0x6A2 PUSH1 0x4 DUP1 CALLDATASIZE SUB DUP2 ADD SWAP1 PUSH2 0x69D SWAP2 SWAP1 PUSH2 0x225D JUMP JUMPDEST PUSH2 0x1314 JUMP JUMPDEST PUSH1 0x40 MLOAD PUSH2 0x6AF SWAP2 SWAP1 PUSH2 0x22A0 JUMP JUMPDEST PUSH1 0x40 MLOAD DUP1 SWAP2 SUB SWAP1 RETURN JUMPDEST PUSH0 PUSH32 0x7965DB0B00000000000000000000000000000000000000000000000000000000 PUSH28 0xFFFFFFFFFFFFFFFFFFFFFFFFFFFFFFFFFFFFFFFFFFFFFFFFFFFFFFFF NOT AND DUP3 PUSH28 0xFFFFFFFFFFFFFFFFFFFFFFFFFFFFFFFFFFFFFFFFFFFFFFFFFFFFFFFF NOT AND EQ DUP1 PUSH2 0x72A JUMPI POP PUSH2 0x729 DUP3 PUSH2 0x14B1 JUMP JUMPDEST JUMPDEST SWAP1 POP SWAP2 SWAP1 POP JUMP JUMPDEST PUSH1 0x60 PUSH1 0x3 DUP1 SLOAD PUSH2 0x740 SWAP1 PUSH2 0x24FF JUMP JUMPDEST DUP1 PUSH1 0x1F ADD PUSH1 0x20 DUP1 SWAP2 DIV MUL PUSH1 0x20 ADD PUSH1 0x40 MLOAD SWAP1 DUP2 ADD PUSH1 0x40 MSTORE DUP1 SWAP3 SWAP2 SWAP1 DUP2 DUP2 MSTORE PUSH1 0x20 ADD DUP3 DUP1 SLOAD PUSH2 0x76C SWAP1 PUSH2 0x24FF JUMP JUMPDEST DUP1 ISZERO PUSH2 0x7B7 JUMPI DUP1 PUSH1 0x1F LT PUSH2 0x78E JUMPI PUSH2 0x100 DUP1 DUP4 SLOAD DIV MUL DUP4 MSTORE SWAP2 PUSH1 0x20 ADD SWAP2 PUSH2 0x7B7 JUMP JUMPDEST DUP3 ADD SWAP2 SWAP1 PUSH0 MSTORE PUSH1 0x20 PUSH0 KECCAK256 SWAP1 JUMPDEST DUP2 SLOAD DUP2 MSTORE SWAP1 PUSH1 0x1 ADD SWAP1 PUSH1 0x20 ADD DUP1 DUP4 GT PUSH2 0x79A JUMPI DUP3 SWAP1 SUB PUSH1 0x1F AND DUP3 ADD SWAP2 JUMPDEST POP POP POP POP POP SWAP1 POP SWAP1 JUMP JUMPDEST PUSH1 0xD PUSH1 0x20 MSTORE DUP1 PUSH0 MSTORE PUSH1 0x40 PUSH0 KECCAK256 PUSH0 SWAP2 POP SWAP1 POP SLOAD DUP2 JUMP JUMPDEST PUSH1 0xC SLOAD DUP2 JUMP JUMPDEST PUSH0 PUSH0 PUSH2 0x7E6 PUSH2 0x151A JUMP JUMPDEST SWAP1 POP PUSH2 0x7F3 DUP2 DUP6 DUP6 PUSH2 0x1521 JUMP JUMPDEST PUSH1 0x1 SWAP2 POP POP SWAP3 SWAP2 POP POP JUMP JUMPDEST PUSH1 0x9 PUSH1 0x20 MSTORE DUP1 PUSH0 MSTORE PUSH1 0x40 PUSH0 KECCAK256 PUSH0 SWAP2 POP SWAP1 POP SLOAD DUP2 JUMP JUMPDEST PUSH0 PUSH1 0x2 SLOAD SWAP1 POP SWAP1 JUMP JUMPDEST PUSH2 0x824 PUSH2 0x1533 JUMP JUMPDEST CALLER DUP2 DUP1 PUSH2 0x830 DUP4 PUSH2 0xC64 JUMP JUMPDEST LT ISZERO PUSH2 0x871 JUMPI PUSH1 0x40 MLOAD PUSH32 0x8C379A000000000000000000000000000000000000000000000000000000000 DUP2 MSTORE PUSH1 0x4 ADD PUSH2 0x868 SWAP1 PUSH2 0x2579 JUMP JUMPDEST PUSH1 0x40 MLOAD DUP1 SWAP2 SUB SWAP1 REVERT JUMPDEST PUSH2 0x87B CALLER DUP5 PUSH2 0x1574 JUMP JUMPDEST POP POP POP JUMP JUMPDEST PUSH0 PUSH2 0x889 PUSH2 0x1533 JUMP JUMPDEST ADDRESS PUSH20 0xFFFFFFFFFFFFFFFFFFFFFFFFFFFFFFFFFFFFFFFF AND CALLER PUSH20 0xFFFFFFFFFFFFFFFFFFFFFFFFFFFFFFFFFFFFFFFF AND EQ PUSH2 0x924 JUMPI PUSH0 PUSH2 0x8C7 DUP6 CALLER PUSH2 0x126E JUMP JUMPDEST SWAP1 POP DUP3 DUP2 LT ISZERO PUSH2 0x90C JUMPI PUSH1 0x40 MLOAD PUSH32 0x8C379A000000000000000000000000000000000000000000000000000000000 DUP2 MSTORE PUSH1 0x4 ADD PUSH2 0x903 SWAP1 PUSH2 0x2607 JUMP JUMPDEST PUSH1 0x40 MLOAD DUP1 SWAP2 SUB SWAP1 REVERT JUMPDEST PUSH2 0x922 DUP6 CALLER DUP6 DUP5 PUSH2 0x91D SWAP2 SWAP1 PUSH2 0x2652 JUMP JUMPDEST PUSH2 0x1521 JUMP JUMPDEST POP JUMPDEST PUSH2 0x92F DUP5 DUP5 DUP5 PUSH2 0x15F3 JUMP JUMPDEST PUSH1 0x1 SWAP1 POP SWAP4 SWAP3 POP POP POP JUMP JUMPDEST PUSH0 PUSH1 0x6 PUSH0 DUP4 DUP2 MSTORE PUSH1 0x20 ADD SWAP1 DUP2 MSTORE PUSH1 0x20 ADD PUSH0 KECCAK256 PUSH1 0x1 ADD SLOAD SWAP1 POP SWAP2 SWAP1 POP JUMP JUMPDEST DUP1 PUSH1 0x9 PUSH0 CALLER PUSH20 0xFFFFFFFFFFFFFFFFFFFFFFFFFFFFFFFFFFFFFFFF AND PUSH20 0xFFFFFFFFFFFFFFFFFFFFFFFFFFFFFFFFFFFFFFFF AND DUP2 MSTORE PUSH1 0x20 ADD SWAP1 DUP2 MSTORE PUSH1 0x20 ADD PUSH0 KECCAK256 SLOAD LT ISZERO PUSH2 0x9D7 JUMPI PUSH1 0x40 MLOAD PUSH32 0x8C379A000000000000000000000000000000000000000000000000000000000 DUP2 MSTORE PUSH1 0x4 ADD PUSH2 0x9CE SWAP1 PUSH2 0x26CF JUMP JUMPDEST PUSH1 0x40 MLOAD DUP1 SWAP2 SUB SWAP1 REVERT JUMPDEST DUP1 PUSH2 0x9E1 ADDRESS PUSH2 0xC64 JUMP JUMPDEST LT ISZERO PUSH2 0x9F0 JUMPI PUSH2 0x9EF PUSH2 0x1777 JUMP JUMPDEST JUMPDEST PUSH2 0x9F9 CALLER PUSH2 0x1866 JUMP JUMPDEST DUP1 PUSH1 0x9 PUSH0 CALLER PUSH20 0xFFFFFFFFFFFFFFFFFFFFFFFFFFFFFFFFFFFFFFFF AND PUSH20 0xFFFFFFFFFFFFFFFFFFFFFFFFFFFFFFFFFFFFFFFF AND DUP2 MSTORE PUSH1 0x20 ADD SWAP1 DUP2 MSTORE PUSH1 0x20 ADD PUSH0 KECCAK256 PUSH0 DUP3 DUP3 SLOAD PUSH2 0xA45 SWAP2 SWAP1 PUSH2 0x2652 JUMP JUMPDEST SWAP3 POP POP DUP2 SWAP1 SSTORE POP PUSH2 0xA57 ADDRESS CALLER DUP4 PUSH2 0x1914 JUMP JUMPDEST CALLER PUSH20 0xFFFFFFFFFFFFFFFFFFFFFFFFFFFFFFFFFFFFFFFF AND PUSH32 0x7084F5476618D8E60B11EF0D7D3F06914655ADB8793E28FF7F018D4C76D505D5 DUP3 PUSH1 0x40 MLOAD PUSH2 0xA9D SWAP2 SWAP1 PUSH2 0x22A0 JUMP JUMPDEST PUSH1 0x40 MLOAD DUP1 SWAP2 SUB SWAP1 LOG2 POP JUMP JUMPDEST PUSH32 0x3C11D16CBAFFD01DF69CE1C404F6340EE057498F5F00246190EA54220576A848 DUP2 JUMP JUMPDEST PUSH2 0xAD5 DUP3 PUSH2 0x93A JUMP JUMPDEST PUSH2 0xADE DUP2 PUSH2 0x1A04 JUMP JUMPDEST PUSH2 0xAE8 DUP4 DUP4 PUSH2 0x1A18 JUMP JUMPDEST POP POP POP POP JUMP JUMPDEST PUSH0 PUSH1 0x12 SWAP1 POP SWAP1 JUMP JUMPDEST PUSH2 0xAFE PUSH2 0x151A JUMP JUMPDEST PUSH20 0xFFFFFFFFFFFFFFFFFFFFFFFFFFFFFFFFFFFFFFFF AND DUP2 PUSH20 0xFFFFFFFFFFFFFFFFFFFFFFFFFFFFFFFFFFFFFFFF AND EQ PUSH2 0xB62 JUMPI PUSH1 0x40 MLOAD PUSH32 0x6697B23200000000000000000000000000000000000000000000000000000000 DUP2 MSTORE PUSH1 0x4 ADD PUSH1 0x40 MLOAD DUP1 SWAP2 SUB SWAP1 REVERT JUMPDEST PUSH2 0xB6C DUP3 DUP3 PUSH2 0x1B02 JUMP JUMPDEST POP POP POP JUMP JUMPDEST PUSH2 0xB9B PUSH32 0x9F2DF0FED2C77648DE5860A4CC508CD0818C85B8B8A1AB4CEEEF8D981C8956A6 CALLER PUSH2 0xCAF JUMP JUMPDEST PUSH2 0xBDA JUMPI PUSH1 0x40 MLOAD PUSH32 0x8C379A000000000000000000000000000000000000000000000000000000000 DUP2 MSTORE PUSH1 0x4 ADD PUSH2 0xBD1 SWAP1 PUSH2 0x2737 JUMP JUMPDEST PUSH1 0x40 MLOAD DUP1 SWAP2 SUB SWAP1 REVERT JUMPDEST DUP1 PUSH1 0x8 SLOAD DUP2 PUSH2 0xBE7 PUSH2 0x813 JUMP JUMPDEST PUSH2 0xBF1 SWAP2 SWAP1 PUSH2 0x2755 JUMP JUMPDEST GT ISZERO PUSH2 0xC32 JUMPI PUSH1 0x40 MLOAD PUSH32 0x8C379A000000000000000000000000000000000000000000000000000000000 DUP2 MSTORE PUSH1 0x4 ADD PUSH2 0xC29 SWAP1 PUSH2 0x27D2 JUMP JUMPDEST PUSH1 0x40 MLOAD DUP1 SWAP2 SUB SWAP1 REVERT JUMPDEST PUSH2 0xC3A PUSH2 0x1533 JUMP JUMPDEST PUSH2 0xC44 DUP4 DUP4 PUSH2 0x1BEC JUMP JUMPDEST POP POP POP JUMP JUMPDEST PUSH0 PUSH1 0x5 PUSH0 SWAP1 SLOAD SWAP1 PUSH2 0x100 EXP SWAP1 DIV PUSH1 0xFF AND SWAP1 POP SWAP1 JUMP JUMPDEST PUSH1 0xB SLOAD DUP2 JUMP JUMPDEST PUSH0 PUSH0 PUSH0 DUP4 PUSH20 0xFFFFFFFFFFFFFFFFFFFFFFFFFFFFFFFFFFFFFFFF AND PUSH20 0xFFFFFFFFFFFFFFFFFFFFFFFFFFFFFFFFFFFFFFFF AND DUP2 MSTORE PUSH1 0x20 ADD SWAP1 DUP2 MSTORE PUSH1 0x20 ADD PUSH0 KECCAK256 SLOAD SWAP1 POP SWAP2 SWAP1 POP JUMP JUMPDEST PUSH1 0x7 SLOAD DUP2 JUMP JUMPDEST PUSH0 PUSH1 0x6 PUSH0 DUP5 DUP2 MSTORE PUSH1 0x20 ADD SWAP1 DUP2 MSTORE PUSH1 0x20 ADD PUSH0 KECCAK256 PUSH0 ADD PUSH0 DUP4 PUSH20 0xFFFFFFFFFFFFFFFFFFFFFFFFFFFFFFFFFFFFFFFF AND PUSH20 0xFFFFFFFFFFFFFFFFFFFFFFFFFFFFFFFFFFFFFFFF AND DUP2 MSTORE PUSH1 0x20 ADD SWAP1 DUP2 MSTORE PUSH1 0x20 ADD PUSH0 KECCAK256 PUSH0 SWAP1 SLOAD SWAP1 PUSH2 0x100 EXP SWAP1 DIV PUSH1 0xFF AND SWAP1 POP SWAP3 SWAP2 POP POP JUMP JUMPDEST PUSH1 0x60 PUSH1 0x4 DUP1 SLOAD PUSH2 0xD22 SWAP1 PUSH2 0x24FF JUMP JUMPDEST DUP1 PUSH1 0x1F ADD PUSH1 0x20 DUP1 SWAP2 DIV MUL PUSH1 0x20 ADD PUSH1 0x40 MLOAD SWAP1 DUP2 ADD PUSH1 0x40 MSTORE DUP1 SWAP3 SWAP2 SWAP1 DUP2 DUP2 MSTORE PUSH1 0x20 ADD DUP3 DUP1 SLOAD PUSH2 0xD4E SWAP1 PUSH2 0x24FF JUMP JUMPDEST DUP1 ISZERO PUSH2 0xD99 JUMPI DUP1 PUSH1 0x1F LT PUSH2 0xD70 JUMPI PUSH2 0x100 DUP1 DUP4 SLOAD DIV MUL DUP4 MSTORE SWAP2 PUSH1 0x20 ADD SWAP2 PUSH2 0xD99 JUMP JUMPDEST DUP3 ADD SWAP2 SWAP1 PUSH0 MSTORE PUSH1 0x20 PUSH0 KECCAK256 SWAP1 JUMPDEST DUP2 SLOAD DUP2 MSTORE SWAP1 PUSH1 0x1 ADD SWAP1 PUSH1 0x20 ADD DUP1 DUP4 GT PUSH2 0xD7C JUMPI DUP3 SWAP1 SUB PUSH1 0x1F AND DUP3 ADD SWAP2 JUMPDEST POP POP POP POP POP SWAP1 POP SWAP1 JUMP JUMPDEST PUSH1 0xA PUSH1 0x20 MSTORE DUP1 PUSH0 MSTORE PUSH1 0x40 PUSH0 KECCAK256 PUSH0 SWAP2 POP SWAP1 POP SLOAD DUP2 JUMP JUMPDEST PUSH2 0xDC0 PUSH2 0x1533 JUMP JUMPDEST PUSH2 0xDEA PUSH32 0x3C11D16CBAFFD01DF69CE1C404F6340EE057498F5F00246190EA54220576A848 CALLER PUSH2 0xCAF JUMP JUMPDEST PUSH2 0xE29 JUMPI PUSH1 0x40 MLOAD PUSH32 0x8C379A000000000000000000000000000000000000000000000000000000000 DUP2 MSTORE PUSH1 0x4 ADD PUSH2 0xE20 SWAP1 PUSH2 0x283A JUMP JUMPDEST PUSH1 0x40 MLOAD DUP1 SWAP2 SUB SWAP1 REVERT JUMPDEST DUP2 DUP2 DUP1 PUSH2 0xE35 DUP4 PUSH2 0xC64 JUMP JUMPDEST LT ISZERO PUSH2 0xE76 JUMPI PUSH1 0x40 MLOAD PUSH32 0x8C379A000000000000000000000000000000000000000000000000000000000 DUP2 MSTORE PUSH1 0x4 ADD PUSH2 0xE6D SWAP1 PUSH2 0x2579 JUMP JUMPDEST PUSH1 0x40 MLOAD DUP1 SWAP2 SUB SWAP1 REVERT JUMPDEST PUSH2 0xE80 DUP5 DUP5 PUSH2 0x1574 JUMP JUMPDEST POP POP POP POP JUMP JUMPDEST PUSH0 PUSH0 SHL DUP2 JUMP JUMPDEST DUP1 PUSH2 0xE96 CALLER PUSH2 0xC64 JUMP JUMPDEST LT ISZERO PUSH2 0xED7 JUMPI PUSH1 0x40 MLOAD PUSH32 0x8C379A000000000000000000000000000000000000000000000000000000000 DUP2 MSTORE PUSH1 0x4 ADD PUSH2 0xECE SWAP1 PUSH2 0x28A2 JUMP JUMPDEST PUSH1 0x40 MLOAD DUP1 SWAP2 SUB SWAP1 REVERT JUMPDEST PUSH1 0xC SLOAD DUP2 PUSH1 0x9 PUSH0 CALLER PUSH20 0xFFFFFFFFFFFFFFFFFFFFFFFFFFFFFFFFFFFFFFFF AND PUSH20 0xFFFFFFFFFFFFFFFFFFFFFFFFFFFFFFFFFFFFFFFF AND DUP2 MSTORE PUSH1 0x20 ADD SWAP1 DUP2 MSTORE PUSH1 0x20 ADD PUSH0 KECCAK256 SLOAD PUSH2 0xF23 SWAP2 SWAP1 PUSH2 0x2755 JUMP JUMPDEST GT ISZERO PUSH2 0xF64 JUMPI PUSH1 0x40 MLOAD PUSH32 0x8C379A000000000000000000000000000000000000000000000000000000000 DUP2 MSTORE PUSH1 0x4 ADD PUSH2 0xF5B SWAP1 PUSH2 0x290A JUMP JUMPDEST PUSH1 0x40 MLOAD DUP1 SWAP2 SUB SWAP1 REVERT JUMPDEST DUP1 PUSH2 0xF6E ADDRESS PUSH2 0xC64 JUMP JUMPDEST LT ISZERO PUSH2 0xF7D JUMPI PUSH2 0xF7C PUSH2 0x1777 JUMP JUMPDEST JUMPDEST PUSH0 PUSH1 0xA PUSH0 CALLER PUSH20 0xFFFFFFFFFFFFFFFFFFFFFFFFFFFFFFFFFFFFFFFF AND PUSH20 0xFFFFFFFFFFFFFFFFFFFFFFFFFFFFFFFFFFFFFFFF AND DUP2 MSTORE PUSH1 0x20 ADD SWAP1 DUP2 MSTORE PUSH1 0x20 ADD PUSH0 KECCAK256 SLOAD SUB PUSH2 0x1008 JUMPI TIMESTAMP PUSH1 0xA PUSH0 CALLER PUSH20 0xFFFFFFFFFFFFFFFFFFFFFFFFFFFFFFFFFFFFFFFF AND PUSH20 0xFFFFFFFFFFFFFFFFFFFFFFFFFFFFFFFFFFFFFFFF AND DUP2 MSTORE PUSH1 0x20 ADD SWAP1 DUP2 MSTORE PUSH1 0x20 ADD PUSH0 KECCAK256 DUP2 SWAP1 SSTORE POP PUSH2 0x1012 JUMP JUMPDEST PUSH2 0x1011 CALLER PUSH2 0x1866 JUMP JUMPDEST JUMPDEST PUSH2 0x101D CALLER ADDRESS DUP4 PUSH2 0x1914 JUMP JUMPDEST DUP1 PUSH1 0x9 PUSH0 CALLER PUSH20 0xFFFFFFFFFFFFFFFFFFFFFFFFFFFFFFFFFFFFFFFF AND PUSH20 0xFFFFFFFFFFFFFFFFFFFFFFFFFFFFFFFFFFFFFFFF AND DUP2 MSTORE PUSH1 0x20 ADD SWAP1 DUP2 MSTORE PUSH1 0x20 ADD PUSH0 KECCAK256 PUSH0 DUP3 DUP3 SLOAD PUSH2 0x1069 SWAP2 SWAP1 PUSH2 0x2755 JUMP JUMPDEST SWAP3 POP POP DUP2 SWAP1 SSTORE POP CALLER PUSH20 0xFFFFFFFFFFFFFFFFFFFFFFFFFFFFFFFFFFFFFFFF AND PUSH32 0x9E71BC8EEA02A63969F509818F2DAFB9254532904319F9DBDA79B67BD34A5F3D DUP3 PUSH1 0x40 MLOAD PUSH2 0x10B6 SWAP2 SWAP1 PUSH2 0x22A0 JUMP JUMPDEST PUSH1 0x40 MLOAD DUP1 SWAP2 SUB SWAP1 LOG2 POP JUMP JUMPDEST PUSH0 PUSH2 0x10CA PUSH2 0x1533 JUMP JUMPDEST PUSH2 0x10D5 CALLER DUP5 DUP5 PUSH2 0x15F3 JUMP JUMPDEST PUSH1 0x1 SWAP1 POP SWAP3 SWAP2 POP POP JUMP JUMPDEST PUSH2 0x10E8 CALLER PUSH2 0x1866 JUMP JUMPDEST PUSH0 PUSH1 0xD PUSH0 CALLER PUSH20 0xFFFFFFFFFFFFFFFFFFFFFFFFFFFFFFFFFFFFFFFF AND PUSH20 0xFFFFFFFFFFFFFFFFFFFFFFFFFFFFFFFFFFFFFFFF AND DUP2 MSTORE PUSH1 0x20 ADD SWAP1 DUP2 MSTORE PUSH1 0x20 ADD PUSH0 KECCAK256 SLOAD SWAP1 POP DUP1 PUSH2 0x1133 ADDRESS PUSH2 0xC64 JUMP JUMPDEST LT ISZERO PUSH2 0x1142 JUMPI PUSH2 0x1141 PUSH2 0x1777 JUMP JUMPDEST JUMPDEST PUSH0 DUP2 GT PUSH2 0x1184 JUMPI PUSH1 0x40 MLOAD PUSH32 0x8C379A000000000000000000000000000000000000000000000000000000000 DUP2 MSTORE PUSH1 0x4 ADD PUSH2 0x117B SWAP1 PUSH2 0x2972 JUMP JUMPDEST PUSH1 0x40 MLOAD DUP1 SWAP2 SUB SWAP1 REVERT JUMPDEST PUSH0 PUSH1 0xD PUSH0 CALLER PUSH20 0xFFFFFFFFFFFFFFFFFFFFFFFFFFFFFFFFFFFFFFFF AND PUSH20 0xFFFFFFFFFFFFFFFFFFFFFFFFFFFFFFFFFFFFFFFF AND DUP2 MSTORE PUSH1 0x20 ADD SWAP1 DUP2 MSTORE PUSH1 0x20 ADD PUSH0 KECCAK256 DUP2 SWAP1 SSTORE POP PUSH2 0x11D1 ADDRESS CALLER DUP4 PUSH2 0x1914 JUMP JUMPDEST CALLER PUSH20 0xFFFFFFFFFFFFFFFFFFFFFFFFFFFFFFFFFFFFFFFF AND PUSH32 0x106F923F993C2149D49B4255FF723ACAFA1F2D94393F561D3EDA32AE348F7241 DUP3 PUSH1 0x40 MLOAD PUSH2 0x1217 SWAP2 SWAP1 PUSH2 0x22A0 JUMP JUMPDEST PUSH1 0x40 MLOAD DUP1 SWAP2 SUB SWAP1 LOG2 POP JUMP JUMPDEST PUSH32 0x9F2DF0FED2C77648DE5860A4CC508CD0818C85B8B8A1AB4CEEEF8D981C8956A6 DUP2 JUMP JUMPDEST PUSH2 0x124F DUP3 PUSH2 0x93A JUMP JUMPDEST PUSH2 0x1258 DUP2 PUSH2 0x1A04 JUMP JUMPDEST PUSH2 0x1262 DUP4 DUP4 PUSH2 0x1B02 JUMP JUMPDEST POP POP POP POP JUMP JUMPDEST PUSH1 0x8 SLOAD DUP2 JUMP JUMPDEST PUSH0 PUSH1 0x1 PUSH0 DUP5 PUSH20 0xFFFFFFFFFFFFFFFFFFFFFFFFFFFFFFFFFFFFFFFF AND PUSH20 0xFFFFFFFFFFFFFFFFFFFFFFFFFFFFFFFFFFFFFFFF AND DUP2 MSTORE PUSH1 0x20 ADD SWAP1 DUP2 MSTORE PUSH1 0x20 ADD PUSH0 KECCAK256 PUSH0 DUP4 PUSH20 0xFFFFFFFFFFFFFFFFFFFFFFFFFFFFFFFFFFFFFFFF AND PUSH20 0xFFFFFFFFFFFFFFFFFFFFFFFFFFFFFFFFFFFFFFFF AND DUP2 MSTORE PUSH1 0x20 ADD SWAP1 DUP2 MSTORE PUSH1 0x20 ADD PUSH0 KECCAK256 SLOAD SWAP1 POP SWAP3 SWAP2 POP POP JUMP JUMPDEST PUSH32 0x65D7A28E3265B37A6474929F336521B332C1681B933F6CB9F3376673440D862A DUP2 JUMP JUMPDEST PUSH0 PUSH0 PUSH1 0x9 PUSH0 DUP5 PUSH20 0xFFFFFFFFFFFFFFFFFFFFFFFFFFFFFFFFFFFFFFFF AND PUSH20 0xFFFFFFFFFFFFFFFFFFFFFFFFFFFFFFFFFFFFFFFF AND DUP2 MSTORE PUSH1 0x20 ADD SWAP1 DUP2 MSTORE PUSH1 0x20 ADD PUSH0 KECCAK256 SLOAD SWAP1 POP PUSH0 DUP2 SUB PUSH2 0x1366 JUMPI PUSH0 SWAP2 POP POP PUSH2 0x14AC JUMP JUMPDEST PUSH0 PUSH1 0xA PUSH0 DUP6 PUSH20 0xFFFFFFFFFFFFFFFFFFFFFFFFFFFFFFFFFFFFFFFF AND PUSH20 0xFFFFFFFFFFFFFFFFFFFFFFFFFFFFFFFFFFFFFFFF AND DUP2 MSTORE PUSH1 0x20 ADD SWAP1 DUP2 MSTORE PUSH1 0x20 ADD PUSH0 KECCAK256 SLOAD SWAP1 POP PUSH0 DUP2 SUB PUSH2 0x13B8 JUMPI PUSH0 SWAP3 POP POP POP PUSH2 0x14AC JUMP JUMPDEST PUSH0 PUSH2 0xE10 DUP3 TIMESTAMP PUSH2 0x13C8 SWAP2 SWAP1 PUSH2 0x2652 JUMP JUMPDEST PUSH2 0x13D2 SWAP2 SWAP1 PUSH2 0x29BD JUMP JUMPDEST SWAP1 POP PUSH0 DUP2 SUB PUSH2 0x13E6 JUMPI PUSH0 SWAP4 POP POP POP POP PUSH2 0x14AC JUMP JUMPDEST PUSH0 PUSH1 0xB SLOAD SWAP1 POP PUSH0 DUP5 GT DUP1 ISZERO PUSH2 0x1404 JUMPI POP PUSH9 0x3635C9ADC5DEA00000 DUP5 GT ISZERO JUMPDEST ISZERO PUSH2 0x1451 JUMPI PUSH0 PUSH9 0x3635C9ADC5DEA00000 PUSH1 0x32 DUP7 PUSH9 0x3635C9ADC5DEA00000 PUSH2 0x142B SWAP2 SWAP1 PUSH2 0x2652 JUMP JUMPDEST PUSH2 0x1435 SWAP2 SWAP1 PUSH2 0x29ED JUMP JUMPDEST PUSH2 0x143F SWAP2 SWAP1 PUSH2 0x29BD JUMP JUMPDEST SWAP1 POP DUP1 DUP3 PUSH2 0x144D SWAP2 SWAP1 PUSH2 0x2755 JUMP JUMPDEST SWAP2 POP POP JUMPDEST PUSH10 0x10F0CF064DD59200000 DUP5 GT ISZERO PUSH2 0x1482 JUMPI PUSH1 0x5 DUP2 GT PUSH2 0x1471 JUMPI PUSH0 PUSH2 0x147F JUMP JUMPDEST PUSH1 0x5 DUP2 PUSH2 0x147E SWAP2 SWAP1 PUSH2 0x2652 JUMP JUMPDEST JUMPDEST SWAP1 POP JUMPDEST PUSH1 0x64 DUP3 DUP3 DUP7 PUSH2 0x1491 SWAP2 SWAP1 PUSH2 0x29ED JUMP JUMPDEST PUSH2 0x149B SWAP2 SWAP1 PUSH2 0x29ED JUMP JUMPDEST PUSH2 0x14A5 SWAP2 SWAP1 PUSH2 0x29BD JUMP JUMPDEST SWAP5 POP POP POP POP POP JUMPDEST SWAP2 SWAP1 POP JUMP JUMPDEST PUSH0 PUSH32 0x1FFC9A700000000000000000000000000000000000000000000000000000000 PUSH28 0xFFFFFFFFFFFFFFFFFFFFFFFFFFFFFFFFFFFFFFFFFFFFFFFFFFFFFFFF NOT AND DUP3 PUSH28 0xFFFFFFFFFFFFFFFFFFFFFFFFFFFFFFFFFFFFFFFFFFFFFFFFFFFFFFFF NOT AND EQ SWAP1 POP SWAP2 SWAP1 POP JUMP JUMPDEST PUSH0 CALLER SWAP1 POP SWAP1 JUMP JUMPDEST PUSH2 0x152E DUP4 DUP4 DUP4 PUSH1 0x1 PUSH2 0x1C6B JUMP JUMPDEST POP POP POP JUMP JUMPDEST PUSH2 0x153B PUSH2 0xC49 JUMP JUMPDEST ISZERO PUSH2 0x1572 JUMPI PUSH1 0x40 MLOAD PUSH32 0xD93C066500000000000000000000000000000000000000000000000000000000 DUP2 MSTORE PUSH1 0x4 ADD PUSH1 0x40 MLOAD DUP1 SWAP2 SUB SWAP1 REVERT JUMPDEST JUMP JUMPDEST PUSH0 PUSH20 0xFFFFFFFFFFFFFFFFFFFFFFFFFFFFFFFFFFFFFFFF AND DUP3 PUSH20 0xFFFFFFFFFFFFFFFFFFFFFFFFFFFFFFFFFFFFFFFF AND SUB PUSH2 0x15E4 JUMPI PUSH0 PUSH1 0x40 MLOAD PUSH32 0x96C6FD1E00000000000000000000000000000000000000000000000000000000 DUP2 MSTORE PUSH1 0x4 ADD PUSH2 0x15DB SWAP2 SWAP1 PUSH2 0x2A3D JUMP JUMPDEST PUSH1 0x40 MLOAD DUP1 SWAP2 SUB SWAP1 REVERT JUMPDEST PUSH2 0x15EF DUP3 PUSH0 DUP4 PUSH2 0x1E3A JUMP JUMPDEST POP POP JUMP JUMPDEST DUP3 DUP2 DUP1 PUSH2 0x15FF DUP4 PUSH2 0xC64 JUMP JUMPDEST LT ISZERO PUSH2 0x1640 JUMPI PUSH1 0x40 MLOAD PUSH32 0x8C379A000000000000000000000000000000000000000000000000000000000 DUP2 MSTORE PUSH1 0x4 ADD PUSH2 0x1637 SWAP1 PUSH2 0x2579 JUMP JUMPDEST PUSH1 0x40 MLOAD DUP1 SWAP2 SUB SWAP1 REVERT JUMPDEST PUSH2 0x1648 PUSH2 0x1533 JUMP JUMPDEST PUSH0 PUSH20 0xFFFFFFFFFFFFFFFFFFFFFFFFFFFFFFFFFFFFFFFF AND DUP6 PUSH20 0xFFFFFFFFFFFFFFFFFFFFFFFFFFFFFFFFFFFFFFFF AND SUB PUSH2 0x16B6 JUMPI PUSH1 0x40 MLOAD PUSH32 0x8C379A000000000000000000000000000000000000000000000000000000000 DUP2 MSTORE PUSH1 0x4 ADD PUSH2 0x16AD SWAP1 PUSH2 0x2AC6 JUMP JUMPDEST PUSH1 0x40 MLOAD DUP1 SWAP2 SUB SWAP1 REVERT JUMPDEST PUSH0 PUSH20 0xFFFFFFFFFFFFFFFFFFFFFFFFFFFFFFFFFFFFFFFF AND DUP5 PUSH20 0xFFFFFFFFFFFFFFFFFFFFFFFFFFFFFFFFFFFFFFFF AND SUB PUSH2 0x1724 JUMPI PUSH1 0x40 MLOAD PUSH32 0x8C379A000000000000000000000000000000000000000000000000000000000 DUP2 MSTORE PUSH1 0x4 ADD PUSH2 0x171B SWAP1 PUSH2 0x2AC6 JUMP JUMPDEST PUSH1 0x40 MLOAD DUP1 SWAP2 SUB SWAP1 REVERT JUMPDEST PUSH0 PUSH1 0x64 PUSH1 0x7 SLOAD DUP6 PUSH2 0x1735 SWAP2 SWAP1 PUSH2 0x29ED JUMP JUMPDEST PUSH2 0x173F SWAP2 SWAP1 PUSH2 0x29BD JUMP JUMPDEST SWAP1 POP PUSH0 DUP2 DUP6 PUSH2 0x174E SWAP2 SWAP1 PUSH2 0x2652 JUMP JUMPDEST SWAP1 POP PUSH0 DUP3 GT ISZERO PUSH2 0x1763 JUMPI PUSH2 0x1762 DUP8 DUP4 PUSH2 0x1574 JUMP JUMPDEST JUMPDEST PUSH2 0x176E DUP8 DUP8 DUP4 PUSH2 0x1914 JUMP JUMPDEST POP POP POP POP POP POP POP JUMP JUMPDEST PUSH0 PUSH10 0x152D02C7E14AF6800000 SWAP1 POP PUSH0 PUSH2 0x178F ADDRESS PUSH2 0xC64 JUMP JUMPDEST SWAP1 POP DUP2 DUP2 LT ISZERO PUSH2 0x1862 JUMPI PUSH0 DUP2 DUP4 PUSH2 0x17A6 SWAP2 SWAP1 PUSH2 0x2652 JUMP JUMPDEST SWAP1 POP PUSH10 0x152D02C7E14AF6800000 DUP2 GT ISZERO PUSH2 0x17C8 JUMPI PUSH10 0x152D02C7E14AF6800000 SWAP1 POP JUMPDEST PUSH1 0x8 SLOAD DUP2 PUSH2 0x17D4 PUSH2 0x813 JUMP JUMPDEST PUSH2 0x17DE SWAP2 SWAP1 PUSH2 0x2755 JUMP JUMPDEST GT ISZERO PUSH2 0x181F JUMPI PUSH1 0x40 MLOAD PUSH32 0x8C379A000000000000000000000000000000000000000000000000000000000 DUP2 MSTORE PUSH1 0x4 ADD PUSH2 0x1816 SWAP1 PUSH2 0x2B2E JUMP JUMPDEST PUSH1 0x40 MLOAD DUP1 SWAP2 SUB SWAP1 REVERT JUMPDEST PUSH2 0x1829 ADDRESS DUP3 PUSH2 0x1BEC JUMP JUMPDEST PUSH32 0x7255432B9D8B4F01E258EAA3C7BE1C288C887FD8592C95DCEDC6E517116D3F40 DUP2 PUSH1 0x40 MLOAD PUSH2 0x1858 SWAP2 SWAP1 PUSH2 0x22A0 JUMP JUMPDEST PUSH1 0x40 MLOAD DUP1 SWAP2 SUB SWAP1 LOG1 POP JUMPDEST POP POP JUMP JUMPDEST PUSH0 PUSH2 0x1870 DUP3 PUSH2 0x1314 JUMP JUMPDEST SWAP1 POP PUSH0 DUP2 GT ISZERO PUSH2 0x18CE JUMPI DUP1 PUSH1 0xD PUSH0 DUP5 PUSH20 0xFFFFFFFFFFFFFFFFFFFFFFFFFFFFFFFFFFFFFFFF AND PUSH20 0xFFFFFFFFFFFFFFFFFFFFFFFFFFFFFFFFFFFFFFFF AND DUP2 MSTORE PUSH1 0x20 ADD SWAP1 DUP2 MSTORE PUSH1 0x20 ADD PUSH0 KECCAK256 PUSH0 DUP3 DUP3 SLOAD PUSH2 0x18C6 SWAP2 SWAP1 PUSH2 0x2755 JUMP JUMPDEST SWAP3 POP POP DUP2 SWAP1 SSTORE POP JUMPDEST TIMESTAMP PUSH1 0xA PUSH0 DUP5 PUSH20 0xFFFFFFFFFFFFFFFFFFFFFFFFFFFFFFFFFFFFFFFF AND PUSH20 0xFFFFFFFFFFFFFFFFFFFFFFFFFFFFFFFFFFFFFFFF AND DUP2 MSTORE PUSH1 0x20 ADD SWAP1 DUP2 MSTORE PUSH1 0x20 ADD PUSH0 KECCAK256 DUP2 SWAP1 SSTORE POP POP POP JUMP JUMPDEST PUSH0 PUSH20 0xFFFFFFFFFFFFFFFFFFFFFFFFFFFFFFFFFFFFFFFF AND DUP4 PUSH20 0xFFFFFFFFFFFFFFFFFFFFFFFFFFFFFFFFFFFFFFFF AND SUB PUSH2 0x1984 JUMPI PUSH0 PUSH1 0x40 MLOAD PUSH32 0x96C6FD1E00000000000000000000000000000000000000000000000000000000 DUP2 MSTORE PUSH1 0x4 ADD PUSH2 0x197B SWAP2 SWAP1 PUSH2 0x2A3D JUMP JUMPDEST PUSH1 0x40 MLOAD DUP1 SWAP2 SUB SWAP1 REVERT JUMPDEST PUSH0 PUSH20 0xFFFFFFFFFFFFFFFFFFFFFFFFFFFFFFFFFFFFFFFF AND DUP3 PUSH20 0xFFFFFFFFFFFFFFFFFFFFFFFFFFFFFFFFFFFFFFFF AND SUB PUSH2 0x19F4 JUMPI PUSH0 PUSH1 0x40 MLOAD PUSH32 0xEC442F0500000000000000000000000000000000000000000000000000000000 DUP2 MSTORE PUSH1 0x4 ADD PUSH2 0x19EB SWAP2 SWAP1 PUSH2 0x2A3D JUMP JUMPDEST PUSH1 0x40 MLOAD DUP1 SWAP2 SUB SWAP1 REVERT JUMPDEST PUSH2 0x19FF DUP4 DUP4 DUP4 PUSH2 0x1E3A JUMP JUMPDEST POP POP POP JUMP JUMPDEST PUSH2 0x1A15 DUP2 PUSH2 0x1A10 PUSH2 0x151A JUMP JUMPDEST PUSH2 0x1E52 JUMP JUMPDEST POP JUMP JUMPDEST PUSH0 PUSH2 0x1A23 DUP4 DUP4 PUSH2 0xCAF JUMP JUMPDEST PUSH2 0x1AF8 JUMPI PUSH1 0x1 PUSH1 0x6 PUSH0 DUP6 DUP2 MSTORE PUSH1 0x20 ADD SWAP1 DUP2 MSTORE PUSH1 0x20 ADD PUSH0 KECCAK256 PUSH0 ADD PUSH0 DUP5 PUSH20 0xFFFFFFFFFFFFFFFFFFFFFFFFFFFFFFFFFFFFFFFF AND PUSH20 0xFFFFFFFFFFFFFFFFFFFFFFFFFFFFFFFFFFFFFFFF AND DUP2 MSTORE PUSH1 0x20 ADD SWAP1 DUP2 MSTORE PUSH1 0x20 ADD PUSH0 KECCAK256 PUSH0 PUSH2 0x100 EXP DUP2 SLOAD DUP2 PUSH1 0xFF MUL NOT AND SWAP1 DUP4 ISZERO ISZERO MUL OR SWAP1 SSTORE POP PUSH2 0x1A95 PUSH2 0x151A JUMP JUMPDEST PUSH20 0xFFFFFFFFFFFFFFFFFFFFFFFFFFFFFFFFFFFFFFFF AND DUP3 PUSH20 0xFFFFFFFFFFFFFFFFFFFFFFFFFFFFFFFFFFFFFFFF AND DUP5 PUSH32 0x2F8788117E7EFF1D82E926EC794901D17C78024A50270940304540A733656F0D PUSH1 0x40 MLOAD PUSH1 0x40 MLOAD DUP1 SWAP2 SUB SWAP1 LOG4 PUSH1 0x1 SWAP1 POP PUSH2 0x1AFC JUMP JUMPDEST PUSH0 SWAP1 POP JUMPDEST SWAP3 SWAP2 POP POP JUMP JUMPDEST PUSH0 PUSH2 0x1B0D DUP4 DUP4 PUSH2 0xCAF JUMP JUMPDEST ISZERO PUSH2 0x1BE2 JUMPI PUSH0 PUSH1 0x6 PUSH0 DUP6 DUP2 MSTORE PUSH1 0x20 ADD SWAP1 DUP2 MSTORE PUSH1 0x20 ADD PUSH0 KECCAK256 PUSH0 ADD PUSH0 DUP5 PUSH20 0xFFFFFFFFFFFFFFFFFFFFFFFFFFFFFFFFFFFFFFFF AND PUSH20 0xFFFFFFFFFFFFFFFFFFFFFFFFFFFFFFFFFFFFFFFF AND DUP2 MSTORE PUSH1 0x20 ADD SWAP1 DUP2 MSTORE PUSH1 0x20 ADD PUSH0 KECCAK256 PUSH0 PUSH2 0x100 EXP DUP2 SLOAD DUP2 PUSH1 0xFF MUL NOT AND SWAP1 DUP4 ISZERO ISZERO MUL OR SWAP1 SSTORE POP PUSH2 0x1B7F PUSH2 0x151A JUMP JUMPDEST PUSH20 0xFFFFFFFFFFFFFFFFFFFFFFFFFFFFFFFFFFFFFFFF AND DUP3 PUSH20 0xFFFFFFFFFFFFFFFFFFFFFFFFFFFFFFFFFFFFFFFF AND DUP5 PUSH32 0xF6391F5C32D9C69D2A47EA670B442974B53935D1EDC7FD64EB21E047A839171B PUSH1 0x40 MLOAD PUSH1 0x40 MLOAD DUP1 SWAP2 SUB SWAP1 LOG4 PUSH1 0x1 SWAP1 POP PUSH2 0x1BE6 JUMP JUMPDEST PUSH0 SWAP1 POP JUMPDEST SWAP3 SWAP2 POP POP JUMP JUMPDEST PUSH0 PUSH20 0xFFFFFFFFFFFFFFFFFFFFFFFFFFFFFFFFFFFFFFFF AND DUP3 PUSH20 0xFFFFFFFFFFFFFFFFFFFFFFFFFFFFFFFFFFFFFFFF AND SUB PUSH2 0x1C5C JUMPI PUSH0 PUSH1 0x40 MLOAD PUSH32 0xEC442F0500000000000000000000000000000000000000000000000000000000 DUP2 MSTORE PUSH1 0x4 ADD PUSH2 0x1C53 SWAP2 SWAP1 PUSH2 0x2A3D JUMP JUMPDEST PUSH1 0x40 MLOAD DUP1 SWAP2 SUB SWAP1 REVERT JUMPDEST PUSH2 0x1C67 PUSH0 DUP4 DUP4 PUSH2 0x1E3A JUMP JUMPDEST POP POP JUMP JUMPDEST PUSH0 PUSH20 0xFFFFFFFFFFFFFFFFFFFFFFFFFFFFFFFFFFFFFFFF AND DUP5 PUSH20 0xFFFFFFFFFFFFFFFFFFFFFFFFFFFFFFFFFFFFFFFF AND SUB PUSH2 0x1CDB JUMPI PUSH0 PUSH1 0x40 MLOAD PUSH32 0xE602DF0500000000000000000000000000000000000000000000000000000000 DUP2 MSTORE PUSH1 0x4 ADD PUSH2 0x1CD2 SWAP2 SWAP1 PUSH2 0x2A3D JUMP JUMPDEST PUSH1 0x40 MLOAD DUP1 SWAP2 SUB SWAP1 REVERT JUMPDEST PUSH0 PUSH20 0xFFFFFFFFFFFFFFFFFFFFFFFFFFFFFFFFFFFFFFFF AND DUP4 PUSH20 0xFFFFFFFFFFFFFFFFFFFFFFFFFFFFFFFFFFFFFFFF AND SUB PUSH2 0x1D4B JUMPI PUSH0 PUSH1 0x40 MLOAD PUSH32 0x94280D6200000000000000000000000000000000000000000000000000000000 DUP2 MSTORE PUSH1 0x4 ADD PUSH2 0x1D42 SWAP2 SWAP1 PUSH2 0x2A3D JUMP JUMPDEST PUSH1 0x40 MLOAD DUP1 SWAP2 SUB SWAP1 REVERT JUMPDEST DUP2 PUSH1 0x1 PUSH0 DUP7 PUSH20 0xFFFFFFFFFFFFFFFFFFFFFFFFFFFFFFFFFFFFFFFF AND PUSH20 0xFFFFFFFFFFFFFFFFFFFFFFFFFFFFFFFFFFFFFFFF AND DUP2 MSTORE PUSH1 0x20 ADD SWAP1 DUP2 MSTORE PUSH1 0x20 ADD PUSH0 KECCAK256 PUSH0 DUP6 PUSH20 0xFFFFFFFFFFFFFFFFFFFFFFFFFFFFFFFFFFFFFFFF AND PUSH20 0xFFFFFFFFFFFFFFFFFFFFFFFFFFFFFFFFFFFFFFFF AND DUP2 MSTORE PUSH1 0x20 ADD SWAP1 DUP2 MSTORE PUSH1 0x20 ADD PUSH0 KECCAK256 DUP2 SWAP1 SSTORE POP DUP1 ISZERO PUSH2 0x1E34 JUMPI DUP3 PUSH20 0xFFFFFFFFFFFFFFFFFFFFFFFFFFFFFFFFFFFFFFFF AND DUP5 PUSH20 0xFFFFFFFFFFFFFFFFFFFFFFFFFFFFFFFFFFFFFFFF AND PUSH32 0x8C5BE1E5EBEC7D5BD14F71427D1E84F3DD0314C0F7B2291E5B200AC8C7C3B925 DUP5 PUSH1 0x40 MLOAD PUSH2 0x1E2B SWAP2 SWAP1 PUSH2 0x22A0 JUMP JUMPDEST PUSH1 0x40 MLOAD DUP1 SWAP2 SUB SWAP1 LOG3 JUMPDEST POP POP POP POP JUMP JUMPDEST PUSH2 0x1E42 PUSH2 0x1533 JUMP JUMPDEST PUSH2 0x1E4D DUP4 DUP4 DUP4 PUSH2 0x1EA3 JUMP JUMPDEST POP POP POP JUMP JUMPDEST PUSH2 0x1E5C DUP3 DUP3 PUSH2 0xCAF JUMP JUMPDEST PUSH2 0x1E9F JUMPI DUP1 DUP3 PUSH1 0x40 MLOAD PUSH32 0xE2517D3F00000000000000000000000000000000000000000000000000000000 DUP2 MSTORE PUSH1 0x4 ADD PUSH2 0x1E96 SWAP3 SWAP2 SWAP1 PUSH2 0x2B4C JUMP JUMPDEST PUSH1 0x40 MLOAD DUP1 SWAP2 SUB SWAP1 REVERT JUMPDEST POP POP JUMP JUMPDEST PUSH0 PUSH20 0xFFFFFFFFFFFFFFFFFFFFFFFFFFFFFFFFFFFFFFFF AND DUP4 PUSH20 0xFFFFFFFFFFFFFFFFFFFFFFFFFFFFFFFFFFFFFFFF AND SUB PUSH2 0x1EF3 JUMPI DUP1 PUSH1 0x2 PUSH0 DUP3 DUP3 SLOAD PUSH2 0x1EE7 SWAP2 SWAP1 PUSH2 0x2755 JUMP JUMPDEST SWAP3 POP POP DUP2 SWAP1 SSTORE POP PUSH2 0x1FC1 JUMP JUMPDEST PUSH0 PUSH0 PUSH0 DUP6 PUSH20 0xFFFFFFFFFFFFFFFFFFFFFFFFFFFFFFFFFFFFFFFF AND PUSH20 0xFFFFFFFFFFFFFFFFFFFFFFFFFFFFFFFFFFFFFFFF AND DUP2 MSTORE PUSH1 0x20 ADD SWAP1 DUP2 MSTORE PUSH1 0x20 ADD PUSH0 KECCAK256 SLOAD SWAP1 POP DUP2 DUP2 LT ISZERO PUSH2 0x1F7C JUMPI DUP4 DUP2 DUP4 PUSH1 0x40 MLOAD PUSH32 0xE450D38C00000000000000000000000000000000000000000000000000000000 DUP2 MSTORE PUSH1 0x4 ADD PUSH2 0x1F73 SWAP4 SWAP3 SWAP2 SWAP1 PUSH2 0x2B73 JUMP JUMPDEST PUSH1 0x40 MLOAD DUP1 SWAP2 SUB SWAP1 REVERT JUMPDEST DUP2 DUP2 SUB PUSH0 PUSH0 DUP7 PUSH20 0xFFFFFFFFFFFFFFFFFFFFFFFFFFFFFFFFFFFFFFFF AND PUSH20 0xFFFFFFFFFFFFFFFFFFFFFFFFFFFFFFFFFFFFFFFF AND DUP2 MSTORE PUSH1 0x20 ADD SWAP1 DUP2 MSTORE PUSH1 0x20 ADD PUSH0 KECCAK256 DUP2 SWAP1 SSTORE POP POP JUMPDEST PUSH0 PUSH20 0xFFFFFFFFFFFFFFFFFFFFFFFFFFFFFFFFFFFFFFFF AND DUP3 PUSH20 0xFFFFFFFFFFFFFFFFFFFFFFFFFFFFFFFFFFFFFFFF AND SUB PUSH2 0x2008 JUMPI DUP1 PUSH1 0x2 PUSH0 DUP3 DUP3 SLOAD SUB SWAP3 POP POP DUP2 SWAP1 SSTORE POP PUSH2 0x2052 JUMP JUMPDEST DUP1 PUSH0 PUSH0 DUP5 PUSH20 0xFFFFFFFFFFFFFFFFFFFFFFFFFFFFFFFFFFFFFFFF AND PUSH20 0xFFFFFFFFFFFFFFFFFFFFFFFFFFFFFFFFFFFFFFFF AND DUP2 MSTORE PUSH1 0x20 ADD SWAP1 DUP2 MSTORE PUSH1 0x20 ADD PUSH0 KECCAK256 PUSH0 DUP3 DUP3 SLOAD ADD SWAP3 POP POP DUP2 SWAP1 SSTORE POP JUMPDEST DUP2 PUSH20 0xFFFFFFFFFFFFFFFFFFFFFFFFFFFFFFFFFFFFFFFF AND DUP4 PUSH20 0xFFFFFFFFFFFFFFFFFFFFFFFFFFFFFFFFFFFFFFFF AND PUSH32 0xDDF252AD1BE2C89B69C2B068FC378DAA952BA7F163C4A11628F55A4DF523B3EF DUP4 PUSH1 0x40 MLOAD PUSH2 0x20AF SWAP2 SWAP1 PUSH2 0x22A0 JUMP JUMPDEST PUSH1 0x40 MLOAD DUP1 SWAP2 SUB SWAP1 LOG3 POP POP POP JUMP JUMPDEST PUSH0 PUSH0 REVERT JUMPDEST PUSH0 PUSH32 0xFFFFFFFF00000000000000000000000000000000000000000000000000000000 DUP3 AND SWAP1 POP SWAP2 SWAP1 POP JUMP JUMPDEST PUSH2 0x20F4 DUP2 PUSH2 0x20C0 JUMP JUMPDEST DUP2 EQ PUSH2 0x20FE JUMPI PUSH0 PUSH0 REVERT JUMPDEST POP JUMP JUMPDEST PUSH0 DUP2 CALLDATALOAD SWAP1 POP PUSH2 0x210F DUP2 PUSH2 0x20EB JUMP JUMPDEST SWAP3 SWAP2 POP POP JUMP JUMPDEST PUSH0 PUSH1 0x20 DUP3 DUP5 SUB SLT ISZERO PUSH2 0x212A JUMPI PUSH2 0x2129 PUSH2 0x20BC JUMP JUMPDEST JUMPDEST PUSH0 PUSH2 0x2137 DUP5 DUP3 DUP6 ADD PUSH2 0x2101 JUMP JUMPDEST SWAP2 POP POP SWAP3 SWAP2 POP POP JUMP JUMPDEST PUSH0 DUP2 ISZERO ISZERO SWAP1 POP SWAP2 SWAP1 POP JUMP JUMPDEST PUSH2 0x2154 DUP2 PUSH2 0x2140 JUMP JUMPDEST DUP3 MSTORE POP POP JUMP JUMPDEST PUSH0 PUSH1 0x20 DUP3 ADD SWAP1 POP PUSH2 0x216D PUSH0 DUP4 ADD DUP5 PUSH2 0x214B JUMP JUMPDEST SWAP3 SWAP2 POP POP JUMP JUMPDEST PUSH0 DUP2 MLOAD SWAP1 POP SWAP2 SWAP1 POP JUMP JUMPDEST PUSH0 DUP3 DUP3 MSTORE PUSH1 0x20 DUP3 ADD SWAP1 POP SWAP3 SWAP2 POP POP JUMP JUMPDEST DUP3 DUP2 DUP4 MCOPY PUSH0 DUP4 DUP4 ADD MSTORE POP POP POP JUMP JUMPDEST PUSH0 PUSH1 0x1F NOT PUSH1 0x1F DUP4 ADD AND SWAP1 POP SWAP2 SWAP1 POP JUMP JUMPDEST PUSH0 PUSH2 0x21B5 DUP3 PUSH2 0x2173 JUMP JUMPDEST PUSH2 0x21BF DUP2 DUP6 PUSH2 0x217D JUMP JUMPDEST SWAP4 POP PUSH2 0x21CF DUP2 DUP6 PUSH1 0x20 DUP7 ADD PUSH2 0x218D JUMP JUMPDEST PUSH2 0x21D8 DUP2 PUSH2 0x219B JUMP JUMPDEST DUP5 ADD SWAP2 POP POP SWAP3 SWAP2 POP POP JUMP JUMPDEST PUSH0 PUSH1 0x20 DUP3 ADD SWAP1 POP DUP2 DUP2 SUB PUSH0 DUP4 ADD MSTORE PUSH2 0x21FB DUP2 DUP5 PUSH2 0x21AB JUMP JUMPDEST SWAP1 POP SWAP3 SWAP2 POP POP JUMP JUMPDEST PUSH0 PUSH20 0xFFFFFFFFFFFFFFFFFFFFFFFFFFFFFFFFFFFFFFFF DUP3 AND SWAP1 POP SWAP2 SWAP1 POP JUMP JUMPDEST PUSH0 PUSH2 0x222C DUP3 PUSH2 0x2203 JUMP JUMPDEST SWAP1 POP SWAP2 SWAP1 POP JUMP JUMPDEST PUSH2 0x223C DUP2 PUSH2 0x2222 JUMP JUMPDEST DUP2 EQ PUSH2 0x2246 JUMPI PUSH0 PUSH0 REVERT JUMPDEST POP JUMP JUMPDEST PUSH0 DUP2 CALLDATALOAD SWAP1 POP PUSH2 0x2257 DUP2 PUSH2 0x2233 JUMP JUMPDEST SWAP3 SWAP2 POP POP JUMP JUMPDEST PUSH0 PUSH1 0x20 DUP3 DUP5 SUB SLT ISZERO PUSH2 0x2272 JUMPI PUSH2 0x2271 PUSH2 0x20BC JUMP JUMPDEST JUMPDEST PUSH0 PUSH2 0x227F DUP5 DUP3 DUP6 ADD PUSH2 0x2249 JUMP JUMPDEST SWAP2 POP POP SWAP3 SWAP2 POP POP JUMP JUMPDEST PUSH0 DUP2 SWAP1 POP SWAP2 SWAP1 POP JUMP JUMPDEST PUSH2 0x229A DUP2 PUSH2 0x2288 JUMP JUMPDEST DUP3 MSTORE POP POP JUMP JUMPDEST PUSH0 PUSH1 0x20 DUP3 ADD SWAP1 POP PUSH2 0x22B3 PUSH0 DUP4 ADD DUP5 PUSH2 0x2291 JUMP JUMPDEST SWAP3 SWAP2 POP POP JUMP JUMPDEST PUSH2 0x22C2 DUP2 PUSH2 0x2288 JUMP JUMPDEST DUP2 EQ PUSH2 0x22CC JUMPI PUSH0 PUSH0 REVERT JUMPDEST POP JUMP JUMPDEST PUSH0 DUP2 CALLDATALOAD SWAP1 POP PUSH2 0x22DD DUP2 PUSH2 0x22B9 JUMP JUMPDEST SWAP3 SWAP2 POP POP JUMP JUMPDEST PUSH0 PUSH0 PUSH1 0x40 DUP4 DUP6 SUB SLT ISZERO PUSH2 0x22F9 JUMPI PUSH2 0x22F8 PUSH2 0x20BC JUMP JUMPDEST JUMPDEST PUSH0 PUSH2 0x2306 DUP6 DUP3 DUP7 ADD PUSH2 0x2249 JUMP JUMPDEST SWAP3 POP POP PUSH1 0x20 PUSH2 0x2317 DUP6 DUP3 DUP7 ADD PUSH2 0x22CF JUMP JUMPDEST SWAP2 POP POP SWAP3 POP SWAP3 SWAP1 POP JUMP JUMPDEST PUSH0 PUSH1 0x20 DUP3 DUP5 SUB SLT ISZERO PUSH2 0x2336 JUMPI PUSH2 0x2335 PUSH2 0x20BC JUMP JUMPDEST JUMPDEST PUSH0 PUSH2 0x2343 DUP5 DUP3 DUP6 ADD PUSH2 0x22CF JUMP JUMPDEST SWAP2 POP POP SWAP3 SWAP2 POP POP JUMP JUMPDEST PUSH0 PUSH0 PUSH0 PUSH1 0x60 DUP5 DUP7 SUB SLT ISZERO PUSH2 0x2363 JUMPI PUSH2 0x2362 PUSH2 0x20BC JUMP JUMPDEST JUMPDEST PUSH0 PUSH2 0x2370 DUP7 DUP3 DUP8 ADD PUSH2 0x2249 JUMP JUMPDEST SWAP4 POP POP PUSH1 0x20 PUSH2 0x2381 DUP7 DUP3 DUP8 ADD PUSH2 0x2249 JUMP JUMPDEST SWAP3 POP POP PUSH1 0x40 PUSH2 0x2392 DUP7 DUP3 DUP8 ADD PUSH2 0x22CF JUMP JUMPDEST SWAP2 POP POP SWAP3 POP SWAP3 POP SWAP3 JUMP JUMPDEST PUSH0 DUP2 SWAP1 POP SWAP2 SWAP1 POP JUMP JUMPDEST PUSH2 0x23AE DUP2 PUSH2 0x239C JUMP JUMPDEST DUP2 EQ PUSH2 0x23B8 JUMPI PUSH0 PUSH0 REVERT JUMPDEST POP JUMP JUMPDEST PUSH0 DUP2 CALLDATALOAD SWAP1 POP PUSH2 0x23C9 DUP2 PUSH2 0x23A5 JUMP JUMPDEST SWAP3 SWAP2 POP POP JUMP JUMPDEST PUSH0 PUSH1 0x20 DUP3 DUP5 SUB SLT ISZERO PUSH2 0x23E4 JUMPI PUSH2 0x23E3 PUSH2 0x20BC JUMP JUMPDEST JUMPDEST PUSH0 PUSH2 0x23F1 DUP5 DUP3 DUP6 ADD PUSH2 0x23BB JUMP JUMPDEST SWAP2 POP POP SWAP3 SWAP2 POP POP JUMP JUMPDEST PUSH2 0x2403 DUP2 PUSH2 0x239C JUMP JUMPDEST DUP3 MSTORE POP POP JUMP JUMPDEST PUSH0 PUSH1 0x20 DUP3 ADD SWAP1 POP PUSH2 0x241C PUSH0 DUP4 ADD DUP5 PUSH2 0x23FA JUMP JUMPDEST SWAP3 SWAP2 POP POP JUMP JUMPDEST PUSH0 PUSH0 PUSH1 0x40 DUP4 DUP6 SUB SLT ISZERO PUSH2 0x2438 JUMPI PUSH2 0x2437 PUSH2 0x20BC JUMP JUMPDEST JUMPDEST PUSH0 PUSH2 0x2445 DUP6 DUP3 DUP7 ADD PUSH2 0x23BB JUMP JUMPDEST SWAP3 POP POP PUSH1 0x20 PUSH2 0x2456 DUP6 DUP3 DUP7 ADD PUSH2 0x2249 JUMP JUMPDEST SWAP2 POP POP SWAP3 POP SWAP3 SWAP1 POP JUMP JUMPDEST PUSH0 PUSH1 0xFF DUP3 AND SWAP1 POP SWAP2 SWAP1 POP JUMP JUMPDEST PUSH2 0x2475 DUP2 PUSH2 0x2460 JUMP JUMPDEST DUP3 MSTORE POP POP JUMP JUMPDEST PUSH0 PUSH1 0x20 DUP3 ADD SWAP1 POP PUSH2 0x248E PUSH0 DUP4 ADD DUP5 PUSH2 0x246C JUMP JUMPDEST SWAP3 SWAP2 POP POP JUMP JUMPDEST PUSH0 PUSH0 PUSH1 0x40 DUP4 DUP6 SUB SLT ISZERO PUSH2 0x24AA JUMPI PUSH2 0x24A9 PUSH2 0x20BC JUMP JUMPDEST JUMPDEST PUSH0 PUSH2 0x24B7 DUP6 DUP3 DUP7 ADD PUSH2 0x2249 JUMP JUMPDEST SWAP3 POP POP PUSH1 0x20 PUSH2 0x24C8 DUP6 DUP3 DUP7 ADD PUSH2 0x2249 JUMP JUMPDEST SWAP2 POP POP SWAP3 POP SWAP3 SWAP1 POP JUMP JUMPDEST PUSH32 0x4E487B7100000000000000000000000000000000000000000000000000000000 PUSH0 MSTORE PUSH1 0x22 PUSH1 0x4 MSTORE PUSH1 0x24 PUSH0 REVERT JUMPDEST PUSH0 PUSH1 0x2 DUP3 DIV SWAP1 POP PUSH1 0x1 DUP3 AND DUP1 PUSH2 0x2516 JUMPI PUSH1 0x7F DUP3 AND SWAP2 POP JUMPDEST PUSH1 0x20 DUP3 LT DUP2 SUB PUSH2 0x2529 JUMPI PUSH2 0x2528 PUSH2 0x24D2 JUMP JUMPDEST JUMPDEST POP SWAP2 SWAP1 POP JUMP JUMPDEST PUSH32 0x4572726F723A206E6F7420656E6F7567682062616C616E636500000000000000 PUSH0 DUP3 ADD MSTORE POP JUMP JUMPDEST PUSH0 PUSH2 0x2563 PUSH1 0x19 DUP4 PUSH2 0x217D JUMP JUMPDEST SWAP2 POP PUSH2 0x256E DUP3 PUSH2 0x252F JUMP JUMPDEST PUSH1 0x20 DUP3 ADD SWAP1 POP SWAP2 SWAP1 POP JUMP JUMPDEST PUSH0 PUSH1 0x20 DUP3 ADD SWAP1 POP DUP2 DUP2 SUB PUSH0 DUP4 ADD MSTORE PUSH2 0x2590 DUP2 PUSH2 0x2557 JUMP JUMPDEST SWAP1 POP SWAP2 SWAP1 POP JUMP JUMPDEST PUSH32 0x45524332303A207472616E7366657220616D6F756E7420657863656564732061 PUSH0 DUP3 ADD MSTORE PUSH32 0x6C6C6F77616E6365000000000000000000000000000000000000000000000000 PUSH1 0x20 DUP3 ADD MSTORE POP JUMP JUMPDEST PUSH0 PUSH2 0x25F1 PUSH1 0x28 DUP4 PUSH2 0x217D JUMP JUMPDEST SWAP2 POP PUSH2 0x25FC DUP3 PUSH2 0x2597 JUMP JUMPDEST PUSH1 0x40 DUP3 ADD SWAP1 POP SWAP2 SWAP1 POP JUMP JUMPDEST PUSH0 PUSH1 0x20 DUP3 ADD SWAP1 POP DUP2 DUP2 SUB PUSH0 DUP4 ADD MSTORE PUSH2 0x261E DUP2 PUSH2 0x25E5 JUMP JUMPDEST SWAP1 POP SWAP2 SWAP1 POP JUMP JUMPDEST PUSH32 0x4E487B7100000000000000000000000000000000000000000000000000000000 PUSH0 MSTORE PUSH1 0x11 PUSH1 0x4 MSTORE PUSH1 0x24 PUSH0 REVERT JUMPDEST PUSH0 PUSH2 0x265C DUP3 PUSH2 0x2288 JUMP JUMPDEST SWAP2 POP PUSH2 0x2667 DUP4 PUSH2 0x2288 JUMP JUMPDEST SWAP3 POP DUP3 DUP3 SUB SWAP1 POP DUP2 DUP2 GT ISZERO PUSH2 0x267F JUMPI PUSH2 0x267E PUSH2 0x2625 JUMP JUMPDEST JUMPDEST SWAP3 SWAP2 POP POP JUMP JUMPDEST PUSH32 0x4E6F7420656E6F756768207374616B6564000000000000000000000000000000 PUSH0 DUP3 ADD MSTORE POP JUMP JUMPDEST PUSH0 PUSH2 0x26B9 PUSH1 0x11 DUP4 PUSH2 0x217D JUMP JUMPDEST SWAP2 POP PUSH2 0x26C4 DUP3 PUSH2 0x2685 JUMP JUMPDEST PUSH1 0x20 DUP3 ADD SWAP1 POP SWAP2 SWAP1 POP JUMP JUMPDEST PUSH0 PUSH1 0x20 DUP3 ADD SWAP1 POP DUP2 DUP2 SUB PUSH0 DUP4 ADD MSTORE PUSH2 0x26E6 DUP2 PUSH2 0x26AD JUMP JUMPDEST SWAP1 POP SWAP2 SWAP1 POP JUMP JUMPDEST PUSH32 0x4572726F723A206E6F74206D696E746572000000000000000000000000000000 PUSH0 DUP3 ADD MSTORE POP JUMP JUMPDEST PUSH0 PUSH2 0x2721 PUSH1 0x11 DUP4 PUSH2 0x217D JUMP JUMPDEST SWAP2 POP PUSH2 0x272C DUP3 PUSH2 0x26ED JUMP JUMPDEST PUSH1 0x20 DUP3 ADD SWAP1 POP SWAP2 SWAP1 POP JUMP JUMPDEST PUSH0 PUSH1 0x20 DUP3 ADD SWAP1 POP DUP2 DUP2 SUB PUSH0 DUP4 ADD MSTORE PUSH2 0x274E DUP2 PUSH2 0x2715 JUMP JUMPDEST SWAP1 POP SWAP2 SWAP1 POP JUMP JUMPDEST PUSH0 PUSH2 0x275F DUP3 PUSH2 0x2288 JUMP JUMPDEST SWAP2 POP PUSH2 0x276A DUP4 PUSH2 0x2288 JUMP JUMPDEST SWAP3 POP DUP3 DUP3 ADD SWAP1 POP DUP1 DUP3 GT ISZERO PUSH2 0x2782 JUMPI PUSH2 0x2781 PUSH2 0x2625 JUMP JUMPDEST JUMPDEST SWAP3 SWAP2 POP POP JUMP JUMPDEST PUSH32 0x4572726F723A206D617820737570706C79000000000000000000000000000000 PUSH0 DUP3 ADD MSTORE POP JUMP JUMPDEST PUSH0 PUSH2 0x27BC PUSH1 0x11 DUP4 PUSH2 0x217D JUMP JUMPDEST SWAP2 POP PUSH2 0x27C7 DUP3 PUSH2 0x2788 JUMP JUMPDEST PUSH1 0x20 DUP3 ADD SWAP1 POP SWAP2 SWAP1 POP JUMP JUMPDEST PUSH0 PUSH1 0x20 DUP3 ADD SWAP1 POP DUP2 DUP2 SUB PUSH0 DUP4 ADD MSTORE PUSH2 0x27E9 DUP2 PUSH2 0x27B0 JUMP JUMPDEST SWAP1 POP SWAP2 SWAP1 POP JUMP JUMPDEST PUSH32 0x4572726F723A206E6F74206275726E6572000000000000000000000000000000 PUSH0 DUP3 ADD MSTORE POP JUMP JUMPDEST PUSH0 PUSH2 0x2824 PUSH1 0x11 DUP4 PUSH2 0x217D JUMP JUMPDEST SWAP2 POP PUSH2 0x282F DUP3 PUSH2 0x27F0 JUMP JUMPDEST PUSH1 0x20 DUP3 ADD SWAP1 POP SWAP2 SWAP1 POP JUMP JUMPDEST PUSH0 PUSH1 0x20 DUP3 ADD SWAP1 POP DUP2 DUP2 SUB PUSH0 DUP4 ADD MSTORE PUSH2 0x2851 DUP2 PUSH2 0x2818 JUMP JUMPDEST SWAP1 POP SWAP2 SWAP1 POP JUMP JUMPDEST PUSH32 0x4E6F7420656E6F7567682062616C616E63650000000000000000000000000000 PUSH0 DUP3 ADD MSTORE POP JUMP JUMPDEST PUSH0 PUSH2 0x288C PUSH1 0x12 DUP4 PUSH2 0x217D JUMP JUMPDEST SWAP2 POP PUSH2 0x2897 DUP3 PUSH2 0x2858 JUMP JUMPDEST PUSH1 0x20 DUP3 ADD SWAP1 POP SWAP2 SWAP1 POP JUMP JUMPDEST PUSH0 PUSH1 0x20 DUP3 ADD SWAP1 POP DUP2 DUP2 SUB PUSH0 DUP4 ADD MSTORE PUSH2 0x28B9 DUP2 PUSH2 0x2880 JUMP JUMPDEST SWAP1 POP SWAP2 SWAP1 POP JUMP JUMPDEST PUSH32 0x45786365656473206D6178207374616B65000000000000000000000000000000 PUSH0 DUP3 ADD MSTORE POP JUMP JUMPDEST PUSH0 PUSH2 0x28F4 PUSH1 0x11 DUP4 PUSH2 0x217D JUMP JUMPDEST SWAP2 POP PUSH2 0x28FF DUP3 PUSH2 0x28C0 JUMP JUMPDEST PUSH1 0x20 DUP3 ADD SWAP1 POP SWAP2 SWAP1 POP JUMP JUMPDEST PUSH0 PUSH1 0x20 DUP3 ADD SWAP1 POP DUP2 DUP2 SUB PUSH0 DUP4 ADD MSTORE PUSH2 0x2921 DUP2 PUSH2 0x28E8 JUMP JUMPDEST SWAP1 POP SWAP2 SWAP1 POP JUMP JUMPDEST PUSH32 0x4E6F2072657761726420617661696C61626C6500000000000000000000000000 PUSH0 DUP3 ADD MSTORE POP JUMP JUMPDEST PUSH0 PUSH2 0x295C PUSH1 0x13 DUP4 PUSH2 0x217D JUMP JUMPDEST SWAP2 POP PUSH2 0x2967 DUP3 PUSH2 0x2928 JUMP JUMPDEST PUSH1 0x20 DUP3 ADD SWAP1 POP SWAP2 SWAP1 POP JUMP JUMPDEST PUSH0 PUSH1 0x20 DUP3 ADD SWAP1 POP DUP2 DUP2 SUB PUSH0 DUP4 ADD MSTORE PUSH2 0x2989 DUP2 PUSH2 0x2950 JUMP JUMPDEST SWAP1 POP SWAP2 SWAP1 POP JUMP JUMPDEST PUSH32 0x4E487B7100000000000000000000000000000000000000000000000000000000 PUSH0 MSTORE PUSH1 0x12 PUSH1 0x4 MSTORE PUSH1 0x24 PUSH0 REVERT JUMPDEST PUSH0 PUSH2 0x29C7 DUP3 PUSH2 0x2288 JUMP JUMPDEST SWAP2 POP PUSH2 0x29D2 DUP4 PUSH2 0x2288 JUMP JUMPDEST SWAP3 POP DUP3 PUSH2 0x29E2 JUMPI PUSH2 0x29E1 PUSH2 0x2990 JUMP JUMPDEST JUMPDEST DUP3 DUP3 DIV SWAP1 POP SWAP3 SWAP2 POP POP JUMP JUMPDEST PUSH0 PUSH2 0x29F7 DUP3 PUSH2 0x2288 JUMP JUMPDEST SWAP2 POP PUSH2 0x2A02 DUP4 PUSH2 0x2288 JUMP JUMPDEST SWAP3 POP DUP3 DUP3 MUL PUSH2 0x2A10 DUP2 PUSH2 0x2288 JUMP JUMPDEST SWAP2 POP DUP3 DUP3 DIV DUP5 EQ DUP4 ISZERO OR PUSH2 0x2A27 JUMPI PUSH2 0x2A26 PUSH2 0x2625 JUMP JUMPDEST JUMPDEST POP SWAP3 SWAP2 POP POP JUMP JUMPDEST PUSH2 0x2A37 DUP2 PUSH2 0x2222 JUMP JUMPDEST DUP3 MSTORE POP POP JUMP JUMPDEST PUSH0 PUSH1 0x20 DUP3 ADD SWAP1 POP PUSH2 0x2A50 PUSH0 DUP4 ADD DUP5 PUSH2 0x2A2E JUMP JUMPDEST SWAP3 SWAP2 POP POP JUMP JUMPDEST PUSH32 0x45524332303A207472616E736665722066726F6D207A65726F20616464726573 PUSH0 DUP3 ADD MSTORE PUSH32 0x7300000000000000000000000000000000000000000000000000000000000000 PUSH1 0x20 DUP3 ADD MSTORE POP JUMP JUMPDEST PUSH0 PUSH2 0x2AB0 PUSH1 0x21 DUP4 PUSH2 0x217D JUMP JUMPDEST SWAP2 POP PUSH2 0x2ABB DUP3 PUSH2 0x2A56 JUMP JUMPDEST PUSH1 0x40 DUP3 ADD SWAP1 POP SWAP2 SWAP1 POP JUMP JUMPDEST PUSH0 PUSH1 0x20 DUP3 ADD SWAP1 POP DUP2 DUP2 SUB PUSH0 DUP4 ADD MSTORE PUSH2 0x2ADD DUP2 PUSH2 0x2AA4 JUMP JUMPDEST SWAP1 POP SWAP2 SWAP1 POP JUMP JUMPDEST PUSH32 0x6D61782069732031653600000000000000000000000000000000000000000000 PUSH0 DUP3 ADD MSTORE POP JUMP JUMPDEST PUSH0 PUSH2 0x2B18 PUSH1 0xA DUP4 PUSH2 0x217D JUMP JUMPDEST SWAP2 POP PUSH2 0x2B23 DUP3 PUSH2 0x2AE4 JUMP JUMPDEST PUSH1 0x20 DUP3 ADD SWAP1 POP SWAP2 SWAP1 POP JUMP JUMPDEST PUSH0 PUSH1 0x20 DUP3 ADD SWAP1 POP DUP2 DUP2 SUB PUSH0 DUP4 ADD MSTORE PUSH2 0x2B45 DUP2 PUSH2 0x2B0C JUMP JUMPDEST SWAP1 POP SWAP2 SWAP1 POP JUMP JUMPDEST PUSH0 PUSH1 0x40 DUP3 ADD SWAP1 POP PUSH2 0x2B5F PUSH0 DUP4 ADD DUP6 PUSH2 0x2A2E JUMP JUMPDEST PUSH2 0x2B6C PUSH1 0x20 DUP4 ADD DUP5 PUSH2 0x23FA JUMP JUMPDEST SWAP4 SWAP3 POP POP POP JUMP JUMPDEST PUSH0 PUSH1 0x60 DUP3 ADD SWAP1 POP PUSH2 0x2B86 PUSH0 DUP4 ADD DUP7 PUSH2 0x2A2E JUMP JUMPDEST PUSH2 0x2B93 PUSH1 0x20 DUP4 ADD DUP6 PUSH2 0x2291 JUMP JUMPDEST PUSH2 0x2BA0 PUSH1 0x40 DUP4 ADD DUP5 PUSH2 0x2291 JUMP JUMPDEST SWAP5 SWAP4 POP POP POP POP JUMP INVALID LOG2 PUSH5 0x6970667358 0x22 SLT KECCAK256 0xEA SWAP11 0xA9 0xA9 PUSH6 0xA1DA7DF77465 0xED 0xE2 0xC0 0xEB EOFCREATE 0xDE REVERT INVALID CALLVALUE BLOBBASEFEE 0xAF DATALOADN 0xCCF2 BASEFEE 0xD8 0x2D 0x2D SLT LOG1 DUP11 PUSH5 0x736F6C6343 STOP ADDMOD 0x1E STOP CALLER "
				},
				"gasEstimates": {
					"creation": {
						"codeDepositCost": "2246000",
						"executionCost": "infinite",
						"totalCost": "infinite"
					},
					"external": {
						"BURNER_ROLE()": "437",
						"DEFAULT_ADMIN_ROLE()": "440",
						"MINTER_ROLE()": "436",
						"PAUSER_ROLE()": "435",
						"allowance(address,address)": "infinite",
						"approve(address,uint256)": "infinite",
						"balanceOf(address)": "2896",
						"burn(address,uint256)": "infinite",
						"claimReward()": "infinite",
						"decimals()": "405",
						"feePercent()": "2515",
						"getRoleAdmin(bytes32)": "infinite",
						"grantRole(bytes32,address)": "infinite",
						"hasRole(bytes32,address)": "3233",
						"maxStakePerUser()": "2538",
						"maxSupply()": "2491",
						"mint(address,uint256)": "infinite",
						"myBurn(uint256)": "infinite",
						"name()": "infinite",
						"paused()": "2606",
						"pendingReward(address)": "infinite",
						"renounceRole(bytes32,address)": "infinite",
						"revokeRole(bytes32,address)": "infinite",
						"rewardRatePerHour()": "2471",
						"rewards(address)": "2893",
						"stake(uint256)": "infinite",
						"stakeTimestamps(address)": "2869",
						"stakes(address)": "2870",
						"supportsInterface(bytes4)": "764",
						"symbol()": "infinite",
						"totalSupply()": "2522",
						"transfer(address,uint256)": "infinite",
						"transferFrom(address,address,uint256)": "infinite",
						"withdrawStake(uint256)": "infinite"
					},
					"internal": {
						"_transferCoin(address,address,uint256)": "infinite",
						"autoMintIfLow()": "infinite",
						"updateReward(address)": "infinite"
					}
				},
				"methodIdentifiers": {
					"BURNER_ROLE()": "282c51f3",
					"DEFAULT_ADMIN_ROLE()": "a217fddf",
					"MINTER_ROLE()": "d5391393",
					"PAUSER_ROLE()": "e63ab1e9",
					"allowance(address,address)": "dd62ed3e",
					"approve(address,uint256)": "095ea7b3",
					"balanceOf(address)": "70a08231",
					"burn(address,uint256)": "9dc29fac",
					"claimReward()": "b88a802f",
					"decimals()": "313ce567",
					"feePercent()": "7fd6f15c",
					"getRoleAdmin(bytes32)": "248a9ca3",
					"grantRole(bytes32,address)": "2f2ff15d",
					"hasRole(bytes32,address)": "91d14854",
					"maxStakePerUser()": "0717d032",
					"maxSupply()": "d5abeb01",
					"mint(address,uint256)": "40c10f19",
					"myBurn(uint256)": "22645085",
					"name()": "06fdde03",
					"paused()": "5c975abb",
					"pendingReward(address)": "f40f0f52",
					"renounceRole(bytes32,address)": "36568abe",
					"revokeRole(bytes32,address)": "d547741f",
					"rewardRatePerHour()": "69629025",
					"rewards(address)": "0700037d",
					"stake(uint256)": "a694fc3a",
					"stakeTimestamps(address)": "99f853a5",
					"stakes(address)": "16934fc4",
					"supportsInterface(bytes4)": "01ffc9a7",
					"symbol()": "95d89b41",
					"totalSupply()": "18160ddd",
					"transfer(address,uint256)": "a9059cbb",
					"transferFrom(address,address,uint256)": "23b872dd",
					"withdrawStake(uint256)": "25d5971f"
				}
			},
			"storageLayout": {
				"storage": [
					{
						"astId": 687,
						"contract": "contracts/mainFunc.sol:mainFunc",
						"label": "_balances",
						"offset": 0,
						"slot": "0",
						"type": "t_mapping(t_address,t_uint256)"
					},
					{
						"astId": 693,
						"contract": "contracts/mainFunc.sol:mainFunc",
						"label": "_allowances",
						"offset": 0,
						"slot": "1",
						"type": "t_mapping(t_address,t_mapping(t_address,t_uint256))"
					},
					{
						"astId": 695,
						"contract": "contracts/mainFunc.sol:mainFunc",
						"label": "_totalSupply",
						"offset": 0,
						"slot": "2",
						"type": "t_uint256"
					},
					{
						"astId": 697,
						"contract": "contracts/mainFunc.sol:mainFunc",
						"label": "_name",
						"offset": 0,
						"slot": "3",
						"type": "t_string_storage"
					},
					{
						"astId": 699,
						"contract": "contracts/mainFunc.sol:mainFunc",
						"label": "_symbol",
						"offset": 0,
						"slot": "4",
						"type": "t_string_storage"
					},
					{
						"astId": 1356,
						"contract": "contracts/mainFunc.sol:mainFunc",
						"label": "_paused",
						"offset": 0,
						"slot": "5",
						"type": "t_bool"
					},
					{
						"astId": 27,
						"contract": "contracts/mainFunc.sol:mainFunc",
						"label": "_roles",
						"offset": 0,
						"slot": "6",
						"type": "t_mapping(t_bytes32,t_struct(RoleData)22_storage)"
					},
					{
						"astId": 1504,
						"contract": "contracts/mainFunc.sol:mainFunc",
						"label": "feePercent",
						"offset": 0,
						"slot": "7",
						"type": "t_uint256"
					},
					{
						"astId": 1509,
						"contract": "contracts/mainFunc.sol:mainFunc",
						"label": "maxSupply",
						"offset": 0,
						"slot": "8",
						"type": "t_uint256"
					},
					{
						"astId": 1528,
						"contract": "contracts/mainFunc.sol:mainFunc",
						"label": "stakes",
						"offset": 0,
						"slot": "9",
						"type": "t_mapping(t_address,t_uint256)"
					},
					{
						"astId": 1532,
						"contract": "contracts/mainFunc.sol:mainFunc",
						"label": "stakeTimestamps",
						"offset": 0,
						"slot": "10",
						"type": "t_mapping(t_address,t_uint256)"
					},
					{
						"astId": 1535,
						"contract": "contracts/mainFunc.sol:mainFunc",
						"label": "rewardRatePerHour",
						"offset": 0,
						"slot": "11",
						"type": "t_uint256"
					},
					{
						"astId": 1540,
						"contract": "contracts/mainFunc.sol:mainFunc",
						"label": "maxStakePerUser",
						"offset": 0,
						"slot": "12",
						"type": "t_uint256"
					},
					{
						"astId": 1544,
						"contract": "contracts/mainFunc.sol:mainFunc",
						"label": "rewards",
						"offset": 0,
						"slot": "13",
						"type": "t_mapping(t_address,t_uint256)"
					}
				],
				"types": {
					"t_address": {
						"encoding": "inplace",
						"label": "address",
						"numberOfBytes": "20"
					},
					"t_bool": {
						"encoding": "inplace",
						"label": "bool",
						"numberOfBytes": "1"
					},
					"t_bytes32": {
						"encoding": "inplace",
						"label": "bytes32",
						"numberOfBytes": "32"
					},
					"t_mapping(t_address,t_bool)": {
						"encoding": "mapping",
						"key": "t_address",
						"label": "mapping(address => bool)",
						"numberOfBytes": "32",
						"value": "t_bool"
					},
					"t_mapping(t_address,t_mapping(t_address,t_uint256))": {
						"encoding": "mapping",
						"key": "t_address",
						"label": "mapping(address => mapping(address => uint256))",
						"numberOfBytes": "32",
						"value": "t_mapping(t_address,t_uint256)"
					},
					"t_mapping(t_address,t_uint256)": {
						"encoding": "mapping",
						"key": "t_address",
						"label": "mapping(address => uint256)",
						"numberOfBytes": "32",
						"value": "t_uint256"
					},
					"t_mapping(t_bytes32,t_struct(RoleData)22_storage)": {
						"encoding": "mapping",
						"key": "t_bytes32",
						"label": "mapping(bytes32 => struct AccessControl.RoleData)",
						"numberOfBytes": "32",
						"value": "t_struct(RoleData)22_storage"
					},
					"t_string_storage": {
						"encoding": "bytes",
						"label": "string",
						"numberOfBytes": "32"
					},
					"t_struct(RoleData)22_storage": {
						"encoding": "inplace",
						"label": "struct AccessControl.RoleData",
						"members": [
							{
								"astId": 19,
								"contract": "contracts/mainFunc.sol:mainFunc",
								"label": "hasRole",
								"offset": 0,
								"slot": "0",
								"type": "t_mapping(t_address,t_bool)"
							},
							{
								"astId": 21,
								"contract": "contracts/mainFunc.sol:mainFunc",
								"label": "adminRole",
								"offset": 0,
								"slot": "1",
								"type": "t_bytes32"
							}
						],
						"numberOfBytes": "64"
					},
					"t_uint256": {
						"encoding": "inplace",
						"label": "uint256",
						"numberOfBytes": "32"
					}
				}
			},
			"userdoc": {
				"kind": "user",
				"methods": {},
				"version": 1
			}
		}
	}
}